{
  "_format": "hh-sol-artifact-1",
  "contractName": "sFISH",
  "sourceName": "contracts/sFishToken.sol",
  "abi": [
    {
      "inputs": [
        {
          "internalType": "contract IERC20",
          "name": "_token",
          "type": "address"
        }
      ],
      "stateMutability": "nonpayable",
      "type": "constructor"
    },
    {
      "anonymous": false,
      "inputs": [
        {
          "indexed": true,
          "internalType": "address",
          "name": "_owner",
          "type": "address"
        },
        {
          "indexed": true,
          "internalType": "address",
          "name": "_spender",
          "type": "address"
        },
        {
          "indexed": false,
          "internalType": "uint256",
          "name": "_value",
          "type": "uint256"
        }
      ],
      "name": "Approval",
      "type": "event"
    },
    {
      "anonymous": false,
      "inputs": [
        {
          "indexed": true,
          "internalType": "address",
          "name": "_from",
          "type": "address"
        },
        {
          "indexed": true,
          "internalType": "address",
          "name": "_to",
          "type": "address"
        },
        {
          "indexed": false,
          "internalType": "uint256",
          "name": "_value",
          "type": "uint256"
        }
      ],
      "name": "Transfer",
      "type": "event"
    },
    {
      "inputs": [],
      "name": "DOMAIN_SEPARATOR",
      "outputs": [
        {
          "internalType": "bytes32",
          "name": "",
          "type": "bytes32"
        }
      ],
      "stateMutability": "view",
      "type": "function"
    },
    {
      "inputs": [],
      "name": "LOCK_TIME",
      "outputs": [
        {
          "internalType": "uint256",
          "name": "",
          "type": "uint256"
        }
      ],
      "stateMutability": "view",
      "type": "function"
    },
    {
      "inputs": [],
      "name": "_owner",
      "outputs": [
        {
          "internalType": "address",
          "name": "",
          "type": "address"
        }
      ],
      "stateMutability": "view",
      "type": "function"
    },
    {
      "inputs": [
        {
          "internalType": "address",
          "name": "",
          "type": "address"
        },
        {
          "internalType": "address",
          "name": "",
          "type": "address"
        }
      ],
      "name": "allowance",
      "outputs": [
        {
          "internalType": "uint256",
          "name": "",
          "type": "uint256"
        }
      ],
      "stateMutability": "view",
      "type": "function"
    },
    {
      "inputs": [
        {
          "internalType": "address",
          "name": "spender",
          "type": "address"
        },
        {
          "internalType": "uint256",
          "name": "amount",
          "type": "uint256"
        }
      ],
      "name": "approve",
      "outputs": [
        {
          "internalType": "bool",
          "name": "",
          "type": "bool"
        }
      ],
      "stateMutability": "nonpayable",
      "type": "function"
    },
    {
      "inputs": [
        {
          "internalType": "address",
          "name": "user",
          "type": "address"
        }
      ],
      "name": "balanceOf",
      "outputs": [
        {
          "internalType": "uint256",
          "name": "balance",
          "type": "uint256"
        }
      ],
      "stateMutability": "view",
      "type": "function"
    },
    {
      "inputs": [
        {
          "internalType": "address",
          "name": "to",
          "type": "address"
        },
        {
          "internalType": "uint256",
          "name": "shares",
          "type": "uint256"
        }
      ],
      "name": "burn",
      "outputs": [
        {
          "internalType": "bool",
          "name": "",
          "type": "bool"
        }
      ],
      "stateMutability": "nonpayable",
      "type": "function"
    },
    {
      "inputs": [
        {
          "internalType": "address",
          "name": "from",
          "type": "address"
        },
        {
          "internalType": "address",
          "name": "to",
          "type": "address"
        },
        {
          "internalType": "uint256",
          "name": "shares",
          "type": "uint256"
        }
      ],
      "name": "burnFrom",
      "outputs": [
        {
          "internalType": "bool",
          "name": "",
          "type": "bool"
        }
      ],
      "stateMutability": "nonpayable",
      "type": "function"
    },
    {
      "inputs": [],
      "name": "decimals",
      "outputs": [
        {
          "internalType": "uint8",
          "name": "",
          "type": "uint8"
        }
      ],
      "stateMutability": "view",
      "type": "function"
    },
    {
      "inputs": [
        {
          "internalType": "uint256",
          "name": "amount",
          "type": "uint256"
        }
      ],
      "name": "mint",
      "outputs": [
        {
          "internalType": "bool",
          "name": "",
          "type": "bool"
        }
      ],
      "stateMutability": "nonpayable",
      "type": "function"
    },
    {
      "inputs": [],
      "name": "name",
      "outputs": [
        {
          "internalType": "string",
          "name": "",
          "type": "string"
        }
      ],
      "stateMutability": "view",
      "type": "function"
    },
    {
      "inputs": [
        {
          "internalType": "address",
          "name": "",
          "type": "address"
        }
      ],
      "name": "nonces",
      "outputs": [
        {
          "internalType": "uint256",
          "name": "",
          "type": "uint256"
        }
      ],
      "stateMutability": "view",
      "type": "function"
    },
    {
      "inputs": [],
      "name": "owner",
      "outputs": [
        {
          "internalType": "address",
          "name": "",
          "type": "address"
        }
      ],
      "stateMutability": "view",
      "type": "function"
    },
    {
      "inputs": [
        {
          "internalType": "address",
          "name": "owner_",
          "type": "address"
        },
        {
          "internalType": "address",
          "name": "spender",
          "type": "address"
        },
        {
          "internalType": "uint256",
          "name": "value",
          "type": "uint256"
        },
        {
          "internalType": "uint256",
          "name": "deadline",
          "type": "uint256"
        },
        {
          "internalType": "uint8",
          "name": "v",
          "type": "uint8"
        },
        {
          "internalType": "bytes32",
          "name": "r",
          "type": "bytes32"
        },
        {
          "internalType": "bytes32",
          "name": "s",
          "type": "bytes32"
        }
      ],
      "name": "permit",
      "outputs": [],
      "stateMutability": "nonpayable",
      "type": "function"
    },
    {
      "inputs": [
        {
          "internalType": "uint256",
          "name": "_LOCK_TIME",
          "type": "uint256"
        }
      ],
      "name": "setLOCK_TIME",
      "outputs": [
        {
          "internalType": "bool",
          "name": "",
          "type": "bool"
        }
      ],
      "stateMutability": "nonpayable",
      "type": "function"
    },
    {
      "inputs": [],
      "name": "symbol",
      "outputs": [
        {
          "internalType": "string",
          "name": "",
          "type": "string"
        }
      ],
      "stateMutability": "view",
      "type": "function"
    },
    {
      "inputs": [],
      "name": "token",
      "outputs": [
        {
          "internalType": "contract IERC20",
          "name": "",
          "type": "address"
        }
      ],
      "stateMutability": "view",
      "type": "function"
    },
    {
      "inputs": [],
      "name": "totalSupply",
      "outputs": [
        {
          "internalType": "uint256",
          "name": "",
          "type": "uint256"
        }
      ],
      "stateMutability": "view",
      "type": "function"
    },
    {
      "inputs": [
        {
          "internalType": "address",
          "name": "to",
          "type": "address"
        },
        {
          "internalType": "uint256",
          "name": "shares",
          "type": "uint256"
        }
      ],
      "name": "transfer",
      "outputs": [
        {
          "internalType": "bool",
          "name": "",
          "type": "bool"
        }
      ],
      "stateMutability": "nonpayable",
      "type": "function"
    },
    {
      "inputs": [
        {
          "internalType": "address",
          "name": "from",
          "type": "address"
        },
        {
          "internalType": "address",
          "name": "to",
          "type": "address"
        },
        {
          "internalType": "uint256",
          "name": "shares",
          "type": "uint256"
        }
      ],
      "name": "transferFrom",
      "outputs": [
        {
          "internalType": "bool",
          "name": "",
          "type": "bool"
        }
      ],
      "stateMutability": "nonpayable",
      "type": "function"
    },
    {
      "inputs": [
        {
          "internalType": "address",
          "name": "newOwner",
          "type": "address"
        }
      ],
      "name": "transferOwnership",
      "outputs": [],
      "stateMutability": "nonpayable",
      "type": "function"
    },
    {
      "inputs": [
        {
          "internalType": "address",
          "name": "",
          "type": "address"
        }
      ],
      "name": "users",
      "outputs": [
        {
          "internalType": "uint128",
          "name": "balance",
          "type": "uint128"
        },
        {
          "internalType": "uint128",
          "name": "lockedUntil",
          "type": "uint128"
        }
      ],
      "stateMutability": "view",
      "type": "function"
    }
  ],
  "bytecode": "0x60e06040526201518060015534801561001757600080fd5b506040516200186538038062001865833981016040819052610038916100c8565b4660a081905261004781610074565b6080525060601b6001600160601b03191660c05260028054336001600160a01b0319909116179055610115565b60007f47e79534a245952e8b16893a336b85a3d9ea9fa8c573f3d803afb92a7946921882306040516020016100ab939291906100f6565b604051602081830303815290604052805190602001209050919050565b6000602082840312156100d9578081fd5b81516001600160a01b03811681146100ef578182fd5b9392505050565b92835260208301919091526001600160a01b0316604082015260600190565b60805160a05160c05160601c61170c62000159600039806104af52806105df528061090b5280610cbc5280610db0525080610bb7525080610bec525061170c6000f3fe608060405234801561001057600080fd5b50600436106101425760003560e01c80639dc29fac116100b8578063d505accf1161007c578063d505accf14610277578063dd62ed3e1461028c578063e3f0dfe71461029f578063ec60bcf3146102b2578063f2fde38b146102c5578063fc0c546a146102d857610142565b80639dc29fac14610215578063a0712d6814610228578063a87430ba1461023b578063a9059cbb1461025c578063b2bdfa7b1461026f57610142565b80633644e5151161010a5780633644e515146101c2578063413d9c3a146101ca57806370a08231146101d25780637ecebe00146101e55780638da5cb5b146101f857806395d89b411461020d57610142565b806306fdde0314610147578063095ea7b31461016557806318160ddd1461018557806323b872dd1461019a578063313ce567146101ad575b600080fd5b61014f6102e0565b60405161015c91906113ed565b60405180910390f35b61017861017336600461125a565b61030e565b60405161015c9190611368565b61018d610379565b60405161015c9190611373565b6101786101a83660046111a7565b61037f565b6101b56103a0565b60405161015c9190611683565b61018d6103a5565b61018d6103b4565b61018d6101e0366004611151565b6103ba565b61018d6101f3366004611151565b6103de565b6102006103f0565b60405161015c9190611317565b61014f6103ff565b61017861022336600461125a565b610420565b6101786102363660046112a4565b610436565b61024e610249366004611151565b610657565b60405161015c929190611669565b61017861026a36600461125a565b61067d565b61020061068a565b61028a6102853660046111e7565b610699565b005b61018d61029a366004611173565b61083a565b6101786102ad3660046112a4565b610857565b6101786102c03660046111a7565b610891565b61028a6102d3366004611151565b6108a8565b610200610909565b604051806040016040528060128152602001715374616b6564204649534820546f6b656e7360701b81525081565b3360008181526004602090815260408083206001600160a01b038716808552925280832085905551919290917f8c5be1e5ebec7d5bd14f71427d1e84f3dd0314c0f7b2291e5b200ac8c7c3b92590610367908690611373565b60405180910390a35060015b92915050565b60005481565b600061038b848361092d565b6103968484846109bf565b5060019392505050565b601281565b60006103af610bb2565b905090565b60015481565b6001600160a01b03166000908152600360205260409020546001600160801b031690565b60056020526000908152604090205481565b6002546001600160a01b031690565b604051806040016040528060058152602001640e68c92a6960db1b81525081565b600061042d338484610c12565b50600192915050565b60003361045e5760405162461bcd60e51b815260040161045590611538565b60405180910390fd5b610466611123565b503360009081526003602090815260408083208151808301835290546001600160801b038082168352600160801b9091041692810192909252516370a0823160e01b81529091907f00000000000000000000000000000000000000000000000000000000000000006001600160a01b0316906370a08231906104ec903090600401611317565b60206040518083038186803b15801561050457600080fd5b505afa158015610518573d6000803e3d6000fd5b505050506040513d601f19601f8201168201806040525081019061053c91906112bc565b90506000805460001461055c578160005486028161055657fe5b0461055e565b845b905061056981610e2a565b8351016001600160801b03168352600154610585904201610e2a565b6001600160801b0390811660208086019182523360008181526003909252604082208751815494518616600160801b029086166001600160801b031990951694909417909416929092179092558154830190915561060f907f00000000000000000000000000000000000000000000000000000000000000006001600160a01b0316903088610e57565b60405133906000907fddf252ad1be2c89b69c2b068fc378daa952ba7f163c4a11628f55a4df523b3ef90610644908590611373565b60405180910390a3506001949350505050565b6003602052600090815260409020546001600160801b0380821691600160801b90041682565b600061042d3384846109bf565b6002546001600160a01b031681565b6001600160a01b0387166106bf5760405162461bcd60e51b815260040161045590611624565b8342106106de5760405162461bcd60e51b815260040161045590611648565b6001600160a01b038716600081815260056020908152604091829020805460018181019092559251909261075c92610741927f6e71edae12b1b97f4d1f60370fef10105fa2faae0126114a169c64845d6126c9928e928e928e92918e910161137c565b60405160208183030381529060405280519060200120610f50565b8585856040516000815260200160405260405161077c94939291906113cf565b6020604051602081039080840390855afa15801561079e573d6000803e3d6000fd5b505050602060405103516001600160a01b0316146107ce5760405162461bcd60e51b8152600401610455906115ca565b6001600160a01b038088166000818152600460209081526040808320948b168084529490915290819020889055517f8c5be1e5ebec7d5bd14f71427d1e84f3dd0314c0f7b2291e5b200ac8c7c3b92590610829908990611373565b60405180910390a350505050505050565b600460209081526000928352604080842090915290825290205481565b6000336108626103f0565b6001600160a01b0316146108885760405162461bcd60e51b815260040161045590611595565b50600190815590565b600061089d848361092d565b610396848484610c12565b336108b16103f0565b6001600160a01b0316146108d75760405162461bcd60e51b815260040161045590611595565b6001600160a01b0381166108fd5760405162461bcd60e51b8152600401610455906114a6565b61090681610fa5565b50565b7f000000000000000000000000000000000000000000000000000000000000000081565b336001600160a01b0383161415610943576109bb565b6001600160a01b038216600090815260046020908152604080832033845290915290205460001981146109b957818110156109905760405162461bcd60e51b8152600401610455906114ec565b6001600160a01b0383166000908152600460209081526040808320338452909152902082820390555b505b5050565b6109c7611123565b506001600160a01b0383166000908152600360209081526040918290208251808401909352546001600160801b038082168452600160801b90910416908201819052421015610a285760405162461bcd60e51b81526004016104559061144f565b8115610b615780516001600160801b0316821115610a585760405162461bcd60e51b815260040161045590611513565b826001600160a01b0316846001600160a01b031614610b61576001600160a01b038316610a975760405162461bcd60e51b815260040161045590611538565b610a9f611123565b506001600160a01b0383166000908152600360209081526040918290208251808401909352546001600160801b038082168452600160801b9091041690820152610ae883610e2a565b82516001600160a01b038716600090815260036020526040902080546001600160801b031916929091036001600160801b0316919091179055610b2a83610e2a565b90516001600160a01b038516600090815260036020526040902080546001600160801b031916919092016001600160801b03161790555b826001600160a01b0316846001600160a01b03167fddf252ad1be2c89b69c2b068fc378daa952ba7f163c4a11628f55a4df523b3ef84604051610ba49190611373565b60405180910390a350505050565b6000467f00000000000000000000000000000000000000000000000000000000000000008114610bea57610be581610fc7565b610c0c565b7f00000000000000000000000000000000000000000000000000000000000000005b91505090565b6001600160a01b038216610c385760405162461bcd60e51b815260040161045590611538565b610c40611123565b506001600160a01b0383166000908152600360209081526040918290208251808401909352546001600160801b038082168452600160801b90910416908201819052421015610ca15760405162461bcd60e51b81526004016104559061144f565b600080546040516370a0823160e01b81526001600160a01b037f000000000000000000000000000000000000000000000000000000000000000016906370a0823190610cf1903090600401611317565b60206040518083038186803b158015610d0957600080fd5b505afa158015610d1d573d6000803e3d6000fd5b505050506040513d601f19601f82011682018060405250810190610d4191906112bc565b840281610d4a57fe5b049050610d6a610d5984610e2a565b83516001600160801b031690610ffe565b6001600160a01b03868116600090815260036020526040812080546001600160801b0319166001600160801b0394909416939093179092558154859003909155610dd7907f000000000000000000000000000000000000000000000000000000000000000016858361102d565b60006001600160a01b0316856001600160a01b03167fddf252ad1be2c89b69c2b068fc378daa952ba7f163c4a11628f55a4df523b3ef85604051610e1b9190611373565b60405180910390a35050505050565b60006001600160801b03821115610e535760405162461bcd60e51b81526004016104559061155e565b5090565b60006060856001600160a01b03166323b872dd60e01b868686604051602401610e829392919061132b565b60408051601f198184030181529181526020820180516001600160e01b03166001600160e01b0319909416939093179092529051610ec091906112d4565b6000604051808303816000865af19150503d8060008114610efd576040519150601f19603f3d011682016040523d82523d6000602084013e610f02565b606091505b5091509150818015610f2c575080511580610f2c575080806020019051810190610f2c9190611284565b610f485760405162461bcd60e51b8152600401610455906115ef565b505050505050565b600060405180604001604052806002815260200161190160f01b815250610f75610bb2565b83604051602001610f88939291906112f0565b604051602081830303815290604052805190602001209050919050565b600280546001600160a01b0319166001600160a01b0392909216919091179055565b60007f47e79534a245952e8b16893a336b85a3d9ea9fa8c573f3d803afb92a794692188230604051602001610f88939291906113b0565b8082036001600160801b0380841690821611156103735760405162461bcd60e51b815260040161045590611420565b60006060846001600160a01b031663a9059cbb60e01b858560405160240161105692919061134f565b60408051601f198184030181529181526020820180516001600160e01b03166001600160e01b031990941693909317909252905161109491906112d4565b6000604051808303816000865af19150503d80600081146110d1576040519150601f19603f3d011682016040523d82523d6000602084013e6110d6565b606091505b50915091508180156111005750805115806111005750808060200190518101906111009190611284565b61111c5760405162461bcd60e51b81526004016104559061146f565b5050505050565b604080518082019091526000808252602082015290565b80356001600160a01b038116811461037357600080fd5b600060208284031215611162578081fd5b61116c838361113a565b9392505050565b60008060408385031215611185578081fd5b61118f848461113a565b915061119e846020850161113a565b90509250929050565b6000806000606084860312156111bb578081fd5b83356111c6816116c1565b925060208401356111d6816116c1565b929592945050506040919091013590565b600080600080600080600060e0888a031215611201578283fd5b61120b898961113a565b965061121a8960208a0161113a565b95506040880135945060608801359350608088013560ff8116811461123d578384fd5b9699959850939692959460a0840135945060c09093013592915050565b6000806040838503121561126c578182fd5b611276848461113a565b946020939093013593505050565b600060208284031215611295578081fd5b8151801515811461116c578182fd5b6000602082840312156112b5578081fd5b5035919050565b6000602082840312156112cd578081fd5b5051919050565b600082516112e6818460208701611691565b9190910192915050565b60008451611302818460208901611691565b91909101928352506020820152604001919050565b6001600160a01b0391909116815260200190565b6001600160a01b039384168152919092166020820152604081019190915260600190565b6001600160a01b03929092168252602082015260400190565b901515815260200190565b90815260200190565b9586526001600160a01b0394851660208701529290931660408501526060840152608083019190915260a082015260c00190565b92835260208301919091526001600160a01b0316604082015260600190565b93845260ff9290921660208401526040830152606082015260800190565b600060208252825180602084015261140c816040850160208701611691565b601f01601f19169190910160400192915050565b602080825260159082015274426f72696e674d6174683a20556e646572666c6f7760581b604082015260600190565b602080825260069082015265131bd8dad95960d21b604082015260600190565b6020808252601c908201527f426f72696e6745524332303a205472616e73666572206661696c656400000000604082015260600190565b60208082526026908201527f4f776e61626c653a206e6577206f776e657220697320746865207a65726f206160408201526564647265737360d01b606082015260800190565b6020808252600d908201526c4c6f7720616c6c6f77616e636560981b604082015260600190565b6020808252600b908201526a4c6f772062616c616e636560a81b604082015260600190565b6020808252600c908201526b5a65726f206164647265737360a01b604082015260600190565b6020808252601c908201527f426f72696e674d6174683a2075696e74313238204f766572666c6f7700000000604082015260600190565b6020808252818101527f4f776e61626c653a2063616c6c6572206973206e6f7420746865206f776e6572604082015260600190565b6020808252600b908201526a496e76616c69642053696760a81b604082015260600190565b6020808252818101527f426f72696e6745524332303a205472616e7366657246726f6d206661696c6564604082015260600190565b6020808252600a90820152692d32b9379037bbb732b960b11b604082015260600190565b602080825260079082015266115e1c1a5c995960ca1b604082015260600190565b6001600160801b0392831681529116602082015260400190565b60ff91909116815260200190565b60005b838110156116ac578181015183820152602001611694565b838111156116bb576000848401525b50505050565b6001600160a01b038116811461090657600080fdfea26469706673582212201074f896588f831636e42979ab060e39a67885869d7bae19b304c9c47bc4cae764736f6c634300060c0033",
  "linkReferences": {},
  "deployedLinkReferences": {}
}