{
  "_format": "hh-sol-artifact-1",
  "contractName": "FISHOracle",
  "sourceName": "contracts/fishOracle.sol",
  "abi": [
    {
      "inputs": [],
      "name": "FISH",
      "outputs": [
        {
          "internalType": "address",
          "name": "",
          "type": "address"
        }
      ],
      "stateMutability": "view",
      "type": "function"
    },
    {
      "inputs": [],
      "name": "FISH_USDC",
      "outputs": [
        {
          "internalType": "contract IUniswapV2Pair",
          "name": "",
          "type": "address"
        }
      ],
      "stateMutability": "view",
      "type": "function"
    },
    {
      "inputs": [],
      "name": "PERIOD",
      "outputs": [
        {
          "internalType": "uint256",
          "name": "",
          "type": "uint256"
        }
      ],
      "stateMutability": "view",
      "type": "function"
    },
    {
      "inputs": [
        {
          "internalType": "uint32",
          "name": "blockTimestamp",
          "type": "uint32"
        }
      ],
      "name": "_get",
      "outputs": [
        {
          "internalType": "uint256",
          "name": "",
          "type": "uint256"
        }
      ],
      "stateMutability": "view",
      "type": "function"
    },
    {
      "inputs": [
        {
          "internalType": "bytes",
          "name": "data",
          "type": "bytes"
        }
      ],
      "name": "get",
      "outputs": [
        {
          "internalType": "bool",
          "name": "",
          "type": "bool"
        },
        {
          "internalType": "uint256",
          "name": "",
          "type": "uint256"
        }
      ],
      "stateMutability": "nonpayable",
      "type": "function"
    },
    {
      "inputs": [
        {
          "internalType": "contract IUniswapV2Pair",
          "name": "_FISH_USDC",
          "type": "address"
        },
        {
          "internalType": "address",
          "name": "_FISH",
          "type": "address"
        }
      ],
      "name": "initialize",
      "outputs": [],
      "stateMutability": "nonpayable",
      "type": "function"
    },
    {
      "inputs": [
        {
          "internalType": "bytes",
          "name": "",
          "type": "bytes"
        }
      ],
      "name": "name",
      "outputs": [
        {
          "internalType": "string",
          "name": "",
          "type": "string"
        }
      ],
      "stateMutability": "view",
      "type": "function"
    },
    {
      "inputs": [],
      "name": "pairInfo",
      "outputs": [
        {
          "internalType": "uint256",
          "name": "priceCumulativeLast",
          "type": "uint256"
        },
        {
          "internalType": "uint32",
          "name": "blockTimestampLast",
          "type": "uint32"
        },
        {
          "internalType": "uint144",
          "name": "priceAverage",
          "type": "uint144"
        }
      ],
      "stateMutability": "view",
      "type": "function"
    },
    {
      "inputs": [
        {
          "internalType": "bytes",
          "name": "data",
          "type": "bytes"
        }
      ],
      "name": "peek",
      "outputs": [
        {
          "internalType": "bool",
          "name": "",
          "type": "bool"
        },
        {
          "internalType": "uint256",
          "name": "",
          "type": "uint256"
        }
      ],
      "stateMutability": "view",
      "type": "function"
    },
    {
      "inputs": [
        {
          "internalType": "bytes",
          "name": "data",
          "type": "bytes"
        }
      ],
      "name": "peekSpot",
      "outputs": [
        {
          "internalType": "uint256",
          "name": "rate",
          "type": "uint256"
        }
      ],
      "stateMutability": "view",
      "type": "function"
    },
    {
      "inputs": [
        {
          "internalType": "bytes",
          "name": "",
          "type": "bytes"
        }
      ],
      "name": "symbol",
      "outputs": [
        {
          "internalType": "string",
          "name": "",
          "type": "string"
        }
      ],
      "stateMutability": "view",
      "type": "function"
    }
  ],
  "bytecode": "0x608060405234801561001057600080fd5b50611125806100206000396000f3fe608060405234801561001057600080fd5b50600436106100a95760003560e01c8063d39bbef011610071578063d39bbef014610129578063d568866c1461013c578063d6d7d5251461014f578063eeb8a8d314610170578063fc2a5b1d14610183578063ffcff32c1461019a576100a9565b8063485cc955146100ae5780634a0972a3146100c35780634d032d8d146100e1578063b4d1d79514610101578063c699c4d614610109575b600080fd5b6100c16100bc366004610d51565b6101a2565b005b6100cb610263565b6040516100d89190610e03565b60405180910390f35b6100f46100ef366004610de7565b610278565b6040516100d89190610fee565b6100f46105b9565b61011c610117366004610ce4565b6105be565b6040516100d89190610e27565b6100f4610137366004610ce4565b6105e0565b61011c61014a366004610ce4565b610780565b61016261015d366004610ce4565b6107ac565b6040516100d8929190610e17565b61016261017e366004610ce4565b610933565b61018b610a17565b6040516100d893929190610ff7565b6100cb610a39565b600054610100900460ff16806101bb575060005460ff16155b6101e05760405162461bcd60e51b81526004016101d790610efb565b60405180910390fd5b600054610100900460ff1615801561020b576000805460ff1961ff0019909116610100171660011790555b6000805462010000600160b01b031916620100006001600160a01b038681169190910291909117909155600180546001600160a01b031916918416919091179055801561025e576000805461ff00191690555b505050565b6000546201000090046001600160a01b031681565b600080600080600060029054906101000a90046001600160a01b03166001600160a01b0316630902f1ac6040518163ffffffff1660e01b815260040160606040518083038186803b1580156102cc57600080fd5b505afa1580156102e0573d6000803e3d6000fd5b505050506040513d601f19601f820116820180604052508101906103049190610d89565b92509250925060008060029054906101000a90046001600160a01b03166001600160a01b0316630dfe16816040518163ffffffff1660e01b815260040160206040518083038186803b15801561035957600080fd5b505afa15801561036d573d6000803e3d6000fd5b505050506040513d601f19601f820116820180604052508101906103919190610cc8565b6001546001600160a01b0390811691161461043157600060029054906101000a90046001600160a01b03166001600160a01b0316635a3d54936040518163ffffffff1660e01b815260040160206040518083038186803b1580156103f457600080fd5b505afa158015610408573d6000803e3d6000fd5b505050506040513d601f19601f8201168201806040525081019061042c9190610dcf565b6104b7565b600060029054906101000a90046001600160a01b03166001600160a01b0316635909c0d56040518163ffffffff1660e01b815260040160206040518083038186803b15801561047f57600080fd5b505afa158015610493573d6000803e3d6000fd5b505050506040513d601f19601f820116820180604052508101906104b79190610dcf565b9050600060029054906101000a90046001600160a01b03166001600160a01b0316630dfe16816040518163ffffffff1660e01b815260040160206040518083038186803b15801561050757600080fd5b505afa15801561051b573d6000803e3d6000fd5b505050506040513d601f19601f8201168201806040525081019061053f9190610cc8565b6001546001600160a01b0390811691161461055b57838361055e565b82845b909450925061056d828761108a565b63ffffffff1661058f856001600160701b0316856001600160701b0316610a48565b516105a391906001600160e01b0316611054565b6105ad908261101c565b9450505050505b919050565b603c81565b60408051808201909152600481526308c92a6960e31b60208201525b92915050565b60008060008060029054906101000a90046001600160a01b03166001600160a01b0316630902f1ac6040518163ffffffff1660e01b815260040160606040518083038186803b15801561063257600080fd5b505afa158015610646573d6000803e3d6000fd5b505050506040513d601f19601f8201168201806040525081019061066a9190610d89565b506001600160701b031691506001600160701b03169150600060029054906101000a90046001600160a01b03166001600160a01b0316630dfe16816040518163ffffffff1660e01b815260040160206040518083038186803b1580156106cf57600080fd5b505afa1580156106e3573d6000803e3d6000fd5b505050506040513d601f19601f820116820180604052508101906107079190610cc8565b6001546001600160a01b03908116911614610723578181610726565b80825b909250905061075a8161074184670de0b6b3a7640000610b02565b61074b9190611034565b670de0b6b3a764000090610b02565b610777906f29c30f1029939b146664242d97d9f64960361b611034565b95945050505050565b505060408051808201909152601081526f464953485f55534443204f7261636c6560801b602082015290565b6003546000908190429063ffffffff166107ee576003805463ffffffff191663ffffffff83161790556107de81610278565b600255506000915081905061092c565b6003546000906108049063ffffffff168361108a565b9050603c8163ffffffff1610156108365750506003546001925064010000000090046001600160901b0316905061092c565b600061084183610278565b90506108b0610898610893670de0b6b3a764000060405180602001604052808763ffffffff16600260000154886108789190611073565b6108829190611034565b6001600160e01b0316905290610b42565b610ba9565b670de0b6b3a7640000906001600160901b0316610b02565b6108cd906f29c30f1029939b146664242d97d9f64960361b611034565b6003805463ffffffff90951663ffffffff196001600160901b0393841664010000000090810275ffffffffffffffffffffffffffffffffffff000000001990981697909717161790819055600292909255600195509290049091169150505b9250929050565b6003546000908190429063ffffffff1661095457600080925092505061092c565b60035460009061096a9063ffffffff168361108a565b9050603c8163ffffffff16101561099c5750506003546001925064010000000090046001600160901b0316905061092c565b60006109a783610278565b905060006109e0610898610893670de0b6b3a764000060405180602001604052808863ffffffff16600260000154896108789190611073565b6109fd906f29c30f1029939b146664242d97d9f64960361b611034565b600196506001600160901b03169450505050509250929050565b60025460035463ffffffff81169064010000000090046001600160901b031683565b6001546001600160a01b031681565b610a50610c8c565b60008211610a705760405162461bcd60e51b81526004016101d790610f80565b82610a8a57506040805160208101909152600081526105da565b6001600160901b038311610af1576000610aa883607086901b611034565b90506001600160e01b03811115610ad15760405162461bcd60e51b81526004016101d790610f49565b6040518060200160405280826001600160e01b03168152509150506105da565b6000610aa884600160701b85610bb0565b6000811580610b2657508282610b188183611054565b9250610b249083611034565b145b6105da5760405162461bcd60e51b81526004016101d790610fb7565b610b4a610c9e565b6000821580610b78575083516001600160e01b031683610b6a8183611054565b9250610b769083611034565b145b610b945760405162461bcd60e51b81526004016101d790610ec4565b60408051602081019091529081529392505050565b5160701c90565b6000808060001985870986860292508281109083900303905080610bf95760008411610bee5760405162461bcd60e51b81526004016101d790610e7a565b508290049050610c85565b808411610c0557600080fd5b600084868809808403938111909203919050600085610c268119600161101c565b16958690049560008181038290046001018581029290960491909101949150610c50876003611054565b600290811888810282030280890282030280890282030280890282030280890282030280890290910302949094029450505050505b9392505050565b60408051602081019091526000815290565b6040518060200160405280600081525090565b80516001600160701b03811681146105b457600080fd5b600060208284031215610cd9578081fd5b8151610c85816110c5565b60008060208385031215610cf6578081fd5b823567ffffffffffffffff80821115610d0d578283fd5b818501915085601f830112610d20578283fd5b813581811115610d2e578384fd5b866020828501011115610d3f578384fd5b60209290920196919550909350505050565b60008060408385031215610d63578182fd5b8235610d6e816110c5565b91506020830135610d7e816110c5565b809150509250929050565b600080600060608486031215610d9d578081fd5b610da684610cb1565b9250610db460208501610cb1565b91506040840151610dc4816110dd565b809150509250925092565b600060208284031215610de0578081fd5b5051919050565b600060208284031215610df8578081fd5b8135610c85816110dd565b6001600160a01b0391909116815260200190565b9115158252602082015260400190565b6000602080835283518082850152825b81811015610e5357858101830151858201604001528201610e37565b81811115610e645783604083870101525b50601f01601f1916929092016040019392505050565b6020808252602a908201527f46756c6c4d6174683a2064656e6f6d696e61746f722073686f756c6420626520604082015269036b7b932903d32b937960b51b606082015260800190565b60208082526019908201527f4669786564506f696e743a3a6d756c3a206f766572666c6f7700000000000000604082015260600190565b6020808252602e908201527f496e697469616c697a61626c653a20636f6e747261637420697320616c72656160408201526d191e481a5b9a5d1a585b1a5e995960921b606082015260800190565b6020808252601e908201527f4669786564506f696e743a3a6672616374696f6e3a206f766572666c6f770000604082015260600190565b6020808252601e908201527f4669786564506f696e743a3a6672616374696f6e3a2064697620627920300000604082015260600190565b60208082526018908201527f426f72696e674d6174683a204d756c204f766572666c6f770000000000000000604082015260600190565b90815260200190565b92835263ffffffff9190911660208301526001600160901b0316604082015260600190565b6000821982111561102f5761102f6110af565b500190565b60008261104f57634e487b7160e01b81526012600452602481fd5b500490565b600081600019048311821515161561106e5761106e6110af565b500290565b600082821015611085576110856110af565b500390565b600063ffffffff838116908316818110156110a7576110a76110af565b039392505050565b634e487b7160e01b600052601160045260246000fd5b6001600160a01b03811681146110da57600080fd5b50565b63ffffffff811681146110da57600080fdfea26469706673582212206413b9d08ad5231de118437db5e3e880e3a744f59c01093b7c8c8afdd6a669d964736f6c63430008000033",
  "linkReferences": {},
  "deployedLinkReferences": {}
}