{
	"data": {
		"bytecode": {
			"linkReferences": {},
			"object": "608060405234801561001057600080fd5b50613af9806100206000396000f3fe608060405234801561001057600080fd5b50600436106102695760003560e01c80636352211e11610151578063a235c42a116100c3578063e20ccec311610087578063e20ccec314610518578063e770cbec14610520578063e985e9c514610533578063f2fde38b14610546578063fad3f8f714610559578063ffcff32c1461056157610269565b8063a235c42a146104b9578063b88d4fde146104cc578063bcb23199146104df578063c87b56dd146104f2578063d405d32a1461050557610269565b8063799f6a7111610115578063799f6a711461045d57806379cc67901461047057806381221c14146104835780638da5cb5b1461049657806395d89b411461049e578063a22cb465146104a657610269565b80636352211e1461041f5780636bc64e0f146104325780636d5a74111461043a57806370a0823114610442578063715018a61461045557610269565b806323b872dd116101ea57806342966c68116101ae57806342966c68146103c357806348c7e528146103d65780634e71d92d146103e95780634f6ccce7146103f157806355f804b3146104045780636043903d1461041757610269565b806323b872dd1461036f5780632ae299d8146103825780632f745c59146103955780633d8adfd0146103a857806342842e0e146103b057610269565b806318160ddd1161023157806318160ddd146102f45780631959a002146103095780631bcaf15c146103295780631e1bff3f1461033c5780631f8bc7901461034f57610269565b806301ffc9a71461026e57806306fdde0314610297578063077f224a146102ac578063081812fc146102c1578063095ea7b3146102e1575b600080fd5b61028161027c366004612d6d565b610569565b60405161028e91906130df565b60405180910390f35b61029f610596565b60405161028e91906130ea565b6102bf6102ba366004612dd8565b610629565b005b6102d46102cf366004612e49565b61077f565b60405161028e919061307f565b6102bf6102ef366004612ca2565b6107c2565b6102fc61085a565b60405161028e9190612f2a565b61031c610317366004612b6c565b610860565b60405161028e91906138b8565b610281610337366004612ec1565b6108ab565b61028161034a366004612c6c565b610903565b61036261035d366004612e49565b610973565b60405161028e9190613872565b6102bf61037d366004612bb8565b610a4b565b610281610390366004612e61565b610a83565b6102fc6103a3366004612ca2565b610ac9565b61029f610b1b565b6102bf6103be366004612bb8565b610ba9565b6102816103d1366004612e49565b610bc4565b6102816103e4366004612b6c565b610c73565b610281610c88565b6102fc6103ff366004612e49565b610e58565b610281610412366004612da5565b610eb3565b610281610f07565b6102d461042d366004612e49565b610f11565b6102fc610f46565b6102fc610f4d565b6102fc610450366004612b6c565b610f53565b6102bf610f97565b61028161046b366004612cfd565b610fe2565b61028161047e366004612ca2565b611028565b610281610491366004612e49565b61110e565b6102d4611158565b61029f611167565b6102bf6104b4366004612c6c565b611176565b6102816104c7366004612d35565b61118c565b6102bf6104da366004612bf3565b6111e5565b6102fc6104ed366004612e49565b61121e565b61029f610500366004612e49565b611231565b610281610513366004612ccb565b61128a565b6102fc6112f3565b61028161052e366004612e49565b611353565b610281610541366004612b86565b61139e565b6102bf610554366004612b6c565b6113cc565b6102fc61143d565b6102d4611443565b60006001600160e01b0319821663780e9d6360e01b148061058e575061058e82611452565b90505b919050565b6060606580546105a5906139f3565b80601f01602080910402602001604051908101604052809291908181526020018280546105d1906139f3565b801561061e5780601f106105f35761010080835404028352916020019161061e565b820191906000526020600020905b81548152906001019060200180831161060157829003601f168201915b505050505090505b90565b600054610100900460ff1680610642575060005460ff16155b6106675760405162461bcd60e51b815260040161065e90613559565b60405180910390fd5b600054610100900460ff16158015610692576000805460ff1961ff0019909116610100171660011790555b60fe80546001600160a01b0319166001600160a01b0384161790556103e860ff55610101805460ff191690556106c88484611492565b6106d0611522565b33600090815260fb602090815260408220805460ff191660011790556101029052621275007f565a22c1af7fcc038f06206699a6bd0ad8c85d23dafe9aebac3e0df68e8fb32055620d2f007f902d1eb9cb7bf5a8087a0aabaf00b340029088a7a2af68d406d96c3be8e809b65560029052620697807f063d980b5c5548cb989f6490438b07e26341c13b66c4c5c44a5999177ff6207c558015610779576000805461ff00191690555b50505050565b600061078a826115a6565b6107a65760405162461bcd60e51b815260040161065e9061362d565b506000908152606960205260409020546001600160a01b031690565b60006107cd82610f11565b9050806001600160a01b0316836001600160a01b031614156108015760405162461bcd60e51b815260040161065e906136f7565b806001600160a01b03166108136115c3565b6001600160a01b0316148061082f575061082f816105416115c3565b61084b5760405162461bcd60e51b815260040161065e90613469565b61085583836115c7565b505050565b60995490565b6108686129e4565b506001600160a01b031660009081526101046020908152604091829020825160608101845281548152600182015492810192909252600201549181019190915290565b60006108b56115c3565b6001600160a01b03166108c6611158565b6001600160a01b0316146108ec5760405162461bcd60e51b815260040161065e90613679565b506000918252610102602052604090912055600190565b600061090d6115c3565b6001600160a01b031661091e611158565b6001600160a01b0316146109445760405162461bcd60e51b815260040161065e90613679565b506001600160a01b038216600090815260fb60205260409020805482151560ff19909116179055600192915050565b61097b612a05565b60008281526101036020526040908190208151608081019092528054829082906109a4906139f3565b80601f01602080910402602001604051908101604052809291908181526020018280546109d0906139f3565b8015610a1d5780601f106109f257610100808354040283529160200191610a1d565b820191906000526020600020905b815481529060010190602001808311610a0057829003601f168201915b5050505050815260200160018201548152602001600282015481526020016003820154815250509050919050565b610a5c610a566115c3565b82611635565b610a785760405162461bcd60e51b815260040161065e9061377b565b6108558383836116b2565b33600090815260fb602052604081205460ff16610ab25760405162461bcd60e51b815260040161065e906132be565b610abf86868686866117df565b9695505050505050565b6000610ad483610f53565b8210610af25760405162461bcd60e51b815260040161065e90613127565b506001600160a01b03919091166000908152609760209081526040808320938352929052205490565b60fd8054610b28906139f3565b80601f0160208091040260200160405190810160405280929190818152602001828054610b54906139f3565b8015610ba15780601f10610b7657610100808354040283529160200191610ba1565b820191906000526020600020905b815481529060010190602001808311610b8457829003601f168201915b505050505081565b610855838383604051806020016040528060008152506111e5565b6000610bcf82610f11565b6001600160a01b0316336001600160a01b031614610bff5760405162461bcd60e51b815260040161065e90613818565b610c07611852565b50336000908152610104602090815260408083204281558584526101038084528285206002808201548752610102865293862054600180850191909155958890529352929091015490820154610c5c916118b8565b6002820155610c6a836118cb565b50600192915050565b60fb6020526000908152604090205460ff1681565b336000908152610104602052604081206002810154610cb95760405162461bcd60e51b815260040161065e9061337d565b8054600090610cc9904290611972565b905081600101548110610d755760fe5460028301546040516340c10f1960e01b81526001600160a01b03909216916340c10f1991610d0c913391906004016130c6565b602060405180830381600087803b158015610d2657600080fd5b505af1158015610d3a573d6000803e3d6000fd5b505050506040513d601f19601f82011682018060405250810190610d5e9190612d51565b504282556000600283018190556001830155610e4f565b6000610d9c8360010154610d9685600201548561197e90919063ffffffff16565b9061198a565b60fe546040516340c10f1960e01b81529192506001600160a01b0316906340c10f1990610dcf90339085906004016130c6565b602060405180830381600087803b158015610de957600080fd5b505af1158015610dfd573d6000803e3d6000fd5b505050506040513d601f19601f82011682018060405250810190610e219190612d51565b504283556002830154610e349082611972565b60028401556001830154610e489083611972565b6001840155505b60019250505090565b6000610e6261085a565b8210610e805760405162461bcd60e51b815260040161065e906137cc565b60998281548110610ea157634e487b7160e01b600052603260045260246000fd5b90600052602060002001549050919050565b6000610ebd6115c3565b6001600160a01b0316610ece611158565b6001600160a01b031614610ef45760405162461bcd60e51b815260040161065e90613679565b8151610c6a9060fd906020850190612a2d565b6101015460ff1681565b6000818152606760205260408120546001600160a01b03168061058e5760405162461bcd60e51b815260040161065e90613510565b6101005481565b60fc5481565b60006001600160a01b038216610f7b5760405162461bcd60e51b815260040161065e906134c6565b506001600160a01b031660009081526068602052604090205490565b610f9f6115c3565b6001600160a01b0316610fb0611158565b6001600160a01b031614610fd65760405162461bcd60e51b815260040161065e90613679565b610fe06000611996565b565b33600090815260fb602052604081205460ff166110115760405162461bcd60e51b815260040161065e906132be565b61101d858585856119e8565b90505b949350505050565b33600090815260fb602052604081205460ff166110575760405162461bcd60e51b815260040161065e906132be565b61106082610f11565b6001600160a01b0316836001600160a01b0316146110905760405162461bcd60e51b815260040161065e90613818565b611098611852565b506001600160a01b03831660009081526101046020908152604080832042815585845261010380845282852060028082015487526101028652938620546001808501919091559588905293529290910154908201546110f6916118b8565b6002820155611104836118cb565b5060019392505050565b60006111186115c3565b6001600160a01b0316611129611158565b6001600160a01b03161461114f5760405162461bcd60e51b815260040161065e90613679565b5060ff55600190565b60c9546001600160a01b031690565b6060606680546105a5906139f3565b6111886111816115c3565b8383611a36565b5050565b60006111966115c3565b6001600160a01b03166111a7611158565b6001600160a01b0316146111cd5760405162461bcd60e51b815260040161065e90613679565b50610101805460ff1916911515919091179055600190565b6111f66111f06115c3565b83611635565b6112125760405162461bcd60e51b815260040161065e9061377b565b61077984848484611ad9565b6101026020526000908152604090205481565b606061123c826115a6565b6112585760405162461bcd60e51b815260040161065e906135dc565b60fd61126383611b0c565b604051602001611274929190612f41565b6040516020818303038152906040529050919050565b33600090815260fb602052604081205460ff166112b95760405162461bcd60e51b815260040161065e906132be565b33600090815260fb602052604090205460ff166112e85760405162461bcd60e51b815260040161065e906130fd565b611020848484611c27565b3360009081526101046020526040812080548290611312904290611972565b90508160010154811061132b5750600201549050610626565b61134a8260010154610d9684600201548461197e90919063ffffffff16565b92505050610626565b600061135d6115c3565b6001600160a01b031661136e611158565b6001600160a01b0316146113945760405162461bcd60e51b815260040161065e90613679565b5061010055600190565b6001600160a01b039182166000908152606a6020908152604080832093909416825291909152205460ff1690565b6113d46115c3565b6001600160a01b03166113e5611158565b6001600160a01b03161461140b5760405162461bcd60e51b815260040161065e90613679565b6001600160a01b0381166114315760405162461bcd60e51b815260040161065e906131c4565b61143a81611996565b50565b60ff5481565b60fe546001600160a01b031681565b60006001600160e01b031982166380ac58cd60e01b148061148357506001600160e01b03198216635b5e139f60e01b145b8061058e575061058e82611ef0565b600054610100900460ff16806114ab575060005460ff16155b6114c75760405162461bcd60e51b815260040161065e90613559565b600054610100900460ff161580156114f2576000805460ff1961ff0019909116610100171660011790555b6114fa611f09565b611502611f09565b61150c8383611f7c565b8015610855576000805461ff0019169055505050565b600054610100900460ff168061153b575060005460ff16155b6115575760405162461bcd60e51b815260040161065e90613559565b600054610100900460ff16158015611582576000805460ff1961ff0019909116610100171660011790555b61158a611f09565b61159261201a565b801561143a576000805461ff001916905550565b6000908152606760205260409020546001600160a01b0316151590565b3390565b600081815260696020526040902080546001600160a01b0319166001600160a01b03841690811790915581906115fc82610f11565b6001600160a01b03167f8c5be1e5ebec7d5bd14f71427d1e84f3dd0314c0f7b2291e5b200ac8c7c3b92560405160405180910390a45050565b6000611640826115a6565b61165c5760405162461bcd60e51b815260040161065e9061341d565b600061166783610f11565b9050806001600160a01b0316846001600160a01b031614806116a25750836001600160a01b03166116978461077f565b6001600160a01b0316145b806110205750611020818561139e565b826001600160a01b03166116c582610f11565b6001600160a01b0316146116eb5760405162461bcd60e51b815260040161065e906136ae565b6001600160a01b0382166117115760405162461bcd60e51b815260040161065e90613302565b61171c83838361208a565b6117276000826115c7565b6001600160a01b03831660009081526068602052604081208054600192906117509084906139b0565b90915550506001600160a01b038216600090815260686020526040812080546001929061177e908490613926565b909155505060008181526067602052604080822080546001600160a01b0319166001600160a01b0386811691821790925591518493918716917fddf252ad1be2c89b69c2b068fc378daa952ba7f163c4a11628f55a4df523b3ef91a4505050565b604080516080810182528581526020808201869052818301859052606082018490526000888152610103825292832082518051919261182392849290910190612a2d565b506020820151816001015560408201518160020155606082015181600301559050506001905095945050505050565b6101015460009060ff166118785760405162461bcd60e51b815260040161065e90613278565b61188061085a565b60ff541115806118935750610100544210155b156118a057506001610626565b60405162461bcd60e51b815260040161065e906133a4565b60006118c48284613926565b9392505050565b60006118d682610f11565b90506118e48160008461208a565b6118ef6000836115c7565b6001600160a01b03811660009081526068602052604081208054600192906119189084906139b0565b909155505060008281526067602052604080822080546001600160a01b0319169055518391906001600160a01b038416907fddf252ad1be2c89b69c2b068fc378daa952ba7f163c4a11628f55a4df523b3ef908390a45050565b60006118c482846139b0565b60006118c48284613952565b60006118c4828461393e565b60c980546001600160a01b038381166001600160a01b0319831681179093556040519116919082907f8be0079c531659141344cd1fd0a4f28419497f9722a3daafe3b4186f6b6457e090600090a35050565b6040805160608101825293845260208085019384528482019283526001600160a01b039590951660009081526101049095529093209151825551600180830191909155915160029091015590565b816001600160a01b0316836001600160a01b03161415611a685760405162461bcd60e51b815260040161065e90613346565b6001600160a01b038381166000818152606a602090815260408083209487168084529490915290819020805460ff1916851515179055517f17307eab39ab6107e8899845ad3d59bd9653f200f220920489ca2b5937696c3190611acc9085906130df565b60405180910390a3505050565b611ae48484846116b2565b611af084848484612113565b6107795760405162461bcd60e51b815260040161065e90613172565b606081611b3157506040805180820190915260018152600360fc1b6020820152610591565b8160005b8115611b5b5780611b4581613a2e565b9150611b549050600a8361393e565b9150611b35565b60008167ffffffffffffffff811115611b8457634e487b7160e01b600052604160045260246000fd5b6040519080825280601f01601f191660200182016040528015611bae576020820181803683370190505b5090505b841561102057611bc36001836139b0565b9150611bd0600a86613a49565b611bdb906030613926565b60f81b818381518110611bfe57634e487b7160e01b600052603260045260246000fd5b60200101906001600160f81b031916908160001a905350611c20600a8661393e565b9450611bb2565b604080516101808101825260016101408201818152601f60fa1b610160840152825282518084018452818152602360f81b6020828101919091528084019190915283518085018552828152600560fb1b818301528385015283518085018552828152602960f81b81830152606084015283518085018552828152602160f81b81830152608084015283518085018552828152605d60f81b8183015260a084015283518085018552828152600960fa1b8183015260c084015283518085018552828152605b60f81b8183015260e084015283518085018552828152602b60f81b818301526101008401528351808501909452908352601360f91b9083015261012081019190915260009081611d56611d3c61085a565b611d47876001613926565b611d519190613926565b61222b565b90506000611d70611d6561085a565b611d47886002613926565b90506000611d8a611d7f61085a565b611d47896003613926565b90506000611da4611d9961085a565b611d478a6004613926565b90506000611dbe611db361085a565b611d478b6005613926565b905060008686600a8110611de257634e487b7160e01b600052603260045260246000fd5b60200201518786600a8110611e0757634e487b7160e01b600052603260045260246000fd5b60200201518886600a8110611e2c57634e487b7160e01b600052603260045260246000fd5b60200201518986600a8110611e5157634e487b7160e01b600052603260045260246000fd5b60200201518a86600a8110611e7657634e487b7160e01b600052603260045260246000fd5b6020020151604051602001611e8f959493929190612fe7565b60405160208183030381529060405290506000611ead60088c6122f1565b90506000611ebf826001612710612311565b90506000611ecc8d612366565b9050611edb8e858e84866123b3565b5060019e9d5050505050505050505050505050565b6001600160e01b031981166301ffc9a760e01b14919050565b600054610100900460ff1680611f22575060005460ff16155b611f3e5760405162461bcd60e51b815260040161065e90613559565b600054610100900460ff16158015611592576000805460ff1961ff001990911661010017166001179055801561143a576000805461ff001916905550565b600054610100900460ff1680611f95575060005460ff16155b611fb15760405162461bcd60e51b815260040161065e90613559565b600054610100900460ff16158015611fdc576000805460ff1961ff0019909116610100171660011790555b8251611fef906065906020860190612a2d565b508151612003906066906020850190612a2d565b508015610855576000805461ff0019169055505050565b600054610100900460ff1680612033575060005460ff16155b61204f5760405162461bcd60e51b815260040161065e90613559565b600054610100900460ff1615801561207a576000805460ff1961ff0019909116610100171660011790555b6115926120856115c3565b611996565b612095838383610855565b6001600160a01b0383166120b1576120ac816123ee565b6120d4565b816001600160a01b0316836001600160a01b0316146120d4576120d48382612432565b6001600160a01b0382166120f0576120eb816124cf565b610855565b826001600160a01b0316826001600160a01b0316146108555761085582826125a8565b6000612127846001600160a01b03166125ec565b1561222357836001600160a01b031663150b7a026121436115c3565b8786866040518563ffffffff1660e01b81526004016121659493929190613093565b602060405180830381600087803b15801561217f57600080fd5b505af19250505080156121af575060408051601f3d908101601f191682019092526121ac91810190612d89565b60015b612209573d8080156121dd576040519150601f19603f3d011682016040523d82523d6000602084013e6121e2565b606091505b5080516122015760405162461bcd60e51b815260040161065e90613172565b805181602001fd5b6001600160e01b031916630a85bd0160e11b149050611020565b506001611020565b600080612239600a846122f1565b9050600061224a8260016064612311565b9050600a811161225d57600092506122ea565b6014811161226e57600192506122ea565b601e811161227f57600292506122ea565b6028811161229057600392506122ea565b603281116122a157600492506122ea565b603c81116122b257600592506122ea565b604681116122c357600692506122ea565b605081116122d457600792506122ea565b605a81116122e557600892506122ea565b600992505b5050919050565b60606118c461230084436139b0565b61230b6001436139b0565b846125f2565b6000818313156123335760405162461bcd60e51b815260040161065e9061383d565b8261233e8184613971565b6123499060016138e5565b6123528661275a565b61235c9190613a49565b61102091906138e5565b6000806123746003846122f1565b905060006123858260016064612311565b9050603c811161239857600092506122ea565b605a81116123a957600192506122ea565b5060029392505050565b60006123c460fc54868686866117df565b506123d18660fc546128bd565b60fc546123df9060016118b8565b60fc5550600195945050505050565b609980546000838152609a60205260408120829055600182018355919091527f72a152ddfb8e864297c917af52ea6c1c68aead0fee1a62673fcc7e0c94979d000155565b6000600161243f84610f53565b61244991906139b0565b60008381526098602052604090205490915080821461249c576001600160a01b03841660009081526097602090815260408083208584528252808320548484528184208190558352609890915290208190555b5060009182526098602090815260408084208490556001600160a01b039094168352609781528383209183525290812055565b6099546000906124e1906001906139b0565b6000838152609a60205260408120546099805493945090928490811061251757634e487b7160e01b600052603260045260246000fd5b90600052602060002001549050806099838154811061254657634e487b7160e01b600052603260045260246000fd5b6000918252602080832090910192909255828152609a9091526040808220849055858252812055609980548061258c57634e487b7160e01b600052603160045260246000fd5b6001900381819060005260206000200160009055905550505050565b60006125b383610f53565b6001600160a01b039093166000908152609760209081526040808320868452825280832085905593825260989052919091209190915550565b3b151590565b6060826126006001436139b0565b1015801561260e5750838310155b61262a5760405162461bcd60e51b815260040161065e90613738565b600061263685856139b0565b612641906002613926565b67ffffffffffffffff81111561266757634e487b7160e01b600052604160045260246000fd5b604051908082528060200260200182016040528015612690578160200160208202803683370190505b509050600043846040516020016126a8929190612f33565b60405160208183030381529060405280519060200120905060005b6126cd87876139b0565b811161274f576126dd8188613926565b40826040516020016126f0929190612f33565b60405160208183030381529060405280519060200120838260016127149190613926565b8151811061273257634e487b7160e01b600052603260045260246000fd5b60209081029190910101528061274781613a2e565b9150506126c3565b509095945050505050565b6000600182511161277d5760405162461bcd60e51b815260040161065e90613241565b60006001835161278d91906139b0565b836000815181106127ae57634e487b7160e01b600052603260045260246000fd5b602002602001015160001c6127c39190613a49565b6127ce906001613926565b905060008382815181106127f257634e487b7160e01b600052603260045260246000fd5b602002602001015160405160200161280a9190612f2a565b6040516020818303038152906040528051906020012090508360008151811061284357634e487b7160e01b600052603260045260246000fd5b602002602001015160001c600161285a9190613926565b60001b8460008151811061287e57634e487b7160e01b600052603260045260246000fd5b602002602001018181525050808483815181106128ab57634e487b7160e01b600052603260045260246000fd5b60209081029190910101529392505050565b6111888282604051806020016040528060008152506128dc8383612905565b6128e96000848484612113565b6108555760405162461bcd60e51b815260040161065e90613172565b6001600160a01b03821661292b5760405162461bcd60e51b815260040161065e906135a7565b612934816115a6565b156129515760405162461bcd60e51b815260040161065e9061320a565b61295d6000838361208a565b6001600160a01b0382166000908152606860205260408120805460019290612986908490613926565b909155505060008181526067602052604080822080546001600160a01b0319166001600160a01b03861690811790915590518392907fddf252ad1be2c89b69c2b068fc378daa952ba7f163c4a11628f55a4df523b3ef908290a45050565b60405180606001604052806000815260200160008152602001600081525090565b6040518060800160405280606081526020016000815260200160008152602001600081525090565b828054612a39906139f3565b90600052602060002090601f016020900481019282612a5b5760008555612aa1565b82601f10612a7457805160ff1916838001178555612aa1565b82800160010185558215612aa1579182015b82811115612aa1578251825591602001919060010190612a86565b50612aad929150612ab1565b5090565b5b80821115612aad5760008155600101612ab2565b600067ffffffffffffffff80841115612ae157612ae1613a89565b604051601f8501601f191681016020018281118282101715612b0557612b05613a89565b604052848152915081838501861015612b1d57600080fd5b8484602083013760006020868301015250509392505050565b80356001600160a01b038116811461059157600080fd5b600082601f830112612b5d578081fd5b6118c483833560208501612ac6565b600060208284031215612b7d578081fd5b6118c482612b36565b60008060408385031215612b98578081fd5b612ba183612b36565b9150612baf60208401612b36565b90509250929050565b600080600060608486031215612bcc578081fd5b612bd584612b36565b9250612be360208501612b36565b9150604084013590509250925092565b60008060008060808587031215612c08578081fd5b612c1185612b36565b9350612c1f60208601612b36565b925060408501359150606085013567ffffffffffffffff811115612c41578182fd5b8501601f81018713612c51578182fd5b612c6087823560208401612ac6565b91505092959194509250565b60008060408385031215612c7e578182fd5b612c8783612b36565b91506020830135612c9781613a9f565b809150509250929050565b60008060408385031215612cb4578182fd5b612cbd83612b36565b946020939093013593505050565b600080600060608486031215612cdf578283fd5b612ce884612b36565b95602085013595506040909401359392505050565b60008060008060808587031215612d12578384fd5b612d1b85612b36565b966020860135965060408601359560600135945092505050565b600060208284031215612d46578081fd5b81356118c481613a9f565b600060208284031215612d62578081fd5b81516118c481613a9f565b600060208284031215612d7e578081fd5b81356118c481613aad565b600060208284031215612d9a578081fd5b81516118c481613aad565b600060208284031215612db6578081fd5b813567ffffffffffffffff811115612dcc578182fd5b61102084828501612b4d565b600080600060608486031215612dec578081fd5b833567ffffffffffffffff80821115612e03578283fd5b612e0f87838801612b4d565b94506020860135915080821115612e24578283fd5b50612e3186828701612b4d565b925050612e4060408501612b36565b90509250925092565b600060208284031215612e5a578081fd5b5035919050565b600080600080600060a08688031215612e78578283fd5b85359450602086013567ffffffffffffffff811115612e95578384fd5b612ea188828901612b4d565b959895975050505060408401359360608101359360809091013592509050565b60008060408385031215612ed3578182fd5b50508035926020909101359150565b60008151808452612efa8160208601602086016139c7565b601f01601f19169290920160200192915050565b60008151612f208185602086016139c7565b9290920192915050565b90815260200190565b918252602082015260400190565b8254600090819060028104600180831680612f5d57607f831692505b6020808410821415612f7d57634e487b7160e01b87526022600452602487fd5b818015612f915760018114612fa257612fce565b60ff19861689528489019650612fce565b612fab8b6138d9565b885b86811015612fc65781548b820152908501908301612fad565b505084890196505b505050505050612fde8185612f0e565b95945050505050565b6000600f60fa1b8252610c2b60f41b60018301526003875161300f8183860160208c016139c7565b8751908401906130258184840160208c016139c7565b875191019061303a8184840160208b016139c7565b865191019061304f8184840160208a016139c7565b855191019061306481848401602089016139c7565b6238a26960ea1b910191820152600601979650505050505050565b6001600160a01b0391909116815260200190565b6001600160a01b0385811682528416602082015260408101839052608060608201819052600090610abf90830184612ee2565b6001600160a01b03929092168252602082015260400190565b901515815260200190565b6000602082526118c46020830184612ee2565b60208082526010908201526f195e1958dd5d1bdc881b9bc819dbdbd960821b604082015260600190565b6020808252602b908201527f455243373231456e756d657261626c653a206f776e657220696e646578206f7560408201526a74206f6620626f756e647360a81b606082015260800190565b60208082526032908201527f4552433732313a207472616e7366657220746f206e6f6e20455243373231526560408201527131b2b4bb32b91034b6b83632b6b2b73a32b960711b606082015260800190565b60208082526026908201527f4f776e61626c653a206e6577206f776e657220697320746865207a65726f206160408201526564647265737360d01b606082015260800190565b6020808252601c908201527f4552433732313a20746f6b656e20616c7265616479206d696e74656400000000604082015260600190565b60208082526019908201527f52616e646f6d2e6e6578743a20696e76616c696420706f6f6c00000000000000604082015260600190565b60208082526026908201527f506c65617365207761697420666f72207468652061677265656d656e7420746f604082015265081cdd185c9d60d21b606082015260800190565b60208082526024908201527f6578656375746f723a2063616c6c6572206973206e6f742074686520657865636040820152633aba37b960e11b606082015260800190565b60208082526024908201527f4552433732313a207472616e7366657220746f20746865207a65726f206164646040820152637265737360e01b606082015260800190565b60208082526019908201527f4552433732313a20617070726f766520746f2063616c6c657200000000000000604082015260600190565b6020808252600d908201526c0636c61696d626c65206973203609c1b604082015260600190565b60208082526053908201527f5468652073616c65732074696d6520686173206e6f7420656e646564206f722060408201527f74686520746f74616c537570706c79207175616e7469747920686173206e6f74606082015272081c995858da1959081d1a19481d185c99d95d606a1b608082015260a00190565b6020808252602c908201527f4552433732313a206f70657261746f7220717565727920666f72206e6f6e657860408201526b34b9ba32b73a103a37b5b2b760a11b606082015260800190565b60208082526038908201527f4552433732313a20617070726f76652063616c6c6572206973206e6f74206f7760408201527f6e6572206e6f7220617070726f76656420666f7220616c6c0000000000000000606082015260800190565b6020808252602a908201527f4552433732313a2062616c616e636520717565727920666f7220746865207a65604082015269726f206164647265737360b01b606082015260800190565b60208082526029908201527f4552433732313a206f776e657220717565727920666f72206e6f6e657869737460408201526832b73a103a37b5b2b760b91b606082015260800190565b6020808252602e908201527f496e697469616c697a61626c653a20636f6e747261637420697320616c72656160408201526d191e481a5b9a5d1a585b1a5e995960921b606082015260800190565b6020808252818101527f4552433732313a206d696e7420746f20746865207a65726f2061646472657373604082015260600190565b60208082526031908201527f45524337323155524953746f726167653a2055524920717565727920666f72206040820152703737b732bc34b9ba32b73a103a37b5b2b760791b606082015260800190565b6020808252602c908201527f4552433732313a20617070726f76656420717565727920666f72206e6f6e657860408201526b34b9ba32b73a103a37b5b2b760a11b606082015260800190565b6020808252818101527f4f776e61626c653a2063616c6c6572206973206e6f7420746865206f776e6572604082015260600190565b60208082526029908201527f4552433732313a207472616e73666572206f6620746f6b656e2074686174206960408201526839903737ba1037bbb760b91b606082015260800190565b60208082526021908201527f4552433732313a20617070726f76616c20746f2063757272656e74206f776e656040820152603960f91b606082015260800190565b60208082526023908201527f52616e646f6d2e696e69743a20696e76616c696420626c6f636b20696e7465726040820152621d985b60ea1b606082015260800190565b60208082526031908201527f4552433732313a207472616e736665722063616c6c6572206973206e6f74206f6040820152701ddb995c881b9bdc88185c1c1c9bdd9959607a1b606082015260800190565b6020808252602c908201527f455243373231456e756d657261626c653a20676c6f62616c20696e646578206f60408201526b7574206f6620626f756e647360a01b606082015260800190565b6020808252600b908201526a139bc8185c1c1c9bdd995960aa1b604082015260600190565b6020808252818101527f52616e646f6d2e756e69666f726d3a20696e76616c696420696e74657276616c604082015260600190565b60006020825282516080602084015261388e60a0840182612ee2565b90506020840151604084015260408401516060840152606084015160808401528091505092915050565b81518152602080830151908201526040918201519181019190915260600190565b60009081526020902090565b600080821280156001600160ff1b038490038513161561390757613907613a5d565b600160ff1b839003841281161561392057613920613a5d565b50500190565b6000821982111561393957613939613a5d565b500190565b60008261394d5761394d613a73565b500490565b600081600019048311821515161561396c5761396c613a5d565b500290565b60008083128015600160ff1b85018412161561398f5761398f613a5d565b6001600160ff1b03840183138116156139aa576139aa613a5d565b50500390565b6000828210156139c2576139c2613a5d565b500390565b60005b838110156139e25781810151838201526020016139ca565b838111156107795750506000910152565b600281046001821680613a0757607f821691505b60208210811415613a2857634e487b7160e01b600052602260045260246000fd5b50919050565b6000600019821415613a4257613a42613a5d565b5060010190565b600082613a5857613a58613a73565b500690565b634e487b7160e01b600052601160045260246000fd5b634e487b7160e01b600052601260045260246000fd5b634e487b7160e01b600052604160045260246000fd5b801515811461143a57600080fd5b6001600160e01b03198116811461143a57600080fdfea2646970667358221220c5301e37bdc03ab77d65cc6f3631b352f604fab9e0689dbc5ce652aeaece7a4b64736f6c63430008000033",
			"opcodes": "PUSH1 0x80 PUSH1 0x40 MSTORE CALLVALUE DUP1 ISZERO PUSH2 0x10 JUMPI PUSH1 0x0 DUP1 REVERT JUMPDEST POP PUSH2 0x3AF9 DUP1 PUSH2 0x20 PUSH1 0x0 CODECOPY PUSH1 0x0 RETURN INVALID PUSH1 0x80 PUSH1 0x40 MSTORE CALLVALUE DUP1 ISZERO PUSH2 0x10 JUMPI PUSH1 0x0 DUP1 REVERT JUMPDEST POP PUSH1 0x4 CALLDATASIZE LT PUSH2 0x269 JUMPI PUSH1 0x0 CALLDATALOAD PUSH1 0xE0 SHR DUP1 PUSH4 0x6352211E GT PUSH2 0x151 JUMPI DUP1 PUSH4 0xA235C42A GT PUSH2 0xC3 JUMPI DUP1 PUSH4 0xE20CCEC3 GT PUSH2 0x87 JUMPI DUP1 PUSH4 0xE20CCEC3 EQ PUSH2 0x518 JUMPI DUP1 PUSH4 0xE770CBEC EQ PUSH2 0x520 JUMPI DUP1 PUSH4 0xE985E9C5 EQ PUSH2 0x533 JUMPI DUP1 PUSH4 0xF2FDE38B EQ PUSH2 0x546 JUMPI DUP1 PUSH4 0xFAD3F8F7 EQ PUSH2 0x559 JUMPI DUP1 PUSH4 0xFFCFF32C EQ PUSH2 0x561 JUMPI PUSH2 0x269 JUMP JUMPDEST DUP1 PUSH4 0xA235C42A EQ PUSH2 0x4B9 JUMPI DUP1 PUSH4 0xB88D4FDE EQ PUSH2 0x4CC JUMPI DUP1 PUSH4 0xBCB23199 EQ PUSH2 0x4DF JUMPI DUP1 PUSH4 0xC87B56DD EQ PUSH2 0x4F2 JUMPI DUP1 PUSH4 0xD405D32A EQ PUSH2 0x505 JUMPI PUSH2 0x269 JUMP JUMPDEST DUP1 PUSH4 0x799F6A71 GT PUSH2 0x115 JUMPI DUP1 PUSH4 0x799F6A71 EQ PUSH2 0x45D JUMPI DUP1 PUSH4 0x79CC6790 EQ PUSH2 0x470 JUMPI DUP1 PUSH4 0x81221C14 EQ PUSH2 0x483 JUMPI DUP1 PUSH4 0x8DA5CB5B EQ PUSH2 0x496 JUMPI DUP1 PUSH4 0x95D89B41 EQ PUSH2 0x49E JUMPI DUP1 PUSH4 0xA22CB465 EQ PUSH2 0x4A6 JUMPI PUSH2 0x269 JUMP JUMPDEST DUP1 PUSH4 0x6352211E EQ PUSH2 0x41F JUMPI DUP1 PUSH4 0x6BC64E0F EQ PUSH2 0x432 JUMPI DUP1 PUSH4 0x6D5A7411 EQ PUSH2 0x43A JUMPI DUP1 PUSH4 0x70A08231 EQ PUSH2 0x442 JUMPI DUP1 PUSH4 0x715018A6 EQ PUSH2 0x455 JUMPI PUSH2 0x269 JUMP JUMPDEST DUP1 PUSH4 0x23B872DD GT PUSH2 0x1EA JUMPI DUP1 PUSH4 0x42966C68 GT PUSH2 0x1AE JUMPI DUP1 PUSH4 0x42966C68 EQ PUSH2 0x3C3 JUMPI DUP1 PUSH4 0x48C7E528 EQ PUSH2 0x3D6 JUMPI DUP1 PUSH4 0x4E71D92D EQ PUSH2 0x3E9 JUMPI DUP1 PUSH4 0x4F6CCCE7 EQ PUSH2 0x3F1 JUMPI DUP1 PUSH4 0x55F804B3 EQ PUSH2 0x404 JUMPI DUP1 PUSH4 0x6043903D EQ PUSH2 0x417 JUMPI PUSH2 0x269 JUMP JUMPDEST DUP1 PUSH4 0x23B872DD EQ PUSH2 0x36F JUMPI DUP1 PUSH4 0x2AE299D8 EQ PUSH2 0x382 JUMPI DUP1 PUSH4 0x2F745C59 EQ PUSH2 0x395 JUMPI DUP1 PUSH4 0x3D8ADFD0 EQ PUSH2 0x3A8 JUMPI DUP1 PUSH4 0x42842E0E EQ PUSH2 0x3B0 JUMPI PUSH2 0x269 JUMP JUMPDEST DUP1 PUSH4 0x18160DDD GT PUSH2 0x231 JUMPI DUP1 PUSH4 0x18160DDD EQ PUSH2 0x2F4 JUMPI DUP1 PUSH4 0x1959A002 EQ PUSH2 0x309 JUMPI DUP1 PUSH4 0x1BCAF15C EQ PUSH2 0x329 JUMPI DUP1 PUSH4 0x1E1BFF3F EQ PUSH2 0x33C JUMPI DUP1 PUSH4 0x1F8BC790 EQ PUSH2 0x34F JUMPI PUSH2 0x269 JUMP JUMPDEST DUP1 PUSH4 0x1FFC9A7 EQ PUSH2 0x26E JUMPI DUP1 PUSH4 0x6FDDE03 EQ PUSH2 0x297 JUMPI DUP1 PUSH4 0x77F224A EQ PUSH2 0x2AC JUMPI DUP1 PUSH4 0x81812FC EQ PUSH2 0x2C1 JUMPI DUP1 PUSH4 0x95EA7B3 EQ PUSH2 0x2E1 JUMPI JUMPDEST PUSH1 0x0 DUP1 REVERT JUMPDEST PUSH2 0x281 PUSH2 0x27C CALLDATASIZE PUSH1 0x4 PUSH2 0x2D6D JUMP JUMPDEST PUSH2 0x569 JUMP JUMPDEST PUSH1 0x40 MLOAD PUSH2 0x28E SWAP2 SWAP1 PUSH2 0x30DF JUMP JUMPDEST PUSH1 0x40 MLOAD DUP1 SWAP2 SUB SWAP1 RETURN JUMPDEST PUSH2 0x29F PUSH2 0x596 JUMP JUMPDEST PUSH1 0x40 MLOAD PUSH2 0x28E SWAP2 SWAP1 PUSH2 0x30EA JUMP JUMPDEST PUSH2 0x2BF PUSH2 0x2BA CALLDATASIZE PUSH1 0x4 PUSH2 0x2DD8 JUMP JUMPDEST PUSH2 0x629 JUMP JUMPDEST STOP JUMPDEST PUSH2 0x2D4 PUSH2 0x2CF CALLDATASIZE PUSH1 0x4 PUSH2 0x2E49 JUMP JUMPDEST PUSH2 0x77F JUMP JUMPDEST PUSH1 0x40 MLOAD PUSH2 0x28E SWAP2 SWAP1 PUSH2 0x307F JUMP JUMPDEST PUSH2 0x2BF PUSH2 0x2EF CALLDATASIZE PUSH1 0x4 PUSH2 0x2CA2 JUMP JUMPDEST PUSH2 0x7C2 JUMP JUMPDEST PUSH2 0x2FC PUSH2 0x85A JUMP JUMPDEST PUSH1 0x40 MLOAD PUSH2 0x28E SWAP2 SWAP1 PUSH2 0x2F2A JUMP JUMPDEST PUSH2 0x31C PUSH2 0x317 CALLDATASIZE PUSH1 0x4 PUSH2 0x2B6C JUMP JUMPDEST PUSH2 0x860 JUMP JUMPDEST PUSH1 0x40 MLOAD PUSH2 0x28E SWAP2 SWAP1 PUSH2 0x38B8 JUMP JUMPDEST PUSH2 0x281 PUSH2 0x337 CALLDATASIZE PUSH1 0x4 PUSH2 0x2EC1 JUMP JUMPDEST PUSH2 0x8AB JUMP JUMPDEST PUSH2 0x281 PUSH2 0x34A CALLDATASIZE PUSH1 0x4 PUSH2 0x2C6C JUMP JUMPDEST PUSH2 0x903 JUMP JUMPDEST PUSH2 0x362 PUSH2 0x35D CALLDATASIZE PUSH1 0x4 PUSH2 0x2E49 JUMP JUMPDEST PUSH2 0x973 JUMP JUMPDEST PUSH1 0x40 MLOAD PUSH2 0x28E SWAP2 SWAP1 PUSH2 0x3872 JUMP JUMPDEST PUSH2 0x2BF PUSH2 0x37D CALLDATASIZE PUSH1 0x4 PUSH2 0x2BB8 JUMP JUMPDEST PUSH2 0xA4B JUMP JUMPDEST PUSH2 0x281 PUSH2 0x390 CALLDATASIZE PUSH1 0x4 PUSH2 0x2E61 JUMP JUMPDEST PUSH2 0xA83 JUMP JUMPDEST PUSH2 0x2FC PUSH2 0x3A3 CALLDATASIZE PUSH1 0x4 PUSH2 0x2CA2 JUMP JUMPDEST PUSH2 0xAC9 JUMP JUMPDEST PUSH2 0x29F PUSH2 0xB1B JUMP JUMPDEST PUSH2 0x2BF PUSH2 0x3BE CALLDATASIZE PUSH1 0x4 PUSH2 0x2BB8 JUMP JUMPDEST PUSH2 0xBA9 JUMP JUMPDEST PUSH2 0x281 PUSH2 0x3D1 CALLDATASIZE PUSH1 0x4 PUSH2 0x2E49 JUMP JUMPDEST PUSH2 0xBC4 JUMP JUMPDEST PUSH2 0x281 PUSH2 0x3E4 CALLDATASIZE PUSH1 0x4 PUSH2 0x2B6C JUMP JUMPDEST PUSH2 0xC73 JUMP JUMPDEST PUSH2 0x281 PUSH2 0xC88 JUMP JUMPDEST PUSH2 0x2FC PUSH2 0x3FF CALLDATASIZE PUSH1 0x4 PUSH2 0x2E49 JUMP JUMPDEST PUSH2 0xE58 JUMP JUMPDEST PUSH2 0x281 PUSH2 0x412 CALLDATASIZE PUSH1 0x4 PUSH2 0x2DA5 JUMP JUMPDEST PUSH2 0xEB3 JUMP JUMPDEST PUSH2 0x281 PUSH2 0xF07 JUMP JUMPDEST PUSH2 0x2D4 PUSH2 0x42D CALLDATASIZE PUSH1 0x4 PUSH2 0x2E49 JUMP JUMPDEST PUSH2 0xF11 JUMP JUMPDEST PUSH2 0x2FC PUSH2 0xF46 JUMP JUMPDEST PUSH2 0x2FC PUSH2 0xF4D JUMP JUMPDEST PUSH2 0x2FC PUSH2 0x450 CALLDATASIZE PUSH1 0x4 PUSH2 0x2B6C JUMP JUMPDEST PUSH2 0xF53 JUMP JUMPDEST PUSH2 0x2BF PUSH2 0xF97 JUMP JUMPDEST PUSH2 0x281 PUSH2 0x46B CALLDATASIZE PUSH1 0x4 PUSH2 0x2CFD JUMP JUMPDEST PUSH2 0xFE2 JUMP JUMPDEST PUSH2 0x281 PUSH2 0x47E CALLDATASIZE PUSH1 0x4 PUSH2 0x2CA2 JUMP JUMPDEST PUSH2 0x1028 JUMP JUMPDEST PUSH2 0x281 PUSH2 0x491 CALLDATASIZE PUSH1 0x4 PUSH2 0x2E49 JUMP JUMPDEST PUSH2 0x110E JUMP JUMPDEST PUSH2 0x2D4 PUSH2 0x1158 JUMP JUMPDEST PUSH2 0x29F PUSH2 0x1167 JUMP JUMPDEST PUSH2 0x2BF PUSH2 0x4B4 CALLDATASIZE PUSH1 0x4 PUSH2 0x2C6C JUMP JUMPDEST PUSH2 0x1176 JUMP JUMPDEST PUSH2 0x281 PUSH2 0x4C7 CALLDATASIZE PUSH1 0x4 PUSH2 0x2D35 JUMP JUMPDEST PUSH2 0x118C JUMP JUMPDEST PUSH2 0x2BF PUSH2 0x4DA CALLDATASIZE PUSH1 0x4 PUSH2 0x2BF3 JUMP JUMPDEST PUSH2 0x11E5 JUMP JUMPDEST PUSH2 0x2FC PUSH2 0x4ED CALLDATASIZE PUSH1 0x4 PUSH2 0x2E49 JUMP JUMPDEST PUSH2 0x121E JUMP JUMPDEST PUSH2 0x29F PUSH2 0x500 CALLDATASIZE PUSH1 0x4 PUSH2 0x2E49 JUMP JUMPDEST PUSH2 0x1231 JUMP JUMPDEST PUSH2 0x281 PUSH2 0x513 CALLDATASIZE PUSH1 0x4 PUSH2 0x2CCB JUMP JUMPDEST PUSH2 0x128A JUMP JUMPDEST PUSH2 0x2FC PUSH2 0x12F3 JUMP JUMPDEST PUSH2 0x281 PUSH2 0x52E CALLDATASIZE PUSH1 0x4 PUSH2 0x2E49 JUMP JUMPDEST PUSH2 0x1353 JUMP JUMPDEST PUSH2 0x281 PUSH2 0x541 CALLDATASIZE PUSH1 0x4 PUSH2 0x2B86 JUMP JUMPDEST PUSH2 0x139E JUMP JUMPDEST PUSH2 0x2BF PUSH2 0x554 CALLDATASIZE PUSH1 0x4 PUSH2 0x2B6C JUMP JUMPDEST PUSH2 0x13CC JUMP JUMPDEST PUSH2 0x2FC PUSH2 0x143D JUMP JUMPDEST PUSH2 0x2D4 PUSH2 0x1443 JUMP JUMPDEST PUSH1 0x0 PUSH1 0x1 PUSH1 0x1 PUSH1 0xE0 SHL SUB NOT DUP3 AND PUSH4 0x780E9D63 PUSH1 0xE0 SHL EQ DUP1 PUSH2 0x58E JUMPI POP PUSH2 0x58E DUP3 PUSH2 0x1452 JUMP JUMPDEST SWAP1 POP JUMPDEST SWAP2 SWAP1 POP JUMP JUMPDEST PUSH1 0x60 PUSH1 0x65 DUP1 SLOAD PUSH2 0x5A5 SWAP1 PUSH2 0x39F3 JUMP JUMPDEST DUP1 PUSH1 0x1F ADD PUSH1 0x20 DUP1 SWAP2 DIV MUL PUSH1 0x20 ADD PUSH1 0x40 MLOAD SWAP1 DUP2 ADD PUSH1 0x40 MSTORE DUP1 SWAP3 SWAP2 SWAP1 DUP2 DUP2 MSTORE PUSH1 0x20 ADD DUP3 DUP1 SLOAD PUSH2 0x5D1 SWAP1 PUSH2 0x39F3 JUMP JUMPDEST DUP1 ISZERO PUSH2 0x61E JUMPI DUP1 PUSH1 0x1F LT PUSH2 0x5F3 JUMPI PUSH2 0x100 DUP1 DUP4 SLOAD DIV MUL DUP4 MSTORE SWAP2 PUSH1 0x20 ADD SWAP2 PUSH2 0x61E JUMP JUMPDEST DUP3 ADD SWAP2 SWAP1 PUSH1 0x0 MSTORE PUSH1 0x20 PUSH1 0x0 KECCAK256 SWAP1 JUMPDEST DUP2 SLOAD DUP2 MSTORE SWAP1 PUSH1 0x1 ADD SWAP1 PUSH1 0x20 ADD DUP1 DUP4 GT PUSH2 0x601 JUMPI DUP3 SWAP1 SUB PUSH1 0x1F AND DUP3 ADD SWAP2 JUMPDEST POP POP POP POP POP SWAP1 POP JUMPDEST SWAP1 JUMP JUMPDEST PUSH1 0x0 SLOAD PUSH2 0x100 SWAP1 DIV PUSH1 0xFF AND DUP1 PUSH2 0x642 JUMPI POP PUSH1 0x0 SLOAD PUSH1 0xFF AND ISZERO JUMPDEST PUSH2 0x667 JUMPI PUSH1 0x40 MLOAD PUSH3 0x461BCD PUSH1 0xE5 SHL DUP2 MSTORE PUSH1 0x4 ADD PUSH2 0x65E SWAP1 PUSH2 0x3559 JUMP JUMPDEST PUSH1 0x40 MLOAD DUP1 SWAP2 SUB SWAP1 REVERT JUMPDEST PUSH1 0x0 SLOAD PUSH2 0x100 SWAP1 DIV PUSH1 0xFF AND ISZERO DUP1 ISZERO PUSH2 0x692 JUMPI PUSH1 0x0 DUP1 SLOAD PUSH1 0xFF NOT PUSH2 0xFF00 NOT SWAP1 SWAP2 AND PUSH2 0x100 OR AND PUSH1 0x1 OR SWAP1 SSTORE JUMPDEST PUSH1 0xFE DUP1 SLOAD PUSH1 0x1 PUSH1 0x1 PUSH1 0xA0 SHL SUB NOT AND PUSH1 0x1 PUSH1 0x1 PUSH1 0xA0 SHL SUB DUP5 AND OR SWAP1 SSTORE PUSH2 0x3E8 PUSH1 0xFF SSTORE PUSH2 0x101 DUP1 SLOAD PUSH1 0xFF NOT AND SWAP1 SSTORE PUSH2 0x6C8 DUP5 DUP5 PUSH2 0x1492 JUMP JUMPDEST PUSH2 0x6D0 PUSH2 0x1522 JUMP JUMPDEST CALLER PUSH1 0x0 SWAP1 DUP2 MSTORE PUSH1 0xFB PUSH1 0x20 SWAP1 DUP2 MSTORE PUSH1 0x40 DUP3 KECCAK256 DUP1 SLOAD PUSH1 0xFF NOT AND PUSH1 0x1 OR SWAP1 SSTORE PUSH2 0x102 SWAP1 MSTORE PUSH3 0x127500 PUSH32 0x565A22C1AF7FCC038F06206699A6BD0AD8C85D23DAFE9AEBAC3E0DF68E8FB320 SSTORE PUSH3 0xD2F00 PUSH32 0x902D1EB9CB7BF5A8087A0AABAF00B340029088A7A2AF68D406D96C3BE8E809B6 SSTORE PUSH1 0x2 SWAP1 MSTORE PUSH3 0x69780 PUSH32 0x63D980B5C5548CB989F6490438B07E26341C13B66C4C5C44A5999177FF6207C SSTORE DUP1 ISZERO PUSH2 0x779 JUMPI PUSH1 0x0 DUP1 SLOAD PUSH2 0xFF00 NOT AND SWAP1 SSTORE JUMPDEST POP POP POP POP JUMP JUMPDEST PUSH1 0x0 PUSH2 0x78A DUP3 PUSH2 0x15A6 JUMP JUMPDEST PUSH2 0x7A6 JUMPI PUSH1 0x40 MLOAD PUSH3 0x461BCD PUSH1 0xE5 SHL DUP2 MSTORE PUSH1 0x4 ADD PUSH2 0x65E SWAP1 PUSH2 0x362D JUMP JUMPDEST POP PUSH1 0x0 SWAP1 DUP2 MSTORE PUSH1 0x69 PUSH1 0x20 MSTORE PUSH1 0x40 SWAP1 KECCAK256 SLOAD PUSH1 0x1 PUSH1 0x1 PUSH1 0xA0 SHL SUB AND SWAP1 JUMP JUMPDEST PUSH1 0x0 PUSH2 0x7CD DUP3 PUSH2 0xF11 JUMP JUMPDEST SWAP1 POP DUP1 PUSH1 0x1 PUSH1 0x1 PUSH1 0xA0 SHL SUB AND DUP4 PUSH1 0x1 PUSH1 0x1 PUSH1 0xA0 SHL SUB AND EQ ISZERO PUSH2 0x801 JUMPI PUSH1 0x40 MLOAD PUSH3 0x461BCD PUSH1 0xE5 SHL DUP2 MSTORE PUSH1 0x4 ADD PUSH2 0x65E SWAP1 PUSH2 0x36F7 JUMP JUMPDEST DUP1 PUSH1 0x1 PUSH1 0x1 PUSH1 0xA0 SHL SUB AND PUSH2 0x813 PUSH2 0x15C3 JUMP JUMPDEST PUSH1 0x1 PUSH1 0x1 PUSH1 0xA0 SHL SUB AND EQ DUP1 PUSH2 0x82F JUMPI POP PUSH2 0x82F DUP2 PUSH2 0x541 PUSH2 0x15C3 JUMP JUMPDEST PUSH2 0x84B JUMPI PUSH1 0x40 MLOAD PUSH3 0x461BCD PUSH1 0xE5 SHL DUP2 MSTORE PUSH1 0x4 ADD PUSH2 0x65E SWAP1 PUSH2 0x3469 JUMP JUMPDEST PUSH2 0x855 DUP4 DUP4 PUSH2 0x15C7 JUMP JUMPDEST POP POP POP JUMP JUMPDEST PUSH1 0x99 SLOAD SWAP1 JUMP JUMPDEST PUSH2 0x868 PUSH2 0x29E4 JUMP JUMPDEST POP PUSH1 0x1 PUSH1 0x1 PUSH1 0xA0 SHL SUB AND PUSH1 0x0 SWAP1 DUP2 MSTORE PUSH2 0x104 PUSH1 0x20 SWAP1 DUP2 MSTORE PUSH1 0x40 SWAP2 DUP3 SWAP1 KECCAK256 DUP3 MLOAD PUSH1 0x60 DUP2 ADD DUP5 MSTORE DUP2 SLOAD DUP2 MSTORE PUSH1 0x1 DUP3 ADD SLOAD SWAP3 DUP2 ADD SWAP3 SWAP1 SWAP3 MSTORE PUSH1 0x2 ADD SLOAD SWAP2 DUP2 ADD SWAP2 SWAP1 SWAP2 MSTORE SWAP1 JUMP JUMPDEST PUSH1 0x0 PUSH2 0x8B5 PUSH2 0x15C3 JUMP JUMPDEST PUSH1 0x1 PUSH1 0x1 PUSH1 0xA0 SHL SUB AND PUSH2 0x8C6 PUSH2 0x1158 JUMP JUMPDEST PUSH1 0x1 PUSH1 0x1 PUSH1 0xA0 SHL SUB AND EQ PUSH2 0x8EC JUMPI PUSH1 0x40 MLOAD PUSH3 0x461BCD PUSH1 0xE5 SHL DUP2 MSTORE PUSH1 0x4 ADD PUSH2 0x65E SWAP1 PUSH2 0x3679 JUMP JUMPDEST POP PUSH1 0x0 SWAP2 DUP3 MSTORE PUSH2 0x102 PUSH1 0x20 MSTORE PUSH1 0x40 SWAP1 SWAP2 KECCAK256 SSTORE PUSH1 0x1 SWAP1 JUMP JUMPDEST PUSH1 0x0 PUSH2 0x90D PUSH2 0x15C3 JUMP JUMPDEST PUSH1 0x1 PUSH1 0x1 PUSH1 0xA0 SHL SUB AND PUSH2 0x91E PUSH2 0x1158 JUMP JUMPDEST PUSH1 0x1 PUSH1 0x1 PUSH1 0xA0 SHL SUB AND EQ PUSH2 0x944 JUMPI PUSH1 0x40 MLOAD PUSH3 0x461BCD PUSH1 0xE5 SHL DUP2 MSTORE PUSH1 0x4 ADD PUSH2 0x65E SWAP1 PUSH2 0x3679 JUMP JUMPDEST POP PUSH1 0x1 PUSH1 0x1 PUSH1 0xA0 SHL SUB DUP3 AND PUSH1 0x0 SWAP1 DUP2 MSTORE PUSH1 0xFB PUSH1 0x20 MSTORE PUSH1 0x40 SWAP1 KECCAK256 DUP1 SLOAD DUP3 ISZERO ISZERO PUSH1 0xFF NOT SWAP1 SWAP2 AND OR SWAP1 SSTORE PUSH1 0x1 SWAP3 SWAP2 POP POP JUMP JUMPDEST PUSH2 0x97B PUSH2 0x2A05 JUMP JUMPDEST PUSH1 0x0 DUP3 DUP2 MSTORE PUSH2 0x103 PUSH1 0x20 MSTORE PUSH1 0x40 SWAP1 DUP2 SWAP1 KECCAK256 DUP2 MLOAD PUSH1 0x80 DUP2 ADD SWAP1 SWAP3 MSTORE DUP1 SLOAD DUP3 SWAP1 DUP3 SWAP1 PUSH2 0x9A4 SWAP1 PUSH2 0x39F3 JUMP JUMPDEST DUP1 PUSH1 0x1F ADD PUSH1 0x20 DUP1 SWAP2 DIV MUL PUSH1 0x20 ADD PUSH1 0x40 MLOAD SWAP1 DUP2 ADD PUSH1 0x40 MSTORE DUP1 SWAP3 SWAP2 SWAP1 DUP2 DUP2 MSTORE PUSH1 0x20 ADD DUP3 DUP1 SLOAD PUSH2 0x9D0 SWAP1 PUSH2 0x39F3 JUMP JUMPDEST DUP1 ISZERO PUSH2 0xA1D JUMPI DUP1 PUSH1 0x1F LT PUSH2 0x9F2 JUMPI PUSH2 0x100 DUP1 DUP4 SLOAD DIV MUL DUP4 MSTORE SWAP2 PUSH1 0x20 ADD SWAP2 PUSH2 0xA1D JUMP JUMPDEST DUP3 ADD SWAP2 SWAP1 PUSH1 0x0 MSTORE PUSH1 0x20 PUSH1 0x0 KECCAK256 SWAP1 JUMPDEST DUP2 SLOAD DUP2 MSTORE SWAP1 PUSH1 0x1 ADD SWAP1 PUSH1 0x20 ADD DUP1 DUP4 GT PUSH2 0xA00 JUMPI DUP3 SWAP1 SUB PUSH1 0x1F AND DUP3 ADD SWAP2 JUMPDEST POP POP POP POP POP DUP2 MSTORE PUSH1 0x20 ADD PUSH1 0x1 DUP3 ADD SLOAD DUP2 MSTORE PUSH1 0x20 ADD PUSH1 0x2 DUP3 ADD SLOAD DUP2 MSTORE PUSH1 0x20 ADD PUSH1 0x3 DUP3 ADD SLOAD DUP2 MSTORE POP POP SWAP1 POP SWAP2 SWAP1 POP JUMP JUMPDEST PUSH2 0xA5C PUSH2 0xA56 PUSH2 0x15C3 JUMP JUMPDEST DUP3 PUSH2 0x1635 JUMP JUMPDEST PUSH2 0xA78 JUMPI PUSH1 0x40 MLOAD PUSH3 0x461BCD PUSH1 0xE5 SHL DUP2 MSTORE PUSH1 0x4 ADD PUSH2 0x65E SWAP1 PUSH2 0x377B JUMP JUMPDEST PUSH2 0x855 DUP4 DUP4 DUP4 PUSH2 0x16B2 JUMP JUMPDEST CALLER PUSH1 0x0 SWAP1 DUP2 MSTORE PUSH1 0xFB PUSH1 0x20 MSTORE PUSH1 0x40 DUP2 KECCAK256 SLOAD PUSH1 0xFF AND PUSH2 0xAB2 JUMPI PUSH1 0x40 MLOAD PUSH3 0x461BCD PUSH1 0xE5 SHL DUP2 MSTORE PUSH1 0x4 ADD PUSH2 0x65E SWAP1 PUSH2 0x32BE JUMP JUMPDEST PUSH2 0xABF DUP7 DUP7 DUP7 DUP7 DUP7 PUSH2 0x17DF JUMP JUMPDEST SWAP7 SWAP6 POP POP POP POP POP POP JUMP JUMPDEST PUSH1 0x0 PUSH2 0xAD4 DUP4 PUSH2 0xF53 JUMP JUMPDEST DUP3 LT PUSH2 0xAF2 JUMPI PUSH1 0x40 MLOAD PUSH3 0x461BCD PUSH1 0xE5 SHL DUP2 MSTORE PUSH1 0x4 ADD PUSH2 0x65E SWAP1 PUSH2 0x3127 JUMP JUMPDEST POP PUSH1 0x1 PUSH1 0x1 PUSH1 0xA0 SHL SUB SWAP2 SWAP1 SWAP2 AND PUSH1 0x0 SWAP1 DUP2 MSTORE PUSH1 0x97 PUSH1 0x20 SWAP1 DUP2 MSTORE PUSH1 0x40 DUP1 DUP4 KECCAK256 SWAP4 DUP4 MSTORE SWAP3 SWAP1 MSTORE KECCAK256 SLOAD SWAP1 JUMP JUMPDEST PUSH1 0xFD DUP1 SLOAD PUSH2 0xB28 SWAP1 PUSH2 0x39F3 JUMP JUMPDEST DUP1 PUSH1 0x1F ADD PUSH1 0x20 DUP1 SWAP2 DIV MUL PUSH1 0x20 ADD PUSH1 0x40 MLOAD SWAP1 DUP2 ADD PUSH1 0x40 MSTORE DUP1 SWAP3 SWAP2 SWAP1 DUP2 DUP2 MSTORE PUSH1 0x20 ADD DUP3 DUP1 SLOAD PUSH2 0xB54 SWAP1 PUSH2 0x39F3 JUMP JUMPDEST DUP1 ISZERO PUSH2 0xBA1 JUMPI DUP1 PUSH1 0x1F LT PUSH2 0xB76 JUMPI PUSH2 0x100 DUP1 DUP4 SLOAD DIV MUL DUP4 MSTORE SWAP2 PUSH1 0x20 ADD SWAP2 PUSH2 0xBA1 JUMP JUMPDEST DUP3 ADD SWAP2 SWAP1 PUSH1 0x0 MSTORE PUSH1 0x20 PUSH1 0x0 KECCAK256 SWAP1 JUMPDEST DUP2 SLOAD DUP2 MSTORE SWAP1 PUSH1 0x1 ADD SWAP1 PUSH1 0x20 ADD DUP1 DUP4 GT PUSH2 0xB84 JUMPI DUP3 SWAP1 SUB PUSH1 0x1F AND DUP3 ADD SWAP2 JUMPDEST POP POP POP POP POP DUP2 JUMP JUMPDEST PUSH2 0x855 DUP4 DUP4 DUP4 PUSH1 0x40 MLOAD DUP1 PUSH1 0x20 ADD PUSH1 0x40 MSTORE DUP1 PUSH1 0x0 DUP2 MSTORE POP PUSH2 0x11E5 JUMP JUMPDEST PUSH1 0x0 PUSH2 0xBCF DUP3 PUSH2 0xF11 JUMP JUMPDEST PUSH1 0x1 PUSH1 0x1 PUSH1 0xA0 SHL SUB AND CALLER PUSH1 0x1 PUSH1 0x1 PUSH1 0xA0 SHL SUB AND EQ PUSH2 0xBFF JUMPI PUSH1 0x40 MLOAD PUSH3 0x461BCD PUSH1 0xE5 SHL DUP2 MSTORE PUSH1 0x4 ADD PUSH2 0x65E SWAP1 PUSH2 0x3818 JUMP JUMPDEST PUSH2 0xC07 PUSH2 0x1852 JUMP JUMPDEST POP CALLER PUSH1 0x0 SWAP1 DUP2 MSTORE PUSH2 0x104 PUSH1 0x20 SWAP1 DUP2 MSTORE PUSH1 0x40 DUP1 DUP4 KECCAK256 TIMESTAMP DUP2 SSTORE DUP6 DUP5 MSTORE PUSH2 0x103 DUP1 DUP5 MSTORE DUP3 DUP6 KECCAK256 PUSH1 0x2 DUP1 DUP3 ADD SLOAD DUP8 MSTORE PUSH2 0x102 DUP7 MSTORE SWAP4 DUP7 KECCAK256 SLOAD PUSH1 0x1 DUP1 DUP6 ADD SWAP2 SWAP1 SWAP2 SSTORE SWAP6 DUP9 SWAP1 MSTORE SWAP4 MSTORE SWAP3 SWAP1 SWAP2 ADD SLOAD SWAP1 DUP3 ADD SLOAD PUSH2 0xC5C SWAP2 PUSH2 0x18B8 JUMP JUMPDEST PUSH1 0x2 DUP3 ADD SSTORE PUSH2 0xC6A DUP4 PUSH2 0x18CB JUMP JUMPDEST POP PUSH1 0x1 SWAP3 SWAP2 POP POP JUMP JUMPDEST PUSH1 0xFB PUSH1 0x20 MSTORE PUSH1 0x0 SWAP1 DUP2 MSTORE PUSH1 0x40 SWAP1 KECCAK256 SLOAD PUSH1 0xFF AND DUP2 JUMP JUMPDEST CALLER PUSH1 0x0 SWAP1 DUP2 MSTORE PUSH2 0x104 PUSH1 0x20 MSTORE PUSH1 0x40 DUP2 KECCAK256 PUSH1 0x2 DUP2 ADD SLOAD PUSH2 0xCB9 JUMPI PUSH1 0x40 MLOAD PUSH3 0x461BCD PUSH1 0xE5 SHL DUP2 MSTORE PUSH1 0x4 ADD PUSH2 0x65E SWAP1 PUSH2 0x337D JUMP JUMPDEST DUP1 SLOAD PUSH1 0x0 SWAP1 PUSH2 0xCC9 SWAP1 TIMESTAMP SWAP1 PUSH2 0x1972 JUMP JUMPDEST SWAP1 POP DUP2 PUSH1 0x1 ADD SLOAD DUP2 LT PUSH2 0xD75 JUMPI PUSH1 0xFE SLOAD PUSH1 0x2 DUP4 ADD SLOAD PUSH1 0x40 MLOAD PUSH4 0x40C10F19 PUSH1 0xE0 SHL DUP2 MSTORE PUSH1 0x1 PUSH1 0x1 PUSH1 0xA0 SHL SUB SWAP1 SWAP3 AND SWAP2 PUSH4 0x40C10F19 SWAP2 PUSH2 0xD0C SWAP2 CALLER SWAP2 SWAP1 PUSH1 0x4 ADD PUSH2 0x30C6 JUMP JUMPDEST PUSH1 0x20 PUSH1 0x40 MLOAD DUP1 DUP4 SUB DUP2 PUSH1 0x0 DUP8 DUP1 EXTCODESIZE ISZERO DUP1 ISZERO PUSH2 0xD26 JUMPI PUSH1 0x0 DUP1 REVERT JUMPDEST POP GAS CALL ISZERO DUP1 ISZERO PUSH2 0xD3A JUMPI RETURNDATASIZE PUSH1 0x0 DUP1 RETURNDATACOPY RETURNDATASIZE PUSH1 0x0 REVERT JUMPDEST POP POP POP POP PUSH1 0x40 MLOAD RETURNDATASIZE PUSH1 0x1F NOT PUSH1 0x1F DUP3 ADD AND DUP3 ADD DUP1 PUSH1 0x40 MSTORE POP DUP2 ADD SWAP1 PUSH2 0xD5E SWAP2 SWAP1 PUSH2 0x2D51 JUMP JUMPDEST POP TIMESTAMP DUP3 SSTORE PUSH1 0x0 PUSH1 0x2 DUP4 ADD DUP2 SWAP1 SSTORE PUSH1 0x1 DUP4 ADD SSTORE PUSH2 0xE4F JUMP JUMPDEST PUSH1 0x0 PUSH2 0xD9C DUP4 PUSH1 0x1 ADD SLOAD PUSH2 0xD96 DUP6 PUSH1 0x2 ADD SLOAD DUP6 PUSH2 0x197E SWAP1 SWAP2 SWAP1 PUSH4 0xFFFFFFFF AND JUMP JUMPDEST SWAP1 PUSH2 0x198A JUMP JUMPDEST PUSH1 0xFE SLOAD PUSH1 0x40 MLOAD PUSH4 0x40C10F19 PUSH1 0xE0 SHL DUP2 MSTORE SWAP2 SWAP3 POP PUSH1 0x1 PUSH1 0x1 PUSH1 0xA0 SHL SUB AND SWAP1 PUSH4 0x40C10F19 SWAP1 PUSH2 0xDCF SWAP1 CALLER SWAP1 DUP6 SWAP1 PUSH1 0x4 ADD PUSH2 0x30C6 JUMP JUMPDEST PUSH1 0x20 PUSH1 0x40 MLOAD DUP1 DUP4 SUB DUP2 PUSH1 0x0 DUP8 DUP1 EXTCODESIZE ISZERO DUP1 ISZERO PUSH2 0xDE9 JUMPI PUSH1 0x0 DUP1 REVERT JUMPDEST POP GAS CALL ISZERO DUP1 ISZERO PUSH2 0xDFD JUMPI RETURNDATASIZE PUSH1 0x0 DUP1 RETURNDATACOPY RETURNDATASIZE PUSH1 0x0 REVERT JUMPDEST POP POP POP POP PUSH1 0x40 MLOAD RETURNDATASIZE PUSH1 0x1F NOT PUSH1 0x1F DUP3 ADD AND DUP3 ADD DUP1 PUSH1 0x40 MSTORE POP DUP2 ADD SWAP1 PUSH2 0xE21 SWAP2 SWAP1 PUSH2 0x2D51 JUMP JUMPDEST POP TIMESTAMP DUP4 SSTORE PUSH1 0x2 DUP4 ADD SLOAD PUSH2 0xE34 SWAP1 DUP3 PUSH2 0x1972 JUMP JUMPDEST PUSH1 0x2 DUP5 ADD SSTORE PUSH1 0x1 DUP4 ADD SLOAD PUSH2 0xE48 SWAP1 DUP4 PUSH2 0x1972 JUMP JUMPDEST PUSH1 0x1 DUP5 ADD SSTORE POP JUMPDEST PUSH1 0x1 SWAP3 POP POP POP SWAP1 JUMP JUMPDEST PUSH1 0x0 PUSH2 0xE62 PUSH2 0x85A JUMP JUMPDEST DUP3 LT PUSH2 0xE80 JUMPI PUSH1 0x40 MLOAD PUSH3 0x461BCD PUSH1 0xE5 SHL DUP2 MSTORE PUSH1 0x4 ADD PUSH2 0x65E SWAP1 PUSH2 0x37CC JUMP JUMPDEST PUSH1 0x99 DUP3 DUP2 SLOAD DUP2 LT PUSH2 0xEA1 JUMPI PUSH4 0x4E487B71 PUSH1 0xE0 SHL PUSH1 0x0 MSTORE PUSH1 0x32 PUSH1 0x4 MSTORE PUSH1 0x24 PUSH1 0x0 REVERT JUMPDEST SWAP1 PUSH1 0x0 MSTORE PUSH1 0x20 PUSH1 0x0 KECCAK256 ADD SLOAD SWAP1 POP SWAP2 SWAP1 POP JUMP JUMPDEST PUSH1 0x0 PUSH2 0xEBD PUSH2 0x15C3 JUMP JUMPDEST PUSH1 0x1 PUSH1 0x1 PUSH1 0xA0 SHL SUB AND PUSH2 0xECE PUSH2 0x1158 JUMP JUMPDEST PUSH1 0x1 PUSH1 0x1 PUSH1 0xA0 SHL SUB AND EQ PUSH2 0xEF4 JUMPI PUSH1 0x40 MLOAD PUSH3 0x461BCD PUSH1 0xE5 SHL DUP2 MSTORE PUSH1 0x4 ADD PUSH2 0x65E SWAP1 PUSH2 0x3679 JUMP JUMPDEST DUP2 MLOAD PUSH2 0xC6A SWAP1 PUSH1 0xFD SWAP1 PUSH1 0x20 DUP6 ADD SWAP1 PUSH2 0x2A2D JUMP JUMPDEST PUSH2 0x101 SLOAD PUSH1 0xFF AND DUP2 JUMP JUMPDEST PUSH1 0x0 DUP2 DUP2 MSTORE PUSH1 0x67 PUSH1 0x20 MSTORE PUSH1 0x40 DUP2 KECCAK256 SLOAD PUSH1 0x1 PUSH1 0x1 PUSH1 0xA0 SHL SUB AND DUP1 PUSH2 0x58E JUMPI PUSH1 0x40 MLOAD PUSH3 0x461BCD PUSH1 0xE5 SHL DUP2 MSTORE PUSH1 0x4 ADD PUSH2 0x65E SWAP1 PUSH2 0x3510 JUMP JUMPDEST PUSH2 0x100 SLOAD DUP2 JUMP JUMPDEST PUSH1 0xFC SLOAD DUP2 JUMP JUMPDEST PUSH1 0x0 PUSH1 0x1 PUSH1 0x1 PUSH1 0xA0 SHL SUB DUP3 AND PUSH2 0xF7B JUMPI PUSH1 0x40 MLOAD PUSH3 0x461BCD PUSH1 0xE5 SHL DUP2 MSTORE PUSH1 0x4 ADD PUSH2 0x65E SWAP1 PUSH2 0x34C6 JUMP JUMPDEST POP PUSH1 0x1 PUSH1 0x1 PUSH1 0xA0 SHL SUB AND PUSH1 0x0 SWAP1 DUP2 MSTORE PUSH1 0x68 PUSH1 0x20 MSTORE PUSH1 0x40 SWAP1 KECCAK256 SLOAD SWAP1 JUMP JUMPDEST PUSH2 0xF9F PUSH2 0x15C3 JUMP JUMPDEST PUSH1 0x1 PUSH1 0x1 PUSH1 0xA0 SHL SUB AND PUSH2 0xFB0 PUSH2 0x1158 JUMP JUMPDEST PUSH1 0x1 PUSH1 0x1 PUSH1 0xA0 SHL SUB AND EQ PUSH2 0xFD6 JUMPI PUSH1 0x40 MLOAD PUSH3 0x461BCD PUSH1 0xE5 SHL DUP2 MSTORE PUSH1 0x4 ADD PUSH2 0x65E SWAP1 PUSH2 0x3679 JUMP JUMPDEST PUSH2 0xFE0 PUSH1 0x0 PUSH2 0x1996 JUMP JUMPDEST JUMP JUMPDEST CALLER PUSH1 0x0 SWAP1 DUP2 MSTORE PUSH1 0xFB PUSH1 0x20 MSTORE PUSH1 0x40 DUP2 KECCAK256 SLOAD PUSH1 0xFF AND PUSH2 0x1011 JUMPI PUSH1 0x40 MLOAD PUSH3 0x461BCD PUSH1 0xE5 SHL DUP2 MSTORE PUSH1 0x4 ADD PUSH2 0x65E SWAP1 PUSH2 0x32BE JUMP JUMPDEST PUSH2 0x101D DUP6 DUP6 DUP6 DUP6 PUSH2 0x19E8 JUMP JUMPDEST SWAP1 POP JUMPDEST SWAP5 SWAP4 POP POP POP POP JUMP JUMPDEST CALLER PUSH1 0x0 SWAP1 DUP2 MSTORE PUSH1 0xFB PUSH1 0x20 MSTORE PUSH1 0x40 DUP2 KECCAK256 SLOAD PUSH1 0xFF AND PUSH2 0x1057 JUMPI PUSH1 0x40 MLOAD PUSH3 0x461BCD PUSH1 0xE5 SHL DUP2 MSTORE PUSH1 0x4 ADD PUSH2 0x65E SWAP1 PUSH2 0x32BE JUMP JUMPDEST PUSH2 0x1060 DUP3 PUSH2 0xF11 JUMP JUMPDEST PUSH1 0x1 PUSH1 0x1 PUSH1 0xA0 SHL SUB AND DUP4 PUSH1 0x1 PUSH1 0x1 PUSH1 0xA0 SHL SUB AND EQ PUSH2 0x1090 JUMPI PUSH1 0x40 MLOAD PUSH3 0x461BCD PUSH1 0xE5 SHL DUP2 MSTORE PUSH1 0x4 ADD PUSH2 0x65E SWAP1 PUSH2 0x3818 JUMP JUMPDEST PUSH2 0x1098 PUSH2 0x1852 JUMP JUMPDEST POP PUSH1 0x1 PUSH1 0x1 PUSH1 0xA0 SHL SUB DUP4 AND PUSH1 0x0 SWAP1 DUP2 MSTORE PUSH2 0x104 PUSH1 0x20 SWAP1 DUP2 MSTORE PUSH1 0x40 DUP1 DUP4 KECCAK256 TIMESTAMP DUP2 SSTORE DUP6 DUP5 MSTORE PUSH2 0x103 DUP1 DUP5 MSTORE DUP3 DUP6 KECCAK256 PUSH1 0x2 DUP1 DUP3 ADD SLOAD DUP8 MSTORE PUSH2 0x102 DUP7 MSTORE SWAP4 DUP7 KECCAK256 SLOAD PUSH1 0x1 DUP1 DUP6 ADD SWAP2 SWAP1 SWAP2 SSTORE SWAP6 DUP9 SWAP1 MSTORE SWAP4 MSTORE SWAP3 SWAP1 SWAP2 ADD SLOAD SWAP1 DUP3 ADD SLOAD PUSH2 0x10F6 SWAP2 PUSH2 0x18B8 JUMP JUMPDEST PUSH1 0x2 DUP3 ADD SSTORE PUSH2 0x1104 DUP4 PUSH2 0x18CB JUMP JUMPDEST POP PUSH1 0x1 SWAP4 SWAP3 POP POP POP JUMP JUMPDEST PUSH1 0x0 PUSH2 0x1118 PUSH2 0x15C3 JUMP JUMPDEST PUSH1 0x1 PUSH1 0x1 PUSH1 0xA0 SHL SUB AND PUSH2 0x1129 PUSH2 0x1158 JUMP JUMPDEST PUSH1 0x1 PUSH1 0x1 PUSH1 0xA0 SHL SUB AND EQ PUSH2 0x114F JUMPI PUSH1 0x40 MLOAD PUSH3 0x461BCD PUSH1 0xE5 SHL DUP2 MSTORE PUSH1 0x4 ADD PUSH2 0x65E SWAP1 PUSH2 0x3679 JUMP JUMPDEST POP PUSH1 0xFF SSTORE PUSH1 0x1 SWAP1 JUMP JUMPDEST PUSH1 0xC9 SLOAD PUSH1 0x1 PUSH1 0x1 PUSH1 0xA0 SHL SUB AND SWAP1 JUMP JUMPDEST PUSH1 0x60 PUSH1 0x66 DUP1 SLOAD PUSH2 0x5A5 SWAP1 PUSH2 0x39F3 JUMP JUMPDEST PUSH2 0x1188 PUSH2 0x1181 PUSH2 0x15C3 JUMP JUMPDEST DUP4 DUP4 PUSH2 0x1A36 JUMP JUMPDEST POP POP JUMP JUMPDEST PUSH1 0x0 PUSH2 0x1196 PUSH2 0x15C3 JUMP JUMPDEST PUSH1 0x1 PUSH1 0x1 PUSH1 0xA0 SHL SUB AND PUSH2 0x11A7 PUSH2 0x1158 JUMP JUMPDEST PUSH1 0x1 PUSH1 0x1 PUSH1 0xA0 SHL SUB AND EQ PUSH2 0x11CD JUMPI PUSH1 0x40 MLOAD PUSH3 0x461BCD PUSH1 0xE5 SHL DUP2 MSTORE PUSH1 0x4 ADD PUSH2 0x65E SWAP1 PUSH2 0x3679 JUMP JUMPDEST POP PUSH2 0x101 DUP1 SLOAD PUSH1 0xFF NOT AND SWAP2 ISZERO ISZERO SWAP2 SWAP1 SWAP2 OR SWAP1 SSTORE PUSH1 0x1 SWAP1 JUMP JUMPDEST PUSH2 0x11F6 PUSH2 0x11F0 PUSH2 0x15C3 JUMP JUMPDEST DUP4 PUSH2 0x1635 JUMP JUMPDEST PUSH2 0x1212 JUMPI PUSH1 0x40 MLOAD PUSH3 0x461BCD PUSH1 0xE5 SHL DUP2 MSTORE PUSH1 0x4 ADD PUSH2 0x65E SWAP1 PUSH2 0x377B JUMP JUMPDEST PUSH2 0x779 DUP5 DUP5 DUP5 DUP5 PUSH2 0x1AD9 JUMP JUMPDEST PUSH2 0x102 PUSH1 0x20 MSTORE PUSH1 0x0 SWAP1 DUP2 MSTORE PUSH1 0x40 SWAP1 KECCAK256 SLOAD DUP2 JUMP JUMPDEST PUSH1 0x60 PUSH2 0x123C DUP3 PUSH2 0x15A6 JUMP JUMPDEST PUSH2 0x1258 JUMPI PUSH1 0x40 MLOAD PUSH3 0x461BCD PUSH1 0xE5 SHL DUP2 MSTORE PUSH1 0x4 ADD PUSH2 0x65E SWAP1 PUSH2 0x35DC JUMP JUMPDEST PUSH1 0xFD PUSH2 0x1263 DUP4 PUSH2 0x1B0C JUMP JUMPDEST PUSH1 0x40 MLOAD PUSH1 0x20 ADD PUSH2 0x1274 SWAP3 SWAP2 SWAP1 PUSH2 0x2F41 JUMP JUMPDEST PUSH1 0x40 MLOAD PUSH1 0x20 DUP2 DUP4 SUB SUB DUP2 MSTORE SWAP1 PUSH1 0x40 MSTORE SWAP1 POP SWAP2 SWAP1 POP JUMP JUMPDEST CALLER PUSH1 0x0 SWAP1 DUP2 MSTORE PUSH1 0xFB PUSH1 0x20 MSTORE PUSH1 0x40 DUP2 KECCAK256 SLOAD PUSH1 0xFF AND PUSH2 0x12B9 JUMPI PUSH1 0x40 MLOAD PUSH3 0x461BCD PUSH1 0xE5 SHL DUP2 MSTORE PUSH1 0x4 ADD PUSH2 0x65E SWAP1 PUSH2 0x32BE JUMP JUMPDEST CALLER PUSH1 0x0 SWAP1 DUP2 MSTORE PUSH1 0xFB PUSH1 0x20 MSTORE PUSH1 0x40 SWAP1 KECCAK256 SLOAD PUSH1 0xFF AND PUSH2 0x12E8 JUMPI PUSH1 0x40 MLOAD PUSH3 0x461BCD PUSH1 0xE5 SHL DUP2 MSTORE PUSH1 0x4 ADD PUSH2 0x65E SWAP1 PUSH2 0x30FD JUMP JUMPDEST PUSH2 0x1020 DUP5 DUP5 DUP5 PUSH2 0x1C27 JUMP JUMPDEST CALLER PUSH1 0x0 SWAP1 DUP2 MSTORE PUSH2 0x104 PUSH1 0x20 MSTORE PUSH1 0x40 DUP2 KECCAK256 DUP1 SLOAD DUP3 SWAP1 PUSH2 0x1312 SWAP1 TIMESTAMP SWAP1 PUSH2 0x1972 JUMP JUMPDEST SWAP1 POP DUP2 PUSH1 0x1 ADD SLOAD DUP2 LT PUSH2 0x132B JUMPI POP PUSH1 0x2 ADD SLOAD SWAP1 POP PUSH2 0x626 JUMP JUMPDEST PUSH2 0x134A DUP3 PUSH1 0x1 ADD SLOAD PUSH2 0xD96 DUP5 PUSH1 0x2 ADD SLOAD DUP5 PUSH2 0x197E SWAP1 SWAP2 SWAP1 PUSH4 0xFFFFFFFF AND JUMP JUMPDEST SWAP3 POP POP POP PUSH2 0x626 JUMP JUMPDEST PUSH1 0x0 PUSH2 0x135D PUSH2 0x15C3 JUMP JUMPDEST PUSH1 0x1 PUSH1 0x1 PUSH1 0xA0 SHL SUB AND PUSH2 0x136E PUSH2 0x1158 JUMP JUMPDEST PUSH1 0x1 PUSH1 0x1 PUSH1 0xA0 SHL SUB AND EQ PUSH2 0x1394 JUMPI PUSH1 0x40 MLOAD PUSH3 0x461BCD PUSH1 0xE5 SHL DUP2 MSTORE PUSH1 0x4 ADD PUSH2 0x65E SWAP1 PUSH2 0x3679 JUMP JUMPDEST POP PUSH2 0x100 SSTORE PUSH1 0x1 SWAP1 JUMP JUMPDEST PUSH1 0x1 PUSH1 0x1 PUSH1 0xA0 SHL SUB SWAP2 DUP3 AND PUSH1 0x0 SWAP1 DUP2 MSTORE PUSH1 0x6A PUSH1 0x20 SWAP1 DUP2 MSTORE PUSH1 0x40 DUP1 DUP4 KECCAK256 SWAP4 SWAP1 SWAP5 AND DUP3 MSTORE SWAP2 SWAP1 SWAP2 MSTORE KECCAK256 SLOAD PUSH1 0xFF AND SWAP1 JUMP JUMPDEST PUSH2 0x13D4 PUSH2 0x15C3 JUMP JUMPDEST PUSH1 0x1 PUSH1 0x1 PUSH1 0xA0 SHL SUB AND PUSH2 0x13E5 PUSH2 0x1158 JUMP JUMPDEST PUSH1 0x1 PUSH1 0x1 PUSH1 0xA0 SHL SUB AND EQ PUSH2 0x140B JUMPI PUSH1 0x40 MLOAD PUSH3 0x461BCD PUSH1 0xE5 SHL DUP2 MSTORE PUSH1 0x4 ADD PUSH2 0x65E SWAP1 PUSH2 0x3679 JUMP JUMPDEST PUSH1 0x1 PUSH1 0x1 PUSH1 0xA0 SHL SUB DUP2 AND PUSH2 0x1431 JUMPI PUSH1 0x40 MLOAD PUSH3 0x461BCD PUSH1 0xE5 SHL DUP2 MSTORE PUSH1 0x4 ADD PUSH2 0x65E SWAP1 PUSH2 0x31C4 JUMP JUMPDEST PUSH2 0x143A DUP2 PUSH2 0x1996 JUMP JUMPDEST POP JUMP JUMPDEST PUSH1 0xFF SLOAD DUP2 JUMP JUMPDEST PUSH1 0xFE SLOAD PUSH1 0x1 PUSH1 0x1 PUSH1 0xA0 SHL SUB AND DUP2 JUMP JUMPDEST PUSH1 0x0 PUSH1 0x1 PUSH1 0x1 PUSH1 0xE0 SHL SUB NOT DUP3 AND PUSH4 0x80AC58CD PUSH1 0xE0 SHL EQ DUP1 PUSH2 0x1483 JUMPI POP PUSH1 0x1 PUSH1 0x1 PUSH1 0xE0 SHL SUB NOT DUP3 AND PUSH4 0x5B5E139F PUSH1 0xE0 SHL EQ JUMPDEST DUP1 PUSH2 0x58E JUMPI POP PUSH2 0x58E DUP3 PUSH2 0x1EF0 JUMP JUMPDEST PUSH1 0x0 SLOAD PUSH2 0x100 SWAP1 DIV PUSH1 0xFF AND DUP1 PUSH2 0x14AB JUMPI POP PUSH1 0x0 SLOAD PUSH1 0xFF AND ISZERO JUMPDEST PUSH2 0x14C7 JUMPI PUSH1 0x40 MLOAD PUSH3 0x461BCD PUSH1 0xE5 SHL DUP2 MSTORE PUSH1 0x4 ADD PUSH2 0x65E SWAP1 PUSH2 0x3559 JUMP JUMPDEST PUSH1 0x0 SLOAD PUSH2 0x100 SWAP1 DIV PUSH1 0xFF AND ISZERO DUP1 ISZERO PUSH2 0x14F2 JUMPI PUSH1 0x0 DUP1 SLOAD PUSH1 0xFF NOT PUSH2 0xFF00 NOT SWAP1 SWAP2 AND PUSH2 0x100 OR AND PUSH1 0x1 OR SWAP1 SSTORE JUMPDEST PUSH2 0x14FA PUSH2 0x1F09 JUMP JUMPDEST PUSH2 0x1502 PUSH2 0x1F09 JUMP JUMPDEST PUSH2 0x150C DUP4 DUP4 PUSH2 0x1F7C JUMP JUMPDEST DUP1 ISZERO PUSH2 0x855 JUMPI PUSH1 0x0 DUP1 SLOAD PUSH2 0xFF00 NOT AND SWAP1 SSTORE POP POP POP JUMP JUMPDEST PUSH1 0x0 SLOAD PUSH2 0x100 SWAP1 DIV PUSH1 0xFF AND DUP1 PUSH2 0x153B JUMPI POP PUSH1 0x0 SLOAD PUSH1 0xFF AND ISZERO JUMPDEST PUSH2 0x1557 JUMPI PUSH1 0x40 MLOAD PUSH3 0x461BCD PUSH1 0xE5 SHL DUP2 MSTORE PUSH1 0x4 ADD PUSH2 0x65E SWAP1 PUSH2 0x3559 JUMP JUMPDEST PUSH1 0x0 SLOAD PUSH2 0x100 SWAP1 DIV PUSH1 0xFF AND ISZERO DUP1 ISZERO PUSH2 0x1582 JUMPI PUSH1 0x0 DUP1 SLOAD PUSH1 0xFF NOT PUSH2 0xFF00 NOT SWAP1 SWAP2 AND PUSH2 0x100 OR AND PUSH1 0x1 OR SWAP1 SSTORE JUMPDEST PUSH2 0x158A PUSH2 0x1F09 JUMP JUMPDEST PUSH2 0x1592 PUSH2 0x201A JUMP JUMPDEST DUP1 ISZERO PUSH2 0x143A JUMPI PUSH1 0x0 DUP1 SLOAD PUSH2 0xFF00 NOT AND SWAP1 SSTORE POP JUMP JUMPDEST PUSH1 0x0 SWAP1 DUP2 MSTORE PUSH1 0x67 PUSH1 0x20 MSTORE PUSH1 0x40 SWAP1 KECCAK256 SLOAD PUSH1 0x1 PUSH1 0x1 PUSH1 0xA0 SHL SUB AND ISZERO ISZERO SWAP1 JUMP JUMPDEST CALLER SWAP1 JUMP JUMPDEST PUSH1 0x0 DUP2 DUP2 MSTORE PUSH1 0x69 PUSH1 0x20 MSTORE PUSH1 0x40 SWAP1 KECCAK256 DUP1 SLOAD PUSH1 0x1 PUSH1 0x1 PUSH1 0xA0 SHL SUB NOT AND PUSH1 0x1 PUSH1 0x1 PUSH1 0xA0 SHL SUB DUP5 AND SWAP1 DUP2 OR SWAP1 SWAP2 SSTORE DUP2 SWAP1 PUSH2 0x15FC DUP3 PUSH2 0xF11 JUMP JUMPDEST PUSH1 0x1 PUSH1 0x1 PUSH1 0xA0 SHL SUB AND PUSH32 0x8C5BE1E5EBEC7D5BD14F71427D1E84F3DD0314C0F7B2291E5B200AC8C7C3B925 PUSH1 0x40 MLOAD PUSH1 0x40 MLOAD DUP1 SWAP2 SUB SWAP1 LOG4 POP POP JUMP JUMPDEST PUSH1 0x0 PUSH2 0x1640 DUP3 PUSH2 0x15A6 JUMP JUMPDEST PUSH2 0x165C JUMPI PUSH1 0x40 MLOAD PUSH3 0x461BCD PUSH1 0xE5 SHL DUP2 MSTORE PUSH1 0x4 ADD PUSH2 0x65E SWAP1 PUSH2 0x341D JUMP JUMPDEST PUSH1 0x0 PUSH2 0x1667 DUP4 PUSH2 0xF11 JUMP JUMPDEST SWAP1 POP DUP1 PUSH1 0x1 PUSH1 0x1 PUSH1 0xA0 SHL SUB AND DUP5 PUSH1 0x1 PUSH1 0x1 PUSH1 0xA0 SHL SUB AND EQ DUP1 PUSH2 0x16A2 JUMPI POP DUP4 PUSH1 0x1 PUSH1 0x1 PUSH1 0xA0 SHL SUB AND PUSH2 0x1697 DUP5 PUSH2 0x77F JUMP JUMPDEST PUSH1 0x1 PUSH1 0x1 PUSH1 0xA0 SHL SUB AND EQ JUMPDEST DUP1 PUSH2 0x1020 JUMPI POP PUSH2 0x1020 DUP2 DUP6 PUSH2 0x139E JUMP JUMPDEST DUP3 PUSH1 0x1 PUSH1 0x1 PUSH1 0xA0 SHL SUB AND PUSH2 0x16C5 DUP3 PUSH2 0xF11 JUMP JUMPDEST PUSH1 0x1 PUSH1 0x1 PUSH1 0xA0 SHL SUB AND EQ PUSH2 0x16EB JUMPI PUSH1 0x40 MLOAD PUSH3 0x461BCD PUSH1 0xE5 SHL DUP2 MSTORE PUSH1 0x4 ADD PUSH2 0x65E SWAP1 PUSH2 0x36AE JUMP JUMPDEST PUSH1 0x1 PUSH1 0x1 PUSH1 0xA0 SHL SUB DUP3 AND PUSH2 0x1711 JUMPI PUSH1 0x40 MLOAD PUSH3 0x461BCD PUSH1 0xE5 SHL DUP2 MSTORE PUSH1 0x4 ADD PUSH2 0x65E SWAP1 PUSH2 0x3302 JUMP JUMPDEST PUSH2 0x171C DUP4 DUP4 DUP4 PUSH2 0x208A JUMP JUMPDEST PUSH2 0x1727 PUSH1 0x0 DUP3 PUSH2 0x15C7 JUMP JUMPDEST PUSH1 0x1 PUSH1 0x1 PUSH1 0xA0 SHL SUB DUP4 AND PUSH1 0x0 SWAP1 DUP2 MSTORE PUSH1 0x68 PUSH1 0x20 MSTORE PUSH1 0x40 DUP2 KECCAK256 DUP1 SLOAD PUSH1 0x1 SWAP3 SWAP1 PUSH2 0x1750 SWAP1 DUP5 SWAP1 PUSH2 0x39B0 JUMP JUMPDEST SWAP1 SWAP2 SSTORE POP POP PUSH1 0x1 PUSH1 0x1 PUSH1 0xA0 SHL SUB DUP3 AND PUSH1 0x0 SWAP1 DUP2 MSTORE PUSH1 0x68 PUSH1 0x20 MSTORE PUSH1 0x40 DUP2 KECCAK256 DUP1 SLOAD PUSH1 0x1 SWAP3 SWAP1 PUSH2 0x177E SWAP1 DUP5 SWAP1 PUSH2 0x3926 JUMP JUMPDEST SWAP1 SWAP2 SSTORE POP POP PUSH1 0x0 DUP2 DUP2 MSTORE PUSH1 0x67 PUSH1 0x20 MSTORE PUSH1 0x40 DUP1 DUP3 KECCAK256 DUP1 SLOAD PUSH1 0x1 PUSH1 0x1 PUSH1 0xA0 SHL SUB NOT AND PUSH1 0x1 PUSH1 0x1 PUSH1 0xA0 SHL SUB DUP7 DUP2 AND SWAP2 DUP3 OR SWAP1 SWAP3 SSTORE SWAP2 MLOAD DUP5 SWAP4 SWAP2 DUP8 AND SWAP2 PUSH32 0xDDF252AD1BE2C89B69C2B068FC378DAA952BA7F163C4A11628F55A4DF523B3EF SWAP2 LOG4 POP POP POP JUMP JUMPDEST PUSH1 0x40 DUP1 MLOAD PUSH1 0x80 DUP2 ADD DUP3 MSTORE DUP6 DUP2 MSTORE PUSH1 0x20 DUP1 DUP3 ADD DUP7 SWAP1 MSTORE DUP2 DUP4 ADD DUP6 SWAP1 MSTORE PUSH1 0x60 DUP3 ADD DUP5 SWAP1 MSTORE PUSH1 0x0 DUP9 DUP2 MSTORE PUSH2 0x103 DUP3 MSTORE SWAP3 DUP4 KECCAK256 DUP3 MLOAD DUP1 MLOAD SWAP2 SWAP3 PUSH2 0x1823 SWAP3 DUP5 SWAP3 SWAP1 SWAP2 ADD SWAP1 PUSH2 0x2A2D JUMP JUMPDEST POP PUSH1 0x20 DUP3 ADD MLOAD DUP2 PUSH1 0x1 ADD SSTORE PUSH1 0x40 DUP3 ADD MLOAD DUP2 PUSH1 0x2 ADD SSTORE PUSH1 0x60 DUP3 ADD MLOAD DUP2 PUSH1 0x3 ADD SSTORE SWAP1 POP POP PUSH1 0x1 SWAP1 POP SWAP6 SWAP5 POP POP POP POP POP JUMP JUMPDEST PUSH2 0x101 SLOAD PUSH1 0x0 SWAP1 PUSH1 0xFF AND PUSH2 0x1878 JUMPI PUSH1 0x40 MLOAD PUSH3 0x461BCD PUSH1 0xE5 SHL DUP2 MSTORE PUSH1 0x4 ADD PUSH2 0x65E SWAP1 PUSH2 0x3278 JUMP JUMPDEST PUSH2 0x1880 PUSH2 0x85A JUMP JUMPDEST PUSH1 0xFF SLOAD GT ISZERO DUP1 PUSH2 0x1893 JUMPI POP PUSH2 0x100 SLOAD TIMESTAMP LT ISZERO JUMPDEST ISZERO PUSH2 0x18A0 JUMPI POP PUSH1 0x1 PUSH2 0x626 JUMP JUMPDEST PUSH1 0x40 MLOAD PUSH3 0x461BCD PUSH1 0xE5 SHL DUP2 MSTORE PUSH1 0x4 ADD PUSH2 0x65E SWAP1 PUSH2 0x33A4 JUMP JUMPDEST PUSH1 0x0 PUSH2 0x18C4 DUP3 DUP5 PUSH2 0x3926 JUMP JUMPDEST SWAP4 SWAP3 POP POP POP JUMP JUMPDEST PUSH1 0x0 PUSH2 0x18D6 DUP3 PUSH2 0xF11 JUMP JUMPDEST SWAP1 POP PUSH2 0x18E4 DUP2 PUSH1 0x0 DUP5 PUSH2 0x208A JUMP JUMPDEST PUSH2 0x18EF PUSH1 0x0 DUP4 PUSH2 0x15C7 JUMP JUMPDEST PUSH1 0x1 PUSH1 0x1 PUSH1 0xA0 SHL SUB DUP2 AND PUSH1 0x0 SWAP1 DUP2 MSTORE PUSH1 0x68 PUSH1 0x20 MSTORE PUSH1 0x40 DUP2 KECCAK256 DUP1 SLOAD PUSH1 0x1 SWAP3 SWAP1 PUSH2 0x1918 SWAP1 DUP5 SWAP1 PUSH2 0x39B0 JUMP JUMPDEST SWAP1 SWAP2 SSTORE POP POP PUSH1 0x0 DUP3 DUP2 MSTORE PUSH1 0x67 PUSH1 0x20 MSTORE PUSH1 0x40 DUP1 DUP3 KECCAK256 DUP1 SLOAD PUSH1 0x1 PUSH1 0x1 PUSH1 0xA0 SHL SUB NOT AND SWAP1 SSTORE MLOAD DUP4 SWAP2 SWAP1 PUSH1 0x1 PUSH1 0x1 PUSH1 0xA0 SHL SUB DUP5 AND SWAP1 PUSH32 0xDDF252AD1BE2C89B69C2B068FC378DAA952BA7F163C4A11628F55A4DF523B3EF SWAP1 DUP4 SWAP1 LOG4 POP POP JUMP JUMPDEST PUSH1 0x0 PUSH2 0x18C4 DUP3 DUP5 PUSH2 0x39B0 JUMP JUMPDEST PUSH1 0x0 PUSH2 0x18C4 DUP3 DUP5 PUSH2 0x3952 JUMP JUMPDEST PUSH1 0x0 PUSH2 0x18C4 DUP3 DUP5 PUSH2 0x393E JUMP JUMPDEST PUSH1 0xC9 DUP1 SLOAD PUSH1 0x1 PUSH1 0x1 PUSH1 0xA0 SHL SUB DUP4 DUP2 AND PUSH1 0x1 PUSH1 0x1 PUSH1 0xA0 SHL SUB NOT DUP4 AND DUP2 OR SWAP1 SWAP4 SSTORE PUSH1 0x40 MLOAD SWAP2 AND SWAP2 SWAP1 DUP3 SWAP1 PUSH32 0x8BE0079C531659141344CD1FD0A4F28419497F9722A3DAAFE3B4186F6B6457E0 SWAP1 PUSH1 0x0 SWAP1 LOG3 POP POP JUMP JUMPDEST PUSH1 0x40 DUP1 MLOAD PUSH1 0x60 DUP2 ADD DUP3 MSTORE SWAP4 DUP5 MSTORE PUSH1 0x20 DUP1 DUP6 ADD SWAP4 DUP5 MSTORE DUP5 DUP3 ADD SWAP3 DUP4 MSTORE PUSH1 0x1 PUSH1 0x1 PUSH1 0xA0 SHL SUB SWAP6 SWAP1 SWAP6 AND PUSH1 0x0 SWAP1 DUP2 MSTORE PUSH2 0x104 SWAP1 SWAP6 MSTORE SWAP1 SWAP4 KECCAK256 SWAP2 MLOAD DUP3 SSTORE MLOAD PUSH1 0x1 DUP1 DUP4 ADD SWAP2 SWAP1 SWAP2 SSTORE SWAP2 MLOAD PUSH1 0x2 SWAP1 SWAP2 ADD SSTORE SWAP1 JUMP JUMPDEST DUP2 PUSH1 0x1 PUSH1 0x1 PUSH1 0xA0 SHL SUB AND DUP4 PUSH1 0x1 PUSH1 0x1 PUSH1 0xA0 SHL SUB AND EQ ISZERO PUSH2 0x1A68 JUMPI PUSH1 0x40 MLOAD PUSH3 0x461BCD PUSH1 0xE5 SHL DUP2 MSTORE PUSH1 0x4 ADD PUSH2 0x65E SWAP1 PUSH2 0x3346 JUMP JUMPDEST PUSH1 0x1 PUSH1 0x1 PUSH1 0xA0 SHL SUB DUP4 DUP2 AND PUSH1 0x0 DUP2 DUP2 MSTORE PUSH1 0x6A PUSH1 0x20 SWAP1 DUP2 MSTORE PUSH1 0x40 DUP1 DUP4 KECCAK256 SWAP5 DUP8 AND DUP1 DUP5 MSTORE SWAP5 SWAP1 SWAP2 MSTORE SWAP1 DUP2 SWAP1 KECCAK256 DUP1 SLOAD PUSH1 0xFF NOT AND DUP6 ISZERO ISZERO OR SWAP1 SSTORE MLOAD PUSH32 0x17307EAB39AB6107E8899845AD3D59BD9653F200F220920489CA2B5937696C31 SWAP1 PUSH2 0x1ACC SWAP1 DUP6 SWAP1 PUSH2 0x30DF JUMP JUMPDEST PUSH1 0x40 MLOAD DUP1 SWAP2 SUB SWAP1 LOG3 POP POP POP JUMP JUMPDEST PUSH2 0x1AE4 DUP5 DUP5 DUP5 PUSH2 0x16B2 JUMP JUMPDEST PUSH2 0x1AF0 DUP5 DUP5 DUP5 DUP5 PUSH2 0x2113 JUMP JUMPDEST PUSH2 0x779 JUMPI PUSH1 0x40 MLOAD PUSH3 0x461BCD PUSH1 0xE5 SHL DUP2 MSTORE PUSH1 0x4 ADD PUSH2 0x65E SWAP1 PUSH2 0x3172 JUMP JUMPDEST PUSH1 0x60 DUP2 PUSH2 0x1B31 JUMPI POP PUSH1 0x40 DUP1 MLOAD DUP1 DUP3 ADD SWAP1 SWAP2 MSTORE PUSH1 0x1 DUP2 MSTORE PUSH1 0x3 PUSH1 0xFC SHL PUSH1 0x20 DUP3 ADD MSTORE PUSH2 0x591 JUMP JUMPDEST DUP2 PUSH1 0x0 JUMPDEST DUP2 ISZERO PUSH2 0x1B5B JUMPI DUP1 PUSH2 0x1B45 DUP2 PUSH2 0x3A2E JUMP JUMPDEST SWAP2 POP PUSH2 0x1B54 SWAP1 POP PUSH1 0xA DUP4 PUSH2 0x393E JUMP JUMPDEST SWAP2 POP PUSH2 0x1B35 JUMP JUMPDEST PUSH1 0x0 DUP2 PUSH8 0xFFFFFFFFFFFFFFFF DUP2 GT ISZERO PUSH2 0x1B84 JUMPI PUSH4 0x4E487B71 PUSH1 0xE0 SHL PUSH1 0x0 MSTORE PUSH1 0x41 PUSH1 0x4 MSTORE PUSH1 0x24 PUSH1 0x0 REVERT JUMPDEST PUSH1 0x40 MLOAD SWAP1 DUP1 DUP3 MSTORE DUP1 PUSH1 0x1F ADD PUSH1 0x1F NOT AND PUSH1 0x20 ADD DUP3 ADD PUSH1 0x40 MSTORE DUP1 ISZERO PUSH2 0x1BAE JUMPI PUSH1 0x20 DUP3 ADD DUP2 DUP1 CALLDATASIZE DUP4 CALLDATACOPY ADD SWAP1 POP JUMPDEST POP SWAP1 POP JUMPDEST DUP5 ISZERO PUSH2 0x1020 JUMPI PUSH2 0x1BC3 PUSH1 0x1 DUP4 PUSH2 0x39B0 JUMP JUMPDEST SWAP2 POP PUSH2 0x1BD0 PUSH1 0xA DUP7 PUSH2 0x3A49 JUMP JUMPDEST PUSH2 0x1BDB SWAP1 PUSH1 0x30 PUSH2 0x3926 JUMP JUMPDEST PUSH1 0xF8 SHL DUP2 DUP4 DUP2 MLOAD DUP2 LT PUSH2 0x1BFE JUMPI PUSH4 0x4E487B71 PUSH1 0xE0 SHL PUSH1 0x0 MSTORE PUSH1 0x32 PUSH1 0x4 MSTORE PUSH1 0x24 PUSH1 0x0 REVERT JUMPDEST PUSH1 0x20 ADD ADD SWAP1 PUSH1 0x1 PUSH1 0x1 PUSH1 0xF8 SHL SUB NOT AND SWAP1 DUP2 PUSH1 0x0 BYTE SWAP1 MSTORE8 POP PUSH2 0x1C20 PUSH1 0xA DUP7 PUSH2 0x393E JUMP JUMPDEST SWAP5 POP PUSH2 0x1BB2 JUMP JUMPDEST PUSH1 0x40 DUP1 MLOAD PUSH2 0x180 DUP2 ADD DUP3 MSTORE PUSH1 0x1 PUSH2 0x140 DUP3 ADD DUP2 DUP2 MSTORE PUSH1 0x1F PUSH1 0xFA SHL PUSH2 0x160 DUP5 ADD MSTORE DUP3 MSTORE DUP3 MLOAD DUP1 DUP5 ADD DUP5 MSTORE DUP2 DUP2 MSTORE PUSH1 0x23 PUSH1 0xF8 SHL PUSH1 0x20 DUP3 DUP2 ADD SWAP2 SWAP1 SWAP2 MSTORE DUP1 DUP5 ADD SWAP2 SWAP1 SWAP2 MSTORE DUP4 MLOAD DUP1 DUP6 ADD DUP6 MSTORE DUP3 DUP2 MSTORE PUSH1 0x5 PUSH1 0xFB SHL DUP2 DUP4 ADD MSTORE DUP4 DUP6 ADD MSTORE DUP4 MLOAD DUP1 DUP6 ADD DUP6 MSTORE DUP3 DUP2 MSTORE PUSH1 0x29 PUSH1 0xF8 SHL DUP2 DUP4 ADD MSTORE PUSH1 0x60 DUP5 ADD MSTORE DUP4 MLOAD DUP1 DUP6 ADD DUP6 MSTORE DUP3 DUP2 MSTORE PUSH1 0x21 PUSH1 0xF8 SHL DUP2 DUP4 ADD MSTORE PUSH1 0x80 DUP5 ADD MSTORE DUP4 MLOAD DUP1 DUP6 ADD DUP6 MSTORE DUP3 DUP2 MSTORE PUSH1 0x5D PUSH1 0xF8 SHL DUP2 DUP4 ADD MSTORE PUSH1 0xA0 DUP5 ADD MSTORE DUP4 MLOAD DUP1 DUP6 ADD DUP6 MSTORE DUP3 DUP2 MSTORE PUSH1 0x9 PUSH1 0xFA SHL DUP2 DUP4 ADD MSTORE PUSH1 0xC0 DUP5 ADD MSTORE DUP4 MLOAD DUP1 DUP6 ADD DUP6 MSTORE DUP3 DUP2 MSTORE PUSH1 0x5B PUSH1 0xF8 SHL DUP2 DUP4 ADD MSTORE PUSH1 0xE0 DUP5 ADD MSTORE DUP4 MLOAD DUP1 DUP6 ADD DUP6 MSTORE DUP3 DUP2 MSTORE PUSH1 0x2B PUSH1 0xF8 SHL DUP2 DUP4 ADD MSTORE PUSH2 0x100 DUP5 ADD MSTORE DUP4 MLOAD DUP1 DUP6 ADD SWAP1 SWAP5 MSTORE SWAP1 DUP4 MSTORE PUSH1 0x13 PUSH1 0xF9 SHL SWAP1 DUP4 ADD MSTORE PUSH2 0x120 DUP2 ADD SWAP2 SWAP1 SWAP2 MSTORE PUSH1 0x0 SWAP1 DUP2 PUSH2 0x1D56 PUSH2 0x1D3C PUSH2 0x85A JUMP JUMPDEST PUSH2 0x1D47 DUP8 PUSH1 0x1 PUSH2 0x3926 JUMP JUMPDEST PUSH2 0x1D51 SWAP2 SWAP1 PUSH2 0x3926 JUMP JUMPDEST PUSH2 0x222B JUMP JUMPDEST SWAP1 POP PUSH1 0x0 PUSH2 0x1D70 PUSH2 0x1D65 PUSH2 0x85A JUMP JUMPDEST PUSH2 0x1D47 DUP9 PUSH1 0x2 PUSH2 0x3926 JUMP JUMPDEST SWAP1 POP PUSH1 0x0 PUSH2 0x1D8A PUSH2 0x1D7F PUSH2 0x85A JUMP JUMPDEST PUSH2 0x1D47 DUP10 PUSH1 0x3 PUSH2 0x3926 JUMP JUMPDEST SWAP1 POP PUSH1 0x0 PUSH2 0x1DA4 PUSH2 0x1D99 PUSH2 0x85A JUMP JUMPDEST PUSH2 0x1D47 DUP11 PUSH1 0x4 PUSH2 0x3926 JUMP JUMPDEST SWAP1 POP PUSH1 0x0 PUSH2 0x1DBE PUSH2 0x1DB3 PUSH2 0x85A JUMP JUMPDEST PUSH2 0x1D47 DUP12 PUSH1 0x5 PUSH2 0x3926 JUMP JUMPDEST SWAP1 POP PUSH1 0x0 DUP7 DUP7 PUSH1 0xA DUP2 LT PUSH2 0x1DE2 JUMPI PUSH4 0x4E487B71 PUSH1 0xE0 SHL PUSH1 0x0 MSTORE PUSH1 0x32 PUSH1 0x4 MSTORE PUSH1 0x24 PUSH1 0x0 REVERT JUMPDEST PUSH1 0x20 MUL ADD MLOAD DUP8 DUP7 PUSH1 0xA DUP2 LT PUSH2 0x1E07 JUMPI PUSH4 0x4E487B71 PUSH1 0xE0 SHL PUSH1 0x0 MSTORE PUSH1 0x32 PUSH1 0x4 MSTORE PUSH1 0x24 PUSH1 0x0 REVERT JUMPDEST PUSH1 0x20 MUL ADD MLOAD DUP9 DUP7 PUSH1 0xA DUP2 LT PUSH2 0x1E2C JUMPI PUSH4 0x4E487B71 PUSH1 0xE0 SHL PUSH1 0x0 MSTORE PUSH1 0x32 PUSH1 0x4 MSTORE PUSH1 0x24 PUSH1 0x0 REVERT JUMPDEST PUSH1 0x20 MUL ADD MLOAD DUP10 DUP7 PUSH1 0xA DUP2 LT PUSH2 0x1E51 JUMPI PUSH4 0x4E487B71 PUSH1 0xE0 SHL PUSH1 0x0 MSTORE PUSH1 0x32 PUSH1 0x4 MSTORE PUSH1 0x24 PUSH1 0x0 REVERT JUMPDEST PUSH1 0x20 MUL ADD MLOAD DUP11 DUP7 PUSH1 0xA DUP2 LT PUSH2 0x1E76 JUMPI PUSH4 0x4E487B71 PUSH1 0xE0 SHL PUSH1 0x0 MSTORE PUSH1 0x32 PUSH1 0x4 MSTORE PUSH1 0x24 PUSH1 0x0 REVERT JUMPDEST PUSH1 0x20 MUL ADD MLOAD PUSH1 0x40 MLOAD PUSH1 0x20 ADD PUSH2 0x1E8F SWAP6 SWAP5 SWAP4 SWAP3 SWAP2 SWAP1 PUSH2 0x2FE7 JUMP JUMPDEST PUSH1 0x40 MLOAD PUSH1 0x20 DUP2 DUP4 SUB SUB DUP2 MSTORE SWAP1 PUSH1 0x40 MSTORE SWAP1 POP PUSH1 0x0 PUSH2 0x1EAD PUSH1 0x8 DUP13 PUSH2 0x22F1 JUMP JUMPDEST SWAP1 POP PUSH1 0x0 PUSH2 0x1EBF DUP3 PUSH1 0x1 PUSH2 0x2710 PUSH2 0x2311 JUMP JUMPDEST SWAP1 POP PUSH1 0x0 PUSH2 0x1ECC DUP14 PUSH2 0x2366 JUMP JUMPDEST SWAP1 POP PUSH2 0x1EDB DUP15 DUP6 DUP15 DUP5 DUP7 PUSH2 0x23B3 JUMP JUMPDEST POP PUSH1 0x1 SWAP15 SWAP14 POP POP POP POP POP POP POP POP POP POP POP POP POP POP JUMP JUMPDEST PUSH1 0x1 PUSH1 0x1 PUSH1 0xE0 SHL SUB NOT DUP2 AND PUSH4 0x1FFC9A7 PUSH1 0xE0 SHL EQ SWAP2 SWAP1 POP JUMP JUMPDEST PUSH1 0x0 SLOAD PUSH2 0x100 SWAP1 DIV PUSH1 0xFF AND DUP1 PUSH2 0x1F22 JUMPI POP PUSH1 0x0 SLOAD PUSH1 0xFF AND ISZERO JUMPDEST PUSH2 0x1F3E JUMPI PUSH1 0x40 MLOAD PUSH3 0x461BCD PUSH1 0xE5 SHL DUP2 MSTORE PUSH1 0x4 ADD PUSH2 0x65E SWAP1 PUSH2 0x3559 JUMP JUMPDEST PUSH1 0x0 SLOAD PUSH2 0x100 SWAP1 DIV PUSH1 0xFF AND ISZERO DUP1 ISZERO PUSH2 0x1592 JUMPI PUSH1 0x0 DUP1 SLOAD PUSH1 0xFF NOT PUSH2 0xFF00 NOT SWAP1 SWAP2 AND PUSH2 0x100 OR AND PUSH1 0x1 OR SWAP1 SSTORE DUP1 ISZERO PUSH2 0x143A JUMPI PUSH1 0x0 DUP1 SLOAD PUSH2 0xFF00 NOT AND SWAP1 SSTORE POP JUMP JUMPDEST PUSH1 0x0 SLOAD PUSH2 0x100 SWAP1 DIV PUSH1 0xFF AND DUP1 PUSH2 0x1F95 JUMPI POP PUSH1 0x0 SLOAD PUSH1 0xFF AND ISZERO JUMPDEST PUSH2 0x1FB1 JUMPI PUSH1 0x40 MLOAD PUSH3 0x461BCD PUSH1 0xE5 SHL DUP2 MSTORE PUSH1 0x4 ADD PUSH2 0x65E SWAP1 PUSH2 0x3559 JUMP JUMPDEST PUSH1 0x0 SLOAD PUSH2 0x100 SWAP1 DIV PUSH1 0xFF AND ISZERO DUP1 ISZERO PUSH2 0x1FDC JUMPI PUSH1 0x0 DUP1 SLOAD PUSH1 0xFF NOT PUSH2 0xFF00 NOT SWAP1 SWAP2 AND PUSH2 0x100 OR AND PUSH1 0x1 OR SWAP1 SSTORE JUMPDEST DUP3 MLOAD PUSH2 0x1FEF SWAP1 PUSH1 0x65 SWAP1 PUSH1 0x20 DUP7 ADD SWAP1 PUSH2 0x2A2D JUMP JUMPDEST POP DUP2 MLOAD PUSH2 0x2003 SWAP1 PUSH1 0x66 SWAP1 PUSH1 0x20 DUP6 ADD SWAP1 PUSH2 0x2A2D JUMP JUMPDEST POP DUP1 ISZERO PUSH2 0x855 JUMPI PUSH1 0x0 DUP1 SLOAD PUSH2 0xFF00 NOT AND SWAP1 SSTORE POP POP POP JUMP JUMPDEST PUSH1 0x0 SLOAD PUSH2 0x100 SWAP1 DIV PUSH1 0xFF AND DUP1 PUSH2 0x2033 JUMPI POP PUSH1 0x0 SLOAD PUSH1 0xFF AND ISZERO JUMPDEST PUSH2 0x204F JUMPI PUSH1 0x40 MLOAD PUSH3 0x461BCD PUSH1 0xE5 SHL DUP2 MSTORE PUSH1 0x4 ADD PUSH2 0x65E SWAP1 PUSH2 0x3559 JUMP JUMPDEST PUSH1 0x0 SLOAD PUSH2 0x100 SWAP1 DIV PUSH1 0xFF AND ISZERO DUP1 ISZERO PUSH2 0x207A JUMPI PUSH1 0x0 DUP1 SLOAD PUSH1 0xFF NOT PUSH2 0xFF00 NOT SWAP1 SWAP2 AND PUSH2 0x100 OR AND PUSH1 0x1 OR SWAP1 SSTORE JUMPDEST PUSH2 0x1592 PUSH2 0x2085 PUSH2 0x15C3 JUMP JUMPDEST PUSH2 0x1996 JUMP JUMPDEST PUSH2 0x2095 DUP4 DUP4 DUP4 PUSH2 0x855 JUMP JUMPDEST PUSH1 0x1 PUSH1 0x1 PUSH1 0xA0 SHL SUB DUP4 AND PUSH2 0x20B1 JUMPI PUSH2 0x20AC DUP2 PUSH2 0x23EE JUMP JUMPDEST PUSH2 0x20D4 JUMP JUMPDEST DUP2 PUSH1 0x1 PUSH1 0x1 PUSH1 0xA0 SHL SUB AND DUP4 PUSH1 0x1 PUSH1 0x1 PUSH1 0xA0 SHL SUB AND EQ PUSH2 0x20D4 JUMPI PUSH2 0x20D4 DUP4 DUP3 PUSH2 0x2432 JUMP JUMPDEST PUSH1 0x1 PUSH1 0x1 PUSH1 0xA0 SHL SUB DUP3 AND PUSH2 0x20F0 JUMPI PUSH2 0x20EB DUP2 PUSH2 0x24CF JUMP JUMPDEST PUSH2 0x855 JUMP JUMPDEST DUP3 PUSH1 0x1 PUSH1 0x1 PUSH1 0xA0 SHL SUB AND DUP3 PUSH1 0x1 PUSH1 0x1 PUSH1 0xA0 SHL SUB AND EQ PUSH2 0x855 JUMPI PUSH2 0x855 DUP3 DUP3 PUSH2 0x25A8 JUMP JUMPDEST PUSH1 0x0 PUSH2 0x2127 DUP5 PUSH1 0x1 PUSH1 0x1 PUSH1 0xA0 SHL SUB AND PUSH2 0x25EC JUMP JUMPDEST ISZERO PUSH2 0x2223 JUMPI DUP4 PUSH1 0x1 PUSH1 0x1 PUSH1 0xA0 SHL SUB AND PUSH4 0x150B7A02 PUSH2 0x2143 PUSH2 0x15C3 JUMP JUMPDEST DUP8 DUP7 DUP7 PUSH1 0x40 MLOAD DUP6 PUSH4 0xFFFFFFFF AND PUSH1 0xE0 SHL DUP2 MSTORE PUSH1 0x4 ADD PUSH2 0x2165 SWAP5 SWAP4 SWAP3 SWAP2 SWAP1 PUSH2 0x3093 JUMP JUMPDEST PUSH1 0x20 PUSH1 0x40 MLOAD DUP1 DUP4 SUB DUP2 PUSH1 0x0 DUP8 DUP1 EXTCODESIZE ISZERO DUP1 ISZERO PUSH2 0x217F JUMPI PUSH1 0x0 DUP1 REVERT JUMPDEST POP GAS CALL SWAP3 POP POP POP DUP1 ISZERO PUSH2 0x21AF JUMPI POP PUSH1 0x40 DUP1 MLOAD PUSH1 0x1F RETURNDATASIZE SWAP1 DUP2 ADD PUSH1 0x1F NOT AND DUP3 ADD SWAP1 SWAP3 MSTORE PUSH2 0x21AC SWAP2 DUP2 ADD SWAP1 PUSH2 0x2D89 JUMP JUMPDEST PUSH1 0x1 JUMPDEST PUSH2 0x2209 JUMPI RETURNDATASIZE DUP1 DUP1 ISZERO PUSH2 0x21DD JUMPI PUSH1 0x40 MLOAD SWAP2 POP PUSH1 0x1F NOT PUSH1 0x3F RETURNDATASIZE ADD AND DUP3 ADD PUSH1 0x40 MSTORE RETURNDATASIZE DUP3 MSTORE RETURNDATASIZE PUSH1 0x0 PUSH1 0x20 DUP5 ADD RETURNDATACOPY PUSH2 0x21E2 JUMP JUMPDEST PUSH1 0x60 SWAP2 POP JUMPDEST POP DUP1 MLOAD PUSH2 0x2201 JUMPI PUSH1 0x40 MLOAD PUSH3 0x461BCD PUSH1 0xE5 SHL DUP2 MSTORE PUSH1 0x4 ADD PUSH2 0x65E SWAP1 PUSH2 0x3172 JUMP JUMPDEST DUP1 MLOAD DUP2 PUSH1 0x20 ADD REVERT JUMPDEST PUSH1 0x1 PUSH1 0x1 PUSH1 0xE0 SHL SUB NOT AND PUSH4 0xA85BD01 PUSH1 0xE1 SHL EQ SWAP1 POP PUSH2 0x1020 JUMP JUMPDEST POP PUSH1 0x1 PUSH2 0x1020 JUMP JUMPDEST PUSH1 0x0 DUP1 PUSH2 0x2239 PUSH1 0xA DUP5 PUSH2 0x22F1 JUMP JUMPDEST SWAP1 POP PUSH1 0x0 PUSH2 0x224A DUP3 PUSH1 0x1 PUSH1 0x64 PUSH2 0x2311 JUMP JUMPDEST SWAP1 POP PUSH1 0xA DUP2 GT PUSH2 0x225D JUMPI PUSH1 0x0 SWAP3 POP PUSH2 0x22EA JUMP JUMPDEST PUSH1 0x14 DUP2 GT PUSH2 0x226E JUMPI PUSH1 0x1 SWAP3 POP PUSH2 0x22EA JUMP JUMPDEST PUSH1 0x1E DUP2 GT PUSH2 0x227F JUMPI PUSH1 0x2 SWAP3 POP PUSH2 0x22EA JUMP JUMPDEST PUSH1 0x28 DUP2 GT PUSH2 0x2290 JUMPI PUSH1 0x3 SWAP3 POP PUSH2 0x22EA JUMP JUMPDEST PUSH1 0x32 DUP2 GT PUSH2 0x22A1 JUMPI PUSH1 0x4 SWAP3 POP PUSH2 0x22EA JUMP JUMPDEST PUSH1 0x3C DUP2 GT PUSH2 0x22B2 JUMPI PUSH1 0x5 SWAP3 POP PUSH2 0x22EA JUMP JUMPDEST PUSH1 0x46 DUP2 GT PUSH2 0x22C3 JUMPI PUSH1 0x6 SWAP3 POP PUSH2 0x22EA JUMP JUMPDEST PUSH1 0x50 DUP2 GT PUSH2 0x22D4 JUMPI PUSH1 0x7 SWAP3 POP PUSH2 0x22EA JUMP JUMPDEST PUSH1 0x5A DUP2 GT PUSH2 0x22E5 JUMPI PUSH1 0x8 SWAP3 POP PUSH2 0x22EA JUMP JUMPDEST PUSH1 0x9 SWAP3 POP JUMPDEST POP POP SWAP2 SWAP1 POP JUMP JUMPDEST PUSH1 0x60 PUSH2 0x18C4 PUSH2 0x2300 DUP5 NUMBER PUSH2 0x39B0 JUMP JUMPDEST PUSH2 0x230B PUSH1 0x1 NUMBER PUSH2 0x39B0 JUMP JUMPDEST DUP5 PUSH2 0x25F2 JUMP JUMPDEST PUSH1 0x0 DUP2 DUP4 SGT ISZERO PUSH2 0x2333 JUMPI PUSH1 0x40 MLOAD PUSH3 0x461BCD PUSH1 0xE5 SHL DUP2 MSTORE PUSH1 0x4 ADD PUSH2 0x65E SWAP1 PUSH2 0x383D JUMP JUMPDEST DUP3 PUSH2 0x233E DUP2 DUP5 PUSH2 0x3971 JUMP JUMPDEST PUSH2 0x2349 SWAP1 PUSH1 0x1 PUSH2 0x38E5 JUMP JUMPDEST PUSH2 0x2352 DUP7 PUSH2 0x275A JUMP JUMPDEST PUSH2 0x235C SWAP2 SWAP1 PUSH2 0x3A49 JUMP JUMPDEST PUSH2 0x1020 SWAP2 SWAP1 PUSH2 0x38E5 JUMP JUMPDEST PUSH1 0x0 DUP1 PUSH2 0x2374 PUSH1 0x3 DUP5 PUSH2 0x22F1 JUMP JUMPDEST SWAP1 POP PUSH1 0x0 PUSH2 0x2385 DUP3 PUSH1 0x1 PUSH1 0x64 PUSH2 0x2311 JUMP JUMPDEST SWAP1 POP PUSH1 0x3C DUP2 GT PUSH2 0x2398 JUMPI PUSH1 0x0 SWAP3 POP PUSH2 0x22EA JUMP JUMPDEST PUSH1 0x5A DUP2 GT PUSH2 0x23A9 JUMPI PUSH1 0x1 SWAP3 POP PUSH2 0x22EA JUMP JUMPDEST POP PUSH1 0x2 SWAP4 SWAP3 POP POP POP JUMP JUMPDEST PUSH1 0x0 PUSH2 0x23C4 PUSH1 0xFC SLOAD DUP7 DUP7 DUP7 DUP7 PUSH2 0x17DF JUMP JUMPDEST POP PUSH2 0x23D1 DUP7 PUSH1 0xFC SLOAD PUSH2 0x28BD JUMP JUMPDEST PUSH1 0xFC SLOAD PUSH2 0x23DF SWAP1 PUSH1 0x1 PUSH2 0x18B8 JUMP JUMPDEST PUSH1 0xFC SSTORE POP PUSH1 0x1 SWAP6 SWAP5 POP POP POP POP POP JUMP JUMPDEST PUSH1 0x99 DUP1 SLOAD PUSH1 0x0 DUP4 DUP2 MSTORE PUSH1 0x9A PUSH1 0x20 MSTORE PUSH1 0x40 DUP2 KECCAK256 DUP3 SWAP1 SSTORE PUSH1 0x1 DUP3 ADD DUP4 SSTORE SWAP2 SWAP1 SWAP2 MSTORE PUSH32 0x72A152DDFB8E864297C917AF52EA6C1C68AEAD0FEE1A62673FCC7E0C94979D00 ADD SSTORE JUMP JUMPDEST PUSH1 0x0 PUSH1 0x1 PUSH2 0x243F DUP5 PUSH2 0xF53 JUMP JUMPDEST PUSH2 0x2449 SWAP2 SWAP1 PUSH2 0x39B0 JUMP JUMPDEST PUSH1 0x0 DUP4 DUP2 MSTORE PUSH1 0x98 PUSH1 0x20 MSTORE PUSH1 0x40 SWAP1 KECCAK256 SLOAD SWAP1 SWAP2 POP DUP1 DUP3 EQ PUSH2 0x249C JUMPI PUSH1 0x1 PUSH1 0x1 PUSH1 0xA0 SHL SUB DUP5 AND PUSH1 0x0 SWAP1 DUP2 MSTORE PUSH1 0x97 PUSH1 0x20 SWAP1 DUP2 MSTORE PUSH1 0x40 DUP1 DUP4 KECCAK256 DUP6 DUP5 MSTORE DUP3 MSTORE DUP1 DUP4 KECCAK256 SLOAD DUP5 DUP5 MSTORE DUP2 DUP5 KECCAK256 DUP2 SWAP1 SSTORE DUP4 MSTORE PUSH1 0x98 SWAP1 SWAP2 MSTORE SWAP1 KECCAK256 DUP2 SWAP1 SSTORE JUMPDEST POP PUSH1 0x0 SWAP2 DUP3 MSTORE PUSH1 0x98 PUSH1 0x20 SWAP1 DUP2 MSTORE PUSH1 0x40 DUP1 DUP5 KECCAK256 DUP5 SWAP1 SSTORE PUSH1 0x1 PUSH1 0x1 PUSH1 0xA0 SHL SUB SWAP1 SWAP5 AND DUP4 MSTORE PUSH1 0x97 DUP2 MSTORE DUP4 DUP4 KECCAK256 SWAP2 DUP4 MSTORE MSTORE SWAP1 DUP2 KECCAK256 SSTORE JUMP JUMPDEST PUSH1 0x99 SLOAD PUSH1 0x0 SWAP1 PUSH2 0x24E1 SWAP1 PUSH1 0x1 SWAP1 PUSH2 0x39B0 JUMP JUMPDEST PUSH1 0x0 DUP4 DUP2 MSTORE PUSH1 0x9A PUSH1 0x20 MSTORE PUSH1 0x40 DUP2 KECCAK256 SLOAD PUSH1 0x99 DUP1 SLOAD SWAP4 SWAP5 POP SWAP1 SWAP3 DUP5 SWAP1 DUP2 LT PUSH2 0x2517 JUMPI PUSH4 0x4E487B71 PUSH1 0xE0 SHL PUSH1 0x0 MSTORE PUSH1 0x32 PUSH1 0x4 MSTORE PUSH1 0x24 PUSH1 0x0 REVERT JUMPDEST SWAP1 PUSH1 0x0 MSTORE PUSH1 0x20 PUSH1 0x0 KECCAK256 ADD SLOAD SWAP1 POP DUP1 PUSH1 0x99 DUP4 DUP2 SLOAD DUP2 LT PUSH2 0x2546 JUMPI PUSH4 0x4E487B71 PUSH1 0xE0 SHL PUSH1 0x0 MSTORE PUSH1 0x32 PUSH1 0x4 MSTORE PUSH1 0x24 PUSH1 0x0 REVERT JUMPDEST PUSH1 0x0 SWAP2 DUP3 MSTORE PUSH1 0x20 DUP1 DUP4 KECCAK256 SWAP1 SWAP2 ADD SWAP3 SWAP1 SWAP3 SSTORE DUP3 DUP2 MSTORE PUSH1 0x9A SWAP1 SWAP2 MSTORE PUSH1 0x40 DUP1 DUP3 KECCAK256 DUP5 SWAP1 SSTORE DUP6 DUP3 MSTORE DUP2 KECCAK256 SSTORE PUSH1 0x99 DUP1 SLOAD DUP1 PUSH2 0x258C JUMPI PUSH4 0x4E487B71 PUSH1 0xE0 SHL PUSH1 0x0 MSTORE PUSH1 0x31 PUSH1 0x4 MSTORE PUSH1 0x24 PUSH1 0x0 REVERT JUMPDEST PUSH1 0x1 SWAP1 SUB DUP2 DUP2 SWAP1 PUSH1 0x0 MSTORE PUSH1 0x20 PUSH1 0x0 KECCAK256 ADD PUSH1 0x0 SWAP1 SSTORE SWAP1 SSTORE POP POP POP POP JUMP JUMPDEST PUSH1 0x0 PUSH2 0x25B3 DUP4 PUSH2 0xF53 JUMP JUMPDEST PUSH1 0x1 PUSH1 0x1 PUSH1 0xA0 SHL SUB SWAP1 SWAP4 AND PUSH1 0x0 SWAP1 DUP2 MSTORE PUSH1 0x97 PUSH1 0x20 SWAP1 DUP2 MSTORE PUSH1 0x40 DUP1 DUP4 KECCAK256 DUP7 DUP5 MSTORE DUP3 MSTORE DUP1 DUP4 KECCAK256 DUP6 SWAP1 SSTORE SWAP4 DUP3 MSTORE PUSH1 0x98 SWAP1 MSTORE SWAP2 SWAP1 SWAP2 KECCAK256 SWAP2 SWAP1 SWAP2 SSTORE POP JUMP JUMPDEST EXTCODESIZE ISZERO ISZERO SWAP1 JUMP JUMPDEST PUSH1 0x60 DUP3 PUSH2 0x2600 PUSH1 0x1 NUMBER PUSH2 0x39B0 JUMP JUMPDEST LT ISZERO DUP1 ISZERO PUSH2 0x260E JUMPI POP DUP4 DUP4 LT ISZERO JUMPDEST PUSH2 0x262A JUMPI PUSH1 0x40 MLOAD PUSH3 0x461BCD PUSH1 0xE5 SHL DUP2 MSTORE PUSH1 0x4 ADD PUSH2 0x65E SWAP1 PUSH2 0x3738 JUMP JUMPDEST PUSH1 0x0 PUSH2 0x2636 DUP6 DUP6 PUSH2 0x39B0 JUMP JUMPDEST PUSH2 0x2641 SWAP1 PUSH1 0x2 PUSH2 0x3926 JUMP JUMPDEST PUSH8 0xFFFFFFFFFFFFFFFF DUP2 GT ISZERO PUSH2 0x2667 JUMPI PUSH4 0x4E487B71 PUSH1 0xE0 SHL PUSH1 0x0 MSTORE PUSH1 0x41 PUSH1 0x4 MSTORE PUSH1 0x24 PUSH1 0x0 REVERT JUMPDEST PUSH1 0x40 MLOAD SWAP1 DUP1 DUP3 MSTORE DUP1 PUSH1 0x20 MUL PUSH1 0x20 ADD DUP3 ADD PUSH1 0x40 MSTORE DUP1 ISZERO PUSH2 0x2690 JUMPI DUP2 PUSH1 0x20 ADD PUSH1 0x20 DUP3 MUL DUP1 CALLDATASIZE DUP4 CALLDATACOPY ADD SWAP1 POP JUMPDEST POP SWAP1 POP PUSH1 0x0 NUMBER DUP5 PUSH1 0x40 MLOAD PUSH1 0x20 ADD PUSH2 0x26A8 SWAP3 SWAP2 SWAP1 PUSH2 0x2F33 JUMP JUMPDEST PUSH1 0x40 MLOAD PUSH1 0x20 DUP2 DUP4 SUB SUB DUP2 MSTORE SWAP1 PUSH1 0x40 MSTORE DUP1 MLOAD SWAP1 PUSH1 0x20 ADD KECCAK256 SWAP1 POP PUSH1 0x0 JUMPDEST PUSH2 0x26CD DUP8 DUP8 PUSH2 0x39B0 JUMP JUMPDEST DUP2 GT PUSH2 0x274F JUMPI PUSH2 0x26DD DUP2 DUP9 PUSH2 0x3926 JUMP JUMPDEST BLOCKHASH DUP3 PUSH1 0x40 MLOAD PUSH1 0x20 ADD PUSH2 0x26F0 SWAP3 SWAP2 SWAP1 PUSH2 0x2F33 JUMP JUMPDEST PUSH1 0x40 MLOAD PUSH1 0x20 DUP2 DUP4 SUB SUB DUP2 MSTORE SWAP1 PUSH1 0x40 MSTORE DUP1 MLOAD SWAP1 PUSH1 0x20 ADD KECCAK256 DUP4 DUP3 PUSH1 0x1 PUSH2 0x2714 SWAP2 SWAP1 PUSH2 0x3926 JUMP JUMPDEST DUP2 MLOAD DUP2 LT PUSH2 0x2732 JUMPI PUSH4 0x4E487B71 PUSH1 0xE0 SHL PUSH1 0x0 MSTORE PUSH1 0x32 PUSH1 0x4 MSTORE PUSH1 0x24 PUSH1 0x0 REVERT JUMPDEST PUSH1 0x20 SWAP1 DUP2 MUL SWAP2 SWAP1 SWAP2 ADD ADD MSTORE DUP1 PUSH2 0x2747 DUP2 PUSH2 0x3A2E JUMP JUMPDEST SWAP2 POP POP PUSH2 0x26C3 JUMP JUMPDEST POP SWAP1 SWAP6 SWAP5 POP POP POP POP POP JUMP JUMPDEST PUSH1 0x0 PUSH1 0x1 DUP3 MLOAD GT PUSH2 0x277D JUMPI PUSH1 0x40 MLOAD PUSH3 0x461BCD PUSH1 0xE5 SHL DUP2 MSTORE PUSH1 0x4 ADD PUSH2 0x65E SWAP1 PUSH2 0x3241 JUMP JUMPDEST PUSH1 0x0 PUSH1 0x1 DUP4 MLOAD PUSH2 0x278D SWAP2 SWAP1 PUSH2 0x39B0 JUMP JUMPDEST DUP4 PUSH1 0x0 DUP2 MLOAD DUP2 LT PUSH2 0x27AE JUMPI PUSH4 0x4E487B71 PUSH1 0xE0 SHL PUSH1 0x0 MSTORE PUSH1 0x32 PUSH1 0x4 MSTORE PUSH1 0x24 PUSH1 0x0 REVERT JUMPDEST PUSH1 0x20 MUL PUSH1 0x20 ADD ADD MLOAD PUSH1 0x0 SHR PUSH2 0x27C3 SWAP2 SWAP1 PUSH2 0x3A49 JUMP JUMPDEST PUSH2 0x27CE SWAP1 PUSH1 0x1 PUSH2 0x3926 JUMP JUMPDEST SWAP1 POP PUSH1 0x0 DUP4 DUP3 DUP2 MLOAD DUP2 LT PUSH2 0x27F2 JUMPI PUSH4 0x4E487B71 PUSH1 0xE0 SHL PUSH1 0x0 MSTORE PUSH1 0x32 PUSH1 0x4 MSTORE PUSH1 0x24 PUSH1 0x0 REVERT JUMPDEST PUSH1 0x20 MUL PUSH1 0x20 ADD ADD MLOAD PUSH1 0x40 MLOAD PUSH1 0x20 ADD PUSH2 0x280A SWAP2 SWAP1 PUSH2 0x2F2A JUMP JUMPDEST PUSH1 0x40 MLOAD PUSH1 0x20 DUP2 DUP4 SUB SUB DUP2 MSTORE SWAP1 PUSH1 0x40 MSTORE DUP1 MLOAD SWAP1 PUSH1 0x20 ADD KECCAK256 SWAP1 POP DUP4 PUSH1 0x0 DUP2 MLOAD DUP2 LT PUSH2 0x2843 JUMPI PUSH4 0x4E487B71 PUSH1 0xE0 SHL PUSH1 0x0 MSTORE PUSH1 0x32 PUSH1 0x4 MSTORE PUSH1 0x24 PUSH1 0x0 REVERT JUMPDEST PUSH1 0x20 MUL PUSH1 0x20 ADD ADD MLOAD PUSH1 0x0 SHR PUSH1 0x1 PUSH2 0x285A SWAP2 SWAP1 PUSH2 0x3926 JUMP JUMPDEST PUSH1 0x0 SHL DUP5 PUSH1 0x0 DUP2 MLOAD DUP2 LT PUSH2 0x287E JUMPI PUSH4 0x4E487B71 PUSH1 0xE0 SHL PUSH1 0x0 MSTORE PUSH1 0x32 PUSH1 0x4 MSTORE PUSH1 0x24 PUSH1 0x0 REVERT JUMPDEST PUSH1 0x20 MUL PUSH1 0x20 ADD ADD DUP2 DUP2 MSTORE POP POP DUP1 DUP5 DUP4 DUP2 MLOAD DUP2 LT PUSH2 0x28AB JUMPI PUSH4 0x4E487B71 PUSH1 0xE0 SHL PUSH1 0x0 MSTORE PUSH1 0x32 PUSH1 0x4 MSTORE PUSH1 0x24 PUSH1 0x0 REVERT JUMPDEST PUSH1 0x20 SWAP1 DUP2 MUL SWAP2 SWAP1 SWAP2 ADD ADD MSTORE SWAP4 SWAP3 POP POP POP JUMP JUMPDEST PUSH2 0x1188 DUP3 DUP3 PUSH1 0x40 MLOAD DUP1 PUSH1 0x20 ADD PUSH1 0x40 MSTORE DUP1 PUSH1 0x0 DUP2 MSTORE POP PUSH2 0x28DC DUP4 DUP4 PUSH2 0x2905 JUMP JUMPDEST PUSH2 0x28E9 PUSH1 0x0 DUP5 DUP5 DUP5 PUSH2 0x2113 JUMP JUMPDEST PUSH2 0x855 JUMPI PUSH1 0x40 MLOAD PUSH3 0x461BCD PUSH1 0xE5 SHL DUP2 MSTORE PUSH1 0x4 ADD PUSH2 0x65E SWAP1 PUSH2 0x3172 JUMP JUMPDEST PUSH1 0x1 PUSH1 0x1 PUSH1 0xA0 SHL SUB DUP3 AND PUSH2 0x292B JUMPI PUSH1 0x40 MLOAD PUSH3 0x461BCD PUSH1 0xE5 SHL DUP2 MSTORE PUSH1 0x4 ADD PUSH2 0x65E SWAP1 PUSH2 0x35A7 JUMP JUMPDEST PUSH2 0x2934 DUP2 PUSH2 0x15A6 JUMP JUMPDEST ISZERO PUSH2 0x2951 JUMPI PUSH1 0x40 MLOAD PUSH3 0x461BCD PUSH1 0xE5 SHL DUP2 MSTORE PUSH1 0x4 ADD PUSH2 0x65E SWAP1 PUSH2 0x320A JUMP JUMPDEST PUSH2 0x295D PUSH1 0x0 DUP4 DUP4 PUSH2 0x208A JUMP JUMPDEST PUSH1 0x1 PUSH1 0x1 PUSH1 0xA0 SHL SUB DUP3 AND PUSH1 0x0 SWAP1 DUP2 MSTORE PUSH1 0x68 PUSH1 0x20 MSTORE PUSH1 0x40 DUP2 KECCAK256 DUP1 SLOAD PUSH1 0x1 SWAP3 SWAP1 PUSH2 0x2986 SWAP1 DUP5 SWAP1 PUSH2 0x3926 JUMP JUMPDEST SWAP1 SWAP2 SSTORE POP POP PUSH1 0x0 DUP2 DUP2 MSTORE PUSH1 0x67 PUSH1 0x20 MSTORE PUSH1 0x40 DUP1 DUP3 KECCAK256 DUP1 SLOAD PUSH1 0x1 PUSH1 0x1 PUSH1 0xA0 SHL SUB NOT AND PUSH1 0x1 PUSH1 0x1 PUSH1 0xA0 SHL SUB DUP7 AND SWAP1 DUP2 OR SWAP1 SWAP2 SSTORE SWAP1 MLOAD DUP4 SWAP3 SWAP1 PUSH32 0xDDF252AD1BE2C89B69C2B068FC378DAA952BA7F163C4A11628F55A4DF523B3EF SWAP1 DUP3 SWAP1 LOG4 POP POP JUMP JUMPDEST PUSH1 0x40 MLOAD DUP1 PUSH1 0x60 ADD PUSH1 0x40 MSTORE DUP1 PUSH1 0x0 DUP2 MSTORE PUSH1 0x20 ADD PUSH1 0x0 DUP2 MSTORE PUSH1 0x20 ADD PUSH1 0x0 DUP2 MSTORE POP SWAP1 JUMP JUMPDEST PUSH1 0x40 MLOAD DUP1 PUSH1 0x80 ADD PUSH1 0x40 MSTORE DUP1 PUSH1 0x60 DUP2 MSTORE PUSH1 0x20 ADD PUSH1 0x0 DUP2 MSTORE PUSH1 0x20 ADD PUSH1 0x0 DUP2 MSTORE PUSH1 0x20 ADD PUSH1 0x0 DUP2 MSTORE POP SWAP1 JUMP JUMPDEST DUP3 DUP1 SLOAD PUSH2 0x2A39 SWAP1 PUSH2 0x39F3 JUMP JUMPDEST SWAP1 PUSH1 0x0 MSTORE PUSH1 0x20 PUSH1 0x0 KECCAK256 SWAP1 PUSH1 0x1F ADD PUSH1 0x20 SWAP1 DIV DUP2 ADD SWAP3 DUP3 PUSH2 0x2A5B JUMPI PUSH1 0x0 DUP6 SSTORE PUSH2 0x2AA1 JUMP JUMPDEST DUP3 PUSH1 0x1F LT PUSH2 0x2A74 JUMPI DUP1 MLOAD PUSH1 0xFF NOT AND DUP4 DUP1 ADD OR DUP6 SSTORE PUSH2 0x2AA1 JUMP JUMPDEST DUP3 DUP1 ADD PUSH1 0x1 ADD DUP6 SSTORE DUP3 ISZERO PUSH2 0x2AA1 JUMPI SWAP2 DUP3 ADD JUMPDEST DUP3 DUP2 GT ISZERO PUSH2 0x2AA1 JUMPI DUP3 MLOAD DUP3 SSTORE SWAP2 PUSH1 0x20 ADD SWAP2 SWAP1 PUSH1 0x1 ADD SWAP1 PUSH2 0x2A86 JUMP JUMPDEST POP PUSH2 0x2AAD SWAP3 SWAP2 POP PUSH2 0x2AB1 JUMP JUMPDEST POP SWAP1 JUMP JUMPDEST JUMPDEST DUP1 DUP3 GT ISZERO PUSH2 0x2AAD JUMPI PUSH1 0x0 DUP2 SSTORE PUSH1 0x1 ADD PUSH2 0x2AB2 JUMP JUMPDEST PUSH1 0x0 PUSH8 0xFFFFFFFFFFFFFFFF DUP1 DUP5 GT ISZERO PUSH2 0x2AE1 JUMPI PUSH2 0x2AE1 PUSH2 0x3A89 JUMP JUMPDEST PUSH1 0x40 MLOAD PUSH1 0x1F DUP6 ADD PUSH1 0x1F NOT AND DUP2 ADD PUSH1 0x20 ADD DUP3 DUP2 GT DUP3 DUP3 LT OR ISZERO PUSH2 0x2B05 JUMPI PUSH2 0x2B05 PUSH2 0x3A89 JUMP JUMPDEST PUSH1 0x40 MSTORE DUP5 DUP2 MSTORE SWAP2 POP DUP2 DUP4 DUP6 ADD DUP7 LT ISZERO PUSH2 0x2B1D JUMPI PUSH1 0x0 DUP1 REVERT JUMPDEST DUP5 DUP5 PUSH1 0x20 DUP4 ADD CALLDATACOPY PUSH1 0x0 PUSH1 0x20 DUP7 DUP4 ADD ADD MSTORE POP POP SWAP4 SWAP3 POP POP POP JUMP JUMPDEST DUP1 CALLDATALOAD PUSH1 0x1 PUSH1 0x1 PUSH1 0xA0 SHL SUB DUP2 AND DUP2 EQ PUSH2 0x591 JUMPI PUSH1 0x0 DUP1 REVERT JUMPDEST PUSH1 0x0 DUP3 PUSH1 0x1F DUP4 ADD SLT PUSH2 0x2B5D JUMPI DUP1 DUP2 REVERT JUMPDEST PUSH2 0x18C4 DUP4 DUP4 CALLDATALOAD PUSH1 0x20 DUP6 ADD PUSH2 0x2AC6 JUMP JUMPDEST PUSH1 0x0 PUSH1 0x20 DUP3 DUP5 SUB SLT ISZERO PUSH2 0x2B7D JUMPI DUP1 DUP2 REVERT JUMPDEST PUSH2 0x18C4 DUP3 PUSH2 0x2B36 JUMP JUMPDEST PUSH1 0x0 DUP1 PUSH1 0x40 DUP4 DUP6 SUB SLT ISZERO PUSH2 0x2B98 JUMPI DUP1 DUP2 REVERT JUMPDEST PUSH2 0x2BA1 DUP4 PUSH2 0x2B36 JUMP JUMPDEST SWAP2 POP PUSH2 0x2BAF PUSH1 0x20 DUP5 ADD PUSH2 0x2B36 JUMP JUMPDEST SWAP1 POP SWAP3 POP SWAP3 SWAP1 POP JUMP JUMPDEST PUSH1 0x0 DUP1 PUSH1 0x0 PUSH1 0x60 DUP5 DUP7 SUB SLT ISZERO PUSH2 0x2BCC JUMPI DUP1 DUP2 REVERT JUMPDEST PUSH2 0x2BD5 DUP5 PUSH2 0x2B36 JUMP JUMPDEST SWAP3 POP PUSH2 0x2BE3 PUSH1 0x20 DUP6 ADD PUSH2 0x2B36 JUMP JUMPDEST SWAP2 POP PUSH1 0x40 DUP5 ADD CALLDATALOAD SWAP1 POP SWAP3 POP SWAP3 POP SWAP3 JUMP JUMPDEST PUSH1 0x0 DUP1 PUSH1 0x0 DUP1 PUSH1 0x80 DUP6 DUP8 SUB SLT ISZERO PUSH2 0x2C08 JUMPI DUP1 DUP2 REVERT JUMPDEST PUSH2 0x2C11 DUP6 PUSH2 0x2B36 JUMP JUMPDEST SWAP4 POP PUSH2 0x2C1F PUSH1 0x20 DUP7 ADD PUSH2 0x2B36 JUMP JUMPDEST SWAP3 POP PUSH1 0x40 DUP6 ADD CALLDATALOAD SWAP2 POP PUSH1 0x60 DUP6 ADD CALLDATALOAD PUSH8 0xFFFFFFFFFFFFFFFF DUP2 GT ISZERO PUSH2 0x2C41 JUMPI DUP2 DUP3 REVERT JUMPDEST DUP6 ADD PUSH1 0x1F DUP2 ADD DUP8 SGT PUSH2 0x2C51 JUMPI DUP2 DUP3 REVERT JUMPDEST PUSH2 0x2C60 DUP8 DUP3 CALLDATALOAD PUSH1 0x20 DUP5 ADD PUSH2 0x2AC6 JUMP JUMPDEST SWAP2 POP POP SWAP3 SWAP6 SWAP2 SWAP5 POP SWAP3 POP JUMP JUMPDEST PUSH1 0x0 DUP1 PUSH1 0x40 DUP4 DUP6 SUB SLT ISZERO PUSH2 0x2C7E JUMPI DUP2 DUP3 REVERT JUMPDEST PUSH2 0x2C87 DUP4 PUSH2 0x2B36 JUMP JUMPDEST SWAP2 POP PUSH1 0x20 DUP4 ADD CALLDATALOAD PUSH2 0x2C97 DUP2 PUSH2 0x3A9F JUMP JUMPDEST DUP1 SWAP2 POP POP SWAP3 POP SWAP3 SWAP1 POP JUMP JUMPDEST PUSH1 0x0 DUP1 PUSH1 0x40 DUP4 DUP6 SUB SLT ISZERO PUSH2 0x2CB4 JUMPI DUP2 DUP3 REVERT JUMPDEST PUSH2 0x2CBD DUP4 PUSH2 0x2B36 JUMP JUMPDEST SWAP5 PUSH1 0x20 SWAP4 SWAP1 SWAP4 ADD CALLDATALOAD SWAP4 POP POP POP JUMP JUMPDEST PUSH1 0x0 DUP1 PUSH1 0x0 PUSH1 0x60 DUP5 DUP7 SUB SLT ISZERO PUSH2 0x2CDF JUMPI DUP3 DUP4 REVERT JUMPDEST PUSH2 0x2CE8 DUP5 PUSH2 0x2B36 JUMP JUMPDEST SWAP6 PUSH1 0x20 DUP6 ADD CALLDATALOAD SWAP6 POP PUSH1 0x40 SWAP1 SWAP5 ADD CALLDATALOAD SWAP4 SWAP3 POP POP POP JUMP JUMPDEST PUSH1 0x0 DUP1 PUSH1 0x0 DUP1 PUSH1 0x80 DUP6 DUP8 SUB SLT ISZERO PUSH2 0x2D12 JUMPI DUP4 DUP5 REVERT JUMPDEST PUSH2 0x2D1B DUP6 PUSH2 0x2B36 JUMP JUMPDEST SWAP7 PUSH1 0x20 DUP7 ADD CALLDATALOAD SWAP7 POP PUSH1 0x40 DUP7 ADD CALLDATALOAD SWAP6 PUSH1 0x60 ADD CALLDATALOAD SWAP5 POP SWAP3 POP POP POP JUMP JUMPDEST PUSH1 0x0 PUSH1 0x20 DUP3 DUP5 SUB SLT ISZERO PUSH2 0x2D46 JUMPI DUP1 DUP2 REVERT JUMPDEST DUP2 CALLDATALOAD PUSH2 0x18C4 DUP2 PUSH2 0x3A9F JUMP JUMPDEST PUSH1 0x0 PUSH1 0x20 DUP3 DUP5 SUB SLT ISZERO PUSH2 0x2D62 JUMPI DUP1 DUP2 REVERT JUMPDEST DUP2 MLOAD PUSH2 0x18C4 DUP2 PUSH2 0x3A9F JUMP JUMPDEST PUSH1 0x0 PUSH1 0x20 DUP3 DUP5 SUB SLT ISZERO PUSH2 0x2D7E JUMPI DUP1 DUP2 REVERT JUMPDEST DUP2 CALLDATALOAD PUSH2 0x18C4 DUP2 PUSH2 0x3AAD JUMP JUMPDEST PUSH1 0x0 PUSH1 0x20 DUP3 DUP5 SUB SLT ISZERO PUSH2 0x2D9A JUMPI DUP1 DUP2 REVERT JUMPDEST DUP2 MLOAD PUSH2 0x18C4 DUP2 PUSH2 0x3AAD JUMP JUMPDEST PUSH1 0x0 PUSH1 0x20 DUP3 DUP5 SUB SLT ISZERO PUSH2 0x2DB6 JUMPI DUP1 DUP2 REVERT JUMPDEST DUP2 CALLDATALOAD PUSH8 0xFFFFFFFFFFFFFFFF DUP2 GT ISZERO PUSH2 0x2DCC JUMPI DUP2 DUP3 REVERT JUMPDEST PUSH2 0x1020 DUP5 DUP3 DUP6 ADD PUSH2 0x2B4D JUMP JUMPDEST PUSH1 0x0 DUP1 PUSH1 0x0 PUSH1 0x60 DUP5 DUP7 SUB SLT ISZERO PUSH2 0x2DEC JUMPI DUP1 DUP2 REVERT JUMPDEST DUP4 CALLDATALOAD PUSH8 0xFFFFFFFFFFFFFFFF DUP1 DUP3 GT ISZERO PUSH2 0x2E03 JUMPI DUP3 DUP4 REVERT JUMPDEST PUSH2 0x2E0F DUP8 DUP4 DUP9 ADD PUSH2 0x2B4D JUMP JUMPDEST SWAP5 POP PUSH1 0x20 DUP7 ADD CALLDATALOAD SWAP2 POP DUP1 DUP3 GT ISZERO PUSH2 0x2E24 JUMPI DUP3 DUP4 REVERT JUMPDEST POP PUSH2 0x2E31 DUP7 DUP3 DUP8 ADD PUSH2 0x2B4D JUMP JUMPDEST SWAP3 POP POP PUSH2 0x2E40 PUSH1 0x40 DUP6 ADD PUSH2 0x2B36 JUMP JUMPDEST SWAP1 POP SWAP3 POP SWAP3 POP SWAP3 JUMP JUMPDEST PUSH1 0x0 PUSH1 0x20 DUP3 DUP5 SUB SLT ISZERO PUSH2 0x2E5A JUMPI DUP1 DUP2 REVERT JUMPDEST POP CALLDATALOAD SWAP2 SWAP1 POP JUMP JUMPDEST PUSH1 0x0 DUP1 PUSH1 0x0 DUP1 PUSH1 0x0 PUSH1 0xA0 DUP7 DUP9 SUB SLT ISZERO PUSH2 0x2E78 JUMPI DUP3 DUP4 REVERT JUMPDEST DUP6 CALLDATALOAD SWAP5 POP PUSH1 0x20 DUP7 ADD CALLDATALOAD PUSH8 0xFFFFFFFFFFFFFFFF DUP2 GT ISZERO PUSH2 0x2E95 JUMPI DUP4 DUP5 REVERT JUMPDEST PUSH2 0x2EA1 DUP9 DUP3 DUP10 ADD PUSH2 0x2B4D JUMP JUMPDEST SWAP6 SWAP9 SWAP6 SWAP8 POP POP POP POP PUSH1 0x40 DUP5 ADD CALLDATALOAD SWAP4 PUSH1 0x60 DUP2 ADD CALLDATALOAD SWAP4 PUSH1 0x80 SWAP1 SWAP2 ADD CALLDATALOAD SWAP3 POP SWAP1 POP JUMP JUMPDEST PUSH1 0x0 DUP1 PUSH1 0x40 DUP4 DUP6 SUB SLT ISZERO PUSH2 0x2ED3 JUMPI DUP2 DUP3 REVERT JUMPDEST POP POP DUP1 CALLDATALOAD SWAP3 PUSH1 0x20 SWAP1 SWAP2 ADD CALLDATALOAD SWAP2 POP JUMP JUMPDEST PUSH1 0x0 DUP2 MLOAD DUP1 DUP5 MSTORE PUSH2 0x2EFA DUP2 PUSH1 0x20 DUP7 ADD PUSH1 0x20 DUP7 ADD PUSH2 0x39C7 JUMP JUMPDEST PUSH1 0x1F ADD PUSH1 0x1F NOT AND SWAP3 SWAP1 SWAP3 ADD PUSH1 0x20 ADD SWAP3 SWAP2 POP POP JUMP JUMPDEST PUSH1 0x0 DUP2 MLOAD PUSH2 0x2F20 DUP2 DUP6 PUSH1 0x20 DUP7 ADD PUSH2 0x39C7 JUMP JUMPDEST SWAP3 SWAP1 SWAP3 ADD SWAP3 SWAP2 POP POP JUMP JUMPDEST SWAP1 DUP2 MSTORE PUSH1 0x20 ADD SWAP1 JUMP JUMPDEST SWAP2 DUP3 MSTORE PUSH1 0x20 DUP3 ADD MSTORE PUSH1 0x40 ADD SWAP1 JUMP JUMPDEST DUP3 SLOAD PUSH1 0x0 SWAP1 DUP2 SWAP1 PUSH1 0x2 DUP2 DIV PUSH1 0x1 DUP1 DUP4 AND DUP1 PUSH2 0x2F5D JUMPI PUSH1 0x7F DUP4 AND SWAP3 POP JUMPDEST PUSH1 0x20 DUP1 DUP5 LT DUP3 EQ ISZERO PUSH2 0x2F7D JUMPI PUSH4 0x4E487B71 PUSH1 0xE0 SHL DUP8 MSTORE PUSH1 0x22 PUSH1 0x4 MSTORE PUSH1 0x24 DUP8 REVERT JUMPDEST DUP2 DUP1 ISZERO PUSH2 0x2F91 JUMPI PUSH1 0x1 DUP2 EQ PUSH2 0x2FA2 JUMPI PUSH2 0x2FCE JUMP JUMPDEST PUSH1 0xFF NOT DUP7 AND DUP10 MSTORE DUP5 DUP10 ADD SWAP7 POP PUSH2 0x2FCE JUMP JUMPDEST PUSH2 0x2FAB DUP12 PUSH2 0x38D9 JUMP JUMPDEST DUP9 JUMPDEST DUP7 DUP2 LT ISZERO PUSH2 0x2FC6 JUMPI DUP2 SLOAD DUP12 DUP3 ADD MSTORE SWAP1 DUP6 ADD SWAP1 DUP4 ADD PUSH2 0x2FAD JUMP JUMPDEST POP POP DUP5 DUP10 ADD SWAP7 POP JUMPDEST POP POP POP POP POP POP PUSH2 0x2FDE DUP2 DUP6 PUSH2 0x2F0E JUMP JUMPDEST SWAP6 SWAP5 POP POP POP POP POP JUMP JUMPDEST PUSH1 0x0 PUSH1 0xF PUSH1 0xFA SHL DUP3 MSTORE PUSH2 0xC2B PUSH1 0xF4 SHL PUSH1 0x1 DUP4 ADD MSTORE PUSH1 0x3 DUP8 MLOAD PUSH2 0x300F DUP2 DUP4 DUP7 ADD PUSH1 0x20 DUP13 ADD PUSH2 0x39C7 JUMP JUMPDEST DUP8 MLOAD SWAP1 DUP5 ADD SWAP1 PUSH2 0x3025 DUP2 DUP5 DUP5 ADD PUSH1 0x20 DUP13 ADD PUSH2 0x39C7 JUMP JUMPDEST DUP8 MLOAD SWAP2 ADD SWAP1 PUSH2 0x303A DUP2 DUP5 DUP5 ADD PUSH1 0x20 DUP12 ADD PUSH2 0x39C7 JUMP JUMPDEST DUP7 MLOAD SWAP2 ADD SWAP1 PUSH2 0x304F DUP2 DUP5 DUP5 ADD PUSH1 0x20 DUP11 ADD PUSH2 0x39C7 JUMP JUMPDEST DUP6 MLOAD SWAP2 ADD SWAP1 PUSH2 0x3064 DUP2 DUP5 DUP5 ADD PUSH1 0x20 DUP10 ADD PUSH2 0x39C7 JUMP JUMPDEST PUSH3 0x38A269 PUSH1 0xEA SHL SWAP2 ADD SWAP2 DUP3 ADD MSTORE PUSH1 0x6 ADD SWAP8 SWAP7 POP POP POP POP POP POP POP JUMP JUMPDEST PUSH1 0x1 PUSH1 0x1 PUSH1 0xA0 SHL SUB SWAP2 SWAP1 SWAP2 AND DUP2 MSTORE PUSH1 0x20 ADD SWAP1 JUMP JUMPDEST PUSH1 0x1 PUSH1 0x1 PUSH1 0xA0 SHL SUB DUP6 DUP2 AND DUP3 MSTORE DUP5 AND PUSH1 0x20 DUP3 ADD MSTORE PUSH1 0x40 DUP2 ADD DUP4 SWAP1 MSTORE PUSH1 0x80 PUSH1 0x60 DUP3 ADD DUP2 SWAP1 MSTORE PUSH1 0x0 SWAP1 PUSH2 0xABF SWAP1 DUP4 ADD DUP5 PUSH2 0x2EE2 JUMP JUMPDEST PUSH1 0x1 PUSH1 0x1 PUSH1 0xA0 SHL SUB SWAP3 SWAP1 SWAP3 AND DUP3 MSTORE PUSH1 0x20 DUP3 ADD MSTORE PUSH1 0x40 ADD SWAP1 JUMP JUMPDEST SWAP1 ISZERO ISZERO DUP2 MSTORE PUSH1 0x20 ADD SWAP1 JUMP JUMPDEST PUSH1 0x0 PUSH1 0x20 DUP3 MSTORE PUSH2 0x18C4 PUSH1 0x20 DUP4 ADD DUP5 PUSH2 0x2EE2 JUMP JUMPDEST PUSH1 0x20 DUP1 DUP3 MSTORE PUSH1 0x10 SWAP1 DUP3 ADD MSTORE PUSH16 0x195E1958DD5D1BDC881B9BC819DBDBD9 PUSH1 0x82 SHL PUSH1 0x40 DUP3 ADD MSTORE PUSH1 0x60 ADD SWAP1 JUMP JUMPDEST PUSH1 0x20 DUP1 DUP3 MSTORE PUSH1 0x2B SWAP1 DUP3 ADD MSTORE PUSH32 0x455243373231456E756D657261626C653A206F776E657220696E646578206F75 PUSH1 0x40 DUP3 ADD MSTORE PUSH11 0x74206F6620626F756E6473 PUSH1 0xA8 SHL PUSH1 0x60 DUP3 ADD MSTORE PUSH1 0x80 ADD SWAP1 JUMP JUMPDEST PUSH1 0x20 DUP1 DUP3 MSTORE PUSH1 0x32 SWAP1 DUP3 ADD MSTORE PUSH32 0x4552433732313A207472616E7366657220746F206E6F6E204552433732315265 PUSH1 0x40 DUP3 ADD MSTORE PUSH18 0x31B2B4BB32B91034B6B83632B6B2B73A32B9 PUSH1 0x71 SHL PUSH1 0x60 DUP3 ADD MSTORE PUSH1 0x80 ADD SWAP1 JUMP JUMPDEST PUSH1 0x20 DUP1 DUP3 MSTORE PUSH1 0x26 SWAP1 DUP3 ADD MSTORE PUSH32 0x4F776E61626C653A206E6577206F776E657220697320746865207A65726F2061 PUSH1 0x40 DUP3 ADD MSTORE PUSH6 0x646472657373 PUSH1 0xD0 SHL PUSH1 0x60 DUP3 ADD MSTORE PUSH1 0x80 ADD SWAP1 JUMP JUMPDEST PUSH1 0x20 DUP1 DUP3 MSTORE PUSH1 0x1C SWAP1 DUP3 ADD MSTORE PUSH32 0x4552433732313A20746F6B656E20616C7265616479206D696E74656400000000 PUSH1 0x40 DUP3 ADD MSTORE PUSH1 0x60 ADD SWAP1 JUMP JUMPDEST PUSH1 0x20 DUP1 DUP3 MSTORE PUSH1 0x19 SWAP1 DUP3 ADD MSTORE PUSH32 0x52616E646F6D2E6E6578743A20696E76616C696420706F6F6C00000000000000 PUSH1 0x40 DUP3 ADD MSTORE PUSH1 0x60 ADD SWAP1 JUMP JUMPDEST PUSH1 0x20 DUP1 DUP3 MSTORE PUSH1 0x26 SWAP1 DUP3 ADD MSTORE PUSH32 0x506C65617365207761697420666F72207468652061677265656D656E7420746F PUSH1 0x40 DUP3 ADD MSTORE PUSH6 0x81CDD185C9D PUSH1 0xD2 SHL PUSH1 0x60 DUP3 ADD MSTORE PUSH1 0x80 ADD SWAP1 JUMP JUMPDEST PUSH1 0x20 DUP1 DUP3 MSTORE PUSH1 0x24 SWAP1 DUP3 ADD MSTORE PUSH32 0x6578656375746F723A2063616C6C6572206973206E6F74207468652065786563 PUSH1 0x40 DUP3 ADD MSTORE PUSH4 0x3ABA37B9 PUSH1 0xE1 SHL PUSH1 0x60 DUP3 ADD MSTORE PUSH1 0x80 ADD SWAP1 JUMP JUMPDEST PUSH1 0x20 DUP1 DUP3 MSTORE PUSH1 0x24 SWAP1 DUP3 ADD MSTORE PUSH32 0x4552433732313A207472616E7366657220746F20746865207A65726F20616464 PUSH1 0x40 DUP3 ADD MSTORE PUSH4 0x72657373 PUSH1 0xE0 SHL PUSH1 0x60 DUP3 ADD MSTORE PUSH1 0x80 ADD SWAP1 JUMP JUMPDEST PUSH1 0x20 DUP1 DUP3 MSTORE PUSH1 0x19 SWAP1 DUP3 ADD MSTORE PUSH32 0x4552433732313A20617070726F766520746F2063616C6C657200000000000000 PUSH1 0x40 DUP3 ADD MSTORE PUSH1 0x60 ADD SWAP1 JUMP JUMPDEST PUSH1 0x20 DUP1 DUP3 MSTORE PUSH1 0xD SWAP1 DUP3 ADD MSTORE PUSH13 0x636C61696D626C65206973203 PUSH1 0x9C SHL PUSH1 0x40 DUP3 ADD MSTORE PUSH1 0x60 ADD SWAP1 JUMP JUMPDEST PUSH1 0x20 DUP1 DUP3 MSTORE PUSH1 0x53 SWAP1 DUP3 ADD MSTORE PUSH32 0x5468652073616C65732074696D6520686173206E6F7420656E646564206F7220 PUSH1 0x40 DUP3 ADD MSTORE PUSH32 0x74686520746F74616C537570706C79207175616E7469747920686173206E6F74 PUSH1 0x60 DUP3 ADD MSTORE PUSH19 0x81C995858DA1959081D1A19481D185C99D95D PUSH1 0x6A SHL PUSH1 0x80 DUP3 ADD MSTORE PUSH1 0xA0 ADD SWAP1 JUMP JUMPDEST PUSH1 0x20 DUP1 DUP3 MSTORE PUSH1 0x2C SWAP1 DUP3 ADD MSTORE PUSH32 0x4552433732313A206F70657261746F7220717565727920666F72206E6F6E6578 PUSH1 0x40 DUP3 ADD MSTORE PUSH12 0x34B9BA32B73A103A37B5B2B7 PUSH1 0xA1 SHL PUSH1 0x60 DUP3 ADD MSTORE PUSH1 0x80 ADD SWAP1 JUMP JUMPDEST PUSH1 0x20 DUP1 DUP3 MSTORE PUSH1 0x38 SWAP1 DUP3 ADD MSTORE PUSH32 0x4552433732313A20617070726F76652063616C6C6572206973206E6F74206F77 PUSH1 0x40 DUP3 ADD MSTORE PUSH32 0x6E6572206E6F7220617070726F76656420666F7220616C6C0000000000000000 PUSH1 0x60 DUP3 ADD MSTORE PUSH1 0x80 ADD SWAP1 JUMP JUMPDEST PUSH1 0x20 DUP1 DUP3 MSTORE PUSH1 0x2A SWAP1 DUP3 ADD MSTORE PUSH32 0x4552433732313A2062616C616E636520717565727920666F7220746865207A65 PUSH1 0x40 DUP3 ADD MSTORE PUSH10 0x726F2061646472657373 PUSH1 0xB0 SHL PUSH1 0x60 DUP3 ADD MSTORE PUSH1 0x80 ADD SWAP1 JUMP JUMPDEST PUSH1 0x20 DUP1 DUP3 MSTORE PUSH1 0x29 SWAP1 DUP3 ADD MSTORE PUSH32 0x4552433732313A206F776E657220717565727920666F72206E6F6E6578697374 PUSH1 0x40 DUP3 ADD MSTORE PUSH9 0x32B73A103A37B5B2B7 PUSH1 0xB9 SHL PUSH1 0x60 DUP3 ADD MSTORE PUSH1 0x80 ADD SWAP1 JUMP JUMPDEST PUSH1 0x20 DUP1 DUP3 MSTORE PUSH1 0x2E SWAP1 DUP3 ADD MSTORE PUSH32 0x496E697469616C697A61626C653A20636F6E747261637420697320616C726561 PUSH1 0x40 DUP3 ADD MSTORE PUSH14 0x191E481A5B9A5D1A585B1A5E9959 PUSH1 0x92 SHL PUSH1 0x60 DUP3 ADD MSTORE PUSH1 0x80 ADD SWAP1 JUMP JUMPDEST PUSH1 0x20 DUP1 DUP3 MSTORE DUP2 DUP2 ADD MSTORE PUSH32 0x4552433732313A206D696E7420746F20746865207A65726F2061646472657373 PUSH1 0x40 DUP3 ADD MSTORE PUSH1 0x60 ADD SWAP1 JUMP JUMPDEST PUSH1 0x20 DUP1 DUP3 MSTORE PUSH1 0x31 SWAP1 DUP3 ADD MSTORE PUSH32 0x45524337323155524953746F726167653A2055524920717565727920666F7220 PUSH1 0x40 DUP3 ADD MSTORE PUSH17 0x3737B732BC34B9BA32B73A103A37B5B2B7 PUSH1 0x79 SHL PUSH1 0x60 DUP3 ADD MSTORE PUSH1 0x80 ADD SWAP1 JUMP JUMPDEST PUSH1 0x20 DUP1 DUP3 MSTORE PUSH1 0x2C SWAP1 DUP3 ADD MSTORE PUSH32 0x4552433732313A20617070726F76656420717565727920666F72206E6F6E6578 PUSH1 0x40 DUP3 ADD MSTORE PUSH12 0x34B9BA32B73A103A37B5B2B7 PUSH1 0xA1 SHL PUSH1 0x60 DUP3 ADD MSTORE PUSH1 0x80 ADD SWAP1 JUMP JUMPDEST PUSH1 0x20 DUP1 DUP3 MSTORE DUP2 DUP2 ADD MSTORE PUSH32 0x4F776E61626C653A2063616C6C6572206973206E6F7420746865206F776E6572 PUSH1 0x40 DUP3 ADD MSTORE PUSH1 0x60 ADD SWAP1 JUMP JUMPDEST PUSH1 0x20 DUP1 DUP3 MSTORE PUSH1 0x29 SWAP1 DUP3 ADD MSTORE PUSH32 0x4552433732313A207472616E73666572206F6620746F6B656E20746861742069 PUSH1 0x40 DUP3 ADD MSTORE PUSH9 0x39903737BA1037BBB7 PUSH1 0xB9 SHL PUSH1 0x60 DUP3 ADD MSTORE PUSH1 0x80 ADD SWAP1 JUMP JUMPDEST PUSH1 0x20 DUP1 DUP3 MSTORE PUSH1 0x21 SWAP1 DUP3 ADD MSTORE PUSH32 0x4552433732313A20617070726F76616C20746F2063757272656E74206F776E65 PUSH1 0x40 DUP3 ADD MSTORE PUSH1 0x39 PUSH1 0xF9 SHL PUSH1 0x60 DUP3 ADD MSTORE PUSH1 0x80 ADD SWAP1 JUMP JUMPDEST PUSH1 0x20 DUP1 DUP3 MSTORE PUSH1 0x23 SWAP1 DUP3 ADD MSTORE PUSH32 0x52616E646F6D2E696E69743A20696E76616C696420626C6F636B20696E746572 PUSH1 0x40 DUP3 ADD MSTORE PUSH3 0x1D985B PUSH1 0xEA SHL PUSH1 0x60 DUP3 ADD MSTORE PUSH1 0x80 ADD SWAP1 JUMP JUMPDEST PUSH1 0x20 DUP1 DUP3 MSTORE PUSH1 0x31 SWAP1 DUP3 ADD MSTORE PUSH32 0x4552433732313A207472616E736665722063616C6C6572206973206E6F74206F PUSH1 0x40 DUP3 ADD MSTORE PUSH17 0x1DDB995C881B9BDC88185C1C1C9BDD9959 PUSH1 0x7A SHL PUSH1 0x60 DUP3 ADD MSTORE PUSH1 0x80 ADD SWAP1 JUMP JUMPDEST PUSH1 0x20 DUP1 DUP3 MSTORE PUSH1 0x2C SWAP1 DUP3 ADD MSTORE PUSH32 0x455243373231456E756D657261626C653A20676C6F62616C20696E646578206F PUSH1 0x40 DUP3 ADD MSTORE PUSH12 0x7574206F6620626F756E6473 PUSH1 0xA0 SHL PUSH1 0x60 DUP3 ADD MSTORE PUSH1 0x80 ADD SWAP1 JUMP JUMPDEST PUSH1 0x20 DUP1 DUP3 MSTORE PUSH1 0xB SWAP1 DUP3 ADD MSTORE PUSH11 0x139BC8185C1C1C9BDD9959 PUSH1 0xAA SHL PUSH1 0x40 DUP3 ADD MSTORE PUSH1 0x60 ADD SWAP1 JUMP JUMPDEST PUSH1 0x20 DUP1 DUP3 MSTORE DUP2 DUP2 ADD MSTORE PUSH32 0x52616E646F6D2E756E69666F726D3A20696E76616C696420696E74657276616C PUSH1 0x40 DUP3 ADD MSTORE PUSH1 0x60 ADD SWAP1 JUMP JUMPDEST PUSH1 0x0 PUSH1 0x20 DUP3 MSTORE DUP3 MLOAD PUSH1 0x80 PUSH1 0x20 DUP5 ADD MSTORE PUSH2 0x388E PUSH1 0xA0 DUP5 ADD DUP3 PUSH2 0x2EE2 JUMP JUMPDEST SWAP1 POP PUSH1 0x20 DUP5 ADD MLOAD PUSH1 0x40 DUP5 ADD MSTORE PUSH1 0x40 DUP5 ADD MLOAD PUSH1 0x60 DUP5 ADD MSTORE PUSH1 0x60 DUP5 ADD MLOAD PUSH1 0x80 DUP5 ADD MSTORE DUP1 SWAP2 POP POP SWAP3 SWAP2 POP POP JUMP JUMPDEST DUP2 MLOAD DUP2 MSTORE PUSH1 0x20 DUP1 DUP4 ADD MLOAD SWAP1 DUP3 ADD MSTORE PUSH1 0x40 SWAP2 DUP3 ADD MLOAD SWAP2 DUP2 ADD SWAP2 SWAP1 SWAP2 MSTORE PUSH1 0x60 ADD SWAP1 JUMP JUMPDEST PUSH1 0x0 SWAP1 DUP2 MSTORE PUSH1 0x20 SWAP1 KECCAK256 SWAP1 JUMP JUMPDEST PUSH1 0x0 DUP1 DUP3 SLT DUP1 ISZERO PUSH1 0x1 PUSH1 0x1 PUSH1 0xFF SHL SUB DUP5 SWAP1 SUB DUP6 SGT AND ISZERO PUSH2 0x3907 JUMPI PUSH2 0x3907 PUSH2 0x3A5D JUMP JUMPDEST PUSH1 0x1 PUSH1 0xFF SHL DUP4 SWAP1 SUB DUP5 SLT DUP2 AND ISZERO PUSH2 0x3920 JUMPI PUSH2 0x3920 PUSH2 0x3A5D JUMP JUMPDEST POP POP ADD SWAP1 JUMP JUMPDEST PUSH1 0x0 DUP3 NOT DUP3 GT ISZERO PUSH2 0x3939 JUMPI PUSH2 0x3939 PUSH2 0x3A5D JUMP JUMPDEST POP ADD SWAP1 JUMP JUMPDEST PUSH1 0x0 DUP3 PUSH2 0x394D JUMPI PUSH2 0x394D PUSH2 0x3A73 JUMP JUMPDEST POP DIV SWAP1 JUMP JUMPDEST PUSH1 0x0 DUP2 PUSH1 0x0 NOT DIV DUP4 GT DUP3 ISZERO ISZERO AND ISZERO PUSH2 0x396C JUMPI PUSH2 0x396C PUSH2 0x3A5D JUMP JUMPDEST POP MUL SWAP1 JUMP JUMPDEST PUSH1 0x0 DUP1 DUP4 SLT DUP1 ISZERO PUSH1 0x1 PUSH1 0xFF SHL DUP6 ADD DUP5 SLT AND ISZERO PUSH2 0x398F JUMPI PUSH2 0x398F PUSH2 0x3A5D JUMP JUMPDEST PUSH1 0x1 PUSH1 0x1 PUSH1 0xFF SHL SUB DUP5 ADD DUP4 SGT DUP2 AND ISZERO PUSH2 0x39AA JUMPI PUSH2 0x39AA PUSH2 0x3A5D JUMP JUMPDEST POP POP SUB SWAP1 JUMP JUMPDEST PUSH1 0x0 DUP3 DUP3 LT ISZERO PUSH2 0x39C2 JUMPI PUSH2 0x39C2 PUSH2 0x3A5D JUMP JUMPDEST POP SUB SWAP1 JUMP JUMPDEST PUSH1 0x0 JUMPDEST DUP4 DUP2 LT ISZERO PUSH2 0x39E2 JUMPI DUP2 DUP2 ADD MLOAD DUP4 DUP3 ADD MSTORE PUSH1 0x20 ADD PUSH2 0x39CA JUMP JUMPDEST DUP4 DUP2 GT ISZERO PUSH2 0x779 JUMPI POP POP PUSH1 0x0 SWAP2 ADD MSTORE JUMP JUMPDEST PUSH1 0x2 DUP2 DIV PUSH1 0x1 DUP3 AND DUP1 PUSH2 0x3A07 JUMPI PUSH1 0x7F DUP3 AND SWAP2 POP JUMPDEST PUSH1 0x20 DUP3 LT DUP2 EQ ISZERO PUSH2 0x3A28 JUMPI PUSH4 0x4E487B71 PUSH1 0xE0 SHL PUSH1 0x0 MSTORE PUSH1 0x22 PUSH1 0x4 MSTORE PUSH1 0x24 PUSH1 0x0 REVERT JUMPDEST POP SWAP2 SWAP1 POP JUMP JUMPDEST PUSH1 0x0 PUSH1 0x0 NOT DUP3 EQ ISZERO PUSH2 0x3A42 JUMPI PUSH2 0x3A42 PUSH2 0x3A5D JUMP JUMPDEST POP PUSH1 0x1 ADD SWAP1 JUMP JUMPDEST PUSH1 0x0 DUP3 PUSH2 0x3A58 JUMPI PUSH2 0x3A58 PUSH2 0x3A73 JUMP JUMPDEST POP MOD SWAP1 JUMP JUMPDEST PUSH4 0x4E487B71 PUSH1 0xE0 SHL PUSH1 0x0 MSTORE PUSH1 0x11 PUSH1 0x4 MSTORE PUSH1 0x24 PUSH1 0x0 REVERT JUMPDEST PUSH4 0x4E487B71 PUSH1 0xE0 SHL PUSH1 0x0 MSTORE PUSH1 0x12 PUSH1 0x4 MSTORE PUSH1 0x24 PUSH1 0x0 REVERT JUMPDEST PUSH4 0x4E487B71 PUSH1 0xE0 SHL PUSH1 0x0 MSTORE PUSH1 0x41 PUSH1 0x4 MSTORE PUSH1 0x24 PUSH1 0x0 REVERT JUMPDEST DUP1 ISZERO ISZERO DUP2 EQ PUSH2 0x143A JUMPI PUSH1 0x0 DUP1 REVERT JUMPDEST PUSH1 0x1 PUSH1 0x1 PUSH1 0xE0 SHL SUB NOT DUP2 AND DUP2 EQ PUSH2 0x143A JUMPI PUSH1 0x0 DUP1 REVERT INVALID LOG2 PUSH5 0x6970667358 0x22 SLT KECCAK256 0xC5 ADDRESS 0x1E CALLDATACOPY 0xBD 0xC0 GASPRICE 0xB7 PUSH30 0x65CC6F3631B352F604FAB9E0689DBC5CE652AEAECE7A4B64736F6C634300 ADDMOD STOP STOP CALLER "
		},
		"gasEstimates": {
			"creation": {
				"codeDepositCost": "3019400",
				"executionCost": "3318",
				"totalCost": "3022718"
			},
			"external": {
				"FISH()": "1224",
				"_baseURI_()": "infinite",
				"approve(address,uint256)": "infinite",
				"balanceOf(address)": "1422",
				"burn(uint256)": "infinite",
				"burnFrom(address,uint256)": "infinite",
				"claim()": "infinite",
				"executor(address)": "1331",
				"getApproved(uint256)": "2268",
				"initialize(string,string,address)": "infinite",
				"isApprovedForAll(address,address)": "infinite",
				"maxPreSale()": "1160",
				"mintFromExecutor(address,uint256,uint256)": "infinite",
				"name()": "infinite",
				"nftInfo(uint256)": "infinite",
				"owner()": "1181",
				"ownerOf(uint256)": "1323",
				"pending()": "infinite",
				"preSaleEnd()": "1096",
				"releaseCycle(uint256)": "1260",
				"renounceOwnership()": "23641",
				"safeTransferFrom(address,address,uint256)": "infinite",
				"safeTransferFrom(address,address,uint256,bytes)": "infinite",
				"setApprovalForAll(address,bool)": "23533",
				"setBaseURI(string)": "infinite",
				"setExecutor(address,bool)": "22458",
				"setMaxPreSale(uint256)": "21338",
				"setNftInfo(uint256,string,uint256,uint256,uint256)": "infinite",
				"setPreSaleEnd(uint256)": "21315",
				"setReleaseCycle(uint256,uint256)": "21431",
				"setStateOpen(bool)": "22193",
				"setUserInfo(address,uint256,uint256,uint256)": "61667",
				"stateOpen()": "1195",
				"supportsInterface(bytes4)": "infinite",
				"symbol()": "infinite",
				"tokenByIndex(uint256)": "2959",
				"tokenIdIndex()": "1118",
				"tokenOfOwnerByIndex(address,uint256)": "2441",
				"tokenURI(uint256)": "infinite",
				"totalSupply()": "1074",
				"transferFrom(address,address,uint256)": "infinite",
				"transferOwnership(address)": "23812",
				"userInfo(address)": "3221"
			},
			"internal": {
				"_registerToken(address,string memory,uint256,uint256,uint256)": "infinite",
				"_setNftInfo(uint256,string memory,uint256,uint256,uint256)": "infinite",
				"_setUserInfo(address,uint256,uint256,uint256)": "infinite",
				"checkState()": "infinite",
				"createFish(address,uint256,uint256)": "infinite",
				"getFishBodyPoint(uint256)": "infinite",
				"getLvPoint(uint256)": "infinite",
				"integerToString(uint256)": "infinite"
			}
		},
		"methodIdentifiers": {
			"FISH()": "ffcff32c",
			"_baseURI_()": "3d8adfd0",
			"approve(address,uint256)": "095ea7b3",
			"balanceOf(address)": "70a08231",
			"burn(uint256)": "42966c68",
			"burnFrom(address,uint256)": "79cc6790",
			"claim()": "4e71d92d",
			"executor(address)": "48c7e528",
			"getApproved(uint256)": "081812fc",
			"initialize(string,string,address)": "077f224a",
			"isApprovedForAll(address,address)": "e985e9c5",
			"maxPreSale()": "fad3f8f7",
			"mintFromExecutor(address,uint256,uint256)": "d405d32a",
			"name()": "06fdde03",
			"nftInfo(uint256)": "1f8bc790",
			"owner()": "8da5cb5b",
			"ownerOf(uint256)": "6352211e",
			"pending()": "e20ccec3",
			"preSaleEnd()": "6bc64e0f",
			"releaseCycle(uint256)": "bcb23199",
			"renounceOwnership()": "715018a6",
			"safeTransferFrom(address,address,uint256)": "42842e0e",
			"safeTransferFrom(address,address,uint256,bytes)": "b88d4fde",
			"setApprovalForAll(address,bool)": "a22cb465",
			"setBaseURI(string)": "55f804b3",
			"setExecutor(address,bool)": "1e1bff3f",
			"setMaxPreSale(uint256)": "81221c14",
			"setNftInfo(uint256,string,uint256,uint256,uint256)": "2ae299d8",
			"setPreSaleEnd(uint256)": "e770cbec",
			"setReleaseCycle(uint256,uint256)": "1bcaf15c",
			"setStateOpen(bool)": "a235c42a",
			"setUserInfo(address,uint256,uint256,uint256)": "799f6a71",
			"stateOpen()": "6043903d",
			"supportsInterface(bytes4)": "01ffc9a7",
			"symbol()": "95d89b41",
			"tokenByIndex(uint256)": "4f6ccce7",
			"tokenIdIndex()": "6d5a7411",
			"tokenOfOwnerByIndex(address,uint256)": "2f745c59",
			"tokenURI(uint256)": "c87b56dd",
			"totalSupply()": "18160ddd",
			"transferFrom(address,address,uint256)": "23b872dd",
			"transferOwnership(address)": "f2fde38b",
			"userInfo(address)": "1959a002"
		}
	},
	"abi": [
		{
			"anonymous": false,
			"inputs": [
				{
					"indexed": true,
					"internalType": "address",
					"name": "owner",
					"type": "address"
				},
				{
					"indexed": true,
					"internalType": "address",
					"name": "approved",
					"type": "address"
				},
				{
					"indexed": true,
					"internalType": "uint256",
					"name": "tokenId",
					"type": "uint256"
				}
			],
			"name": "Approval",
			"type": "event"
		},
		{
			"anonymous": false,
			"inputs": [
				{
					"indexed": true,
					"internalType": "address",
					"name": "owner",
					"type": "address"
				},
				{
					"indexed": true,
					"internalType": "address",
					"name": "operator",
					"type": "address"
				},
				{
					"indexed": false,
					"internalType": "bool",
					"name": "approved",
					"type": "bool"
				}
			],
			"name": "ApprovalForAll",
			"type": "event"
		},
		{
			"anonymous": false,
			"inputs": [
				{
					"indexed": true,
					"internalType": "address",
					"name": "previousOwner",
					"type": "address"
				},
				{
					"indexed": true,
					"internalType": "address",
					"name": "newOwner",
					"type": "address"
				}
			],
			"name": "OwnershipTransferred",
			"type": "event"
		},
		{
			"anonymous": false,
			"inputs": [
				{
					"indexed": true,
					"internalType": "address",
					"name": "from",
					"type": "address"
				},
				{
					"indexed": true,
					"internalType": "address",
					"name": "to",
					"type": "address"
				},
				{
					"indexed": true,
					"internalType": "uint256",
					"name": "tokenId",
					"type": "uint256"
				}
			],
			"name": "Transfer",
			"type": "event"
		},
		{
			"inputs": [],
			"name": "FISH",
			"outputs": [
				{
					"internalType": "address",
					"name": "",
					"type": "address"
				}
			],
			"stateMutability": "view",
			"type": "function"
		},
		{
			"inputs": [],
			"name": "_baseURI_",
			"outputs": [
				{
					"internalType": "string",
					"name": "",
					"type": "string"
				}
			],
			"stateMutability": "view",
			"type": "function"
		},
		{
			"inputs": [
				{
					"internalType": "address",
					"name": "to",
					"type": "address"
				},
				{
					"internalType": "uint256",
					"name": "tokenId",
					"type": "uint256"
				}
			],
			"name": "approve",
			"outputs": [],
			"stateMutability": "nonpayable",
			"type": "function"
		},
		{
			"inputs": [
				{
					"internalType": "address",
					"name": "owner",
					"type": "address"
				}
			],
			"name": "balanceOf",
			"outputs": [
				{
					"internalType": "uint256",
					"name": "",
					"type": "uint256"
				}
			],
			"stateMutability": "view",
			"type": "function"
		},
		{
			"inputs": [
				{
					"internalType": "uint256",
					"name": "_id",
					"type": "uint256"
				}
			],
			"name": "burn",
			"outputs": [
				{
					"internalType": "bool",
					"name": "",
					"type": "bool"
				}
			],
			"stateMutability": "nonpayable",
			"type": "function"
		},
		{
			"inputs": [
				{
					"internalType": "address",
					"name": "_user",
					"type": "address"
				},
				{
					"internalType": "uint256",
					"name": "_id",
					"type": "uint256"
				}
			],
			"name": "burnFrom",
			"outputs": [
				{
					"internalType": "bool",
					"name": "",
					"type": "bool"
				}
			],
			"stateMutability": "nonpayable",
			"type": "function"
		},
		{
			"inputs": [],
			"name": "claim",
			"outputs": [
				{
					"internalType": "bool",
					"name": "",
					"type": "bool"
				}
			],
			"stateMutability": "nonpayable",
			"type": "function"
		},
		{
			"inputs": [
				{
					"internalType": "address",
					"name": "",
					"type": "address"
				}
			],
			"name": "executor",
			"outputs": [
				{
					"internalType": "bool",
					"name": "",
					"type": "bool"
				}
			],
			"stateMutability": "view",
			"type": "function"
		},
		{
			"inputs": [
				{
					"internalType": "uint256",
					"name": "tokenId",
					"type": "uint256"
				}
			],
			"name": "getApproved",
			"outputs": [
				{
					"internalType": "address",
					"name": "",
					"type": "address"
				}
			],
			"stateMutability": "view",
			"type": "function"
		},
		{
			"inputs": [
				{
					"internalType": "string",
					"name": "_name",
					"type": "string"
				},
				{
					"internalType": "string",
					"name": "_symbol",
					"type": "string"
				},
				{
					"internalType": "address",
					"name": "_FISH",
					"type": "address"
				}
			],
			"name": "initialize",
			"outputs": [],
			"stateMutability": "nonpayable",
			"type": "function"
		},
		{
			"inputs": [
				{
					"internalType": "address",
					"name": "owner",
					"type": "address"
				},
				{
					"internalType": "address",
					"name": "operator",
					"type": "address"
				}
			],
			"name": "isApprovedForAll",
			"outputs": [
				{
					"internalType": "bool",
					"name": "",
					"type": "bool"
				}
			],
			"stateMutability": "view",
			"type": "function"
		},
		{
			"inputs": [],
			"name": "maxPreSale",
			"outputs": [
				{
					"internalType": "uint256",
					"name": "",
					"type": "uint256"
				}
			],
			"stateMutability": "view",
			"type": "function"
		},
		{
			"inputs": [
				{
					"internalType": "address",
					"name": "_to",
					"type": "address"
				},
				{
					"internalType": "uint256",
					"name": "_seed",
					"type": "uint256"
				},
				{
					"internalType": "uint256",
					"name": "_remainingReward",
					"type": "uint256"
				}
			],
			"name": "mintFromExecutor",
			"outputs": [
				{
					"internalType": "bool",
					"name": "",
					"type": "bool"
				}
			],
			"stateMutability": "nonpayable",
			"type": "function"
		},
		{
			"inputs": [],
			"name": "name",
			"outputs": [
				{
					"internalType": "string",
					"name": "",
					"type": "string"
				}
			],
			"stateMutability": "view",
			"type": "function"
		},
		{
			"inputs": [
				{
					"internalType": "uint256",
					"name": "_id",
					"type": "uint256"
				}
			],
			"name": "nftInfo",
			"outputs": [
				{
					"components": [
						{
							"internalType": "string",
							"name": "fishStr",
							"type": "string"
						},
						{
							"internalType": "uint256",
							"name": "remainingReward",
							"type": "uint256"
						},
						{
							"internalType": "uint256",
							"name": "lv",
							"type": "uint256"
						},
						{
							"internalType": "uint256",
							"name": "random",
							"type": "uint256"
						}
					],
					"internalType": "struct FishNft.NftInfo",
					"name": "",
					"type": "tuple"
				}
			],
			"stateMutability": "view",
			"type": "function"
		},
		{
			"inputs": [],
			"name": "owner",
			"outputs": [
				{
					"internalType": "address",
					"name": "",
					"type": "address"
				}
			],
			"stateMutability": "view",
			"type": "function"
		},
		{
			"inputs": [
				{
					"internalType": "uint256",
					"name": "tokenId",
					"type": "uint256"
				}
			],
			"name": "ownerOf",
			"outputs": [
				{
					"internalType": "address",
					"name": "",
					"type": "address"
				}
			],
			"stateMutability": "view",
			"type": "function"
		},
		{
			"inputs": [],
			"name": "pending",
			"outputs": [
				{
					"internalType": "uint256",
					"name": "",
					"type": "uint256"
				}
			],
			"stateMutability": "view",
			"type": "function"
		},
		{
			"inputs": [],
			"name": "preSaleEnd",
			"outputs": [
				{
					"internalType": "uint256",
					"name": "",
					"type": "uint256"
				}
			],
			"stateMutability": "view",
			"type": "function"
		},
		{
			"inputs": [
				{
					"internalType": "uint256",
					"name": "",
					"type": "uint256"
				}
			],
			"name": "releaseCycle",
			"outputs": [
				{
					"internalType": "uint256",
					"name": "",
					"type": "uint256"
				}
			],
			"stateMutability": "view",
			"type": "function"
		},
		{
			"inputs": [],
			"name": "renounceOwnership",
			"outputs": [],
			"stateMutability": "nonpayable",
			"type": "function"
		},
		{
			"inputs": [
				{
					"internalType": "address",
					"name": "from",
					"type": "address"
				},
				{
					"internalType": "address",
					"name": "to",
					"type": "address"
				},
				{
					"internalType": "uint256",
					"name": "tokenId",
					"type": "uint256"
				}
			],
			"name": "safeTransferFrom",
			"outputs": [],
			"stateMutability": "nonpayable",
			"type": "function"
		},
		{
			"inputs": [
				{
					"internalType": "address",
					"name": "from",
					"type": "address"
				},
				{
					"internalType": "address",
					"name": "to",
					"type": "address"
				},
				{
					"internalType": "uint256",
					"name": "tokenId",
					"type": "uint256"
				},
				{
					"internalType": "bytes",
					"name": "_data",
					"type": "bytes"
				}
			],
			"name": "safeTransferFrom",
			"outputs": [],
			"stateMutability": "nonpayable",
			"type": "function"
		},
		{
			"inputs": [
				{
					"internalType": "address",
					"name": "operator",
					"type": "address"
				},
				{
					"internalType": "bool",
					"name": "approved",
					"type": "bool"
				}
			],
			"name": "setApprovalForAll",
			"outputs": [],
			"stateMutability": "nonpayable",
			"type": "function"
		},
		{
			"inputs": [
				{
					"internalType": "string",
					"name": "_str",
					"type": "string"
				}
			],
			"name": "setBaseURI",
			"outputs": [
				{
					"internalType": "bool",
					"name": "",
					"type": "bool"
				}
			],
			"stateMutability": "nonpayable",
			"type": "function"
		},
		{
			"inputs": [
				{
					"internalType": "address",
					"name": "_address",
					"type": "address"
				},
				{
					"internalType": "bool",
					"name": "_type",
					"type": "bool"
				}
			],
			"name": "setExecutor",
			"outputs": [
				{
					"internalType": "bool",
					"name": "",
					"type": "bool"
				}
			],
			"stateMutability": "nonpayable",
			"type": "function"
		},
		{
			"inputs": [
				{
					"internalType": "uint256",
					"name": "_val",
					"type": "uint256"
				}
			],
			"name": "setMaxPreSale",
			"outputs": [
				{
					"internalType": "bool",
					"name": "",
					"type": "bool"
				}
			],
			"stateMutability": "nonpayable",
			"type": "function"
		},
		{
			"inputs": [
				{
					"internalType": "uint256",
					"name": "i",
					"type": "uint256"
				},
				{
					"internalType": "string",
					"name": "str",
					"type": "string"
				},
				{
					"internalType": "uint256",
					"name": "_remainingReward",
					"type": "uint256"
				},
				{
					"internalType": "uint256",
					"name": "_lv",
					"type": "uint256"
				},
				{
					"internalType": "uint256",
					"name": "_random",
					"type": "uint256"
				}
			],
			"name": "setNftInfo",
			"outputs": [
				{
					"internalType": "bool",
					"name": "",
					"type": "bool"
				}
			],
			"stateMutability": "nonpayable",
			"type": "function"
		},
		{
			"inputs": [
				{
					"internalType": "uint256",
					"name": "_val",
					"type": "uint256"
				}
			],
			"name": "setPreSaleEnd",
			"outputs": [
				{
					"internalType": "bool",
					"name": "",
					"type": "bool"
				}
			],
			"stateMutability": "nonpayable",
			"type": "function"
		},
		{
			"inputs": [
				{
					"internalType": "uint256",
					"name": "_lv",
					"type": "uint256"
				},
				{
					"internalType": "uint256",
					"name": "_releaseSecond",
					"type": "uint256"
				}
			],
			"name": "setReleaseCycle",
			"outputs": [
				{
					"internalType": "bool",
					"name": "",
					"type": "bool"
				}
			],
			"stateMutability": "nonpayable",
			"type": "function"
		},
		{
			"inputs": [
				{
					"internalType": "bool",
					"name": "_bool",
					"type": "bool"
				}
			],
			"name": "setStateOpen",
			"outputs": [
				{
					"internalType": "bool",
					"name": "",
					"type": "bool"
				}
			],
			"stateMutability": "nonpayable",
			"type": "function"
		},
		{
			"inputs": [
				{
					"internalType": "address",
					"name": "_user",
					"type": "address"
				},
				{
					"internalType": "uint256",
					"name": "_lastClaimTimestamp",
					"type": "uint256"
				},
				{
					"internalType": "uint256",
					"name": "_releaseSecond",
					"type": "uint256"
				},
				{
					"internalType": "uint256",
					"name": "_claimble",
					"type": "uint256"
				}
			],
			"name": "setUserInfo",
			"outputs": [
				{
					"internalType": "bool",
					"name": "",
					"type": "bool"
				}
			],
			"stateMutability": "nonpayable",
			"type": "function"
		},
		{
			"inputs": [],
			"name": "stateOpen",
			"outputs": [
				{
					"internalType": "bool",
					"name": "",
					"type": "bool"
				}
			],
			"stateMutability": "view",
			"type": "function"
		},
		{
			"inputs": [
				{
					"internalType": "bytes4",
					"name": "interfaceId",
					"type": "bytes4"
				}
			],
			"name": "supportsInterface",
			"outputs": [
				{
					"internalType": "bool",
					"name": "",
					"type": "bool"
				}
			],
			"stateMutability": "view",
			"type": "function"
		},
		{
			"inputs": [],
			"name": "symbol",
			"outputs": [
				{
					"internalType": "string",
					"name": "",
					"type": "string"
				}
			],
			"stateMutability": "view",
			"type": "function"
		},
		{
			"inputs": [
				{
					"internalType": "uint256",
					"name": "index",
					"type": "uint256"
				}
			],
			"name": "tokenByIndex",
			"outputs": [
				{
					"internalType": "uint256",
					"name": "",
					"type": "uint256"
				}
			],
			"stateMutability": "view",
			"type": "function"
		},
		{
			"inputs": [],
			"name": "tokenIdIndex",
			"outputs": [
				{
					"internalType": "uint256",
					"name": "",
					"type": "uint256"
				}
			],
			"stateMutability": "view",
			"type": "function"
		},
		{
			"inputs": [
				{
					"internalType": "address",
					"name": "owner",
					"type": "address"
				},
				{
					"internalType": "uint256",
					"name": "index",
					"type": "uint256"
				}
			],
			"name": "tokenOfOwnerByIndex",
			"outputs": [
				{
					"internalType": "uint256",
					"name": "",
					"type": "uint256"
				}
			],
			"stateMutability": "view",
			"type": "function"
		},
		{
			"inputs": [
				{
					"internalType": "uint256",
					"name": "tokenId",
					"type": "uint256"
				}
			],
			"name": "tokenURI",
			"outputs": [
				{
					"internalType": "string",
					"name": "",
					"type": "string"
				}
			],
			"stateMutability": "view",
			"type": "function"
		},
		{
			"inputs": [],
			"name": "totalSupply",
			"outputs": [
				{
					"internalType": "uint256",
					"name": "",
					"type": "uint256"
				}
			],
			"stateMutability": "view",
			"type": "function"
		},
		{
			"inputs": [
				{
					"internalType": "address",
					"name": "from",
					"type": "address"
				},
				{
					"internalType": "address",
					"name": "to",
					"type": "address"
				},
				{
					"internalType": "uint256",
					"name": "tokenId",
					"type": "uint256"
				}
			],
			"name": "transferFrom",
			"outputs": [],
			"stateMutability": "nonpayable",
			"type": "function"
		},
		{
			"inputs": [
				{
					"internalType": "address",
					"name": "newOwner",
					"type": "address"
				}
			],
			"name": "transferOwnership",
			"outputs": [],
			"stateMutability": "nonpayable",
			"type": "function"
		},
		{
			"inputs": [
				{
					"internalType": "address",
					"name": "_user",
					"type": "address"
				}
			],
			"name": "userInfo",
			"outputs": [
				{
					"components": [
						{
							"internalType": "uint256",
							"name": "lastClaimTimestamp",
							"type": "uint256"
						},
						{
							"internalType": "uint256",
							"name": "releaseSecond",
							"type": "uint256"
						},
						{
							"internalType": "uint256",
							"name": "claimble",
							"type": "uint256"
						}
					],
					"internalType": "struct FishNft.UserInfo",
					"name": "",
					"type": "tuple"
				}
			],
			"stateMutability": "view",
			"type": "function"
		}
	]
}