{
	"data": {
		"bytecode": {
			"linkReferences": {},
			"object": "608060405234801561001057600080fd5b50612f28806100206000396000f3fe608060405234801561001057600080fd5b506004361061030c5760003560e01c806376902b831161019d578063aaf5eb68116100e9578063d477f05f116100a2578063f2fde38b1161007c578063f2fde38b146105d0578063f49c8b87146105e3578063f6d7eade146105eb578063ffcff32c146105f35761030c565b8063d477f05f146105ad578063d5c43159146105c0578063ec1f1f69146105c85761030c565b8063aaf5eb681461055c578063af4086f614610564578063b13b08471461056c578063b37895331461057f578063c83dd23114610592578063c85cd7121461059a5761030c565b806391cca3db11610156578063a235c42a11610130578063a235c42a1461051b578063a265e8991461052e578063a36a752614610536578063a9787fdc146105495761030c565b806391cca3db14610503578063983624401461050b578063a035b1fe146105135761030c565b806376902b83146104b25780637dc0d1d0146104c557806389a30271146104cd5780638af9e5cd146104d55780638da5cb5b146104e857806391b7f5ed146104f05761030c565b806347e1ed881161025c5780636043903d116102155780636f0a5b1b116101ef5780636f0a5b1b1461048357806371261bf31461048b578063715018a61461049357806374645ff31461049d5761030c565b80636043903d146104605780636263fc6714610468578063645539ed1461047b5761030c565b806347e1ed8814610402578063498cb7f41461040a57806349bdafc81461041d5780634a9c836614610430578063569307141461044557806360398848146104585761030c565b806333cdacd9116102c95780633b2d3e96116102a35780633b2d3e96146103c15780633ba0b9a9146103d457806340e90a7e146103dc57806340ee4d0c146103ef5761030c565b806333cdacd91461039e57806336ebafe9146103a657806338207b16146103ae5761030c565b806302ce728f146103115780630a0642c0146103305780631450acd21461034557806317db7b70146103655780631891381d14610378578063243adbdd1461038b575b600080fd5b6103196105fb565b60405161032792919061293e565b60405180910390f35b6103386106a0565b6040516103279190612ccd565b610358610353366004612798565b6106a6565b6040516103279190612933565b6103586103733660046127c8565b6106fe565b610358610386366004612798565b610755565b610358610399366004612798565b61079f565b610338610f7c565b610338610f82565b6103586103bc366004612798565b610f88565b6103586103cf366004612494565b610fd2565b610338611034565b6103586103ea366004612798565b61103a565b6103586103fd366004612798565b611084565b6103386110ce565b610338610418366004612798565b6110d4565b61035861042b36600461245c565b6110e6565b61043861114c565b604051610327919061285e565b61035861045336600461245c565b61115b565b6103386111c1565b6103586111c7565b61033861047636600461245c565b6111d0565b6103386111e2565b6104386111e8565b6104386111f7565b61049b611206565b005b6104a5611251565b604051610327919061294e565b61049b6104c03660046125cb565b6112df565b6104386114d5565b6104386114e4565b6103586104e3366004612798565b6114f3565b61043861153d565b6103586104fe366004612798565b61154c565b610438611596565b6104386115a5565b6103386115b4565b610358610529366004612566565b6115ba565b610338611612565b61035861054436600461245c565b611696565b610358610557366004612798565b6116fc565b610338611746565b61033861174c565b61035861057a3660046126a8565b611752565b61035861058d366004612798565b6117cb565b610438611815565b6103586105a8366004612566565b611824565b6103586105bb36600461245c565b61187c565b6103386118e2565b6104386118e8565b61049b6105de36600461245c565b6118f7565b610358611968565b610438611971565b610438611980565b60675460405163d6d7d52560e01b815260009182916001600160a01b039091169063d6d7d5259061063190606890600401612961565b6040805180830381600087803b15801561064a57600080fd5b505af115801561065e573d6000803e3d6000fd5b505050506040513d601f19601f82011682018060405250810190610682919061259e565b9092509050811561069757606681905561069c565b506066545b9091565b607e5481565b60006106b061198f565b6001600160a01b03166106c161153d565b6001600160a01b0316146106f05760405162461bcd60e51b81526004016106e790612b68565b60405180910390fd5b50607781905560015b919050565b600061070861198f565b6001600160a01b031661071961153d565b6001600160a01b03161461073f5760405162461bcd60e51b81526004016106e790612b68565b506000918252607b602052604090912055600190565b600061075f61198f565b6001600160a01b031661077061153d565b6001600160a01b0316146107965760405162461bcd60e51b81526004016106e790612b68565b50607455600190565b6000816107aa61198f565b6001600160a01b0316326001600160a01b0316146107da5760405162461bcd60e51b81526004016106e790612a51565b607554336000908152607a60209081526040808320548352607b909152812054607954919261081f929091610819916108139087611993565b90611993565b906119a6565b60705490915061083a906001600160a01b03163330846119b2565b6000610857607554610819607c548561199390919063ffffffff16565b90506000610876607554610819607d548661199390919063ffffffff16565b90506000610895607554610819607e548761199390919063ffffffff16565b905060006108af826108a985818989611a10565b90611a10565b606f5460705460725460405163e6a4390560e01b81529394506000936001600160a01b039384169363e6a43905936108f09390821692911690600401612872565b60206040518083038186803b15801561090857600080fd5b505afa15801561091c573d6000803e3d6000fd5b505050506040513d601f19601f820116820180604052508101906109409190612478565b607054607254919250600091610962916001600160a01b039081169116611a1c565b5060655490915060ff1615610bd157606e5460705461098f916001600160a01b0391821691166000611aa6565b606e546070546109ae916001600160a01b039182169116600019611aa6565b606e546072546109cc916001600160a01b0391821691166000611aa6565b606e546072546109eb916001600160a01b039182169116600019611aa6565b607254607054610a0a9184916001600160a01b03918216911689611b6e565b6070546040516370a0823160e01b8152600091610a9b9186916108a991899183918c916001600160a01b0316906370a0823190610a4b90309060040161285e565b60206040518083038186803b158015610a6357600080fd5b505afa158015610a77573d6000803e3d6000fd5b505050506040513d601f19601f820116820180604052508101906108a991906127b0565b606e546070546072546040516370a0823160e01b81529394506001600160a01b039283169363e8e33700939283169290911690859082906370a0823190610ae690309060040161285e565b60206040518083038186803b158015610afe57600080fd5b505afa158015610b12573d6000803e3d6000fd5b505050506040513d601f19601f82011682018060405250810190610b3691906127b0565b606a5460009081906001600160a01b0316610b53426103e8612db3565b6040518963ffffffff1660e01b8152600401610b769897969594939291906128b0565b606060405180830381600087803b158015610b9057600080fd5b505af1158015610ba4573d6000803e3d6000fd5b505050506040513d601f19601f82011682018060405250810190610bc891906127e9565b50505050610bee565b606a54607054610bee916001600160a01b03918216911688611dd2565b606c54607054610c0b916001600160a01b03918216911687611dd2565b606d54607054610c28916001600160a01b03918216911686611dd2565b607f5460ff1615610e4757600080836001600160a01b0316630902f1ac6040518163ffffffff1660e01b815260040160606040518083038186803b158015610c6f57600080fd5b505afa158015610c83573d6000803e3d6000fd5b505050506040513d601f19601f82011682018060405250810190610ca7919061274a565b506070546001600160701b039283169450911691506001600160a01b03848116911614610cd5578082610cd8565b81815b90925090506000610cea868484611df1565b60705490915060009081906001600160a01b03878116911614610d0f57826000610d13565b6000835b6070549193509150610d2f906001600160a01b0316888a611dd2565b6040805160008152602081019182905263022c0d9f60e01b9091526001600160a01b0388169063022c0d9f90610d6e9085908590309060248101612d46565b600060405180830381600087803b158015610d8857600080fd5b505af1158015610d9c573d6000803e3d6000fd5b50506069546072546040516370a0823160e01b8152610e3d94506001600160a01b0392831693509116906370a0823190610dda90309060040161285e565b60206040518083038186803b158015610df257600080fd5b505afa158015610e06573d6000803e3d6000fd5b505050506040513d601f19601f82011682018060405250810190610e2a91906127b0565b6072546001600160a01b03169190611dd2565b5050505050610e64565b606b54607054610e64916001600160a01b03918216911685611dd2565b6000610e6e6105fb565b915050610e79611e3f565b5060005b89811015610f6a576073546001600160a01b031663d405d32a33610ea18442612db3565b607554607454610eb2908290612db3565b670de0b6b3a764000088607954610ec99190612deb565b610ed39190612dcb565b610edd9190612deb565b610ee79190612dcb565b6040518463ffffffff1660e01b8152600401610f0593929190612912565b602060405180830381600087803b158015610f1f57600080fd5b505af1158015610f33573d6000803e3d6000fd5b505050506040513d601f19601f82011682018060405250810190610f579190612582565b5080610f6281612e88565b915050610e7d565b5060019b9a5050505050505050505050565b60715481565b60775481565b6000610f9261198f565b6001600160a01b0316610fa361153d565b6001600160a01b031614610fc95760405162461bcd60e51b81526004016106e790612b68565b50607655600190565b6000610fdc61198f565b6001600160a01b0316610fed61153d565b6001600160a01b0316146110135760405162461bcd60e51b81526004016106e790612b68565b506001600160a01b03919091166000908152607a6020526040902055600190565b60665481565b600061104461198f565b6001600160a01b031661105561153d565b6001600160a01b03161461107b5760405162461bcd60e51b81526004016106e790612b68565b50607155600190565b600061108e61198f565b6001600160a01b031661109f61153d565b6001600160a01b0316146110c55760405162461bcd60e51b81526004016106e790612b68565b50607c55600190565b607c5481565b607b6020526000908152604090205481565b60006110f061198f565b6001600160a01b031661110161153d565b6001600160a01b0316146111275760405162461bcd60e51b81526004016106e790612b68565b50606b80546001600160a01b0383166001600160a01b03199091161790556001919050565b6069546001600160a01b031681565b600061116561198f565b6001600160a01b031661117661153d565b6001600160a01b03161461119c5760405162461bcd60e51b81526004016106e790612b68565b50606a80546001600160a01b0383166001600160a01b03199091161790556001919050565b607d5481565b607f5460ff1681565b607a6020526000908152604090205481565b60765481565b606a546001600160a01b031681565b6073546001600160a01b031681565b61120e61198f565b6001600160a01b031661121f61153d565b6001600160a01b0316146112455760405162461bcd60e51b81526004016106e790612b68565b61124f6000611e9c565b565b6068805461125e90612e4d565b80601f016020809104026020016040519081016040528092919081815260200182805461128a90612e4d565b80156112d75780601f106112ac576101008083540402835291602001916112d7565b820191906000526020600020905b8154815290600101906020018083116112ba57829003601f168201915b505050505081565b600054610100900460ff16806112f8575060005460ff16155b6113145760405162461bcd60e51b81526004016106e790612b1a565b600054610100900460ff1615801561133f576000805460ff1961ff0019909116610100171660011790555b611347611eee565b607080546001600160a01b03199081166001600160a01b0385811691909117909255606780548216868416179055606c80548216898416179055606d80548216888416179055606a805482168b8416179055606b805482168a8416179055606e805482168c8416179055606f805482168d84161790556072805482168f84161790556073805482168e841617905560698054909116918616919091179055612710607581905560748190556000607681905560646077556103e8607881905568056bc75e2d63100000607955607b6020527ffa58b71a6fb66fb38c35354e640506789c3a5ca0c9abe3bb29fa65504a39d89c929092556123287f0aaa3ce42286152b719abbca9f317d4abc82039051363ec7758d508c8a88401a5560029052611f407f6b4e4cdeecc1cedc87704b94f7d0334f48057b970752f0bd2a553909bc33a5af55607155611388607c556105dc607d819055607e556065805460ff19908116909155607f8054909116905580156114c7576000805461ff00191690555b505050505050505050505050565b6067546001600160a01b031681565b6070546001600160a01b031681565b60006114fd61198f565b6001600160a01b031661150e61153d565b6001600160a01b0316146115345760405162461bcd60e51b81526004016106e790612b68565b50607d55600190565b6033546001600160a01b031690565b600061155661198f565b6001600160a01b031661156761153d565b6001600160a01b03161461158d5760405162461bcd60e51b81526004016106e790612b68565b50607955600190565b606c546001600160a01b031681565b606b546001600160a01b031681565b60795481565b60006115c461198f565b6001600160a01b03166115d561153d565b6001600160a01b0316146115fb5760405162461bcd60e51b81526004016106e790612b68565b50607f805460ff1916911515919091179055600190565b606754604051630d39bbef60e41b81526000916001600160a01b03169063d39bbef09061164190600401612a73565b60206040518083038186803b15801561165957600080fd5b505afa15801561166d573d6000803e3d6000fd5b505050506040513d601f19601f8201168201806040525081019061169191906127b0565b905090565b60006116a061198f565b6001600160a01b03166116b161153d565b6001600160a01b0316146116d75760405162461bcd60e51b81526004016106e790612b68565b50606d80546001600160a01b0383166001600160a01b03199091161790556001919050565b600061170661198f565b6001600160a01b031661171761153d565b6001600160a01b03161461173d5760405162461bcd60e51b81526004016106e790612b68565b50607e55600190565b60755481565b60785481565b600061175c61198f565b6001600160a01b031661176d61153d565b6001600160a01b0316146117935760405162461bcd60e51b81526004016106e790612b68565b606780546001600160a01b0319166001600160a01b03851617905581516117c19060689060208501906123a1565b5060019392505050565b60006117d561198f565b6001600160a01b03166117e661153d565b6001600160a01b03161461180c5760405162461bcd60e51b81526004016106e790612b68565b50607855600190565b606f546001600160a01b031681565b600061182e61198f565b6001600160a01b031661183f61153d565b6001600160a01b0316146118655760405162461bcd60e51b81526004016106e790612b68565b506065805460ff1916911515919091179055600190565b600061188661198f565b6001600160a01b031661189761153d565b6001600160a01b0316146118bd5760405162461bcd60e51b81526004016106e790612b68565b50606c80546001600160a01b0383166001600160a01b03199091161790556001919050565b60745481565b606d546001600160a01b031681565b6118ff61198f565b6001600160a01b031661191061153d565b6001600160a01b0316146119365760405162461bcd60e51b81526004016106e790612b68565b6001600160a01b03811661195c5760405162461bcd60e51b81526004016106e790612a0b565b61196581611e9c565b50565b60655460ff1681565b606e546001600160a01b031681565b6072546001600160a01b031681565b3390565b600061199f8284612deb565b9392505050565b600061199f8284612dcb565b611a0a846323b872dd60e01b8585856040516024016119d39392919061288c565b60408051601f198184030181529190526020810180516001600160e01b03166001600160e01b031990931692909217909152611f72565b50505050565b600061199f8284612e0a565b600080826001600160a01b0316846001600160a01b03161415611a515760405162461bcd60e51b81526004016106e790612a8f565b826001600160a01b0316846001600160a01b031610611a71578284611a74565b83835b90925090506001600160a01b038216611a9f5760405162461bcd60e51b81526004016106e790612bf6565b9250929050565b801580611b2e5750604051636eb1769f60e11b81526001600160a01b0384169063dd62ed3e90611adc9030908690600401612872565b60206040518083038186803b158015611af457600080fd5b505afa158015611b08573d6000803e3d6000fd5b505050506040513d601f19601f82011682018060405250810190611b2c91906127b0565b155b611b4a5760405162461bcd60e51b81526004016106e790612c77565b611b698363095ea7b360e01b84846040516024016119d39291906128f9565b505050565b600080856001600160a01b0316630902f1ac6040518163ffffffff1660e01b815260040160606040518083038186803b158015611baa57600080fd5b505afa158015611bbe573d6000803e3d6000fd5b505050506040513d601f19601f82011682018060405250810190611be2919061274a565b506001600160701b031691506001600160701b03169150600080876001600160a01b0316630dfe16816040518163ffffffff1660e01b815260040160206040518083038186803b158015611c3557600080fd5b505afa158015611c49573d6000803e3d6000fd5b505050506040513d601f19601f82011682018060405250810190611c6d9190612478565b6072546001600160a01b03908116911614611c89578284611c8c565b83835b91509150600080611ca06000888686612001565b90925090508115611dc65760408051600280825260608201835260009260208301908036833701905050905081611cd8578989611cdb565b888a5b82600081518110611cfc57634e487b7160e01b600052603260045260246000fd5b6020026020010183600181518110611d2457634e487b7160e01b600052603260045260246000fd5b6001600160a01b039384166020918202929092010152918116909152606e546040516338ed173960e01b81529116906338ed173990611d70908690600090869030904290600401612cd6565b600060405180830381600087803b158015611d8a57600080fd5b505af1158015611d9e573d6000803e3d6000fd5b505050506040513d6000823e601f3d908101601f191682016040526114c791908101906124bf565b50505050505050505050565b611b698363a9059cbb60e01b84846040516024016119d39291906128f9565b600080611e00856103e5611993565b90506000611e0e8285611993565b90506000611e2883611e22886103e8611993565b90612050565b9050611e348183612dcb565b979650505050505050565b600060765460011415611e70576078546074541015611e6b57607754607454611e6791612050565b6074555b611e96565b60765460021415611e96576078546074541115611e6b57607754607454611e6791611a10565b50600190565b603380546001600160a01b038381166001600160a01b0319831681179093556040519116919082907f8be0079c531659141344cd1fd0a4f28419497f9722a3daafe3b4186f6b6457e090600090a35050565b600054610100900460ff1680611f07575060005460ff16155b611f235760405162461bcd60e51b81526004016106e790612b1a565b600054610100900460ff16158015611f4e576000805460ff1961ff0019909116610100171660011790555b611f5661205c565b611f5e6120cf565b8015611965576000805461ff001916905550565b6000611fc7826040518060400160405280602081526020017f5361666545524332303a206c6f772d6c6576656c2063616c6c206661696c6564815250856001600160a01b031661213f9092919063ffffffff16565b805190915015611b695780806020019051810190611fe59190612582565b611b695760405162461bcd60e51b81526004016106e790612c2d565b60008061200e8585611993565b6120188785611993565b106120345761202986868686612156565b915060009050612047565b61204085878587612156565b9150600190505b94509492505050565b600061199f8284612db3565b600054610100900460ff1680612075575060005460ff16155b6120915760405162461bcd60e51b81526004016106e790612b1a565b600054610100900460ff16158015611f5e576000805460ff1961ff0019909116610100171660011790558015611965576000805461ff001916905550565b600054610100900460ff16806120e8575060005460ff16155b6121045760405162461bcd60e51b81526004016106e790612b1a565b600054610100900460ff1615801561212f576000805460ff1961ff0019909116610100171660011790555b611f5e61213a61198f565b611e9c565b606061214e848460008561223e565b949350505050565b60006121628484611993565b61216c8684611993565b101561218a5760405162461bcd60e51b81526004016106e790612b9d565b6103e5600061219b6107cd86611993565b905060006121b66121ac8888611993565b6108a98a88611993565b905060006121d7876108136121cb8b8a612050565b610819866103e8611993565b905060006121ea60046108138785611993565b905060006122046121ff83611e228880611993565b6122f3565b905060006122128287611a10565b90506000612221886002611993565b905061222d82826119a6565b9d9c50505050505050505050505050565b6060824710156122605760405162461bcd60e51b81526004016106e790612ad4565b61226985612362565b6122855760405162461bcd60e51b81526004016106e790612bbf565b600080866001600160a01b031685876040516122a19190612842565b60006040518083038185875af1925050503d80600081146122de576040519150601f19603f3d011682016040523d82523d6000602084013e6122e3565b606091505b5091509150611e34828286612368565b60006003821115612354575080600061230d600283612dcb565b612318906001612db3565b90505b8181101561234e579050806002816123338186612dcb565b61233d9190612db3565b6123479190612dcb565b905061231b565b506106f9565b81156106f957506001919050565b3b151590565b6060831561237757508161199f565b8251156123875782518084602001fd5b8160405162461bcd60e51b81526004016106e7919061294e565b8280546123ad90612e4d565b90600052602060002090601f0160209004810192826123cf5760008555612415565b82601f106123e857805160ff1916838001178555612415565b82800160010185558215612415579182015b828111156124155782518255916020019190600101906123fa565b50612421929150612425565b5090565b5b808211156124215760008155600101612426565b80356106f981612ecf565b80516001600160701b03811681146106f957600080fd5b60006020828403121561246d578081fd5b813561199f81612ecf565b600060208284031215612489578081fd5b815161199f81612ecf565b600080604083850312156124a6578081fd5b82356124b181612ecf565b946020939093013593505050565b600060208083850312156124d1578182fd5b825167ffffffffffffffff808211156124e8578384fd5b818501915085601f8301126124fb578384fd5b81518181111561250d5761250d612eb9565b838102915061251d848301612d7d565b8181528481019084860184860187018a1015612537578788fd5b8795505b8386101561255957805183526001959095019491860191860161253b565b5098975050505050505050565b600060208284031215612577578081fd5b813561199f81612ee4565b600060208284031215612593578081fd5b815161199f81612ee4565b600080604083850312156125b0578182fd5b82516125bb81612ee4565b6020939093015192949293505050565b60008060008060008060008060008060006101608c8e0312156125ec578687fd5b8b356125f781612ecf565b9a5060208c013561260781612ecf565b995060408c013561261781612ecf565b985060608c013561262781612ecf565b975060808c013561263781612ecf565b965060a08c013561264781612ecf565b955060c08c013561265781612ecf565b945060e08c013561266781612ecf565b93506101008c013561267881612ecf565b92506126876101208d0161243a565b91506126966101408d0161243a565b90509295989b509295989b9093969950565b600080604083850312156126ba578182fd5b82356126c581612ecf565b915060208381013567ffffffffffffffff808211156126e2578384fd5b818601915086601f8301126126f5578384fd5b81358181111561270757612707612eb9565b612719601f8201601f19168501612d7d565b9150808252878482850101111561272e578485fd5b8084840185840137810190920192909252919491935090915050565b60008060006060848603121561275e578081fd5b61276784612445565b925061277560208501612445565b9150604084015163ffffffff8116811461278d578182fd5b809150509250925092565b6000602082840312156127a9578081fd5b5035919050565b6000602082840312156127c1578081fd5b5051919050565b600080604083850312156127da578182fd5b50508035926020909101359150565b6000806000606084860312156127fd578081fd5b8351925060208401519150604084015190509250925092565b6000815180845261282e816020860160208601612e21565b601f01601f19169290920160200192915050565b60008251612854818460208701612e21565b9190910192915050565b6001600160a01b0391909116815260200190565b6001600160a01b0392831681529116602082015260400190565b6001600160a01b039384168152919092166020820152604081019190915260600190565b6001600160a01b039889168152968816602088015260408701959095526060860193909352608085019190915260a084015290921660c082015260e08101919091526101000190565b6001600160a01b03929092168252602082015260400190565b6001600160a01b039390931683526020830191909152604082015260600190565b901515815260200190565b9115158252602082015260400190565b60006020825261199f6020830184612816565b600060208083528184548360028204905060018083168061298357607f831692505b8583108114156129a157634e487b7160e01b87526022600452602487fd5b6129ad83878a01612ccd565b8180156129c157600181146129d2576129fc565b60ff198616825287820196506129fc565b6129db8b612da7565b895b868110156129f6578154848201529085019089016129dd565b83019750505b50949998505050505050505050565b60208082526026908201527f4f776e61626c653a206e6577206f776e657220697320746865207a65726f206160408201526564647265737360d01b606082015260800190565b6020808252600890820152674f6e6c7920454f4160c01b604082015260600190565b602080825260029082015261060f60f31b604082015260600190565b60208082526025908201527f556e697377617056324c6962726172793a204944454e544943414c5f41444452604082015264455353455360d81b606082015260800190565b60208082526026908201527f416464726573733a20696e73756666696369656e742062616c616e636520666f6040820152651c8818d85b1b60d21b606082015260800190565b6020808252602e908201527f496e697469616c697a61626c653a20636f6e747261637420697320616c72656160408201526d191e481a5b9a5d1a585b1a5e995960921b606082015260800190565b6020808252818101527f4f776e61626c653a2063616c6c6572206973206e6f7420746865206f776e6572604082015260600190565b60208082526008908201526714995d995c9cd95960c21b604082015260600190565b6020808252601d908201527f416464726573733a2063616c6c20746f206e6f6e2d636f6e7472616374000000604082015260600190565b6020808252601e908201527f556e697377617056324c6962726172793a205a45524f5f414444524553530000604082015260600190565b6020808252602a908201527f5361666545524332303a204552433230206f7065726174696f6e20646964206e6040820152691bdd081cdd58d8d9595960b21b606082015260800190565b60208082526036908201527f5361666545524332303a20617070726f76652066726f6d206e6f6e2d7a65726f60408201527520746f206e6f6e2d7a65726f20616c6c6f77616e636560501b606082015260800190565b90815260200190565b600060a082018783526020878185015260a0604085015281875180845260c0860191508289019350845b81811015612d255784516001600160a01b031683529383019391830191600101612d00565b50506001600160a01b03969096166060850152505050608001529392505050565b600085825284602083015260018060a01b038416604083015260806060830152612d736080830184612816565b9695505050505050565b60405181810167ffffffffffffffff81118282101715612d9f57612d9f612eb9565b604052919050565b60009081526020902090565b60008219821115612dc657612dc6612ea3565b500190565b600082612de657634e487b7160e01b81526012600452602481fd5b500490565b6000816000190483118215151615612e0557612e05612ea3565b500290565b600082821015612e1c57612e1c612ea3565b500390565b60005b83811015612e3c578181015183820152602001612e24565b83811115611a0a5750506000910152565b600281046001821680612e6157607f821691505b60208210811415612e8257634e487b7160e01b600052602260045260246000fd5b50919050565b6000600019821415612e9c57612e9c612ea3565b5060010190565b634e487b7160e01b600052601160045260246000fd5b634e487b7160e01b600052604160045260246000fd5b6001600160a01b038116811461196557600080fd5b801515811461196557600080fdfea2646970667358221220e72255f29dba3cccd1fa911b97194cee5c12bf62c86b1aea62d2a4d450efe29064736f6c63430008000033",
			"opcodes": "PUSH1 0x80 PUSH1 0x40 MSTORE CALLVALUE DUP1 ISZERO PUSH2 0x10 JUMPI PUSH1 0x0 DUP1 REVERT JUMPDEST POP PUSH2 0x2F28 DUP1 PUSH2 0x20 PUSH1 0x0 CODECOPY PUSH1 0x0 RETURN INVALID PUSH1 0x80 PUSH1 0x40 MSTORE CALLVALUE DUP1 ISZERO PUSH2 0x10 JUMPI PUSH1 0x0 DUP1 REVERT JUMPDEST POP PUSH1 0x4 CALLDATASIZE LT PUSH2 0x30C JUMPI PUSH1 0x0 CALLDATALOAD PUSH1 0xE0 SHR DUP1 PUSH4 0x76902B83 GT PUSH2 0x19D JUMPI DUP1 PUSH4 0xAAF5EB68 GT PUSH2 0xE9 JUMPI DUP1 PUSH4 0xD477F05F GT PUSH2 0xA2 JUMPI DUP1 PUSH4 0xF2FDE38B GT PUSH2 0x7C JUMPI DUP1 PUSH4 0xF2FDE38B EQ PUSH2 0x5D0 JUMPI DUP1 PUSH4 0xF49C8B87 EQ PUSH2 0x5E3 JUMPI DUP1 PUSH4 0xF6D7EADE EQ PUSH2 0x5EB JUMPI DUP1 PUSH4 0xFFCFF32C EQ PUSH2 0x5F3 JUMPI PUSH2 0x30C JUMP JUMPDEST DUP1 PUSH4 0xD477F05F EQ PUSH2 0x5AD JUMPI DUP1 PUSH4 0xD5C43159 EQ PUSH2 0x5C0 JUMPI DUP1 PUSH4 0xEC1F1F69 EQ PUSH2 0x5C8 JUMPI PUSH2 0x30C JUMP JUMPDEST DUP1 PUSH4 0xAAF5EB68 EQ PUSH2 0x55C JUMPI DUP1 PUSH4 0xAF4086F6 EQ PUSH2 0x564 JUMPI DUP1 PUSH4 0xB13B0847 EQ PUSH2 0x56C JUMPI DUP1 PUSH4 0xB3789533 EQ PUSH2 0x57F JUMPI DUP1 PUSH4 0xC83DD231 EQ PUSH2 0x592 JUMPI DUP1 PUSH4 0xC85CD712 EQ PUSH2 0x59A JUMPI PUSH2 0x30C JUMP JUMPDEST DUP1 PUSH4 0x91CCA3DB GT PUSH2 0x156 JUMPI DUP1 PUSH4 0xA235C42A GT PUSH2 0x130 JUMPI DUP1 PUSH4 0xA235C42A EQ PUSH2 0x51B JUMPI DUP1 PUSH4 0xA265E899 EQ PUSH2 0x52E JUMPI DUP1 PUSH4 0xA36A7526 EQ PUSH2 0x536 JUMPI DUP1 PUSH4 0xA9787FDC EQ PUSH2 0x549 JUMPI PUSH2 0x30C JUMP JUMPDEST DUP1 PUSH4 0x91CCA3DB EQ PUSH2 0x503 JUMPI DUP1 PUSH4 0x98362440 EQ PUSH2 0x50B JUMPI DUP1 PUSH4 0xA035B1FE EQ PUSH2 0x513 JUMPI PUSH2 0x30C JUMP JUMPDEST DUP1 PUSH4 0x76902B83 EQ PUSH2 0x4B2 JUMPI DUP1 PUSH4 0x7DC0D1D0 EQ PUSH2 0x4C5 JUMPI DUP1 PUSH4 0x89A30271 EQ PUSH2 0x4CD JUMPI DUP1 PUSH4 0x8AF9E5CD EQ PUSH2 0x4D5 JUMPI DUP1 PUSH4 0x8DA5CB5B EQ PUSH2 0x4E8 JUMPI DUP1 PUSH4 0x91B7F5ED EQ PUSH2 0x4F0 JUMPI PUSH2 0x30C JUMP JUMPDEST DUP1 PUSH4 0x47E1ED88 GT PUSH2 0x25C JUMPI DUP1 PUSH4 0x6043903D GT PUSH2 0x215 JUMPI DUP1 PUSH4 0x6F0A5B1B GT PUSH2 0x1EF JUMPI DUP1 PUSH4 0x6F0A5B1B EQ PUSH2 0x483 JUMPI DUP1 PUSH4 0x71261BF3 EQ PUSH2 0x48B JUMPI DUP1 PUSH4 0x715018A6 EQ PUSH2 0x493 JUMPI DUP1 PUSH4 0x74645FF3 EQ PUSH2 0x49D JUMPI PUSH2 0x30C JUMP JUMPDEST DUP1 PUSH4 0x6043903D EQ PUSH2 0x460 JUMPI DUP1 PUSH4 0x6263FC67 EQ PUSH2 0x468 JUMPI DUP1 PUSH4 0x645539ED EQ PUSH2 0x47B JUMPI PUSH2 0x30C JUMP JUMPDEST DUP1 PUSH4 0x47E1ED88 EQ PUSH2 0x402 JUMPI DUP1 PUSH4 0x498CB7F4 EQ PUSH2 0x40A JUMPI DUP1 PUSH4 0x49BDAFC8 EQ PUSH2 0x41D JUMPI DUP1 PUSH4 0x4A9C8366 EQ PUSH2 0x430 JUMPI DUP1 PUSH4 0x56930714 EQ PUSH2 0x445 JUMPI DUP1 PUSH4 0x60398848 EQ PUSH2 0x458 JUMPI PUSH2 0x30C JUMP JUMPDEST DUP1 PUSH4 0x33CDACD9 GT PUSH2 0x2C9 JUMPI DUP1 PUSH4 0x3B2D3E96 GT PUSH2 0x2A3 JUMPI DUP1 PUSH4 0x3B2D3E96 EQ PUSH2 0x3C1 JUMPI DUP1 PUSH4 0x3BA0B9A9 EQ PUSH2 0x3D4 JUMPI DUP1 PUSH4 0x40E90A7E EQ PUSH2 0x3DC JUMPI DUP1 PUSH4 0x40EE4D0C EQ PUSH2 0x3EF JUMPI PUSH2 0x30C JUMP JUMPDEST DUP1 PUSH4 0x33CDACD9 EQ PUSH2 0x39E JUMPI DUP1 PUSH4 0x36EBAFE9 EQ PUSH2 0x3A6 JUMPI DUP1 PUSH4 0x38207B16 EQ PUSH2 0x3AE JUMPI PUSH2 0x30C JUMP JUMPDEST DUP1 PUSH4 0x2CE728F EQ PUSH2 0x311 JUMPI DUP1 PUSH4 0xA0642C0 EQ PUSH2 0x330 JUMPI DUP1 PUSH4 0x1450ACD2 EQ PUSH2 0x345 JUMPI DUP1 PUSH4 0x17DB7B70 EQ PUSH2 0x365 JUMPI DUP1 PUSH4 0x1891381D EQ PUSH2 0x378 JUMPI DUP1 PUSH4 0x243ADBDD EQ PUSH2 0x38B JUMPI JUMPDEST PUSH1 0x0 DUP1 REVERT JUMPDEST PUSH2 0x319 PUSH2 0x5FB JUMP JUMPDEST PUSH1 0x40 MLOAD PUSH2 0x327 SWAP3 SWAP2 SWAP1 PUSH2 0x293E JUMP JUMPDEST PUSH1 0x40 MLOAD DUP1 SWAP2 SUB SWAP1 RETURN JUMPDEST PUSH2 0x338 PUSH2 0x6A0 JUMP JUMPDEST PUSH1 0x40 MLOAD PUSH2 0x327 SWAP2 SWAP1 PUSH2 0x2CCD JUMP JUMPDEST PUSH2 0x358 PUSH2 0x353 CALLDATASIZE PUSH1 0x4 PUSH2 0x2798 JUMP JUMPDEST PUSH2 0x6A6 JUMP JUMPDEST PUSH1 0x40 MLOAD PUSH2 0x327 SWAP2 SWAP1 PUSH2 0x2933 JUMP JUMPDEST PUSH2 0x358 PUSH2 0x373 CALLDATASIZE PUSH1 0x4 PUSH2 0x27C8 JUMP JUMPDEST PUSH2 0x6FE JUMP JUMPDEST PUSH2 0x358 PUSH2 0x386 CALLDATASIZE PUSH1 0x4 PUSH2 0x2798 JUMP JUMPDEST PUSH2 0x755 JUMP JUMPDEST PUSH2 0x358 PUSH2 0x399 CALLDATASIZE PUSH1 0x4 PUSH2 0x2798 JUMP JUMPDEST PUSH2 0x79F JUMP JUMPDEST PUSH2 0x338 PUSH2 0xF7C JUMP JUMPDEST PUSH2 0x338 PUSH2 0xF82 JUMP JUMPDEST PUSH2 0x358 PUSH2 0x3BC CALLDATASIZE PUSH1 0x4 PUSH2 0x2798 JUMP JUMPDEST PUSH2 0xF88 JUMP JUMPDEST PUSH2 0x358 PUSH2 0x3CF CALLDATASIZE PUSH1 0x4 PUSH2 0x2494 JUMP JUMPDEST PUSH2 0xFD2 JUMP JUMPDEST PUSH2 0x338 PUSH2 0x1034 JUMP JUMPDEST PUSH2 0x358 PUSH2 0x3EA CALLDATASIZE PUSH1 0x4 PUSH2 0x2798 JUMP JUMPDEST PUSH2 0x103A JUMP JUMPDEST PUSH2 0x358 PUSH2 0x3FD CALLDATASIZE PUSH1 0x4 PUSH2 0x2798 JUMP JUMPDEST PUSH2 0x1084 JUMP JUMPDEST PUSH2 0x338 PUSH2 0x10CE JUMP JUMPDEST PUSH2 0x338 PUSH2 0x418 CALLDATASIZE PUSH1 0x4 PUSH2 0x2798 JUMP JUMPDEST PUSH2 0x10D4 JUMP JUMPDEST PUSH2 0x358 PUSH2 0x42B CALLDATASIZE PUSH1 0x4 PUSH2 0x245C JUMP JUMPDEST PUSH2 0x10E6 JUMP JUMPDEST PUSH2 0x438 PUSH2 0x114C JUMP JUMPDEST PUSH1 0x40 MLOAD PUSH2 0x327 SWAP2 SWAP1 PUSH2 0x285E JUMP JUMPDEST PUSH2 0x358 PUSH2 0x453 CALLDATASIZE PUSH1 0x4 PUSH2 0x245C JUMP JUMPDEST PUSH2 0x115B JUMP JUMPDEST PUSH2 0x338 PUSH2 0x11C1 JUMP JUMPDEST PUSH2 0x358 PUSH2 0x11C7 JUMP JUMPDEST PUSH2 0x338 PUSH2 0x476 CALLDATASIZE PUSH1 0x4 PUSH2 0x245C JUMP JUMPDEST PUSH2 0x11D0 JUMP JUMPDEST PUSH2 0x338 PUSH2 0x11E2 JUMP JUMPDEST PUSH2 0x438 PUSH2 0x11E8 JUMP JUMPDEST PUSH2 0x438 PUSH2 0x11F7 JUMP JUMPDEST PUSH2 0x49B PUSH2 0x1206 JUMP JUMPDEST STOP JUMPDEST PUSH2 0x4A5 PUSH2 0x1251 JUMP JUMPDEST PUSH1 0x40 MLOAD PUSH2 0x327 SWAP2 SWAP1 PUSH2 0x294E JUMP JUMPDEST PUSH2 0x49B PUSH2 0x4C0 CALLDATASIZE PUSH1 0x4 PUSH2 0x25CB JUMP JUMPDEST PUSH2 0x12DF JUMP JUMPDEST PUSH2 0x438 PUSH2 0x14D5 JUMP JUMPDEST PUSH2 0x438 PUSH2 0x14E4 JUMP JUMPDEST PUSH2 0x358 PUSH2 0x4E3 CALLDATASIZE PUSH1 0x4 PUSH2 0x2798 JUMP JUMPDEST PUSH2 0x14F3 JUMP JUMPDEST PUSH2 0x438 PUSH2 0x153D JUMP JUMPDEST PUSH2 0x358 PUSH2 0x4FE CALLDATASIZE PUSH1 0x4 PUSH2 0x2798 JUMP JUMPDEST PUSH2 0x154C JUMP JUMPDEST PUSH2 0x438 PUSH2 0x1596 JUMP JUMPDEST PUSH2 0x438 PUSH2 0x15A5 JUMP JUMPDEST PUSH2 0x338 PUSH2 0x15B4 JUMP JUMPDEST PUSH2 0x358 PUSH2 0x529 CALLDATASIZE PUSH1 0x4 PUSH2 0x2566 JUMP JUMPDEST PUSH2 0x15BA JUMP JUMPDEST PUSH2 0x338 PUSH2 0x1612 JUMP JUMPDEST PUSH2 0x358 PUSH2 0x544 CALLDATASIZE PUSH1 0x4 PUSH2 0x245C JUMP JUMPDEST PUSH2 0x1696 JUMP JUMPDEST PUSH2 0x358 PUSH2 0x557 CALLDATASIZE PUSH1 0x4 PUSH2 0x2798 JUMP JUMPDEST PUSH2 0x16FC JUMP JUMPDEST PUSH2 0x338 PUSH2 0x1746 JUMP JUMPDEST PUSH2 0x338 PUSH2 0x174C JUMP JUMPDEST PUSH2 0x358 PUSH2 0x57A CALLDATASIZE PUSH1 0x4 PUSH2 0x26A8 JUMP JUMPDEST PUSH2 0x1752 JUMP JUMPDEST PUSH2 0x358 PUSH2 0x58D CALLDATASIZE PUSH1 0x4 PUSH2 0x2798 JUMP JUMPDEST PUSH2 0x17CB JUMP JUMPDEST PUSH2 0x438 PUSH2 0x1815 JUMP JUMPDEST PUSH2 0x358 PUSH2 0x5A8 CALLDATASIZE PUSH1 0x4 PUSH2 0x2566 JUMP JUMPDEST PUSH2 0x1824 JUMP JUMPDEST PUSH2 0x358 PUSH2 0x5BB CALLDATASIZE PUSH1 0x4 PUSH2 0x245C JUMP JUMPDEST PUSH2 0x187C JUMP JUMPDEST PUSH2 0x338 PUSH2 0x18E2 JUMP JUMPDEST PUSH2 0x438 PUSH2 0x18E8 JUMP JUMPDEST PUSH2 0x49B PUSH2 0x5DE CALLDATASIZE PUSH1 0x4 PUSH2 0x245C JUMP JUMPDEST PUSH2 0x18F7 JUMP JUMPDEST PUSH2 0x358 PUSH2 0x1968 JUMP JUMPDEST PUSH2 0x438 PUSH2 0x1971 JUMP JUMPDEST PUSH2 0x438 PUSH2 0x1980 JUMP JUMPDEST PUSH1 0x67 SLOAD PUSH1 0x40 MLOAD PUSH4 0xD6D7D525 PUSH1 0xE0 SHL DUP2 MSTORE PUSH1 0x0 SWAP2 DUP3 SWAP2 PUSH1 0x1 PUSH1 0x1 PUSH1 0xA0 SHL SUB SWAP1 SWAP2 AND SWAP1 PUSH4 0xD6D7D525 SWAP1 PUSH2 0x631 SWAP1 PUSH1 0x68 SWAP1 PUSH1 0x4 ADD PUSH2 0x2961 JUMP JUMPDEST PUSH1 0x40 DUP1 MLOAD DUP1 DUP4 SUB DUP2 PUSH1 0x0 DUP8 DUP1 EXTCODESIZE ISZERO DUP1 ISZERO PUSH2 0x64A JUMPI PUSH1 0x0 DUP1 REVERT JUMPDEST POP GAS CALL ISZERO DUP1 ISZERO PUSH2 0x65E JUMPI RETURNDATASIZE PUSH1 0x0 DUP1 RETURNDATACOPY RETURNDATASIZE PUSH1 0x0 REVERT JUMPDEST POP POP POP POP PUSH1 0x40 MLOAD RETURNDATASIZE PUSH1 0x1F NOT PUSH1 0x1F DUP3 ADD AND DUP3 ADD DUP1 PUSH1 0x40 MSTORE POP DUP2 ADD SWAP1 PUSH2 0x682 SWAP2 SWAP1 PUSH2 0x259E JUMP JUMPDEST SWAP1 SWAP3 POP SWAP1 POP DUP2 ISZERO PUSH2 0x697 JUMPI PUSH1 0x66 DUP2 SWAP1 SSTORE PUSH2 0x69C JUMP JUMPDEST POP PUSH1 0x66 SLOAD JUMPDEST SWAP1 SWAP2 JUMP JUMPDEST PUSH1 0x7E SLOAD DUP2 JUMP JUMPDEST PUSH1 0x0 PUSH2 0x6B0 PUSH2 0x198F JUMP JUMPDEST PUSH1 0x1 PUSH1 0x1 PUSH1 0xA0 SHL SUB AND PUSH2 0x6C1 PUSH2 0x153D JUMP JUMPDEST PUSH1 0x1 PUSH1 0x1 PUSH1 0xA0 SHL SUB AND EQ PUSH2 0x6F0 JUMPI PUSH1 0x40 MLOAD PUSH3 0x461BCD PUSH1 0xE5 SHL DUP2 MSTORE PUSH1 0x4 ADD PUSH2 0x6E7 SWAP1 PUSH2 0x2B68 JUMP JUMPDEST PUSH1 0x40 MLOAD DUP1 SWAP2 SUB SWAP1 REVERT JUMPDEST POP PUSH1 0x77 DUP2 SWAP1 SSTORE PUSH1 0x1 JUMPDEST SWAP2 SWAP1 POP JUMP JUMPDEST PUSH1 0x0 PUSH2 0x708 PUSH2 0x198F JUMP JUMPDEST PUSH1 0x1 PUSH1 0x1 PUSH1 0xA0 SHL SUB AND PUSH2 0x719 PUSH2 0x153D JUMP JUMPDEST PUSH1 0x1 PUSH1 0x1 PUSH1 0xA0 SHL SUB AND EQ PUSH2 0x73F JUMPI PUSH1 0x40 MLOAD PUSH3 0x461BCD PUSH1 0xE5 SHL DUP2 MSTORE PUSH1 0x4 ADD PUSH2 0x6E7 SWAP1 PUSH2 0x2B68 JUMP JUMPDEST POP PUSH1 0x0 SWAP2 DUP3 MSTORE PUSH1 0x7B PUSH1 0x20 MSTORE PUSH1 0x40 SWAP1 SWAP2 KECCAK256 SSTORE PUSH1 0x1 SWAP1 JUMP JUMPDEST PUSH1 0x0 PUSH2 0x75F PUSH2 0x198F JUMP JUMPDEST PUSH1 0x1 PUSH1 0x1 PUSH1 0xA0 SHL SUB AND PUSH2 0x770 PUSH2 0x153D JUMP JUMPDEST PUSH1 0x1 PUSH1 0x1 PUSH1 0xA0 SHL SUB AND EQ PUSH2 0x796 JUMPI PUSH1 0x40 MLOAD PUSH3 0x461BCD PUSH1 0xE5 SHL DUP2 MSTORE PUSH1 0x4 ADD PUSH2 0x6E7 SWAP1 PUSH2 0x2B68 JUMP JUMPDEST POP PUSH1 0x74 SSTORE PUSH1 0x1 SWAP1 JUMP JUMPDEST PUSH1 0x0 DUP2 PUSH2 0x7AA PUSH2 0x198F JUMP JUMPDEST PUSH1 0x1 PUSH1 0x1 PUSH1 0xA0 SHL SUB AND ORIGIN PUSH1 0x1 PUSH1 0x1 PUSH1 0xA0 SHL SUB AND EQ PUSH2 0x7DA JUMPI PUSH1 0x40 MLOAD PUSH3 0x461BCD PUSH1 0xE5 SHL DUP2 MSTORE PUSH1 0x4 ADD PUSH2 0x6E7 SWAP1 PUSH2 0x2A51 JUMP JUMPDEST PUSH1 0x75 SLOAD CALLER PUSH1 0x0 SWAP1 DUP2 MSTORE PUSH1 0x7A PUSH1 0x20 SWAP1 DUP2 MSTORE PUSH1 0x40 DUP1 DUP4 KECCAK256 SLOAD DUP4 MSTORE PUSH1 0x7B SWAP1 SWAP2 MSTORE DUP2 KECCAK256 SLOAD PUSH1 0x79 SLOAD SWAP2 SWAP3 PUSH2 0x81F SWAP3 SWAP1 SWAP2 PUSH2 0x819 SWAP2 PUSH2 0x813 SWAP1 DUP8 PUSH2 0x1993 JUMP JUMPDEST SWAP1 PUSH2 0x1993 JUMP JUMPDEST SWAP1 PUSH2 0x19A6 JUMP JUMPDEST PUSH1 0x70 SLOAD SWAP1 SWAP2 POP PUSH2 0x83A SWAP1 PUSH1 0x1 PUSH1 0x1 PUSH1 0xA0 SHL SUB AND CALLER ADDRESS DUP5 PUSH2 0x19B2 JUMP JUMPDEST PUSH1 0x0 PUSH2 0x857 PUSH1 0x75 SLOAD PUSH2 0x819 PUSH1 0x7C SLOAD DUP6 PUSH2 0x1993 SWAP1 SWAP2 SWAP1 PUSH4 0xFFFFFFFF AND JUMP JUMPDEST SWAP1 POP PUSH1 0x0 PUSH2 0x876 PUSH1 0x75 SLOAD PUSH2 0x819 PUSH1 0x7D SLOAD DUP7 PUSH2 0x1993 SWAP1 SWAP2 SWAP1 PUSH4 0xFFFFFFFF AND JUMP JUMPDEST SWAP1 POP PUSH1 0x0 PUSH2 0x895 PUSH1 0x75 SLOAD PUSH2 0x819 PUSH1 0x7E SLOAD DUP8 PUSH2 0x1993 SWAP1 SWAP2 SWAP1 PUSH4 0xFFFFFFFF AND JUMP JUMPDEST SWAP1 POP PUSH1 0x0 PUSH2 0x8AF DUP3 PUSH2 0x8A9 DUP6 DUP2 DUP10 DUP10 PUSH2 0x1A10 JUMP JUMPDEST SWAP1 PUSH2 0x1A10 JUMP JUMPDEST PUSH1 0x6F SLOAD PUSH1 0x70 SLOAD PUSH1 0x72 SLOAD PUSH1 0x40 MLOAD PUSH4 0xE6A43905 PUSH1 0xE0 SHL DUP2 MSTORE SWAP4 SWAP5 POP PUSH1 0x0 SWAP4 PUSH1 0x1 PUSH1 0x1 PUSH1 0xA0 SHL SUB SWAP4 DUP5 AND SWAP4 PUSH4 0xE6A43905 SWAP4 PUSH2 0x8F0 SWAP4 SWAP1 DUP3 AND SWAP3 SWAP2 AND SWAP1 PUSH1 0x4 ADD PUSH2 0x2872 JUMP JUMPDEST PUSH1 0x20 PUSH1 0x40 MLOAD DUP1 DUP4 SUB DUP2 DUP7 DUP1 EXTCODESIZE ISZERO DUP1 ISZERO PUSH2 0x908 JUMPI PUSH1 0x0 DUP1 REVERT JUMPDEST POP GAS STATICCALL ISZERO DUP1 ISZERO PUSH2 0x91C JUMPI RETURNDATASIZE PUSH1 0x0 DUP1 RETURNDATACOPY RETURNDATASIZE PUSH1 0x0 REVERT JUMPDEST POP POP POP POP PUSH1 0x40 MLOAD RETURNDATASIZE PUSH1 0x1F NOT PUSH1 0x1F DUP3 ADD AND DUP3 ADD DUP1 PUSH1 0x40 MSTORE POP DUP2 ADD SWAP1 PUSH2 0x940 SWAP2 SWAP1 PUSH2 0x2478 JUMP JUMPDEST PUSH1 0x70 SLOAD PUSH1 0x72 SLOAD SWAP2 SWAP3 POP PUSH1 0x0 SWAP2 PUSH2 0x962 SWAP2 PUSH1 0x1 PUSH1 0x1 PUSH1 0xA0 SHL SUB SWAP1 DUP2 AND SWAP2 AND PUSH2 0x1A1C JUMP JUMPDEST POP PUSH1 0x65 SLOAD SWAP1 SWAP2 POP PUSH1 0xFF AND ISZERO PUSH2 0xBD1 JUMPI PUSH1 0x6E SLOAD PUSH1 0x70 SLOAD PUSH2 0x98F SWAP2 PUSH1 0x1 PUSH1 0x1 PUSH1 0xA0 SHL SUB SWAP2 DUP3 AND SWAP2 AND PUSH1 0x0 PUSH2 0x1AA6 JUMP JUMPDEST PUSH1 0x6E SLOAD PUSH1 0x70 SLOAD PUSH2 0x9AE SWAP2 PUSH1 0x1 PUSH1 0x1 PUSH1 0xA0 SHL SUB SWAP2 DUP3 AND SWAP2 AND PUSH1 0x0 NOT PUSH2 0x1AA6 JUMP JUMPDEST PUSH1 0x6E SLOAD PUSH1 0x72 SLOAD PUSH2 0x9CC SWAP2 PUSH1 0x1 PUSH1 0x1 PUSH1 0xA0 SHL SUB SWAP2 DUP3 AND SWAP2 AND PUSH1 0x0 PUSH2 0x1AA6 JUMP JUMPDEST PUSH1 0x6E SLOAD PUSH1 0x72 SLOAD PUSH2 0x9EB SWAP2 PUSH1 0x1 PUSH1 0x1 PUSH1 0xA0 SHL SUB SWAP2 DUP3 AND SWAP2 AND PUSH1 0x0 NOT PUSH2 0x1AA6 JUMP JUMPDEST PUSH1 0x72 SLOAD PUSH1 0x70 SLOAD PUSH2 0xA0A SWAP2 DUP5 SWAP2 PUSH1 0x1 PUSH1 0x1 PUSH1 0xA0 SHL SUB SWAP2 DUP3 AND SWAP2 AND DUP10 PUSH2 0x1B6E JUMP JUMPDEST PUSH1 0x70 SLOAD PUSH1 0x40 MLOAD PUSH4 0x70A08231 PUSH1 0xE0 SHL DUP2 MSTORE PUSH1 0x0 SWAP2 PUSH2 0xA9B SWAP2 DUP7 SWAP2 PUSH2 0x8A9 SWAP2 DUP10 SWAP2 DUP4 SWAP2 DUP13 SWAP2 PUSH1 0x1 PUSH1 0x1 PUSH1 0xA0 SHL SUB AND SWAP1 PUSH4 0x70A08231 SWAP1 PUSH2 0xA4B SWAP1 ADDRESS SWAP1 PUSH1 0x4 ADD PUSH2 0x285E JUMP JUMPDEST PUSH1 0x20 PUSH1 0x40 MLOAD DUP1 DUP4 SUB DUP2 DUP7 DUP1 EXTCODESIZE ISZERO DUP1 ISZERO PUSH2 0xA63 JUMPI PUSH1 0x0 DUP1 REVERT JUMPDEST POP GAS STATICCALL ISZERO DUP1 ISZERO PUSH2 0xA77 JUMPI RETURNDATASIZE PUSH1 0x0 DUP1 RETURNDATACOPY RETURNDATASIZE PUSH1 0x0 REVERT JUMPDEST POP POP POP POP PUSH1 0x40 MLOAD RETURNDATASIZE PUSH1 0x1F NOT PUSH1 0x1F DUP3 ADD AND DUP3 ADD DUP1 PUSH1 0x40 MSTORE POP DUP2 ADD SWAP1 PUSH2 0x8A9 SWAP2 SWAP1 PUSH2 0x27B0 JUMP JUMPDEST PUSH1 0x6E SLOAD PUSH1 0x70 SLOAD PUSH1 0x72 SLOAD PUSH1 0x40 MLOAD PUSH4 0x70A08231 PUSH1 0xE0 SHL DUP2 MSTORE SWAP4 SWAP5 POP PUSH1 0x1 PUSH1 0x1 PUSH1 0xA0 SHL SUB SWAP3 DUP4 AND SWAP4 PUSH4 0xE8E33700 SWAP4 SWAP3 DUP4 AND SWAP3 SWAP1 SWAP2 AND SWAP1 DUP6 SWAP1 DUP3 SWAP1 PUSH4 0x70A08231 SWAP1 PUSH2 0xAE6 SWAP1 ADDRESS SWAP1 PUSH1 0x4 ADD PUSH2 0x285E JUMP JUMPDEST PUSH1 0x20 PUSH1 0x40 MLOAD DUP1 DUP4 SUB DUP2 DUP7 DUP1 EXTCODESIZE ISZERO DUP1 ISZERO PUSH2 0xAFE JUMPI PUSH1 0x0 DUP1 REVERT JUMPDEST POP GAS STATICCALL ISZERO DUP1 ISZERO PUSH2 0xB12 JUMPI RETURNDATASIZE PUSH1 0x0 DUP1 RETURNDATACOPY RETURNDATASIZE PUSH1 0x0 REVERT JUMPDEST POP POP POP POP PUSH1 0x40 MLOAD RETURNDATASIZE PUSH1 0x1F NOT PUSH1 0x1F DUP3 ADD AND DUP3 ADD DUP1 PUSH1 0x40 MSTORE POP DUP2 ADD SWAP1 PUSH2 0xB36 SWAP2 SWAP1 PUSH2 0x27B0 JUMP JUMPDEST PUSH1 0x6A SLOAD PUSH1 0x0 SWAP1 DUP2 SWAP1 PUSH1 0x1 PUSH1 0x1 PUSH1 0xA0 SHL SUB AND PUSH2 0xB53 TIMESTAMP PUSH2 0x3E8 PUSH2 0x2DB3 JUMP JUMPDEST PUSH1 0x40 MLOAD DUP10 PUSH4 0xFFFFFFFF AND PUSH1 0xE0 SHL DUP2 MSTORE PUSH1 0x4 ADD PUSH2 0xB76 SWAP9 SWAP8 SWAP7 SWAP6 SWAP5 SWAP4 SWAP3 SWAP2 SWAP1 PUSH2 0x28B0 JUMP JUMPDEST PUSH1 0x60 PUSH1 0x40 MLOAD DUP1 DUP4 SUB DUP2 PUSH1 0x0 DUP8 DUP1 EXTCODESIZE ISZERO DUP1 ISZERO PUSH2 0xB90 JUMPI PUSH1 0x0 DUP1 REVERT JUMPDEST POP GAS CALL ISZERO DUP1 ISZERO PUSH2 0xBA4 JUMPI RETURNDATASIZE PUSH1 0x0 DUP1 RETURNDATACOPY RETURNDATASIZE PUSH1 0x0 REVERT JUMPDEST POP POP POP POP PUSH1 0x40 MLOAD RETURNDATASIZE PUSH1 0x1F NOT PUSH1 0x1F DUP3 ADD AND DUP3 ADD DUP1 PUSH1 0x40 MSTORE POP DUP2 ADD SWAP1 PUSH2 0xBC8 SWAP2 SWAP1 PUSH2 0x27E9 JUMP JUMPDEST POP POP POP POP PUSH2 0xBEE JUMP JUMPDEST PUSH1 0x6A SLOAD PUSH1 0x70 SLOAD PUSH2 0xBEE SWAP2 PUSH1 0x1 PUSH1 0x1 PUSH1 0xA0 SHL SUB SWAP2 DUP3 AND SWAP2 AND DUP9 PUSH2 0x1DD2 JUMP JUMPDEST PUSH1 0x6C SLOAD PUSH1 0x70 SLOAD PUSH2 0xC0B SWAP2 PUSH1 0x1 PUSH1 0x1 PUSH1 0xA0 SHL SUB SWAP2 DUP3 AND SWAP2 AND DUP8 PUSH2 0x1DD2 JUMP JUMPDEST PUSH1 0x6D SLOAD PUSH1 0x70 SLOAD PUSH2 0xC28 SWAP2 PUSH1 0x1 PUSH1 0x1 PUSH1 0xA0 SHL SUB SWAP2 DUP3 AND SWAP2 AND DUP7 PUSH2 0x1DD2 JUMP JUMPDEST PUSH1 0x7F SLOAD PUSH1 0xFF AND ISZERO PUSH2 0xE47 JUMPI PUSH1 0x0 DUP1 DUP4 PUSH1 0x1 PUSH1 0x1 PUSH1 0xA0 SHL SUB AND PUSH4 0x902F1AC PUSH1 0x40 MLOAD DUP2 PUSH4 0xFFFFFFFF AND PUSH1 0xE0 SHL DUP2 MSTORE PUSH1 0x4 ADD PUSH1 0x60 PUSH1 0x40 MLOAD DUP1 DUP4 SUB DUP2 DUP7 DUP1 EXTCODESIZE ISZERO DUP1 ISZERO PUSH2 0xC6F JUMPI PUSH1 0x0 DUP1 REVERT JUMPDEST POP GAS STATICCALL ISZERO DUP1 ISZERO PUSH2 0xC83 JUMPI RETURNDATASIZE PUSH1 0x0 DUP1 RETURNDATACOPY RETURNDATASIZE PUSH1 0x0 REVERT JUMPDEST POP POP POP POP PUSH1 0x40 MLOAD RETURNDATASIZE PUSH1 0x1F NOT PUSH1 0x1F DUP3 ADD AND DUP3 ADD DUP1 PUSH1 0x40 MSTORE POP DUP2 ADD SWAP1 PUSH2 0xCA7 SWAP2 SWAP1 PUSH2 0x274A JUMP JUMPDEST POP PUSH1 0x70 SLOAD PUSH1 0x1 PUSH1 0x1 PUSH1 0x70 SHL SUB SWAP3 DUP4 AND SWAP5 POP SWAP2 AND SWAP2 POP PUSH1 0x1 PUSH1 0x1 PUSH1 0xA0 SHL SUB DUP5 DUP2 AND SWAP2 AND EQ PUSH2 0xCD5 JUMPI DUP1 DUP3 PUSH2 0xCD8 JUMP JUMPDEST DUP2 DUP2 JUMPDEST SWAP1 SWAP3 POP SWAP1 POP PUSH1 0x0 PUSH2 0xCEA DUP7 DUP5 DUP5 PUSH2 0x1DF1 JUMP JUMPDEST PUSH1 0x70 SLOAD SWAP1 SWAP2 POP PUSH1 0x0 SWAP1 DUP2 SWAP1 PUSH1 0x1 PUSH1 0x1 PUSH1 0xA0 SHL SUB DUP8 DUP2 AND SWAP2 AND EQ PUSH2 0xD0F JUMPI DUP3 PUSH1 0x0 PUSH2 0xD13 JUMP JUMPDEST PUSH1 0x0 DUP4 JUMPDEST PUSH1 0x70 SLOAD SWAP2 SWAP4 POP SWAP2 POP PUSH2 0xD2F SWAP1 PUSH1 0x1 PUSH1 0x1 PUSH1 0xA0 SHL SUB AND DUP9 DUP11 PUSH2 0x1DD2 JUMP JUMPDEST PUSH1 0x40 DUP1 MLOAD PUSH1 0x0 DUP2 MSTORE PUSH1 0x20 DUP2 ADD SWAP2 DUP3 SWAP1 MSTORE PUSH4 0x22C0D9F PUSH1 0xE0 SHL SWAP1 SWAP2 MSTORE PUSH1 0x1 PUSH1 0x1 PUSH1 0xA0 SHL SUB DUP9 AND SWAP1 PUSH4 0x22C0D9F SWAP1 PUSH2 0xD6E SWAP1 DUP6 SWAP1 DUP6 SWAP1 ADDRESS SWAP1 PUSH1 0x24 DUP2 ADD PUSH2 0x2D46 JUMP JUMPDEST PUSH1 0x0 PUSH1 0x40 MLOAD DUP1 DUP4 SUB DUP2 PUSH1 0x0 DUP8 DUP1 EXTCODESIZE ISZERO DUP1 ISZERO PUSH2 0xD88 JUMPI PUSH1 0x0 DUP1 REVERT JUMPDEST POP GAS CALL ISZERO DUP1 ISZERO PUSH2 0xD9C JUMPI RETURNDATASIZE PUSH1 0x0 DUP1 RETURNDATACOPY RETURNDATASIZE PUSH1 0x0 REVERT JUMPDEST POP POP PUSH1 0x69 SLOAD PUSH1 0x72 SLOAD PUSH1 0x40 MLOAD PUSH4 0x70A08231 PUSH1 0xE0 SHL DUP2 MSTORE PUSH2 0xE3D SWAP5 POP PUSH1 0x1 PUSH1 0x1 PUSH1 0xA0 SHL SUB SWAP3 DUP4 AND SWAP4 POP SWAP2 AND SWAP1 PUSH4 0x70A08231 SWAP1 PUSH2 0xDDA SWAP1 ADDRESS SWAP1 PUSH1 0x4 ADD PUSH2 0x285E JUMP JUMPDEST PUSH1 0x20 PUSH1 0x40 MLOAD DUP1 DUP4 SUB DUP2 DUP7 DUP1 EXTCODESIZE ISZERO DUP1 ISZERO PUSH2 0xDF2 JUMPI PUSH1 0x0 DUP1 REVERT JUMPDEST POP GAS STATICCALL ISZERO DUP1 ISZERO PUSH2 0xE06 JUMPI RETURNDATASIZE PUSH1 0x0 DUP1 RETURNDATACOPY RETURNDATASIZE PUSH1 0x0 REVERT JUMPDEST POP POP POP POP PUSH1 0x40 MLOAD RETURNDATASIZE PUSH1 0x1F NOT PUSH1 0x1F DUP3 ADD AND DUP3 ADD DUP1 PUSH1 0x40 MSTORE POP DUP2 ADD SWAP1 PUSH2 0xE2A SWAP2 SWAP1 PUSH2 0x27B0 JUMP JUMPDEST PUSH1 0x72 SLOAD PUSH1 0x1 PUSH1 0x1 PUSH1 0xA0 SHL SUB AND SWAP2 SWAP1 PUSH2 0x1DD2 JUMP JUMPDEST POP POP POP POP POP PUSH2 0xE64 JUMP JUMPDEST PUSH1 0x6B SLOAD PUSH1 0x70 SLOAD PUSH2 0xE64 SWAP2 PUSH1 0x1 PUSH1 0x1 PUSH1 0xA0 SHL SUB SWAP2 DUP3 AND SWAP2 AND DUP6 PUSH2 0x1DD2 JUMP JUMPDEST PUSH1 0x0 PUSH2 0xE6E PUSH2 0x5FB JUMP JUMPDEST SWAP2 POP POP PUSH2 0xE79 PUSH2 0x1E3F JUMP JUMPDEST POP PUSH1 0x0 JUMPDEST DUP10 DUP2 LT ISZERO PUSH2 0xF6A JUMPI PUSH1 0x73 SLOAD PUSH1 0x1 PUSH1 0x1 PUSH1 0xA0 SHL SUB AND PUSH4 0xD405D32A CALLER PUSH2 0xEA1 DUP5 TIMESTAMP PUSH2 0x2DB3 JUMP JUMPDEST PUSH1 0x75 SLOAD PUSH1 0x74 SLOAD PUSH2 0xEB2 SWAP1 DUP3 SWAP1 PUSH2 0x2DB3 JUMP JUMPDEST PUSH8 0xDE0B6B3A7640000 DUP9 PUSH1 0x79 SLOAD PUSH2 0xEC9 SWAP2 SWAP1 PUSH2 0x2DEB JUMP JUMPDEST PUSH2 0xED3 SWAP2 SWAP1 PUSH2 0x2DCB JUMP JUMPDEST PUSH2 0xEDD SWAP2 SWAP1 PUSH2 0x2DEB JUMP JUMPDEST PUSH2 0xEE7 SWAP2 SWAP1 PUSH2 0x2DCB JUMP JUMPDEST PUSH1 0x40 MLOAD DUP5 PUSH4 0xFFFFFFFF AND PUSH1 0xE0 SHL DUP2 MSTORE PUSH1 0x4 ADD PUSH2 0xF05 SWAP4 SWAP3 SWAP2 SWAP1 PUSH2 0x2912 JUMP JUMPDEST PUSH1 0x20 PUSH1 0x40 MLOAD DUP1 DUP4 SUB DUP2 PUSH1 0x0 DUP8 DUP1 EXTCODESIZE ISZERO DUP1 ISZERO PUSH2 0xF1F JUMPI PUSH1 0x0 DUP1 REVERT JUMPDEST POP GAS CALL ISZERO DUP1 ISZERO PUSH2 0xF33 JUMPI RETURNDATASIZE PUSH1 0x0 DUP1 RETURNDATACOPY RETURNDATASIZE PUSH1 0x0 REVERT JUMPDEST POP POP POP POP PUSH1 0x40 MLOAD RETURNDATASIZE PUSH1 0x1F NOT PUSH1 0x1F DUP3 ADD AND DUP3 ADD DUP1 PUSH1 0x40 MSTORE POP DUP2 ADD SWAP1 PUSH2 0xF57 SWAP2 SWAP1 PUSH2 0x2582 JUMP JUMPDEST POP DUP1 PUSH2 0xF62 DUP2 PUSH2 0x2E88 JUMP JUMPDEST SWAP2 POP POP PUSH2 0xE7D JUMP JUMPDEST POP PUSH1 0x1 SWAP12 SWAP11 POP POP POP POP POP POP POP POP POP POP POP JUMP JUMPDEST PUSH1 0x71 SLOAD DUP2 JUMP JUMPDEST PUSH1 0x77 SLOAD DUP2 JUMP JUMPDEST PUSH1 0x0 PUSH2 0xF92 PUSH2 0x198F JUMP JUMPDEST PUSH1 0x1 PUSH1 0x1 PUSH1 0xA0 SHL SUB AND PUSH2 0xFA3 PUSH2 0x153D JUMP JUMPDEST PUSH1 0x1 PUSH1 0x1 PUSH1 0xA0 SHL SUB AND EQ PUSH2 0xFC9 JUMPI PUSH1 0x40 MLOAD PUSH3 0x461BCD PUSH1 0xE5 SHL DUP2 MSTORE PUSH1 0x4 ADD PUSH2 0x6E7 SWAP1 PUSH2 0x2B68 JUMP JUMPDEST POP PUSH1 0x76 SSTORE PUSH1 0x1 SWAP1 JUMP JUMPDEST PUSH1 0x0 PUSH2 0xFDC PUSH2 0x198F JUMP JUMPDEST PUSH1 0x1 PUSH1 0x1 PUSH1 0xA0 SHL SUB AND PUSH2 0xFED PUSH2 0x153D JUMP JUMPDEST PUSH1 0x1 PUSH1 0x1 PUSH1 0xA0 SHL SUB AND EQ PUSH2 0x1013 JUMPI PUSH1 0x40 MLOAD PUSH3 0x461BCD PUSH1 0xE5 SHL DUP2 MSTORE PUSH1 0x4 ADD PUSH2 0x6E7 SWAP1 PUSH2 0x2B68 JUMP JUMPDEST POP PUSH1 0x1 PUSH1 0x1 PUSH1 0xA0 SHL SUB SWAP2 SWAP1 SWAP2 AND PUSH1 0x0 SWAP1 DUP2 MSTORE PUSH1 0x7A PUSH1 0x20 MSTORE PUSH1 0x40 SWAP1 KECCAK256 SSTORE PUSH1 0x1 SWAP1 JUMP JUMPDEST PUSH1 0x66 SLOAD DUP2 JUMP JUMPDEST PUSH1 0x0 PUSH2 0x1044 PUSH2 0x198F JUMP JUMPDEST PUSH1 0x1 PUSH1 0x1 PUSH1 0xA0 SHL SUB AND PUSH2 0x1055 PUSH2 0x153D JUMP JUMPDEST PUSH1 0x1 PUSH1 0x1 PUSH1 0xA0 SHL SUB AND EQ PUSH2 0x107B JUMPI PUSH1 0x40 MLOAD PUSH3 0x461BCD PUSH1 0xE5 SHL DUP2 MSTORE PUSH1 0x4 ADD PUSH2 0x6E7 SWAP1 PUSH2 0x2B68 JUMP JUMPDEST POP PUSH1 0x71 SSTORE PUSH1 0x1 SWAP1 JUMP JUMPDEST PUSH1 0x0 PUSH2 0x108E PUSH2 0x198F JUMP JUMPDEST PUSH1 0x1 PUSH1 0x1 PUSH1 0xA0 SHL SUB AND PUSH2 0x109F PUSH2 0x153D JUMP JUMPDEST PUSH1 0x1 PUSH1 0x1 PUSH1 0xA0 SHL SUB AND EQ PUSH2 0x10C5 JUMPI PUSH1 0x40 MLOAD PUSH3 0x461BCD PUSH1 0xE5 SHL DUP2 MSTORE PUSH1 0x4 ADD PUSH2 0x6E7 SWAP1 PUSH2 0x2B68 JUMP JUMPDEST POP PUSH1 0x7C SSTORE PUSH1 0x1 SWAP1 JUMP JUMPDEST PUSH1 0x7C SLOAD DUP2 JUMP JUMPDEST PUSH1 0x7B PUSH1 0x20 MSTORE PUSH1 0x0 SWAP1 DUP2 MSTORE PUSH1 0x40 SWAP1 KECCAK256 SLOAD DUP2 JUMP JUMPDEST PUSH1 0x0 PUSH2 0x10F0 PUSH2 0x198F JUMP JUMPDEST PUSH1 0x1 PUSH1 0x1 PUSH1 0xA0 SHL SUB AND PUSH2 0x1101 PUSH2 0x153D JUMP JUMPDEST PUSH1 0x1 PUSH1 0x1 PUSH1 0xA0 SHL SUB AND EQ PUSH2 0x1127 JUMPI PUSH1 0x40 MLOAD PUSH3 0x461BCD PUSH1 0xE5 SHL DUP2 MSTORE PUSH1 0x4 ADD PUSH2 0x6E7 SWAP1 PUSH2 0x2B68 JUMP JUMPDEST POP PUSH1 0x6B DUP1 SLOAD PUSH1 0x1 PUSH1 0x1 PUSH1 0xA0 SHL SUB DUP4 AND PUSH1 0x1 PUSH1 0x1 PUSH1 0xA0 SHL SUB NOT SWAP1 SWAP2 AND OR SWAP1 SSTORE PUSH1 0x1 SWAP2 SWAP1 POP JUMP JUMPDEST PUSH1 0x69 SLOAD PUSH1 0x1 PUSH1 0x1 PUSH1 0xA0 SHL SUB AND DUP2 JUMP JUMPDEST PUSH1 0x0 PUSH2 0x1165 PUSH2 0x198F JUMP JUMPDEST PUSH1 0x1 PUSH1 0x1 PUSH1 0xA0 SHL SUB AND PUSH2 0x1176 PUSH2 0x153D JUMP JUMPDEST PUSH1 0x1 PUSH1 0x1 PUSH1 0xA0 SHL SUB AND EQ PUSH2 0x119C JUMPI PUSH1 0x40 MLOAD PUSH3 0x461BCD PUSH1 0xE5 SHL DUP2 MSTORE PUSH1 0x4 ADD PUSH2 0x6E7 SWAP1 PUSH2 0x2B68 JUMP JUMPDEST POP PUSH1 0x6A DUP1 SLOAD PUSH1 0x1 PUSH1 0x1 PUSH1 0xA0 SHL SUB DUP4 AND PUSH1 0x1 PUSH1 0x1 PUSH1 0xA0 SHL SUB NOT SWAP1 SWAP2 AND OR SWAP1 SSTORE PUSH1 0x1 SWAP2 SWAP1 POP JUMP JUMPDEST PUSH1 0x7D SLOAD DUP2 JUMP JUMPDEST PUSH1 0x7F SLOAD PUSH1 0xFF AND DUP2 JUMP JUMPDEST PUSH1 0x7A PUSH1 0x20 MSTORE PUSH1 0x0 SWAP1 DUP2 MSTORE PUSH1 0x40 SWAP1 KECCAK256 SLOAD DUP2 JUMP JUMPDEST PUSH1 0x76 SLOAD DUP2 JUMP JUMPDEST PUSH1 0x6A SLOAD PUSH1 0x1 PUSH1 0x1 PUSH1 0xA0 SHL SUB AND DUP2 JUMP JUMPDEST PUSH1 0x73 SLOAD PUSH1 0x1 PUSH1 0x1 PUSH1 0xA0 SHL SUB AND DUP2 JUMP JUMPDEST PUSH2 0x120E PUSH2 0x198F JUMP JUMPDEST PUSH1 0x1 PUSH1 0x1 PUSH1 0xA0 SHL SUB AND PUSH2 0x121F PUSH2 0x153D JUMP JUMPDEST PUSH1 0x1 PUSH1 0x1 PUSH1 0xA0 SHL SUB AND EQ PUSH2 0x1245 JUMPI PUSH1 0x40 MLOAD PUSH3 0x461BCD PUSH1 0xE5 SHL DUP2 MSTORE PUSH1 0x4 ADD PUSH2 0x6E7 SWAP1 PUSH2 0x2B68 JUMP JUMPDEST PUSH2 0x124F PUSH1 0x0 PUSH2 0x1E9C JUMP JUMPDEST JUMP JUMPDEST PUSH1 0x68 DUP1 SLOAD PUSH2 0x125E SWAP1 PUSH2 0x2E4D JUMP JUMPDEST DUP1 PUSH1 0x1F ADD PUSH1 0x20 DUP1 SWAP2 DIV MUL PUSH1 0x20 ADD PUSH1 0x40 MLOAD SWAP1 DUP2 ADD PUSH1 0x40 MSTORE DUP1 SWAP3 SWAP2 SWAP1 DUP2 DUP2 MSTORE PUSH1 0x20 ADD DUP3 DUP1 SLOAD PUSH2 0x128A SWAP1 PUSH2 0x2E4D JUMP JUMPDEST DUP1 ISZERO PUSH2 0x12D7 JUMPI DUP1 PUSH1 0x1F LT PUSH2 0x12AC JUMPI PUSH2 0x100 DUP1 DUP4 SLOAD DIV MUL DUP4 MSTORE SWAP2 PUSH1 0x20 ADD SWAP2 PUSH2 0x12D7 JUMP JUMPDEST DUP3 ADD SWAP2 SWAP1 PUSH1 0x0 MSTORE PUSH1 0x20 PUSH1 0x0 KECCAK256 SWAP1 JUMPDEST DUP2 SLOAD DUP2 MSTORE SWAP1 PUSH1 0x1 ADD SWAP1 PUSH1 0x20 ADD DUP1 DUP4 GT PUSH2 0x12BA JUMPI DUP3 SWAP1 SUB PUSH1 0x1F AND DUP3 ADD SWAP2 JUMPDEST POP POP POP POP POP DUP2 JUMP JUMPDEST PUSH1 0x0 SLOAD PUSH2 0x100 SWAP1 DIV PUSH1 0xFF AND DUP1 PUSH2 0x12F8 JUMPI POP PUSH1 0x0 SLOAD PUSH1 0xFF AND ISZERO JUMPDEST PUSH2 0x1314 JUMPI PUSH1 0x40 MLOAD PUSH3 0x461BCD PUSH1 0xE5 SHL DUP2 MSTORE PUSH1 0x4 ADD PUSH2 0x6E7 SWAP1 PUSH2 0x2B1A JUMP JUMPDEST PUSH1 0x0 SLOAD PUSH2 0x100 SWAP1 DIV PUSH1 0xFF AND ISZERO DUP1 ISZERO PUSH2 0x133F JUMPI PUSH1 0x0 DUP1 SLOAD PUSH1 0xFF NOT PUSH2 0xFF00 NOT SWAP1 SWAP2 AND PUSH2 0x100 OR AND PUSH1 0x1 OR SWAP1 SSTORE JUMPDEST PUSH2 0x1347 PUSH2 0x1EEE JUMP JUMPDEST PUSH1 0x70 DUP1 SLOAD PUSH1 0x1 PUSH1 0x1 PUSH1 0xA0 SHL SUB NOT SWAP1 DUP2 AND PUSH1 0x1 PUSH1 0x1 PUSH1 0xA0 SHL SUB DUP6 DUP2 AND SWAP2 SWAP1 SWAP2 OR SWAP1 SWAP3 SSTORE PUSH1 0x67 DUP1 SLOAD DUP3 AND DUP7 DUP5 AND OR SWAP1 SSTORE PUSH1 0x6C DUP1 SLOAD DUP3 AND DUP10 DUP5 AND OR SWAP1 SSTORE PUSH1 0x6D DUP1 SLOAD DUP3 AND DUP9 DUP5 AND OR SWAP1 SSTORE PUSH1 0x6A DUP1 SLOAD DUP3 AND DUP12 DUP5 AND OR SWAP1 SSTORE PUSH1 0x6B DUP1 SLOAD DUP3 AND DUP11 DUP5 AND OR SWAP1 SSTORE PUSH1 0x6E DUP1 SLOAD DUP3 AND DUP13 DUP5 AND OR SWAP1 SSTORE PUSH1 0x6F DUP1 SLOAD DUP3 AND DUP14 DUP5 AND OR SWAP1 SSTORE PUSH1 0x72 DUP1 SLOAD DUP3 AND DUP16 DUP5 AND OR SWAP1 SSTORE PUSH1 0x73 DUP1 SLOAD DUP3 AND DUP15 DUP5 AND OR SWAP1 SSTORE PUSH1 0x69 DUP1 SLOAD SWAP1 SWAP2 AND SWAP2 DUP7 AND SWAP2 SWAP1 SWAP2 OR SWAP1 SSTORE PUSH2 0x2710 PUSH1 0x75 DUP2 SWAP1 SSTORE PUSH1 0x74 DUP2 SWAP1 SSTORE PUSH1 0x0 PUSH1 0x76 DUP2 SWAP1 SSTORE PUSH1 0x64 PUSH1 0x77 SSTORE PUSH2 0x3E8 PUSH1 0x78 DUP2 SWAP1 SSTORE PUSH9 0x56BC75E2D63100000 PUSH1 0x79 SSTORE PUSH1 0x7B PUSH1 0x20 MSTORE PUSH32 0xFA58B71A6FB66FB38C35354E640506789C3A5CA0C9ABE3BB29FA65504A39D89C SWAP3 SWAP1 SWAP3 SSTORE PUSH2 0x2328 PUSH32 0xAAA3CE42286152B719ABBCA9F317D4ABC82039051363EC7758D508C8A88401A SSTORE PUSH1 0x2 SWAP1 MSTORE PUSH2 0x1F40 PUSH32 0x6B4E4CDEECC1CEDC87704B94F7D0334F48057B970752F0BD2A553909BC33A5AF SSTORE PUSH1 0x71 SSTORE PUSH2 0x1388 PUSH1 0x7C SSTORE PUSH2 0x5DC PUSH1 0x7D DUP2 SWAP1 SSTORE PUSH1 0x7E SSTORE PUSH1 0x65 DUP1 SLOAD PUSH1 0xFF NOT SWAP1 DUP2 AND SWAP1 SWAP2 SSTORE PUSH1 0x7F DUP1 SLOAD SWAP1 SWAP2 AND SWAP1 SSTORE DUP1 ISZERO PUSH2 0x14C7 JUMPI PUSH1 0x0 DUP1 SLOAD PUSH2 0xFF00 NOT AND SWAP1 SSTORE JUMPDEST POP POP POP POP POP POP POP POP POP POP POP POP JUMP JUMPDEST PUSH1 0x67 SLOAD PUSH1 0x1 PUSH1 0x1 PUSH1 0xA0 SHL SUB AND DUP2 JUMP JUMPDEST PUSH1 0x70 SLOAD PUSH1 0x1 PUSH1 0x1 PUSH1 0xA0 SHL SUB AND DUP2 JUMP JUMPDEST PUSH1 0x0 PUSH2 0x14FD PUSH2 0x198F JUMP JUMPDEST PUSH1 0x1 PUSH1 0x1 PUSH1 0xA0 SHL SUB AND PUSH2 0x150E PUSH2 0x153D JUMP JUMPDEST PUSH1 0x1 PUSH1 0x1 PUSH1 0xA0 SHL SUB AND EQ PUSH2 0x1534 JUMPI PUSH1 0x40 MLOAD PUSH3 0x461BCD PUSH1 0xE5 SHL DUP2 MSTORE PUSH1 0x4 ADD PUSH2 0x6E7 SWAP1 PUSH2 0x2B68 JUMP JUMPDEST POP PUSH1 0x7D SSTORE PUSH1 0x1 SWAP1 JUMP JUMPDEST PUSH1 0x33 SLOAD PUSH1 0x1 PUSH1 0x1 PUSH1 0xA0 SHL SUB AND SWAP1 JUMP JUMPDEST PUSH1 0x0 PUSH2 0x1556 PUSH2 0x198F JUMP JUMPDEST PUSH1 0x1 PUSH1 0x1 PUSH1 0xA0 SHL SUB AND PUSH2 0x1567 PUSH2 0x153D JUMP JUMPDEST PUSH1 0x1 PUSH1 0x1 PUSH1 0xA0 SHL SUB AND EQ PUSH2 0x158D JUMPI PUSH1 0x40 MLOAD PUSH3 0x461BCD PUSH1 0xE5 SHL DUP2 MSTORE PUSH1 0x4 ADD PUSH2 0x6E7 SWAP1 PUSH2 0x2B68 JUMP JUMPDEST POP PUSH1 0x79 SSTORE PUSH1 0x1 SWAP1 JUMP JUMPDEST PUSH1 0x6C SLOAD PUSH1 0x1 PUSH1 0x1 PUSH1 0xA0 SHL SUB AND DUP2 JUMP JUMPDEST PUSH1 0x6B SLOAD PUSH1 0x1 PUSH1 0x1 PUSH1 0xA0 SHL SUB AND DUP2 JUMP JUMPDEST PUSH1 0x79 SLOAD DUP2 JUMP JUMPDEST PUSH1 0x0 PUSH2 0x15C4 PUSH2 0x198F JUMP JUMPDEST PUSH1 0x1 PUSH1 0x1 PUSH1 0xA0 SHL SUB AND PUSH2 0x15D5 PUSH2 0x153D JUMP JUMPDEST PUSH1 0x1 PUSH1 0x1 PUSH1 0xA0 SHL SUB AND EQ PUSH2 0x15FB JUMPI PUSH1 0x40 MLOAD PUSH3 0x461BCD PUSH1 0xE5 SHL DUP2 MSTORE PUSH1 0x4 ADD PUSH2 0x6E7 SWAP1 PUSH2 0x2B68 JUMP JUMPDEST POP PUSH1 0x7F DUP1 SLOAD PUSH1 0xFF NOT AND SWAP2 ISZERO ISZERO SWAP2 SWAP1 SWAP2 OR SWAP1 SSTORE PUSH1 0x1 SWAP1 JUMP JUMPDEST PUSH1 0x67 SLOAD PUSH1 0x40 MLOAD PUSH4 0xD39BBEF PUSH1 0xE4 SHL DUP2 MSTORE PUSH1 0x0 SWAP2 PUSH1 0x1 PUSH1 0x1 PUSH1 0xA0 SHL SUB AND SWAP1 PUSH4 0xD39BBEF0 SWAP1 PUSH2 0x1641 SWAP1 PUSH1 0x4 ADD PUSH2 0x2A73 JUMP JUMPDEST PUSH1 0x20 PUSH1 0x40 MLOAD DUP1 DUP4 SUB DUP2 DUP7 DUP1 EXTCODESIZE ISZERO DUP1 ISZERO PUSH2 0x1659 JUMPI PUSH1 0x0 DUP1 REVERT JUMPDEST POP GAS STATICCALL ISZERO DUP1 ISZERO PUSH2 0x166D JUMPI RETURNDATASIZE PUSH1 0x0 DUP1 RETURNDATACOPY RETURNDATASIZE PUSH1 0x0 REVERT JUMPDEST POP POP POP POP PUSH1 0x40 MLOAD RETURNDATASIZE PUSH1 0x1F NOT PUSH1 0x1F DUP3 ADD AND DUP3 ADD DUP1 PUSH1 0x40 MSTORE POP DUP2 ADD SWAP1 PUSH2 0x1691 SWAP2 SWAP1 PUSH2 0x27B0 JUMP JUMPDEST SWAP1 POP SWAP1 JUMP JUMPDEST PUSH1 0x0 PUSH2 0x16A0 PUSH2 0x198F JUMP JUMPDEST PUSH1 0x1 PUSH1 0x1 PUSH1 0xA0 SHL SUB AND PUSH2 0x16B1 PUSH2 0x153D JUMP JUMPDEST PUSH1 0x1 PUSH1 0x1 PUSH1 0xA0 SHL SUB AND EQ PUSH2 0x16D7 JUMPI PUSH1 0x40 MLOAD PUSH3 0x461BCD PUSH1 0xE5 SHL DUP2 MSTORE PUSH1 0x4 ADD PUSH2 0x6E7 SWAP1 PUSH2 0x2B68 JUMP JUMPDEST POP PUSH1 0x6D DUP1 SLOAD PUSH1 0x1 PUSH1 0x1 PUSH1 0xA0 SHL SUB DUP4 AND PUSH1 0x1 PUSH1 0x1 PUSH1 0xA0 SHL SUB NOT SWAP1 SWAP2 AND OR SWAP1 SSTORE PUSH1 0x1 SWAP2 SWAP1 POP JUMP JUMPDEST PUSH1 0x0 PUSH2 0x1706 PUSH2 0x198F JUMP JUMPDEST PUSH1 0x1 PUSH1 0x1 PUSH1 0xA0 SHL SUB AND PUSH2 0x1717 PUSH2 0x153D JUMP JUMPDEST PUSH1 0x1 PUSH1 0x1 PUSH1 0xA0 SHL SUB AND EQ PUSH2 0x173D JUMPI PUSH1 0x40 MLOAD PUSH3 0x461BCD PUSH1 0xE5 SHL DUP2 MSTORE PUSH1 0x4 ADD PUSH2 0x6E7 SWAP1 PUSH2 0x2B68 JUMP JUMPDEST POP PUSH1 0x7E SSTORE PUSH1 0x1 SWAP1 JUMP JUMPDEST PUSH1 0x75 SLOAD DUP2 JUMP JUMPDEST PUSH1 0x78 SLOAD DUP2 JUMP JUMPDEST PUSH1 0x0 PUSH2 0x175C PUSH2 0x198F JUMP JUMPDEST PUSH1 0x1 PUSH1 0x1 PUSH1 0xA0 SHL SUB AND PUSH2 0x176D PUSH2 0x153D JUMP JUMPDEST PUSH1 0x1 PUSH1 0x1 PUSH1 0xA0 SHL SUB AND EQ PUSH2 0x1793 JUMPI PUSH1 0x40 MLOAD PUSH3 0x461BCD PUSH1 0xE5 SHL DUP2 MSTORE PUSH1 0x4 ADD PUSH2 0x6E7 SWAP1 PUSH2 0x2B68 JUMP JUMPDEST PUSH1 0x67 DUP1 SLOAD PUSH1 0x1 PUSH1 0x1 PUSH1 0xA0 SHL SUB NOT AND PUSH1 0x1 PUSH1 0x1 PUSH1 0xA0 SHL SUB DUP6 AND OR SWAP1 SSTORE DUP2 MLOAD PUSH2 0x17C1 SWAP1 PUSH1 0x68 SWAP1 PUSH1 0x20 DUP6 ADD SWAP1 PUSH2 0x23A1 JUMP JUMPDEST POP PUSH1 0x1 SWAP4 SWAP3 POP POP POP JUMP JUMPDEST PUSH1 0x0 PUSH2 0x17D5 PUSH2 0x198F JUMP JUMPDEST PUSH1 0x1 PUSH1 0x1 PUSH1 0xA0 SHL SUB AND PUSH2 0x17E6 PUSH2 0x153D JUMP JUMPDEST PUSH1 0x1 PUSH1 0x1 PUSH1 0xA0 SHL SUB AND EQ PUSH2 0x180C JUMPI PUSH1 0x40 MLOAD PUSH3 0x461BCD PUSH1 0xE5 SHL DUP2 MSTORE PUSH1 0x4 ADD PUSH2 0x6E7 SWAP1 PUSH2 0x2B68 JUMP JUMPDEST POP PUSH1 0x78 SSTORE PUSH1 0x1 SWAP1 JUMP JUMPDEST PUSH1 0x6F SLOAD PUSH1 0x1 PUSH1 0x1 PUSH1 0xA0 SHL SUB AND DUP2 JUMP JUMPDEST PUSH1 0x0 PUSH2 0x182E PUSH2 0x198F JUMP JUMPDEST PUSH1 0x1 PUSH1 0x1 PUSH1 0xA0 SHL SUB AND PUSH2 0x183F PUSH2 0x153D JUMP JUMPDEST PUSH1 0x1 PUSH1 0x1 PUSH1 0xA0 SHL SUB AND EQ PUSH2 0x1865 JUMPI PUSH1 0x40 MLOAD PUSH3 0x461BCD PUSH1 0xE5 SHL DUP2 MSTORE PUSH1 0x4 ADD PUSH2 0x6E7 SWAP1 PUSH2 0x2B68 JUMP JUMPDEST POP PUSH1 0x65 DUP1 SLOAD PUSH1 0xFF NOT AND SWAP2 ISZERO ISZERO SWAP2 SWAP1 SWAP2 OR SWAP1 SSTORE PUSH1 0x1 SWAP1 JUMP JUMPDEST PUSH1 0x0 PUSH2 0x1886 PUSH2 0x198F JUMP JUMPDEST PUSH1 0x1 PUSH1 0x1 PUSH1 0xA0 SHL SUB AND PUSH2 0x1897 PUSH2 0x153D JUMP JUMPDEST PUSH1 0x1 PUSH1 0x1 PUSH1 0xA0 SHL SUB AND EQ PUSH2 0x18BD JUMPI PUSH1 0x40 MLOAD PUSH3 0x461BCD PUSH1 0xE5 SHL DUP2 MSTORE PUSH1 0x4 ADD PUSH2 0x6E7 SWAP1 PUSH2 0x2B68 JUMP JUMPDEST POP PUSH1 0x6C DUP1 SLOAD PUSH1 0x1 PUSH1 0x1 PUSH1 0xA0 SHL SUB DUP4 AND PUSH1 0x1 PUSH1 0x1 PUSH1 0xA0 SHL SUB NOT SWAP1 SWAP2 AND OR SWAP1 SSTORE PUSH1 0x1 SWAP2 SWAP1 POP JUMP JUMPDEST PUSH1 0x74 SLOAD DUP2 JUMP JUMPDEST PUSH1 0x6D SLOAD PUSH1 0x1 PUSH1 0x1 PUSH1 0xA0 SHL SUB AND DUP2 JUMP JUMPDEST PUSH2 0x18FF PUSH2 0x198F JUMP JUMPDEST PUSH1 0x1 PUSH1 0x1 PUSH1 0xA0 SHL SUB AND PUSH2 0x1910 PUSH2 0x153D JUMP JUMPDEST PUSH1 0x1 PUSH1 0x1 PUSH1 0xA0 SHL SUB AND EQ PUSH2 0x1936 JUMPI PUSH1 0x40 MLOAD PUSH3 0x461BCD PUSH1 0xE5 SHL DUP2 MSTORE PUSH1 0x4 ADD PUSH2 0x6E7 SWAP1 PUSH2 0x2B68 JUMP JUMPDEST PUSH1 0x1 PUSH1 0x1 PUSH1 0xA0 SHL SUB DUP2 AND PUSH2 0x195C JUMPI PUSH1 0x40 MLOAD PUSH3 0x461BCD PUSH1 0xE5 SHL DUP2 MSTORE PUSH1 0x4 ADD PUSH2 0x6E7 SWAP1 PUSH2 0x2A0B JUMP JUMPDEST PUSH2 0x1965 DUP2 PUSH2 0x1E9C JUMP JUMPDEST POP JUMP JUMPDEST PUSH1 0x65 SLOAD PUSH1 0xFF AND DUP2 JUMP JUMPDEST PUSH1 0x6E SLOAD PUSH1 0x1 PUSH1 0x1 PUSH1 0xA0 SHL SUB AND DUP2 JUMP JUMPDEST PUSH1 0x72 SLOAD PUSH1 0x1 PUSH1 0x1 PUSH1 0xA0 SHL SUB AND DUP2 JUMP JUMPDEST CALLER SWAP1 JUMP JUMPDEST PUSH1 0x0 PUSH2 0x199F DUP3 DUP5 PUSH2 0x2DEB JUMP JUMPDEST SWAP4 SWAP3 POP POP POP JUMP JUMPDEST PUSH1 0x0 PUSH2 0x199F DUP3 DUP5 PUSH2 0x2DCB JUMP JUMPDEST PUSH2 0x1A0A DUP5 PUSH4 0x23B872DD PUSH1 0xE0 SHL DUP6 DUP6 DUP6 PUSH1 0x40 MLOAD PUSH1 0x24 ADD PUSH2 0x19D3 SWAP4 SWAP3 SWAP2 SWAP1 PUSH2 0x288C JUMP JUMPDEST PUSH1 0x40 DUP1 MLOAD PUSH1 0x1F NOT DUP2 DUP5 SUB ADD DUP2 MSTORE SWAP2 SWAP1 MSTORE PUSH1 0x20 DUP2 ADD DUP1 MLOAD PUSH1 0x1 PUSH1 0x1 PUSH1 0xE0 SHL SUB AND PUSH1 0x1 PUSH1 0x1 PUSH1 0xE0 SHL SUB NOT SWAP1 SWAP4 AND SWAP3 SWAP1 SWAP3 OR SWAP1 SWAP2 MSTORE PUSH2 0x1F72 JUMP JUMPDEST POP POP POP POP JUMP JUMPDEST PUSH1 0x0 PUSH2 0x199F DUP3 DUP5 PUSH2 0x2E0A JUMP JUMPDEST PUSH1 0x0 DUP1 DUP3 PUSH1 0x1 PUSH1 0x1 PUSH1 0xA0 SHL SUB AND DUP5 PUSH1 0x1 PUSH1 0x1 PUSH1 0xA0 SHL SUB AND EQ ISZERO PUSH2 0x1A51 JUMPI PUSH1 0x40 MLOAD PUSH3 0x461BCD PUSH1 0xE5 SHL DUP2 MSTORE PUSH1 0x4 ADD PUSH2 0x6E7 SWAP1 PUSH2 0x2A8F JUMP JUMPDEST DUP3 PUSH1 0x1 PUSH1 0x1 PUSH1 0xA0 SHL SUB AND DUP5 PUSH1 0x1 PUSH1 0x1 PUSH1 0xA0 SHL SUB AND LT PUSH2 0x1A71 JUMPI DUP3 DUP5 PUSH2 0x1A74 JUMP JUMPDEST DUP4 DUP4 JUMPDEST SWAP1 SWAP3 POP SWAP1 POP PUSH1 0x1 PUSH1 0x1 PUSH1 0xA0 SHL SUB DUP3 AND PUSH2 0x1A9F JUMPI PUSH1 0x40 MLOAD PUSH3 0x461BCD PUSH1 0xE5 SHL DUP2 MSTORE PUSH1 0x4 ADD PUSH2 0x6E7 SWAP1 PUSH2 0x2BF6 JUMP JUMPDEST SWAP3 POP SWAP3 SWAP1 POP JUMP JUMPDEST DUP1 ISZERO DUP1 PUSH2 0x1B2E JUMPI POP PUSH1 0x40 MLOAD PUSH4 0x6EB1769F PUSH1 0xE1 SHL DUP2 MSTORE PUSH1 0x1 PUSH1 0x1 PUSH1 0xA0 SHL SUB DUP5 AND SWAP1 PUSH4 0xDD62ED3E SWAP1 PUSH2 0x1ADC SWAP1 ADDRESS SWAP1 DUP7 SWAP1 PUSH1 0x4 ADD PUSH2 0x2872 JUMP JUMPDEST PUSH1 0x20 PUSH1 0x40 MLOAD DUP1 DUP4 SUB DUP2 DUP7 DUP1 EXTCODESIZE ISZERO DUP1 ISZERO PUSH2 0x1AF4 JUMPI PUSH1 0x0 DUP1 REVERT JUMPDEST POP GAS STATICCALL ISZERO DUP1 ISZERO PUSH2 0x1B08 JUMPI RETURNDATASIZE PUSH1 0x0 DUP1 RETURNDATACOPY RETURNDATASIZE PUSH1 0x0 REVERT JUMPDEST POP POP POP POP PUSH1 0x40 MLOAD RETURNDATASIZE PUSH1 0x1F NOT PUSH1 0x1F DUP3 ADD AND DUP3 ADD DUP1 PUSH1 0x40 MSTORE POP DUP2 ADD SWAP1 PUSH2 0x1B2C SWAP2 SWAP1 PUSH2 0x27B0 JUMP JUMPDEST ISZERO JUMPDEST PUSH2 0x1B4A JUMPI PUSH1 0x40 MLOAD PUSH3 0x461BCD PUSH1 0xE5 SHL DUP2 MSTORE PUSH1 0x4 ADD PUSH2 0x6E7 SWAP1 PUSH2 0x2C77 JUMP JUMPDEST PUSH2 0x1B69 DUP4 PUSH4 0x95EA7B3 PUSH1 0xE0 SHL DUP5 DUP5 PUSH1 0x40 MLOAD PUSH1 0x24 ADD PUSH2 0x19D3 SWAP3 SWAP2 SWAP1 PUSH2 0x28F9 JUMP JUMPDEST POP POP POP JUMP JUMPDEST PUSH1 0x0 DUP1 DUP6 PUSH1 0x1 PUSH1 0x1 PUSH1 0xA0 SHL SUB AND PUSH4 0x902F1AC PUSH1 0x40 MLOAD DUP2 PUSH4 0xFFFFFFFF AND PUSH1 0xE0 SHL DUP2 MSTORE PUSH1 0x4 ADD PUSH1 0x60 PUSH1 0x40 MLOAD DUP1 DUP4 SUB DUP2 DUP7 DUP1 EXTCODESIZE ISZERO DUP1 ISZERO PUSH2 0x1BAA JUMPI PUSH1 0x0 DUP1 REVERT JUMPDEST POP GAS STATICCALL ISZERO DUP1 ISZERO PUSH2 0x1BBE JUMPI RETURNDATASIZE PUSH1 0x0 DUP1 RETURNDATACOPY RETURNDATASIZE PUSH1 0x0 REVERT JUMPDEST POP POP POP POP PUSH1 0x40 MLOAD RETURNDATASIZE PUSH1 0x1F NOT PUSH1 0x1F DUP3 ADD AND DUP3 ADD DUP1 PUSH1 0x40 MSTORE POP DUP2 ADD SWAP1 PUSH2 0x1BE2 SWAP2 SWAP1 PUSH2 0x274A JUMP JUMPDEST POP PUSH1 0x1 PUSH1 0x1 PUSH1 0x70 SHL SUB AND SWAP2 POP PUSH1 0x1 PUSH1 0x1 PUSH1 0x70 SHL SUB AND SWAP2 POP PUSH1 0x0 DUP1 DUP8 PUSH1 0x1 PUSH1 0x1 PUSH1 0xA0 SHL SUB AND PUSH4 0xDFE1681 PUSH1 0x40 MLOAD DUP2 PUSH4 0xFFFFFFFF AND PUSH1 0xE0 SHL DUP2 MSTORE PUSH1 0x4 ADD PUSH1 0x20 PUSH1 0x40 MLOAD DUP1 DUP4 SUB DUP2 DUP7 DUP1 EXTCODESIZE ISZERO DUP1 ISZERO PUSH2 0x1C35 JUMPI PUSH1 0x0 DUP1 REVERT JUMPDEST POP GAS STATICCALL ISZERO DUP1 ISZERO PUSH2 0x1C49 JUMPI RETURNDATASIZE PUSH1 0x0 DUP1 RETURNDATACOPY RETURNDATASIZE PUSH1 0x0 REVERT JUMPDEST POP POP POP POP PUSH1 0x40 MLOAD RETURNDATASIZE PUSH1 0x1F NOT PUSH1 0x1F DUP3 ADD AND DUP3 ADD DUP1 PUSH1 0x40 MSTORE POP DUP2 ADD SWAP1 PUSH2 0x1C6D SWAP2 SWAP1 PUSH2 0x2478 JUMP JUMPDEST PUSH1 0x72 SLOAD PUSH1 0x1 PUSH1 0x1 PUSH1 0xA0 SHL SUB SWAP1 DUP2 AND SWAP2 AND EQ PUSH2 0x1C89 JUMPI DUP3 DUP5 PUSH2 0x1C8C JUMP JUMPDEST DUP4 DUP4 JUMPDEST SWAP2 POP SWAP2 POP PUSH1 0x0 DUP1 PUSH2 0x1CA0 PUSH1 0x0 DUP9 DUP7 DUP7 PUSH2 0x2001 JUMP JUMPDEST SWAP1 SWAP3 POP SWAP1 POP DUP2 ISZERO PUSH2 0x1DC6 JUMPI PUSH1 0x40 DUP1 MLOAD PUSH1 0x2 DUP1 DUP3 MSTORE PUSH1 0x60 DUP3 ADD DUP4 MSTORE PUSH1 0x0 SWAP3 PUSH1 0x20 DUP4 ADD SWAP1 DUP1 CALLDATASIZE DUP4 CALLDATACOPY ADD SWAP1 POP POP SWAP1 POP DUP2 PUSH2 0x1CD8 JUMPI DUP10 DUP10 PUSH2 0x1CDB JUMP JUMPDEST DUP9 DUP11 JUMPDEST DUP3 PUSH1 0x0 DUP2 MLOAD DUP2 LT PUSH2 0x1CFC JUMPI PUSH4 0x4E487B71 PUSH1 0xE0 SHL PUSH1 0x0 MSTORE PUSH1 0x32 PUSH1 0x4 MSTORE PUSH1 0x24 PUSH1 0x0 REVERT JUMPDEST PUSH1 0x20 MUL PUSH1 0x20 ADD ADD DUP4 PUSH1 0x1 DUP2 MLOAD DUP2 LT PUSH2 0x1D24 JUMPI PUSH4 0x4E487B71 PUSH1 0xE0 SHL PUSH1 0x0 MSTORE PUSH1 0x32 PUSH1 0x4 MSTORE PUSH1 0x24 PUSH1 0x0 REVERT JUMPDEST PUSH1 0x1 PUSH1 0x1 PUSH1 0xA0 SHL SUB SWAP4 DUP5 AND PUSH1 0x20 SWAP2 DUP3 MUL SWAP3 SWAP1 SWAP3 ADD ADD MSTORE SWAP2 DUP2 AND SWAP1 SWAP2 MSTORE PUSH1 0x6E SLOAD PUSH1 0x40 MLOAD PUSH4 0x38ED1739 PUSH1 0xE0 SHL DUP2 MSTORE SWAP2 AND SWAP1 PUSH4 0x38ED1739 SWAP1 PUSH2 0x1D70 SWAP1 DUP7 SWAP1 PUSH1 0x0 SWAP1 DUP7 SWAP1 ADDRESS SWAP1 TIMESTAMP SWAP1 PUSH1 0x4 ADD PUSH2 0x2CD6 JUMP JUMPDEST PUSH1 0x0 PUSH1 0x40 MLOAD DUP1 DUP4 SUB DUP2 PUSH1 0x0 DUP8 DUP1 EXTCODESIZE ISZERO DUP1 ISZERO PUSH2 0x1D8A JUMPI PUSH1 0x0 DUP1 REVERT JUMPDEST POP GAS CALL ISZERO DUP1 ISZERO PUSH2 0x1D9E JUMPI RETURNDATASIZE PUSH1 0x0 DUP1 RETURNDATACOPY RETURNDATASIZE PUSH1 0x0 REVERT JUMPDEST POP POP POP POP PUSH1 0x40 MLOAD RETURNDATASIZE PUSH1 0x0 DUP3 RETURNDATACOPY PUSH1 0x1F RETURNDATASIZE SWAP1 DUP2 ADD PUSH1 0x1F NOT AND DUP3 ADD PUSH1 0x40 MSTORE PUSH2 0x14C7 SWAP2 SWAP1 DUP2 ADD SWAP1 PUSH2 0x24BF JUMP JUMPDEST POP POP POP POP POP POP POP POP POP POP JUMP JUMPDEST PUSH2 0x1B69 DUP4 PUSH4 0xA9059CBB PUSH1 0xE0 SHL DUP5 DUP5 PUSH1 0x40 MLOAD PUSH1 0x24 ADD PUSH2 0x19D3 SWAP3 SWAP2 SWAP1 PUSH2 0x28F9 JUMP JUMPDEST PUSH1 0x0 DUP1 PUSH2 0x1E00 DUP6 PUSH2 0x3E5 PUSH2 0x1993 JUMP JUMPDEST SWAP1 POP PUSH1 0x0 PUSH2 0x1E0E DUP3 DUP6 PUSH2 0x1993 JUMP JUMPDEST SWAP1 POP PUSH1 0x0 PUSH2 0x1E28 DUP4 PUSH2 0x1E22 DUP9 PUSH2 0x3E8 PUSH2 0x1993 JUMP JUMPDEST SWAP1 PUSH2 0x2050 JUMP JUMPDEST SWAP1 POP PUSH2 0x1E34 DUP2 DUP4 PUSH2 0x2DCB JUMP JUMPDEST SWAP8 SWAP7 POP POP POP POP POP POP POP JUMP JUMPDEST PUSH1 0x0 PUSH1 0x76 SLOAD PUSH1 0x1 EQ ISZERO PUSH2 0x1E70 JUMPI PUSH1 0x78 SLOAD PUSH1 0x74 SLOAD LT ISZERO PUSH2 0x1E6B JUMPI PUSH1 0x77 SLOAD PUSH1 0x74 SLOAD PUSH2 0x1E67 SWAP2 PUSH2 0x2050 JUMP JUMPDEST PUSH1 0x74 SSTORE JUMPDEST PUSH2 0x1E96 JUMP JUMPDEST PUSH1 0x76 SLOAD PUSH1 0x2 EQ ISZERO PUSH2 0x1E96 JUMPI PUSH1 0x78 SLOAD PUSH1 0x74 SLOAD GT ISZERO PUSH2 0x1E6B JUMPI PUSH1 0x77 SLOAD PUSH1 0x74 SLOAD PUSH2 0x1E67 SWAP2 PUSH2 0x1A10 JUMP JUMPDEST POP PUSH1 0x1 SWAP1 JUMP JUMPDEST PUSH1 0x33 DUP1 SLOAD PUSH1 0x1 PUSH1 0x1 PUSH1 0xA0 SHL SUB DUP4 DUP2 AND PUSH1 0x1 PUSH1 0x1 PUSH1 0xA0 SHL SUB NOT DUP4 AND DUP2 OR SWAP1 SWAP4 SSTORE PUSH1 0x40 MLOAD SWAP2 AND SWAP2 SWAP1 DUP3 SWAP1 PUSH32 0x8BE0079C531659141344CD1FD0A4F28419497F9722A3DAAFE3B4186F6B6457E0 SWAP1 PUSH1 0x0 SWAP1 LOG3 POP POP JUMP JUMPDEST PUSH1 0x0 SLOAD PUSH2 0x100 SWAP1 DIV PUSH1 0xFF AND DUP1 PUSH2 0x1F07 JUMPI POP PUSH1 0x0 SLOAD PUSH1 0xFF AND ISZERO JUMPDEST PUSH2 0x1F23 JUMPI PUSH1 0x40 MLOAD PUSH3 0x461BCD PUSH1 0xE5 SHL DUP2 MSTORE PUSH1 0x4 ADD PUSH2 0x6E7 SWAP1 PUSH2 0x2B1A JUMP JUMPDEST PUSH1 0x0 SLOAD PUSH2 0x100 SWAP1 DIV PUSH1 0xFF AND ISZERO DUP1 ISZERO PUSH2 0x1F4E JUMPI PUSH1 0x0 DUP1 SLOAD PUSH1 0xFF NOT PUSH2 0xFF00 NOT SWAP1 SWAP2 AND PUSH2 0x100 OR AND PUSH1 0x1 OR SWAP1 SSTORE JUMPDEST PUSH2 0x1F56 PUSH2 0x205C JUMP JUMPDEST PUSH2 0x1F5E PUSH2 0x20CF JUMP JUMPDEST DUP1 ISZERO PUSH2 0x1965 JUMPI PUSH1 0x0 DUP1 SLOAD PUSH2 0xFF00 NOT AND SWAP1 SSTORE POP JUMP JUMPDEST PUSH1 0x0 PUSH2 0x1FC7 DUP3 PUSH1 0x40 MLOAD DUP1 PUSH1 0x40 ADD PUSH1 0x40 MSTORE DUP1 PUSH1 0x20 DUP2 MSTORE PUSH1 0x20 ADD PUSH32 0x5361666545524332303A206C6F772D6C6576656C2063616C6C206661696C6564 DUP2 MSTORE POP DUP6 PUSH1 0x1 PUSH1 0x1 PUSH1 0xA0 SHL SUB AND PUSH2 0x213F SWAP1 SWAP3 SWAP2 SWAP1 PUSH4 0xFFFFFFFF AND JUMP JUMPDEST DUP1 MLOAD SWAP1 SWAP2 POP ISZERO PUSH2 0x1B69 JUMPI DUP1 DUP1 PUSH1 0x20 ADD SWAP1 MLOAD DUP2 ADD SWAP1 PUSH2 0x1FE5 SWAP2 SWAP1 PUSH2 0x2582 JUMP JUMPDEST PUSH2 0x1B69 JUMPI PUSH1 0x40 MLOAD PUSH3 0x461BCD PUSH1 0xE5 SHL DUP2 MSTORE PUSH1 0x4 ADD PUSH2 0x6E7 SWAP1 PUSH2 0x2C2D JUMP JUMPDEST PUSH1 0x0 DUP1 PUSH2 0x200E DUP6 DUP6 PUSH2 0x1993 JUMP JUMPDEST PUSH2 0x2018 DUP8 DUP6 PUSH2 0x1993 JUMP JUMPDEST LT PUSH2 0x2034 JUMPI PUSH2 0x2029 DUP7 DUP7 DUP7 DUP7 PUSH2 0x2156 JUMP JUMPDEST SWAP2 POP PUSH1 0x0 SWAP1 POP PUSH2 0x2047 JUMP JUMPDEST PUSH2 0x2040 DUP6 DUP8 DUP6 DUP8 PUSH2 0x2156 JUMP JUMPDEST SWAP2 POP PUSH1 0x1 SWAP1 POP JUMPDEST SWAP5 POP SWAP5 SWAP3 POP POP POP JUMP JUMPDEST PUSH1 0x0 PUSH2 0x199F DUP3 DUP5 PUSH2 0x2DB3 JUMP JUMPDEST PUSH1 0x0 SLOAD PUSH2 0x100 SWAP1 DIV PUSH1 0xFF AND DUP1 PUSH2 0x2075 JUMPI POP PUSH1 0x0 SLOAD PUSH1 0xFF AND ISZERO JUMPDEST PUSH2 0x2091 JUMPI PUSH1 0x40 MLOAD PUSH3 0x461BCD PUSH1 0xE5 SHL DUP2 MSTORE PUSH1 0x4 ADD PUSH2 0x6E7 SWAP1 PUSH2 0x2B1A JUMP JUMPDEST PUSH1 0x0 SLOAD PUSH2 0x100 SWAP1 DIV PUSH1 0xFF AND ISZERO DUP1 ISZERO PUSH2 0x1F5E JUMPI PUSH1 0x0 DUP1 SLOAD PUSH1 0xFF NOT PUSH2 0xFF00 NOT SWAP1 SWAP2 AND PUSH2 0x100 OR AND PUSH1 0x1 OR SWAP1 SSTORE DUP1 ISZERO PUSH2 0x1965 JUMPI PUSH1 0x0 DUP1 SLOAD PUSH2 0xFF00 NOT AND SWAP1 SSTORE POP JUMP JUMPDEST PUSH1 0x0 SLOAD PUSH2 0x100 SWAP1 DIV PUSH1 0xFF AND DUP1 PUSH2 0x20E8 JUMPI POP PUSH1 0x0 SLOAD PUSH1 0xFF AND ISZERO JUMPDEST PUSH2 0x2104 JUMPI PUSH1 0x40 MLOAD PUSH3 0x461BCD PUSH1 0xE5 SHL DUP2 MSTORE PUSH1 0x4 ADD PUSH2 0x6E7 SWAP1 PUSH2 0x2B1A JUMP JUMPDEST PUSH1 0x0 SLOAD PUSH2 0x100 SWAP1 DIV PUSH1 0xFF AND ISZERO DUP1 ISZERO PUSH2 0x212F JUMPI PUSH1 0x0 DUP1 SLOAD PUSH1 0xFF NOT PUSH2 0xFF00 NOT SWAP1 SWAP2 AND PUSH2 0x100 OR AND PUSH1 0x1 OR SWAP1 SSTORE JUMPDEST PUSH2 0x1F5E PUSH2 0x213A PUSH2 0x198F JUMP JUMPDEST PUSH2 0x1E9C JUMP JUMPDEST PUSH1 0x60 PUSH2 0x214E DUP5 DUP5 PUSH1 0x0 DUP6 PUSH2 0x223E JUMP JUMPDEST SWAP5 SWAP4 POP POP POP POP JUMP JUMPDEST PUSH1 0x0 PUSH2 0x2162 DUP5 DUP5 PUSH2 0x1993 JUMP JUMPDEST PUSH2 0x216C DUP7 DUP5 PUSH2 0x1993 JUMP JUMPDEST LT ISZERO PUSH2 0x218A JUMPI PUSH1 0x40 MLOAD PUSH3 0x461BCD PUSH1 0xE5 SHL DUP2 MSTORE PUSH1 0x4 ADD PUSH2 0x6E7 SWAP1 PUSH2 0x2B9D JUMP JUMPDEST PUSH2 0x3E5 PUSH1 0x0 PUSH2 0x219B PUSH2 0x7CD DUP7 PUSH2 0x1993 JUMP JUMPDEST SWAP1 POP PUSH1 0x0 PUSH2 0x21B6 PUSH2 0x21AC DUP9 DUP9 PUSH2 0x1993 JUMP JUMPDEST PUSH2 0x8A9 DUP11 DUP9 PUSH2 0x1993 JUMP JUMPDEST SWAP1 POP PUSH1 0x0 PUSH2 0x21D7 DUP8 PUSH2 0x813 PUSH2 0x21CB DUP12 DUP11 PUSH2 0x2050 JUMP JUMPDEST PUSH2 0x819 DUP7 PUSH2 0x3E8 PUSH2 0x1993 JUMP JUMPDEST SWAP1 POP PUSH1 0x0 PUSH2 0x21EA PUSH1 0x4 PUSH2 0x813 DUP8 DUP6 PUSH2 0x1993 JUMP JUMPDEST SWAP1 POP PUSH1 0x0 PUSH2 0x2204 PUSH2 0x21FF DUP4 PUSH2 0x1E22 DUP9 DUP1 PUSH2 0x1993 JUMP JUMPDEST PUSH2 0x22F3 JUMP JUMPDEST SWAP1 POP PUSH1 0x0 PUSH2 0x2212 DUP3 DUP8 PUSH2 0x1A10 JUMP JUMPDEST SWAP1 POP PUSH1 0x0 PUSH2 0x2221 DUP9 PUSH1 0x2 PUSH2 0x1993 JUMP JUMPDEST SWAP1 POP PUSH2 0x222D DUP3 DUP3 PUSH2 0x19A6 JUMP JUMPDEST SWAP14 SWAP13 POP POP POP POP POP POP POP POP POP POP POP POP POP JUMP JUMPDEST PUSH1 0x60 DUP3 SELFBALANCE LT ISZERO PUSH2 0x2260 JUMPI PUSH1 0x40 MLOAD PUSH3 0x461BCD PUSH1 0xE5 SHL DUP2 MSTORE PUSH1 0x4 ADD PUSH2 0x6E7 SWAP1 PUSH2 0x2AD4 JUMP JUMPDEST PUSH2 0x2269 DUP6 PUSH2 0x2362 JUMP JUMPDEST PUSH2 0x2285 JUMPI PUSH1 0x40 MLOAD PUSH3 0x461BCD PUSH1 0xE5 SHL DUP2 MSTORE PUSH1 0x4 ADD PUSH2 0x6E7 SWAP1 PUSH2 0x2BBF JUMP JUMPDEST PUSH1 0x0 DUP1 DUP7 PUSH1 0x1 PUSH1 0x1 PUSH1 0xA0 SHL SUB AND DUP6 DUP8 PUSH1 0x40 MLOAD PUSH2 0x22A1 SWAP2 SWAP1 PUSH2 0x2842 JUMP JUMPDEST PUSH1 0x0 PUSH1 0x40 MLOAD DUP1 DUP4 SUB DUP2 DUP6 DUP8 GAS CALL SWAP3 POP POP POP RETURNDATASIZE DUP1 PUSH1 0x0 DUP2 EQ PUSH2 0x22DE JUMPI PUSH1 0x40 MLOAD SWAP2 POP PUSH1 0x1F NOT PUSH1 0x3F RETURNDATASIZE ADD AND DUP3 ADD PUSH1 0x40 MSTORE RETURNDATASIZE DUP3 MSTORE RETURNDATASIZE PUSH1 0x0 PUSH1 0x20 DUP5 ADD RETURNDATACOPY PUSH2 0x22E3 JUMP JUMPDEST PUSH1 0x60 SWAP2 POP JUMPDEST POP SWAP2 POP SWAP2 POP PUSH2 0x1E34 DUP3 DUP3 DUP7 PUSH2 0x2368 JUMP JUMPDEST PUSH1 0x0 PUSH1 0x3 DUP3 GT ISZERO PUSH2 0x2354 JUMPI POP DUP1 PUSH1 0x0 PUSH2 0x230D PUSH1 0x2 DUP4 PUSH2 0x2DCB JUMP JUMPDEST PUSH2 0x2318 SWAP1 PUSH1 0x1 PUSH2 0x2DB3 JUMP JUMPDEST SWAP1 POP JUMPDEST DUP2 DUP2 LT ISZERO PUSH2 0x234E JUMPI SWAP1 POP DUP1 PUSH1 0x2 DUP2 PUSH2 0x2333 DUP2 DUP7 PUSH2 0x2DCB JUMP JUMPDEST PUSH2 0x233D SWAP2 SWAP1 PUSH2 0x2DB3 JUMP JUMPDEST PUSH2 0x2347 SWAP2 SWAP1 PUSH2 0x2DCB JUMP JUMPDEST SWAP1 POP PUSH2 0x231B JUMP JUMPDEST POP PUSH2 0x6F9 JUMP JUMPDEST DUP2 ISZERO PUSH2 0x6F9 JUMPI POP PUSH1 0x1 SWAP2 SWAP1 POP JUMP JUMPDEST EXTCODESIZE ISZERO ISZERO SWAP1 JUMP JUMPDEST PUSH1 0x60 DUP4 ISZERO PUSH2 0x2377 JUMPI POP DUP2 PUSH2 0x199F JUMP JUMPDEST DUP3 MLOAD ISZERO PUSH2 0x2387 JUMPI DUP3 MLOAD DUP1 DUP5 PUSH1 0x20 ADD REVERT JUMPDEST DUP2 PUSH1 0x40 MLOAD PUSH3 0x461BCD PUSH1 0xE5 SHL DUP2 MSTORE PUSH1 0x4 ADD PUSH2 0x6E7 SWAP2 SWAP1 PUSH2 0x294E JUMP JUMPDEST DUP3 DUP1 SLOAD PUSH2 0x23AD SWAP1 PUSH2 0x2E4D JUMP JUMPDEST SWAP1 PUSH1 0x0 MSTORE PUSH1 0x20 PUSH1 0x0 KECCAK256 SWAP1 PUSH1 0x1F ADD PUSH1 0x20 SWAP1 DIV DUP2 ADD SWAP3 DUP3 PUSH2 0x23CF JUMPI PUSH1 0x0 DUP6 SSTORE PUSH2 0x2415 JUMP JUMPDEST DUP3 PUSH1 0x1F LT PUSH2 0x23E8 JUMPI DUP1 MLOAD PUSH1 0xFF NOT AND DUP4 DUP1 ADD OR DUP6 SSTORE PUSH2 0x2415 JUMP JUMPDEST DUP3 DUP1 ADD PUSH1 0x1 ADD DUP6 SSTORE DUP3 ISZERO PUSH2 0x2415 JUMPI SWAP2 DUP3 ADD JUMPDEST DUP3 DUP2 GT ISZERO PUSH2 0x2415 JUMPI DUP3 MLOAD DUP3 SSTORE SWAP2 PUSH1 0x20 ADD SWAP2 SWAP1 PUSH1 0x1 ADD SWAP1 PUSH2 0x23FA JUMP JUMPDEST POP PUSH2 0x2421 SWAP3 SWAP2 POP PUSH2 0x2425 JUMP JUMPDEST POP SWAP1 JUMP JUMPDEST JUMPDEST DUP1 DUP3 GT ISZERO PUSH2 0x2421 JUMPI PUSH1 0x0 DUP2 SSTORE PUSH1 0x1 ADD PUSH2 0x2426 JUMP JUMPDEST DUP1 CALLDATALOAD PUSH2 0x6F9 DUP2 PUSH2 0x2ECF JUMP JUMPDEST DUP1 MLOAD PUSH1 0x1 PUSH1 0x1 PUSH1 0x70 SHL SUB DUP2 AND DUP2 EQ PUSH2 0x6F9 JUMPI PUSH1 0x0 DUP1 REVERT JUMPDEST PUSH1 0x0 PUSH1 0x20 DUP3 DUP5 SUB SLT ISZERO PUSH2 0x246D JUMPI DUP1 DUP2 REVERT JUMPDEST DUP2 CALLDATALOAD PUSH2 0x199F DUP2 PUSH2 0x2ECF JUMP JUMPDEST PUSH1 0x0 PUSH1 0x20 DUP3 DUP5 SUB SLT ISZERO PUSH2 0x2489 JUMPI DUP1 DUP2 REVERT JUMPDEST DUP2 MLOAD PUSH2 0x199F DUP2 PUSH2 0x2ECF JUMP JUMPDEST PUSH1 0x0 DUP1 PUSH1 0x40 DUP4 DUP6 SUB SLT ISZERO PUSH2 0x24A6 JUMPI DUP1 DUP2 REVERT JUMPDEST DUP3 CALLDATALOAD PUSH2 0x24B1 DUP2 PUSH2 0x2ECF JUMP JUMPDEST SWAP5 PUSH1 0x20 SWAP4 SWAP1 SWAP4 ADD CALLDATALOAD SWAP4 POP POP POP JUMP JUMPDEST PUSH1 0x0 PUSH1 0x20 DUP1 DUP4 DUP6 SUB SLT ISZERO PUSH2 0x24D1 JUMPI DUP2 DUP3 REVERT JUMPDEST DUP3 MLOAD PUSH8 0xFFFFFFFFFFFFFFFF DUP1 DUP3 GT ISZERO PUSH2 0x24E8 JUMPI DUP4 DUP5 REVERT JUMPDEST DUP2 DUP6 ADD SWAP2 POP DUP6 PUSH1 0x1F DUP4 ADD SLT PUSH2 0x24FB JUMPI DUP4 DUP5 REVERT JUMPDEST DUP2 MLOAD DUP2 DUP2 GT ISZERO PUSH2 0x250D JUMPI PUSH2 0x250D PUSH2 0x2EB9 JUMP JUMPDEST DUP4 DUP2 MUL SWAP2 POP PUSH2 0x251D DUP5 DUP4 ADD PUSH2 0x2D7D JUMP JUMPDEST DUP2 DUP2 MSTORE DUP5 DUP2 ADD SWAP1 DUP5 DUP7 ADD DUP5 DUP7 ADD DUP8 ADD DUP11 LT ISZERO PUSH2 0x2537 JUMPI DUP8 DUP9 REVERT JUMPDEST DUP8 SWAP6 POP JUMPDEST DUP4 DUP7 LT ISZERO PUSH2 0x2559 JUMPI DUP1 MLOAD DUP4 MSTORE PUSH1 0x1 SWAP6 SWAP1 SWAP6 ADD SWAP5 SWAP2 DUP7 ADD SWAP2 DUP7 ADD PUSH2 0x253B JUMP JUMPDEST POP SWAP9 SWAP8 POP POP POP POP POP POP POP POP JUMP JUMPDEST PUSH1 0x0 PUSH1 0x20 DUP3 DUP5 SUB SLT ISZERO PUSH2 0x2577 JUMPI DUP1 DUP2 REVERT JUMPDEST DUP2 CALLDATALOAD PUSH2 0x199F DUP2 PUSH2 0x2EE4 JUMP JUMPDEST PUSH1 0x0 PUSH1 0x20 DUP3 DUP5 SUB SLT ISZERO PUSH2 0x2593 JUMPI DUP1 DUP2 REVERT JUMPDEST DUP2 MLOAD PUSH2 0x199F DUP2 PUSH2 0x2EE4 JUMP JUMPDEST PUSH1 0x0 DUP1 PUSH1 0x40 DUP4 DUP6 SUB SLT ISZERO PUSH2 0x25B0 JUMPI DUP2 DUP3 REVERT JUMPDEST DUP3 MLOAD PUSH2 0x25BB DUP2 PUSH2 0x2EE4 JUMP JUMPDEST PUSH1 0x20 SWAP4 SWAP1 SWAP4 ADD MLOAD SWAP3 SWAP5 SWAP3 SWAP4 POP POP POP JUMP JUMPDEST PUSH1 0x0 DUP1 PUSH1 0x0 DUP1 PUSH1 0x0 DUP1 PUSH1 0x0 DUP1 PUSH1 0x0 DUP1 PUSH1 0x0 PUSH2 0x160 DUP13 DUP15 SUB SLT ISZERO PUSH2 0x25EC JUMPI DUP7 DUP8 REVERT JUMPDEST DUP12 CALLDATALOAD PUSH2 0x25F7 DUP2 PUSH2 0x2ECF JUMP JUMPDEST SWAP11 POP PUSH1 0x20 DUP13 ADD CALLDATALOAD PUSH2 0x2607 DUP2 PUSH2 0x2ECF JUMP JUMPDEST SWAP10 POP PUSH1 0x40 DUP13 ADD CALLDATALOAD PUSH2 0x2617 DUP2 PUSH2 0x2ECF JUMP JUMPDEST SWAP9 POP PUSH1 0x60 DUP13 ADD CALLDATALOAD PUSH2 0x2627 DUP2 PUSH2 0x2ECF JUMP JUMPDEST SWAP8 POP PUSH1 0x80 DUP13 ADD CALLDATALOAD PUSH2 0x2637 DUP2 PUSH2 0x2ECF JUMP JUMPDEST SWAP7 POP PUSH1 0xA0 DUP13 ADD CALLDATALOAD PUSH2 0x2647 DUP2 PUSH2 0x2ECF JUMP JUMPDEST SWAP6 POP PUSH1 0xC0 DUP13 ADD CALLDATALOAD PUSH2 0x2657 DUP2 PUSH2 0x2ECF JUMP JUMPDEST SWAP5 POP PUSH1 0xE0 DUP13 ADD CALLDATALOAD PUSH2 0x2667 DUP2 PUSH2 0x2ECF JUMP JUMPDEST SWAP4 POP PUSH2 0x100 DUP13 ADD CALLDATALOAD PUSH2 0x2678 DUP2 PUSH2 0x2ECF JUMP JUMPDEST SWAP3 POP PUSH2 0x2687 PUSH2 0x120 DUP14 ADD PUSH2 0x243A JUMP JUMPDEST SWAP2 POP PUSH2 0x2696 PUSH2 0x140 DUP14 ADD PUSH2 0x243A JUMP JUMPDEST SWAP1 POP SWAP3 SWAP6 SWAP9 SWAP12 POP SWAP3 SWAP6 SWAP9 SWAP12 SWAP1 SWAP4 SWAP7 SWAP10 POP JUMP JUMPDEST PUSH1 0x0 DUP1 PUSH1 0x40 DUP4 DUP6 SUB SLT ISZERO PUSH2 0x26BA JUMPI DUP2 DUP3 REVERT JUMPDEST DUP3 CALLDATALOAD PUSH2 0x26C5 DUP2 PUSH2 0x2ECF JUMP JUMPDEST SWAP2 POP PUSH1 0x20 DUP4 DUP2 ADD CALLDATALOAD PUSH8 0xFFFFFFFFFFFFFFFF DUP1 DUP3 GT ISZERO PUSH2 0x26E2 JUMPI DUP4 DUP5 REVERT JUMPDEST DUP2 DUP7 ADD SWAP2 POP DUP7 PUSH1 0x1F DUP4 ADD SLT PUSH2 0x26F5 JUMPI DUP4 DUP5 REVERT JUMPDEST DUP2 CALLDATALOAD DUP2 DUP2 GT ISZERO PUSH2 0x2707 JUMPI PUSH2 0x2707 PUSH2 0x2EB9 JUMP JUMPDEST PUSH2 0x2719 PUSH1 0x1F DUP3 ADD PUSH1 0x1F NOT AND DUP6 ADD PUSH2 0x2D7D JUMP JUMPDEST SWAP2 POP DUP1 DUP3 MSTORE DUP8 DUP5 DUP3 DUP6 ADD ADD GT ISZERO PUSH2 0x272E JUMPI DUP5 DUP6 REVERT JUMPDEST DUP1 DUP5 DUP5 ADD DUP6 DUP5 ADD CALLDATACOPY DUP2 ADD SWAP1 SWAP3 ADD SWAP3 SWAP1 SWAP3 MSTORE SWAP2 SWAP5 SWAP2 SWAP4 POP SWAP1 SWAP2 POP POP JUMP JUMPDEST PUSH1 0x0 DUP1 PUSH1 0x0 PUSH1 0x60 DUP5 DUP7 SUB SLT ISZERO PUSH2 0x275E JUMPI DUP1 DUP2 REVERT JUMPDEST PUSH2 0x2767 DUP5 PUSH2 0x2445 JUMP JUMPDEST SWAP3 POP PUSH2 0x2775 PUSH1 0x20 DUP6 ADD PUSH2 0x2445 JUMP JUMPDEST SWAP2 POP PUSH1 0x40 DUP5 ADD MLOAD PUSH4 0xFFFFFFFF DUP2 AND DUP2 EQ PUSH2 0x278D JUMPI DUP2 DUP3 REVERT JUMPDEST DUP1 SWAP2 POP POP SWAP3 POP SWAP3 POP SWAP3 JUMP JUMPDEST PUSH1 0x0 PUSH1 0x20 DUP3 DUP5 SUB SLT ISZERO PUSH2 0x27A9 JUMPI DUP1 DUP2 REVERT JUMPDEST POP CALLDATALOAD SWAP2 SWAP1 POP JUMP JUMPDEST PUSH1 0x0 PUSH1 0x20 DUP3 DUP5 SUB SLT ISZERO PUSH2 0x27C1 JUMPI DUP1 DUP2 REVERT JUMPDEST POP MLOAD SWAP2 SWAP1 POP JUMP JUMPDEST PUSH1 0x0 DUP1 PUSH1 0x40 DUP4 DUP6 SUB SLT ISZERO PUSH2 0x27DA JUMPI DUP2 DUP3 REVERT JUMPDEST POP POP DUP1 CALLDATALOAD SWAP3 PUSH1 0x20 SWAP1 SWAP2 ADD CALLDATALOAD SWAP2 POP JUMP JUMPDEST PUSH1 0x0 DUP1 PUSH1 0x0 PUSH1 0x60 DUP5 DUP7 SUB SLT ISZERO PUSH2 0x27FD JUMPI DUP1 DUP2 REVERT JUMPDEST DUP4 MLOAD SWAP3 POP PUSH1 0x20 DUP5 ADD MLOAD SWAP2 POP PUSH1 0x40 DUP5 ADD MLOAD SWAP1 POP SWAP3 POP SWAP3 POP SWAP3 JUMP JUMPDEST PUSH1 0x0 DUP2 MLOAD DUP1 DUP5 MSTORE PUSH2 0x282E DUP2 PUSH1 0x20 DUP7 ADD PUSH1 0x20 DUP7 ADD PUSH2 0x2E21 JUMP JUMPDEST PUSH1 0x1F ADD PUSH1 0x1F NOT AND SWAP3 SWAP1 SWAP3 ADD PUSH1 0x20 ADD SWAP3 SWAP2 POP POP JUMP JUMPDEST PUSH1 0x0 DUP3 MLOAD PUSH2 0x2854 DUP2 DUP5 PUSH1 0x20 DUP8 ADD PUSH2 0x2E21 JUMP JUMPDEST SWAP2 SWAP1 SWAP2 ADD SWAP3 SWAP2 POP POP JUMP JUMPDEST PUSH1 0x1 PUSH1 0x1 PUSH1 0xA0 SHL SUB SWAP2 SWAP1 SWAP2 AND DUP2 MSTORE PUSH1 0x20 ADD SWAP1 JUMP JUMPDEST PUSH1 0x1 PUSH1 0x1 PUSH1 0xA0 SHL SUB SWAP3 DUP4 AND DUP2 MSTORE SWAP2 AND PUSH1 0x20 DUP3 ADD MSTORE PUSH1 0x40 ADD SWAP1 JUMP JUMPDEST PUSH1 0x1 PUSH1 0x1 PUSH1 0xA0 SHL SUB SWAP4 DUP5 AND DUP2 MSTORE SWAP2 SWAP1 SWAP3 AND PUSH1 0x20 DUP3 ADD MSTORE PUSH1 0x40 DUP2 ADD SWAP2 SWAP1 SWAP2 MSTORE PUSH1 0x60 ADD SWAP1 JUMP JUMPDEST PUSH1 0x1 PUSH1 0x1 PUSH1 0xA0 SHL SUB SWAP9 DUP10 AND DUP2 MSTORE SWAP7 DUP9 AND PUSH1 0x20 DUP9 ADD MSTORE PUSH1 0x40 DUP8 ADD SWAP6 SWAP1 SWAP6 MSTORE PUSH1 0x60 DUP7 ADD SWAP4 SWAP1 SWAP4 MSTORE PUSH1 0x80 DUP6 ADD SWAP2 SWAP1 SWAP2 MSTORE PUSH1 0xA0 DUP5 ADD MSTORE SWAP1 SWAP3 AND PUSH1 0xC0 DUP3 ADD MSTORE PUSH1 0xE0 DUP2 ADD SWAP2 SWAP1 SWAP2 MSTORE PUSH2 0x100 ADD SWAP1 JUMP JUMPDEST PUSH1 0x1 PUSH1 0x1 PUSH1 0xA0 SHL SUB SWAP3 SWAP1 SWAP3 AND DUP3 MSTORE PUSH1 0x20 DUP3 ADD MSTORE PUSH1 0x40 ADD SWAP1 JUMP JUMPDEST PUSH1 0x1 PUSH1 0x1 PUSH1 0xA0 SHL SUB SWAP4 SWAP1 SWAP4 AND DUP4 MSTORE PUSH1 0x20 DUP4 ADD SWAP2 SWAP1 SWAP2 MSTORE PUSH1 0x40 DUP3 ADD MSTORE PUSH1 0x60 ADD SWAP1 JUMP JUMPDEST SWAP1 ISZERO ISZERO DUP2 MSTORE PUSH1 0x20 ADD SWAP1 JUMP JUMPDEST SWAP2 ISZERO ISZERO DUP3 MSTORE PUSH1 0x20 DUP3 ADD MSTORE PUSH1 0x40 ADD SWAP1 JUMP JUMPDEST PUSH1 0x0 PUSH1 0x20 DUP3 MSTORE PUSH2 0x199F PUSH1 0x20 DUP4 ADD DUP5 PUSH2 0x2816 JUMP JUMPDEST PUSH1 0x0 PUSH1 0x20 DUP1 DUP4 MSTORE DUP2 DUP5 SLOAD DUP4 PUSH1 0x2 DUP3 DIV SWAP1 POP PUSH1 0x1 DUP1 DUP4 AND DUP1 PUSH2 0x2983 JUMPI PUSH1 0x7F DUP4 AND SWAP3 POP JUMPDEST DUP6 DUP4 LT DUP2 EQ ISZERO PUSH2 0x29A1 JUMPI PUSH4 0x4E487B71 PUSH1 0xE0 SHL DUP8 MSTORE PUSH1 0x22 PUSH1 0x4 MSTORE PUSH1 0x24 DUP8 REVERT JUMPDEST PUSH2 0x29AD DUP4 DUP8 DUP11 ADD PUSH2 0x2CCD JUMP JUMPDEST DUP2 DUP1 ISZERO PUSH2 0x29C1 JUMPI PUSH1 0x1 DUP2 EQ PUSH2 0x29D2 JUMPI PUSH2 0x29FC JUMP JUMPDEST PUSH1 0xFF NOT DUP7 AND DUP3 MSTORE DUP8 DUP3 ADD SWAP7 POP PUSH2 0x29FC JUMP JUMPDEST PUSH2 0x29DB DUP12 PUSH2 0x2DA7 JUMP JUMPDEST DUP10 JUMPDEST DUP7 DUP2 LT ISZERO PUSH2 0x29F6 JUMPI DUP2 SLOAD DUP5 DUP3 ADD MSTORE SWAP1 DUP6 ADD SWAP1 DUP10 ADD PUSH2 0x29DD JUMP JUMPDEST DUP4 ADD SWAP8 POP POP JUMPDEST POP SWAP5 SWAP10 SWAP9 POP POP POP POP POP POP POP POP POP JUMP JUMPDEST PUSH1 0x20 DUP1 DUP3 MSTORE PUSH1 0x26 SWAP1 DUP3 ADD MSTORE PUSH32 0x4F776E61626C653A206E6577206F776E657220697320746865207A65726F2061 PUSH1 0x40 DUP3 ADD MSTORE PUSH6 0x646472657373 PUSH1 0xD0 SHL PUSH1 0x60 DUP3 ADD MSTORE PUSH1 0x80 ADD SWAP1 JUMP JUMPDEST PUSH1 0x20 DUP1 DUP3 MSTORE PUSH1 0x8 SWAP1 DUP3 ADD MSTORE PUSH8 0x4F6E6C7920454F41 PUSH1 0xC0 SHL PUSH1 0x40 DUP3 ADD MSTORE PUSH1 0x60 ADD SWAP1 JUMP JUMPDEST PUSH1 0x20 DUP1 DUP3 MSTORE PUSH1 0x2 SWAP1 DUP3 ADD MSTORE PUSH2 0x60F PUSH1 0xF3 SHL PUSH1 0x40 DUP3 ADD MSTORE PUSH1 0x60 ADD SWAP1 JUMP JUMPDEST PUSH1 0x20 DUP1 DUP3 MSTORE PUSH1 0x25 SWAP1 DUP3 ADD MSTORE PUSH32 0x556E697377617056324C6962726172793A204944454E544943414C5F41444452 PUSH1 0x40 DUP3 ADD MSTORE PUSH5 0x4553534553 PUSH1 0xD8 SHL PUSH1 0x60 DUP3 ADD MSTORE PUSH1 0x80 ADD SWAP1 JUMP JUMPDEST PUSH1 0x20 DUP1 DUP3 MSTORE PUSH1 0x26 SWAP1 DUP3 ADD MSTORE PUSH32 0x416464726573733A20696E73756666696369656E742062616C616E636520666F PUSH1 0x40 DUP3 ADD MSTORE PUSH6 0x1C8818D85B1B PUSH1 0xD2 SHL PUSH1 0x60 DUP3 ADD MSTORE PUSH1 0x80 ADD SWAP1 JUMP JUMPDEST PUSH1 0x20 DUP1 DUP3 MSTORE PUSH1 0x2E SWAP1 DUP3 ADD MSTORE PUSH32 0x496E697469616C697A61626C653A20636F6E747261637420697320616C726561 PUSH1 0x40 DUP3 ADD MSTORE PUSH14 0x191E481A5B9A5D1A585B1A5E9959 PUSH1 0x92 SHL PUSH1 0x60 DUP3 ADD MSTORE PUSH1 0x80 ADD SWAP1 JUMP JUMPDEST PUSH1 0x20 DUP1 DUP3 MSTORE DUP2 DUP2 ADD MSTORE PUSH32 0x4F776E61626C653A2063616C6C6572206973206E6F7420746865206F776E6572 PUSH1 0x40 DUP3 ADD MSTORE PUSH1 0x60 ADD SWAP1 JUMP JUMPDEST PUSH1 0x20 DUP1 DUP3 MSTORE PUSH1 0x8 SWAP1 DUP3 ADD MSTORE PUSH8 0x14995D995C9CD959 PUSH1 0xC2 SHL PUSH1 0x40 DUP3 ADD MSTORE PUSH1 0x60 ADD SWAP1 JUMP JUMPDEST PUSH1 0x20 DUP1 DUP3 MSTORE PUSH1 0x1D SWAP1 DUP3 ADD MSTORE PUSH32 0x416464726573733A2063616C6C20746F206E6F6E2D636F6E7472616374000000 PUSH1 0x40 DUP3 ADD MSTORE PUSH1 0x60 ADD SWAP1 JUMP JUMPDEST PUSH1 0x20 DUP1 DUP3 MSTORE PUSH1 0x1E SWAP1 DUP3 ADD MSTORE PUSH32 0x556E697377617056324C6962726172793A205A45524F5F414444524553530000 PUSH1 0x40 DUP3 ADD MSTORE PUSH1 0x60 ADD SWAP1 JUMP JUMPDEST PUSH1 0x20 DUP1 DUP3 MSTORE PUSH1 0x2A SWAP1 DUP3 ADD MSTORE PUSH32 0x5361666545524332303A204552433230206F7065726174696F6E20646964206E PUSH1 0x40 DUP3 ADD MSTORE PUSH10 0x1BDD081CDD58D8D95959 PUSH1 0xB2 SHL PUSH1 0x60 DUP3 ADD MSTORE PUSH1 0x80 ADD SWAP1 JUMP JUMPDEST PUSH1 0x20 DUP1 DUP3 MSTORE PUSH1 0x36 SWAP1 DUP3 ADD MSTORE PUSH32 0x5361666545524332303A20617070726F76652066726F6D206E6F6E2D7A65726F PUSH1 0x40 DUP3 ADD MSTORE PUSH22 0x20746F206E6F6E2D7A65726F20616C6C6F77616E6365 PUSH1 0x50 SHL PUSH1 0x60 DUP3 ADD MSTORE PUSH1 0x80 ADD SWAP1 JUMP JUMPDEST SWAP1 DUP2 MSTORE PUSH1 0x20 ADD SWAP1 JUMP JUMPDEST PUSH1 0x0 PUSH1 0xA0 DUP3 ADD DUP8 DUP4 MSTORE PUSH1 0x20 DUP8 DUP2 DUP6 ADD MSTORE PUSH1 0xA0 PUSH1 0x40 DUP6 ADD MSTORE DUP2 DUP8 MLOAD DUP1 DUP5 MSTORE PUSH1 0xC0 DUP7 ADD SWAP2 POP DUP3 DUP10 ADD SWAP4 POP DUP5 JUMPDEST DUP2 DUP2 LT ISZERO PUSH2 0x2D25 JUMPI DUP5 MLOAD PUSH1 0x1 PUSH1 0x1 PUSH1 0xA0 SHL SUB AND DUP4 MSTORE SWAP4 DUP4 ADD SWAP4 SWAP2 DUP4 ADD SWAP2 PUSH1 0x1 ADD PUSH2 0x2D00 JUMP JUMPDEST POP POP PUSH1 0x1 PUSH1 0x1 PUSH1 0xA0 SHL SUB SWAP7 SWAP1 SWAP7 AND PUSH1 0x60 DUP6 ADD MSTORE POP POP POP PUSH1 0x80 ADD MSTORE SWAP4 SWAP3 POP POP POP JUMP JUMPDEST PUSH1 0x0 DUP6 DUP3 MSTORE DUP5 PUSH1 0x20 DUP4 ADD MSTORE PUSH1 0x1 DUP1 PUSH1 0xA0 SHL SUB DUP5 AND PUSH1 0x40 DUP4 ADD MSTORE PUSH1 0x80 PUSH1 0x60 DUP4 ADD MSTORE PUSH2 0x2D73 PUSH1 0x80 DUP4 ADD DUP5 PUSH2 0x2816 JUMP JUMPDEST SWAP7 SWAP6 POP POP POP POP POP POP JUMP JUMPDEST PUSH1 0x40 MLOAD DUP2 DUP2 ADD PUSH8 0xFFFFFFFFFFFFFFFF DUP2 GT DUP3 DUP3 LT OR ISZERO PUSH2 0x2D9F JUMPI PUSH2 0x2D9F PUSH2 0x2EB9 JUMP JUMPDEST PUSH1 0x40 MSTORE SWAP2 SWAP1 POP JUMP JUMPDEST PUSH1 0x0 SWAP1 DUP2 MSTORE PUSH1 0x20 SWAP1 KECCAK256 SWAP1 JUMP JUMPDEST PUSH1 0x0 DUP3 NOT DUP3 GT ISZERO PUSH2 0x2DC6 JUMPI PUSH2 0x2DC6 PUSH2 0x2EA3 JUMP JUMPDEST POP ADD SWAP1 JUMP JUMPDEST PUSH1 0x0 DUP3 PUSH2 0x2DE6 JUMPI PUSH4 0x4E487B71 PUSH1 0xE0 SHL DUP2 MSTORE PUSH1 0x12 PUSH1 0x4 MSTORE PUSH1 0x24 DUP2 REVERT JUMPDEST POP DIV SWAP1 JUMP JUMPDEST PUSH1 0x0 DUP2 PUSH1 0x0 NOT DIV DUP4 GT DUP3 ISZERO ISZERO AND ISZERO PUSH2 0x2E05 JUMPI PUSH2 0x2E05 PUSH2 0x2EA3 JUMP JUMPDEST POP MUL SWAP1 JUMP JUMPDEST PUSH1 0x0 DUP3 DUP3 LT ISZERO PUSH2 0x2E1C JUMPI PUSH2 0x2E1C PUSH2 0x2EA3 JUMP JUMPDEST POP SUB SWAP1 JUMP JUMPDEST PUSH1 0x0 JUMPDEST DUP4 DUP2 LT ISZERO PUSH2 0x2E3C JUMPI DUP2 DUP2 ADD MLOAD DUP4 DUP3 ADD MSTORE PUSH1 0x20 ADD PUSH2 0x2E24 JUMP JUMPDEST DUP4 DUP2 GT ISZERO PUSH2 0x1A0A JUMPI POP POP PUSH1 0x0 SWAP2 ADD MSTORE JUMP JUMPDEST PUSH1 0x2 DUP2 DIV PUSH1 0x1 DUP3 AND DUP1 PUSH2 0x2E61 JUMPI PUSH1 0x7F DUP3 AND SWAP2 POP JUMPDEST PUSH1 0x20 DUP3 LT DUP2 EQ ISZERO PUSH2 0x2E82 JUMPI PUSH4 0x4E487B71 PUSH1 0xE0 SHL PUSH1 0x0 MSTORE PUSH1 0x22 PUSH1 0x4 MSTORE PUSH1 0x24 PUSH1 0x0 REVERT JUMPDEST POP SWAP2 SWAP1 POP JUMP JUMPDEST PUSH1 0x0 PUSH1 0x0 NOT DUP3 EQ ISZERO PUSH2 0x2E9C JUMPI PUSH2 0x2E9C PUSH2 0x2EA3 JUMP JUMPDEST POP PUSH1 0x1 ADD SWAP1 JUMP JUMPDEST PUSH4 0x4E487B71 PUSH1 0xE0 SHL PUSH1 0x0 MSTORE PUSH1 0x11 PUSH1 0x4 MSTORE PUSH1 0x24 PUSH1 0x0 REVERT JUMPDEST PUSH4 0x4E487B71 PUSH1 0xE0 SHL PUSH1 0x0 MSTORE PUSH1 0x41 PUSH1 0x4 MSTORE PUSH1 0x24 PUSH1 0x0 REVERT JUMPDEST PUSH1 0x1 PUSH1 0x1 PUSH1 0xA0 SHL SUB DUP2 AND DUP2 EQ PUSH2 0x1965 JUMPI PUSH1 0x0 DUP1 REVERT JUMPDEST DUP1 ISZERO ISZERO DUP2 EQ PUSH2 0x1965 JUMPI PUSH1 0x0 DUP1 REVERT INVALID LOG2 PUSH5 0x6970667358 0x22 SLT KECCAK256 0xE7 0x22 SSTORE CALLCODE SWAP14 0xBA EXTCODECOPY 0xCC 0xD1 STATICCALL SWAP2 SHL SWAP8 NOT 0x4C 0xEE 0x5C SLT 0xBF PUSH3 0xC86B1A 0xEA PUSH3 0xD2A4D4 POP 0xEF 0xE2 SWAP1 PUSH5 0x736F6C6343 STOP ADDMOD STOP STOP CALLER "
		},
		"gasEstimates": {
			"creation": {
				"codeDepositCost": "2414400",
				"executionCost": "2598",
				"totalCost": "2416998"
			},
			"external": {
				"FISH()": "1202",
				"FISHNFT()": "1159",
				"Factory()": "1203",
				"PRECISION()": "1073",
				"ROI()": "1117",
				"Router()": "1180",
				"TargetROI()": "1095",
				"USDC()": "1160",
				"addLiquidityOpen()": "1128",
				"buyNft(uint256)": "infinite",
				"dev()": "1138",
				"direction()": "1140",
				"exchangeRate()": "1118",
				"initialize(address,address,address,address,address,address,address,address,address,address,address)": "infinite",
				"maxSellAmt()": "1097",
				"multiSignature()": "1137",
				"multiSignatureToSToken()": "1160",
				"op()": "1181",
				"oracle()": "1138",
				"oracleData()": "infinite",
				"owner()": "1204",
				"peekSpot()": "infinite",
				"price()": "1140",
				"renounceOwnership()": "23618",
				"sFISH()": "1182",
				"setAddLiquidityOpen(bool)": "22303",
				"setDev(address)": "22253",
				"setDirection(uint256)": "21362",
				"setMaxSellAmt(uint256)": "21361",
				"setMultiSignature(address)": "22320",
				"setMultiSignatureToSToken(address)": "22276",
				"setOp(address)": "22297",
				"setOracle(address,bytes)": "infinite",
				"setPrice(uint256)": "21405",
				"setROI(uint256)": "21384",
				"setStateOpen(bool)": "22215",
				"setStepSize(uint256)": "21352",
				"setTargetROI(uint256)": "21360",
				"setToDevPec(uint256)": "21361",
				"setToLiquidityPec(uint256)": "21383",
				"setToOpPec(uint256)": "21382",
				"setWhitelistDiscount(uint256,uint256)": "21454",
				"setWhitelistLevel(address,uint256)": "21506",
				"stateOpen()": "1108",
				"stepSize()": "1119",
				"toDevPec()": "1184",
				"toLiquidityPec()": "1074",
				"toOpPec()": "1097",
				"transferOwnership(address)": "infinite",
				"updateExchangeRate()": "infinite",
				"whitelistDiscount(uint256)": "1239",
				"whitelistLevel(address)": "1336"
			},
			"internal": {
				"_optimalDepositA(uint256,uint256,uint256,uint256)": "infinite",
				"calAndSwap(contract IUniswapV2Pair,address,address,uint256)": "infinite",
				"getAmountOut(uint256,uint256,uint256)": "infinite",
				"optimalDeposit(uint256,uint256,uint256,uint256)": "infinite",
				"sortTokens(address,address)": "infinite",
				"updateRoi()": "25027"
			}
		},
		"methodIdentifiers": {
			"FISH()": "ffcff32c",
			"FISHNFT()": "71261bf3",
			"Factory()": "c83dd231",
			"PRECISION()": "aaf5eb68",
			"ROI()": "d5c43159",
			"Router()": "f6d7eade",
			"TargetROI()": "af4086f6",
			"USDC()": "89a30271",
			"addLiquidityOpen()": "f49c8b87",
			"buyNft(uint256)": "243adbdd",
			"dev()": "91cca3db",
			"direction()": "645539ed",
			"exchangeRate()": "3ba0b9a9",
			"initialize(address,address,address,address,address,address,address,address,address,address,address)": "76902b83",
			"maxSellAmt()": "33cdacd9",
			"multiSignature()": "6f0a5b1b",
			"multiSignatureToSToken()": "98362440",
			"op()": "ec1f1f69",
			"oracle()": "7dc0d1d0",
			"oracleData()": "74645ff3",
			"owner()": "8da5cb5b",
			"peekSpot()": "a265e899",
			"price()": "a035b1fe",
			"renounceOwnership()": "715018a6",
			"sFISH()": "4a9c8366",
			"setAddLiquidityOpen(bool)": "c85cd712",
			"setDev(address)": "d477f05f",
			"setDirection(uint256)": "38207b16",
			"setMaxSellAmt(uint256)": "40e90a7e",
			"setMultiSignature(address)": "56930714",
			"setMultiSignatureToSToken(address)": "49bdafc8",
			"setOp(address)": "a36a7526",
			"setOracle(address,bytes)": "b13b0847",
			"setPrice(uint256)": "91b7f5ed",
			"setROI(uint256)": "1891381d",
			"setStateOpen(bool)": "a235c42a",
			"setStepSize(uint256)": "1450acd2",
			"setTargetROI(uint256)": "b3789533",
			"setToDevPec(uint256)": "8af9e5cd",
			"setToLiquidityPec(uint256)": "40ee4d0c",
			"setToOpPec(uint256)": "a9787fdc",
			"setWhitelistDiscount(uint256,uint256)": "17db7b70",
			"setWhitelistLevel(address,uint256)": "3b2d3e96",
			"stateOpen()": "6043903d",
			"stepSize()": "36ebafe9",
			"toDevPec()": "60398848",
			"toLiquidityPec()": "47e1ed88",
			"toOpPec()": "0a0642c0",
			"transferOwnership(address)": "f2fde38b",
			"updateExchangeRate()": "02ce728f",
			"whitelistDiscount(uint256)": "498cb7f4",
			"whitelistLevel(address)": "6263fc67"
		}
	},
	"abi": [
		{
			"anonymous": false,
			"inputs": [
				{
					"indexed": true,
					"internalType": "address",
					"name": "previousOwner",
					"type": "address"
				},
				{
					"indexed": true,
					"internalType": "address",
					"name": "newOwner",
					"type": "address"
				}
			],
			"name": "OwnershipTransferred",
			"type": "event"
		},
		{
			"inputs": [],
			"name": "FISH",
			"outputs": [
				{
					"internalType": "contract IFISH",
					"name": "",
					"type": "address"
				}
			],
			"stateMutability": "view",
			"type": "function"
		},
		{
			"inputs": [],
			"name": "FISHNFT",
			"outputs": [
				{
					"internalType": "contract IFISHNFT",
					"name": "",
					"type": "address"
				}
			],
			"stateMutability": "view",
			"type": "function"
		},
		{
			"inputs": [],
			"name": "Factory",
			"outputs": [
				{
					"internalType": "contract IUniswapV2Factory",
					"name": "",
					"type": "address"
				}
			],
			"stateMutability": "view",
			"type": "function"
		},
		{
			"inputs": [],
			"name": "PRECISION",
			"outputs": [
				{
					"internalType": "uint256",
					"name": "",
					"type": "uint256"
				}
			],
			"stateMutability": "view",
			"type": "function"
		},
		{
			"inputs": [],
			"name": "ROI",
			"outputs": [
				{
					"internalType": "uint256",
					"name": "",
					"type": "uint256"
				}
			],
			"stateMutability": "view",
			"type": "function"
		},
		{
			"inputs": [],
			"name": "Router",
			"outputs": [
				{
					"internalType": "contract IUniswapV2Router02",
					"name": "",
					"type": "address"
				}
			],
			"stateMutability": "view",
			"type": "function"
		},
		{
			"inputs": [],
			"name": "TargetROI",
			"outputs": [
				{
					"internalType": "uint256",
					"name": "",
					"type": "uint256"
				}
			],
			"stateMutability": "view",
			"type": "function"
		},
		{
			"inputs": [],
			"name": "USDC",
			"outputs": [
				{
					"internalType": "contract IERC20Upgradeable",
					"name": "",
					"type": "address"
				}
			],
			"stateMutability": "view",
			"type": "function"
		},
		{
			"inputs": [],
			"name": "addLiquidityOpen",
			"outputs": [
				{
					"internalType": "bool",
					"name": "",
					"type": "bool"
				}
			],
			"stateMutability": "view",
			"type": "function"
		},
		{
			"inputs": [
				{
					"internalType": "uint256",
					"name": "_amt",
					"type": "uint256"
				}
			],
			"name": "buyNft",
			"outputs": [
				{
					"internalType": "bool",
					"name": "",
					"type": "bool"
				}
			],
			"stateMutability": "nonpayable",
			"type": "function"
		},
		{
			"inputs": [],
			"name": "dev",
			"outputs": [
				{
					"internalType": "address",
					"name": "",
					"type": "address"
				}
			],
			"stateMutability": "view",
			"type": "function"
		},
		{
			"inputs": [],
			"name": "direction",
			"outputs": [
				{
					"internalType": "uint256",
					"name": "",
					"type": "uint256"
				}
			],
			"stateMutability": "view",
			"type": "function"
		},
		{
			"inputs": [],
			"name": "exchangeRate",
			"outputs": [
				{
					"internalType": "uint256",
					"name": "",
					"type": "uint256"
				}
			],
			"stateMutability": "view",
			"type": "function"
		},
		{
			"inputs": [
				{
					"internalType": "contract IFISH",
					"name": "_FISH",
					"type": "address"
				},
				{
					"internalType": "contract IFISHNFT",
					"name": "_FISHNFT",
					"type": "address"
				},
				{
					"internalType": "contract IUniswapV2Factory",
					"name": "_Factory",
					"type": "address"
				},
				{
					"internalType": "contract IUniswapV2Router02",
					"name": "_Router",
					"type": "address"
				},
				{
					"internalType": "address",
					"name": "_multiSignature",
					"type": "address"
				},
				{
					"internalType": "address",
					"name": "_multiSignatureToSToken",
					"type": "address"
				},
				{
					"internalType": "address",
					"name": "_dev",
					"type": "address"
				},
				{
					"internalType": "address",
					"name": "_op",
					"type": "address"
				},
				{
					"internalType": "address",
					"name": "_sFISH",
					"type": "address"
				},
				{
					"internalType": "contract IOracle",
					"name": "_oracle",
					"type": "address"
				},
				{
					"internalType": "contract IERC20Upgradeable",
					"name": "_USDC",
					"type": "address"
				}
			],
			"name": "initialize",
			"outputs": [],
			"stateMutability": "nonpayable",
			"type": "function"
		},
		{
			"inputs": [],
			"name": "maxSellAmt",
			"outputs": [
				{
					"internalType": "uint256",
					"name": "",
					"type": "uint256"
				}
			],
			"stateMutability": "view",
			"type": "function"
		},
		{
			"inputs": [],
			"name": "multiSignature",
			"outputs": [
				{
					"internalType": "address",
					"name": "",
					"type": "address"
				}
			],
			"stateMutability": "view",
			"type": "function"
		},
		{
			"inputs": [],
			"name": "multiSignatureToSToken",
			"outputs": [
				{
					"internalType": "address",
					"name": "",
					"type": "address"
				}
			],
			"stateMutability": "view",
			"type": "function"
		},
		{
			"inputs": [],
			"name": "op",
			"outputs": [
				{
					"internalType": "address",
					"name": "",
					"type": "address"
				}
			],
			"stateMutability": "view",
			"type": "function"
		},
		{
			"inputs": [],
			"name": "oracle",
			"outputs": [
				{
					"internalType": "contract IOracle",
					"name": "",
					"type": "address"
				}
			],
			"stateMutability": "view",
			"type": "function"
		},
		{
			"inputs": [],
			"name": "oracleData",
			"outputs": [
				{
					"internalType": "bytes",
					"name": "",
					"type": "bytes"
				}
			],
			"stateMutability": "view",
			"type": "function"
		},
		{
			"inputs": [],
			"name": "owner",
			"outputs": [
				{
					"internalType": "address",
					"name": "",
					"type": "address"
				}
			],
			"stateMutability": "view",
			"type": "function"
		},
		{
			"inputs": [],
			"name": "peekSpot",
			"outputs": [
				{
					"internalType": "uint256",
					"name": "",
					"type": "uint256"
				}
			],
			"stateMutability": "view",
			"type": "function"
		},
		{
			"inputs": [],
			"name": "price",
			"outputs": [
				{
					"internalType": "uint256",
					"name": "",
					"type": "uint256"
				}
			],
			"stateMutability": "view",
			"type": "function"
		},
		{
			"inputs": [],
			"name": "renounceOwnership",
			"outputs": [],
			"stateMutability": "nonpayable",
			"type": "function"
		},
		{
			"inputs": [],
			"name": "sFISH",
			"outputs": [
				{
					"internalType": "address",
					"name": "",
					"type": "address"
				}
			],
			"stateMutability": "view",
			"type": "function"
		},
		{
			"inputs": [
				{
					"internalType": "bool",
					"name": "_bool",
					"type": "bool"
				}
			],
			"name": "setAddLiquidityOpen",
			"outputs": [
				{
					"internalType": "bool",
					"name": "",
					"type": "bool"
				}
			],
			"stateMutability": "nonpayable",
			"type": "function"
		},
		{
			"inputs": [
				{
					"internalType": "address",
					"name": "_dev",
					"type": "address"
				}
			],
			"name": "setDev",
			"outputs": [
				{
					"internalType": "bool",
					"name": "",
					"type": "bool"
				}
			],
			"stateMutability": "nonpayable",
			"type": "function"
		},
		{
			"inputs": [
				{
					"internalType": "uint256",
					"name": "_val",
					"type": "uint256"
				}
			],
			"name": "setDirection",
			"outputs": [
				{
					"internalType": "bool",
					"name": "",
					"type": "bool"
				}
			],
			"stateMutability": "nonpayable",
			"type": "function"
		},
		{
			"inputs": [
				{
					"internalType": "uint256",
					"name": "_val",
					"type": "uint256"
				}
			],
			"name": "setMaxSellAmt",
			"outputs": [
				{
					"internalType": "bool",
					"name": "",
					"type": "bool"
				}
			],
			"stateMutability": "nonpayable",
			"type": "function"
		},
		{
			"inputs": [
				{
					"internalType": "address",
					"name": "_multiSignature",
					"type": "address"
				}
			],
			"name": "setMultiSignature",
			"outputs": [
				{
					"internalType": "bool",
					"name": "",
					"type": "bool"
				}
			],
			"stateMutability": "nonpayable",
			"type": "function"
		},
		{
			"inputs": [
				{
					"internalType": "address",
					"name": "_multiSignatureToSToken",
					"type": "address"
				}
			],
			"name": "setMultiSignatureToSToken",
			"outputs": [
				{
					"internalType": "bool",
					"name": "",
					"type": "bool"
				}
			],
			"stateMutability": "nonpayable",
			"type": "function"
		},
		{
			"inputs": [
				{
					"internalType": "address",
					"name": "_op",
					"type": "address"
				}
			],
			"name": "setOp",
			"outputs": [
				{
					"internalType": "bool",
					"name": "",
					"type": "bool"
				}
			],
			"stateMutability": "nonpayable",
			"type": "function"
		},
		{
			"inputs": [
				{
					"internalType": "contract IOracle",
					"name": "_newOracle",
					"type": "address"
				},
				{
					"internalType": "bytes",
					"name": "_newOracleData",
					"type": "bytes"
				}
			],
			"name": "setOracle",
			"outputs": [
				{
					"internalType": "bool",
					"name": "",
					"type": "bool"
				}
			],
			"stateMutability": "nonpayable",
			"type": "function"
		},
		{
			"inputs": [
				{
					"internalType": "uint256",
					"name": "_val",
					"type": "uint256"
				}
			],
			"name": "setPrice",
			"outputs": [
				{
					"internalType": "bool",
					"name": "",
					"type": "bool"
				}
			],
			"stateMutability": "nonpayable",
			"type": "function"
		},
		{
			"inputs": [
				{
					"internalType": "uint256",
					"name": "_val",
					"type": "uint256"
				}
			],
			"name": "setROI",
			"outputs": [
				{
					"internalType": "bool",
					"name": "",
					"type": "bool"
				}
			],
			"stateMutability": "nonpayable",
			"type": "function"
		},
		{
			"inputs": [
				{
					"internalType": "bool",
					"name": "_bool",
					"type": "bool"
				}
			],
			"name": "setStateOpen",
			"outputs": [
				{
					"internalType": "bool",
					"name": "",
					"type": "bool"
				}
			],
			"stateMutability": "nonpayable",
			"type": "function"
		},
		{
			"inputs": [
				{
					"internalType": "uint256",
					"name": "_val",
					"type": "uint256"
				}
			],
			"name": "setStepSize",
			"outputs": [
				{
					"internalType": "bool",
					"name": "",
					"type": "bool"
				}
			],
			"stateMutability": "nonpayable",
			"type": "function"
		},
		{
			"inputs": [
				{
					"internalType": "uint256",
					"name": "_val",
					"type": "uint256"
				}
			],
			"name": "setTargetROI",
			"outputs": [
				{
					"internalType": "bool",
					"name": "",
					"type": "bool"
				}
			],
			"stateMutability": "nonpayable",
			"type": "function"
		},
		{
			"inputs": [
				{
					"internalType": "uint256",
					"name": "_toDevPec",
					"type": "uint256"
				}
			],
			"name": "setToDevPec",
			"outputs": [
				{
					"internalType": "bool",
					"name": "",
					"type": "bool"
				}
			],
			"stateMutability": "nonpayable",
			"type": "function"
		},
		{
			"inputs": [
				{
					"internalType": "uint256",
					"name": "_toLiquidityPec",
					"type": "uint256"
				}
			],
			"name": "setToLiquidityPec",
			"outputs": [
				{
					"internalType": "bool",
					"name": "",
					"type": "bool"
				}
			],
			"stateMutability": "nonpayable",
			"type": "function"
		},
		{
			"inputs": [
				{
					"internalType": "uint256",
					"name": "_toOpPec",
					"type": "uint256"
				}
			],
			"name": "setToOpPec",
			"outputs": [
				{
					"internalType": "bool",
					"name": "",
					"type": "bool"
				}
			],
			"stateMutability": "nonpayable",
			"type": "function"
		},
		{
			"inputs": [
				{
					"internalType": "uint256",
					"name": "_val",
					"type": "uint256"
				},
				{
					"internalType": "uint256",
					"name": "_lev",
					"type": "uint256"
				}
			],
			"name": "setWhitelistDiscount",
			"outputs": [
				{
					"internalType": "bool",
					"name": "",
					"type": "bool"
				}
			],
			"stateMutability": "nonpayable",
			"type": "function"
		},
		{
			"inputs": [
				{
					"internalType": "address",
					"name": "_user",
					"type": "address"
				},
				{
					"internalType": "uint256",
					"name": "_lev",
					"type": "uint256"
				}
			],
			"name": "setWhitelistLevel",
			"outputs": [
				{
					"internalType": "bool",
					"name": "",
					"type": "bool"
				}
			],
			"stateMutability": "nonpayable",
			"type": "function"
		},
		{
			"inputs": [],
			"name": "stateOpen",
			"outputs": [
				{
					"internalType": "bool",
					"name": "",
					"type": "bool"
				}
			],
			"stateMutability": "view",
			"type": "function"
		},
		{
			"inputs": [],
			"name": "stepSize",
			"outputs": [
				{
					"internalType": "uint256",
					"name": "",
					"type": "uint256"
				}
			],
			"stateMutability": "view",
			"type": "function"
		},
		{
			"inputs": [],
			"name": "toDevPec",
			"outputs": [
				{
					"internalType": "uint256",
					"name": "",
					"type": "uint256"
				}
			],
			"stateMutability": "view",
			"type": "function"
		},
		{
			"inputs": [],
			"name": "toLiquidityPec",
			"outputs": [
				{
					"internalType": "uint256",
					"name": "",
					"type": "uint256"
				}
			],
			"stateMutability": "view",
			"type": "function"
		},
		{
			"inputs": [],
			"name": "toOpPec",
			"outputs": [
				{
					"internalType": "uint256",
					"name": "",
					"type": "uint256"
				}
			],
			"stateMutability": "view",
			"type": "function"
		},
		{
			"inputs": [
				{
					"internalType": "address",
					"name": "newOwner",
					"type": "address"
				}
			],
			"name": "transferOwnership",
			"outputs": [],
			"stateMutability": "nonpayable",
			"type": "function"
		},
		{
			"inputs": [],
			"name": "updateExchangeRate",
			"outputs": [
				{
					"internalType": "bool",
					"name": "updated",
					"type": "bool"
				},
				{
					"internalType": "uint256",
					"name": "rate",
					"type": "uint256"
				}
			],
			"stateMutability": "nonpayable",
			"type": "function"
		},
		{
			"inputs": [
				{
					"internalType": "uint256",
					"name": "",
					"type": "uint256"
				}
			],
			"name": "whitelistDiscount",
			"outputs": [
				{
					"internalType": "uint256",
					"name": "",
					"type": "uint256"
				}
			],
			"stateMutability": "view",
			"type": "function"
		},
		{
			"inputs": [
				{
					"internalType": "address",
					"name": "",
					"type": "address"
				}
			],
			"name": "whitelistLevel",
			"outputs": [
				{
					"internalType": "uint256",
					"name": "",
					"type": "uint256"
				}
			],
			"stateMutability": "view",
			"type": "function"
		}
	]
}