{
  "_format": "hh-sol-artifact-1",
  "contractName": "FishNft",
  "sourceName": "contracts/FishNft.sol",
  "abi": [
    {
      "anonymous": false,
      "inputs": [
        {
          "indexed": true,
          "internalType": "address",
          "name": "owner",
          "type": "address"
        },
        {
          "indexed": true,
          "internalType": "address",
          "name": "approved",
          "type": "address"
        },
        {
          "indexed": true,
          "internalType": "uint256",
          "name": "tokenId",
          "type": "uint256"
        }
      ],
      "name": "Approval",
      "type": "event"
    },
    {
      "anonymous": false,
      "inputs": [
        {
          "indexed": true,
          "internalType": "address",
          "name": "owner",
          "type": "address"
        },
        {
          "indexed": true,
          "internalType": "address",
          "name": "operator",
          "type": "address"
        },
        {
          "indexed": false,
          "internalType": "bool",
          "name": "approved",
          "type": "bool"
        }
      ],
      "name": "ApprovalForAll",
      "type": "event"
    },
    {
      "anonymous": false,
      "inputs": [
        {
          "indexed": true,
          "internalType": "address",
          "name": "previousOwner",
          "type": "address"
        },
        {
          "indexed": true,
          "internalType": "address",
          "name": "newOwner",
          "type": "address"
        }
      ],
      "name": "OwnershipTransferred",
      "type": "event"
    },
    {
      "anonymous": false,
      "inputs": [
        {
          "indexed": true,
          "internalType": "address",
          "name": "from",
          "type": "address"
        },
        {
          "indexed": true,
          "internalType": "address",
          "name": "to",
          "type": "address"
        },
        {
          "indexed": true,
          "internalType": "uint256",
          "name": "tokenId",
          "type": "uint256"
        }
      ],
      "name": "Transfer",
      "type": "event"
    },
    {
      "inputs": [],
      "name": "FISH",
      "outputs": [
        {
          "internalType": "address",
          "name": "",
          "type": "address"
        }
      ],
      "stateMutability": "view",
      "type": "function"
    },
    {
      "inputs": [],
      "name": "_baseURI_",
      "outputs": [
        {
          "internalType": "string",
          "name": "",
          "type": "string"
        }
      ],
      "stateMutability": "view",
      "type": "function"
    },
    {
      "inputs": [
        {
          "internalType": "address",
          "name": "to",
          "type": "address"
        },
        {
          "internalType": "uint256",
          "name": "tokenId",
          "type": "uint256"
        }
      ],
      "name": "approve",
      "outputs": [],
      "stateMutability": "nonpayable",
      "type": "function"
    },
    {
      "inputs": [
        {
          "internalType": "address",
          "name": "owner",
          "type": "address"
        }
      ],
      "name": "balanceOf",
      "outputs": [
        {
          "internalType": "uint256",
          "name": "",
          "type": "uint256"
        }
      ],
      "stateMutability": "view",
      "type": "function"
    },
    {
      "inputs": [
        {
          "internalType": "uint256",
          "name": "_id",
          "type": "uint256"
        }
      ],
      "name": "burn",
      "outputs": [
        {
          "internalType": "bool",
          "name": "",
          "type": "bool"
        }
      ],
      "stateMutability": "nonpayable",
      "type": "function"
    },
    {
      "inputs": [
        {
          "internalType": "address",
          "name": "_user",
          "type": "address"
        },
        {
          "internalType": "uint256",
          "name": "_id",
          "type": "uint256"
        }
      ],
      "name": "burnFrom",
      "outputs": [
        {
          "internalType": "bool",
          "name": "",
          "type": "bool"
        }
      ],
      "stateMutability": "nonpayable",
      "type": "function"
    },
    {
      "inputs": [],
      "name": "claim",
      "outputs": [
        {
          "internalType": "bool",
          "name": "",
          "type": "bool"
        }
      ],
      "stateMutability": "nonpayable",
      "type": "function"
    },
    {
      "inputs": [
        {
          "internalType": "address",
          "name": "",
          "type": "address"
        }
      ],
      "name": "executor",
      "outputs": [
        {
          "internalType": "bool",
          "name": "",
          "type": "bool"
        }
      ],
      "stateMutability": "view",
      "type": "function"
    },
    {
      "inputs": [
        {
          "internalType": "uint256",
          "name": "tokenId",
          "type": "uint256"
        }
      ],
      "name": "getApproved",
      "outputs": [
        {
          "internalType": "address",
          "name": "",
          "type": "address"
        }
      ],
      "stateMutability": "view",
      "type": "function"
    },
    {
      "inputs": [
        {
          "internalType": "string",
          "name": "_name",
          "type": "string"
        },
        {
          "internalType": "string",
          "name": "_symbol",
          "type": "string"
        },
        {
          "internalType": "address",
          "name": "_FISH",
          "type": "address"
        }
      ],
      "name": "initialize",
      "outputs": [],
      "stateMutability": "nonpayable",
      "type": "function"
    },
    {
      "inputs": [
        {
          "internalType": "address",
          "name": "owner",
          "type": "address"
        },
        {
          "internalType": "address",
          "name": "operator",
          "type": "address"
        }
      ],
      "name": "isApprovedForAll",
      "outputs": [
        {
          "internalType": "bool",
          "name": "",
          "type": "bool"
        }
      ],
      "stateMutability": "view",
      "type": "function"
    },
    {
      "inputs": [],
      "name": "maxPreSale",
      "outputs": [
        {
          "internalType": "uint256",
          "name": "",
          "type": "uint256"
        }
      ],
      "stateMutability": "view",
      "type": "function"
    },
    {
      "inputs": [
        {
          "internalType": "address",
          "name": "_to",
          "type": "address"
        },
        {
          "internalType": "uint256",
          "name": "_seed",
          "type": "uint256"
        },
        {
          "internalType": "uint256",
          "name": "_remainingReward",
          "type": "uint256"
        }
      ],
      "name": "mintFromExecutor",
      "outputs": [
        {
          "internalType": "bool",
          "name": "",
          "type": "bool"
        }
      ],
      "stateMutability": "nonpayable",
      "type": "function"
    },
    {
      "inputs": [],
      "name": "name",
      "outputs": [
        {
          "internalType": "string",
          "name": "",
          "type": "string"
        }
      ],
      "stateMutability": "view",
      "type": "function"
    },
    {
      "inputs": [
        {
          "internalType": "uint256",
          "name": "_id",
          "type": "uint256"
        }
      ],
      "name": "nftInfo",
      "outputs": [
        {
          "components": [
            {
              "internalType": "string",
              "name": "fishStr",
              "type": "string"
            },
            {
              "internalType": "uint256",
              "name": "remainingReward",
              "type": "uint256"
            },
            {
              "internalType": "uint256",
              "name": "lv",
              "type": "uint256"
            },
            {
              "internalType": "uint256",
              "name": "random",
              "type": "uint256"
            }
          ],
          "internalType": "struct FishNft.NftInfo",
          "name": "",
          "type": "tuple"
        }
      ],
      "stateMutability": "view",
      "type": "function"
    },
    {
      "inputs": [],
      "name": "owner",
      "outputs": [
        {
          "internalType": "address",
          "name": "",
          "type": "address"
        }
      ],
      "stateMutability": "view",
      "type": "function"
    },
    {
      "inputs": [
        {
          "internalType": "uint256",
          "name": "tokenId",
          "type": "uint256"
        }
      ],
      "name": "ownerOf",
      "outputs": [
        {
          "internalType": "address",
          "name": "",
          "type": "address"
        }
      ],
      "stateMutability": "view",
      "type": "function"
    },
    {
      "inputs": [],
      "name": "pending",
      "outputs": [
        {
          "internalType": "uint256",
          "name": "",
          "type": "uint256"
        }
      ],
      "stateMutability": "view",
      "type": "function"
    },
    {
      "inputs": [],
      "name": "preSaleEnd",
      "outputs": [
        {
          "internalType": "uint256",
          "name": "",
          "type": "uint256"
        }
      ],
      "stateMutability": "view",
      "type": "function"
    },
    {
      "inputs": [
        {
          "internalType": "uint256",
          "name": "",
          "type": "uint256"
        }
      ],
      "name": "releaseCycle",
      "outputs": [
        {
          "internalType": "uint256",
          "name": "",
          "type": "uint256"
        }
      ],
      "stateMutability": "view",
      "type": "function"
    },
    {
      "inputs": [],
      "name": "renounceOwnership",
      "outputs": [],
      "stateMutability": "nonpayable",
      "type": "function"
    },
    {
      "inputs": [
        {
          "internalType": "address",
          "name": "from",
          "type": "address"
        },
        {
          "internalType": "address",
          "name": "to",
          "type": "address"
        },
        {
          "internalType": "uint256",
          "name": "tokenId",
          "type": "uint256"
        }
      ],
      "name": "safeTransferFrom",
      "outputs": [],
      "stateMutability": "nonpayable",
      "type": "function"
    },
    {
      "inputs": [
        {
          "internalType": "address",
          "name": "from",
          "type": "address"
        },
        {
          "internalType": "address",
          "name": "to",
          "type": "address"
        },
        {
          "internalType": "uint256",
          "name": "tokenId",
          "type": "uint256"
        },
        {
          "internalType": "bytes",
          "name": "_data",
          "type": "bytes"
        }
      ],
      "name": "safeTransferFrom",
      "outputs": [],
      "stateMutability": "nonpayable",
      "type": "function"
    },
    {
      "inputs": [
        {
          "internalType": "address",
          "name": "operator",
          "type": "address"
        },
        {
          "internalType": "bool",
          "name": "approved",
          "type": "bool"
        }
      ],
      "name": "setApprovalForAll",
      "outputs": [],
      "stateMutability": "nonpayable",
      "type": "function"
    },
    {
      "inputs": [
        {
          "internalType": "string",
          "name": "_str",
          "type": "string"
        }
      ],
      "name": "setBaseURI",
      "outputs": [
        {
          "internalType": "bool",
          "name": "",
          "type": "bool"
        }
      ],
      "stateMutability": "nonpayable",
      "type": "function"
    },
    {
      "inputs": [
        {
          "internalType": "address",
          "name": "_address",
          "type": "address"
        },
        {
          "internalType": "bool",
          "name": "_type",
          "type": "bool"
        }
      ],
      "name": "setExecutor",
      "outputs": [
        {
          "internalType": "bool",
          "name": "",
          "type": "bool"
        }
      ],
      "stateMutability": "nonpayable",
      "type": "function"
    },
    {
      "inputs": [
        {
          "internalType": "uint256",
          "name": "_val",
          "type": "uint256"
        }
      ],
      "name": "setMaxPreSale",
      "outputs": [
        {
          "internalType": "bool",
          "name": "",
          "type": "bool"
        }
      ],
      "stateMutability": "nonpayable",
      "type": "function"
    },
    {
      "inputs": [
        {
          "internalType": "uint256",
          "name": "i",
          "type": "uint256"
        },
        {
          "internalType": "string",
          "name": "str",
          "type": "string"
        },
        {
          "internalType": "uint256",
          "name": "_remainingReward",
          "type": "uint256"
        },
        {
          "internalType": "uint256",
          "name": "_lv",
          "type": "uint256"
        },
        {
          "internalType": "uint256",
          "name": "_random",
          "type": "uint256"
        }
      ],
      "name": "setNftInfo",
      "outputs": [
        {
          "internalType": "bool",
          "name": "",
          "type": "bool"
        }
      ],
      "stateMutability": "nonpayable",
      "type": "function"
    },
    {
      "inputs": [
        {
          "internalType": "uint256",
          "name": "_val",
          "type": "uint256"
        }
      ],
      "name": "setPreSaleEnd",
      "outputs": [
        {
          "internalType": "bool",
          "name": "",
          "type": "bool"
        }
      ],
      "stateMutability": "nonpayable",
      "type": "function"
    },
    {
      "inputs": [
        {
          "internalType": "uint256",
          "name": "_lv",
          "type": "uint256"
        },
        {
          "internalType": "uint256",
          "name": "_releaseSecond",
          "type": "uint256"
        }
      ],
      "name": "setReleaseCycle",
      "outputs": [
        {
          "internalType": "bool",
          "name": "",
          "type": "bool"
        }
      ],
      "stateMutability": "nonpayable",
      "type": "function"
    },
    {
      "inputs": [
        {
          "internalType": "bool",
          "name": "_bool",
          "type": "bool"
        }
      ],
      "name": "setStateOpen",
      "outputs": [
        {
          "internalType": "bool",
          "name": "",
          "type": "bool"
        }
      ],
      "stateMutability": "nonpayable",
      "type": "function"
    },
    {
      "inputs": [
        {
          "internalType": "address",
          "name": "_user",
          "type": "address"
        },
        {
          "internalType": "uint256",
          "name": "_lastClaimTimestamp",
          "type": "uint256"
        },
        {
          "internalType": "uint256",
          "name": "_releaseSecond",
          "type": "uint256"
        },
        {
          "internalType": "uint256",
          "name": "_claimble",
          "type": "uint256"
        }
      ],
      "name": "setUserInfo",
      "outputs": [
        {
          "internalType": "bool",
          "name": "",
          "type": "bool"
        }
      ],
      "stateMutability": "nonpayable",
      "type": "function"
    },
    {
      "inputs": [],
      "name": "stateOpen",
      "outputs": [
        {
          "internalType": "bool",
          "name": "",
          "type": "bool"
        }
      ],
      "stateMutability": "view",
      "type": "function"
    },
    {
      "inputs": [
        {
          "internalType": "bytes4",
          "name": "interfaceId",
          "type": "bytes4"
        }
      ],
      "name": "supportsInterface",
      "outputs": [
        {
          "internalType": "bool",
          "name": "",
          "type": "bool"
        }
      ],
      "stateMutability": "view",
      "type": "function"
    },
    {
      "inputs": [],
      "name": "symbol",
      "outputs": [
        {
          "internalType": "string",
          "name": "",
          "type": "string"
        }
      ],
      "stateMutability": "view",
      "type": "function"
    },
    {
      "inputs": [
        {
          "internalType": "uint256",
          "name": "index",
          "type": "uint256"
        }
      ],
      "name": "tokenByIndex",
      "outputs": [
        {
          "internalType": "uint256",
          "name": "",
          "type": "uint256"
        }
      ],
      "stateMutability": "view",
      "type": "function"
    },
    {
      "inputs": [],
      "name": "tokenIdIndex",
      "outputs": [
        {
          "internalType": "uint256",
          "name": "",
          "type": "uint256"
        }
      ],
      "stateMutability": "view",
      "type": "function"
    },
    {
      "inputs": [
        {
          "internalType": "address",
          "name": "owner",
          "type": "address"
        },
        {
          "internalType": "uint256",
          "name": "index",
          "type": "uint256"
        }
      ],
      "name": "tokenOfOwnerByIndex",
      "outputs": [
        {
          "internalType": "uint256",
          "name": "",
          "type": "uint256"
        }
      ],
      "stateMutability": "view",
      "type": "function"
    },
    {
      "inputs": [
        {
          "internalType": "uint256",
          "name": "tokenId",
          "type": "uint256"
        }
      ],
      "name": "tokenURI",
      "outputs": [
        {
          "internalType": "string",
          "name": "",
          "type": "string"
        }
      ],
      "stateMutability": "view",
      "type": "function"
    },
    {
      "inputs": [],
      "name": "totalSupply",
      "outputs": [
        {
          "internalType": "uint256",
          "name": "",
          "type": "uint256"
        }
      ],
      "stateMutability": "view",
      "type": "function"
    },
    {
      "inputs": [
        {
          "internalType": "address",
          "name": "from",
          "type": "address"
        },
        {
          "internalType": "address",
          "name": "to",
          "type": "address"
        },
        {
          "internalType": "uint256",
          "name": "tokenId",
          "type": "uint256"
        }
      ],
      "name": "transferFrom",
      "outputs": [],
      "stateMutability": "nonpayable",
      "type": "function"
    },
    {
      "inputs": [
        {
          "internalType": "address",
          "name": "newOwner",
          "type": "address"
        }
      ],
      "name": "transferOwnership",
      "outputs": [],
      "stateMutability": "nonpayable",
      "type": "function"
    },
    {
      "inputs": [
        {
          "internalType": "address",
          "name": "_user",
          "type": "address"
        }
      ],
      "name": "userInfo",
      "outputs": [
        {
          "components": [
            {
              "internalType": "uint256",
              "name": "lastClaimTimestamp",
              "type": "uint256"
            },
            {
              "internalType": "uint256",
              "name": "releaseSecond",
              "type": "uint256"
            },
            {
              "internalType": "uint256",
              "name": "claimble",
              "type": "uint256"
            }
          ],
          "internalType": "struct FishNft.UserInfo",
          "name": "",
          "type": "tuple"
        }
      ],
      "stateMutability": "view",
      "type": "function"
    }
  ],
  "bytecode": "0x608060405234801561001057600080fd5b506137f6806100206000396000f3fe608060405234801561001057600080fd5b50600436106102695760003560e01c80636352211e11610151578063a235c42a116100c3578063e20ccec311610087578063e20ccec314610564578063e770cbec1461056c578063e985e9c51461057f578063f2fde38b146105bb578063fad3f8f7146105ce578063ffcff32c146105d757600080fd5b8063a235c42a146104f7578063b88d4fde1461050a578063bcb231991461051d578063c87b56dd1461053e578063d405d32a1461055157600080fd5b8063799f6a7111610115578063799f6a711461049257806379cc6790146104a557806381221c14146104b85780638da5cb5b146104cb57806395d89b41146104dc578063a22cb465146104e457600080fd5b80636352211e146104515780636bc64e0f146104645780636d5a74111461046e57806370a0823114610477578063715018a61461048a57600080fd5b806323b872dd116101ea57806342966c68116101ae57806342966c68146103df57806348c7e528146103f25780634e71d92d146104155780634f6ccce71461041d57806355f804b3146104305780636043903d1461044357600080fd5b806323b872dd1461038b5780632ae299d81461039e5780632f745c59146103b15780633d8adfd0146103c457806342842e0e146103cc57600080fd5b806318160ddd1161023157806318160ddd146102fe5780631959a002146103105780631bcaf15c146103455780631e1bff3f146103585780631f8bc7901461036b57600080fd5b806301ffc9a71461026e57806306fdde0314610296578063077f224a146102ab578063081812fc146102c0578063095ea7b3146102eb575b600080fd5b61028161027c366004612e15565b6105ea565b60405190151581526020015b60405180910390f35b61029e610615565b60405161028d9190612e8a565b6102be6102b9366004612f60565b6106a7565b005b6102d36102ce366004612fd4565b6107f4565b6040516001600160a01b03909116815260200161028d565b6102be6102f9366004612fed565b610889565b6099545b60405190815260200161028d565b61032361031e366004613017565b61099f565b604080518251815260208084015190820152918101519082015260600161028d565b610281610353366004613032565b610a06565b610281610366366004613062565b610a4a565b61037e610379366004612fd4565b610aa6565b60405161028d9190613099565b6102be6103993660046130df565b610ba1565b6102816103ac36600461311b565b610bd2565b6103026103bf366004612fed565b610c18565b61029e610cae565b6102be6103da3660046130df565b610d3c565b6102816103ed366004612fd4565b610d57565b610281610400366004613017565b60fb6020526000908152604090205460ff1681565b610281610e24565b61030261042b366004612fd4565b610ff8565b61028161043e36600461317d565b61108b565b610101546102819060ff1681565b6102d361045f366004612fd4565b6110d6565b6103026101005481565b61030260fc5481565b610302610485366004613017565b61114d565b6102be6111d4565b6102816104a03660046131b2565b61120a565b6102816104b3366004612fed565b61128d565b6102816104c6366004612fd4565b611391565b60c9546001600160a01b03166102d3565b61029e6113c7565b6102be6104f2366004613062565b6113d6565b6102816105053660046131eb565b6113e5565b6102be610518366004613208565b61142a565b61030261052b366004612fd4565b6101026020526000908152604090205481565b61029e61054c366004612fd4565b61145c565b61028161055f366004613284565b61150f565b61030261159b565b61028161057a366004612fd4565b6115f7565b61028161058d3660046132b7565b6001600160a01b039182166000908152606a6020908152604080832093909416825291909152205460ff1690565b6102be6105c9366004613017565b61162e565b61030260ff5481565b60fe546102d3906001600160a01b031681565b60006001600160e01b0319821663780e9d6360e01b148061060f575061060f826116c9565b92915050565b606060658054610624906132ea565b80601f0160208091040260200160405190810160405280929190818152602001828054610650906132ea565b801561069d5780601f106106725761010080835404028352916020019161069d565b820191906000526020600020905b81548152906001019060200180831161068057829003601f168201915b5050505050905090565b600054610100900460ff16806106c0575060005460ff16155b6106e55760405162461bcd60e51b81526004016106dc90613325565b60405180910390fd5b600054610100900460ff16158015610707576000805461ffff19166101011790555b60fe80546001600160a01b0319166001600160a01b0384161790556103e860ff55610101805460ff1916905561073d8484611719565b6107456117a0565b33600090815260fb602090815260408220805460ff191660011790556101029052621275007f565a22c1af7fcc038f06206699a6bd0ad8c85d23dafe9aebac3e0df68e8fb32055620d2f007f902d1eb9cb7bf5a8087a0aabaf00b340029088a7a2af68d406d96c3be8e809b65560029052620697807f063d980b5c5548cb989f6490438b07e26341c13b66c4c5c44a5999177ff6207c5580156107ee576000805461ff00191690555b50505050565b6000818152606760205260408120546001600160a01b031661086d5760405162461bcd60e51b815260206004820152602c60248201527f4552433732313a20617070726f76656420717565727920666f72206e6f6e657860448201526b34b9ba32b73a103a37b5b2b760a11b60648201526084016106dc565b506000908152606960205260409020546001600160a01b031690565b6000610894826110d6565b9050806001600160a01b0316836001600160a01b031614156109025760405162461bcd60e51b815260206004820152602160248201527f4552433732313a20617070726f76616c20746f2063757272656e74206f776e656044820152603960f91b60648201526084016106dc565b336001600160a01b038216148061091e575061091e813361058d565b6109905760405162461bcd60e51b815260206004820152603860248201527f4552433732313a20617070726f76652063616c6c6572206973206e6f74206f7760448201527f6e6572206e6f7220617070726f76656420666f7220616c6c000000000000000060648201526084016106dc565b61099a838361181b565b505050565b6109c360405180606001604052806000815260200160008152602001600081525090565b506001600160a01b031660009081526101046020908152604091829020825160608101845281548152600182015492810192909252600201549181019190915290565b60c9546000906001600160a01b03163314610a335760405162461bcd60e51b81526004016106dc90613373565b506000918252610102602052604090912055600190565b60c9546000906001600160a01b03163314610a775760405162461bcd60e51b81526004016106dc90613373565b506001600160a01b038216600090815260fb60205260409020805482151560ff19909116179055600192915050565b610ad16040518060800160405280606081526020016000815260200160008152602001600081525090565b6000828152610103602052604090819020815160808101909252805482908290610afa906132ea565b80601f0160208091040260200160405190810160405280929190818152602001828054610b26906132ea565b8015610b735780601f10610b4857610100808354040283529160200191610b73565b820191906000526020600020905b815481529060010190602001808311610b5657829003601f168201915b5050505050815260200160018201548152602001600282015481526020016003820154815250509050919050565b610bab3382611889565b610bc75760405162461bcd60e51b81526004016106dc906133a8565b61099a83838361197c565b33600090815260fb602052604081205460ff16610c015760405162461bcd60e51b81526004016106dc906133f9565b610c0e8686868686611b27565b9695505050505050565b6000610c238361114d565b8210610c855760405162461bcd60e51b815260206004820152602b60248201527f455243373231456e756d657261626c653a206f776e657220696e646578206f7560448201526a74206f6620626f756e647360a81b60648201526084016106dc565b506001600160a01b03919091166000908152609760209081526040808320938352929052205490565b60fd8054610cbb906132ea565b80601f0160208091040260200160405190810160405280929190818152602001828054610ce7906132ea565b8015610d345780601f10610d0957610100808354040283529160200191610d34565b820191906000526020600020905b815481529060010190602001808311610d1757829003601f168201915b505050505081565b61099a8383836040518060200160405280600081525061142a565b6000610d62826110d6565b6001600160a01b0316336001600160a01b031614610db05760405162461bcd60e51b815260206004820152600b60248201526a139bc8185c1c1c9bdd995960aa1b60448201526064016106dc565b610db8611b9a565b50336000908152610104602090815260408083204281558584526101038084528285206002808201548752610102865293862054600180850191909155958890529352929091015490820154610e0d91611caa565b6002820155610e1b83611cbd565b50600192915050565b336000908152610104602052604081206002810154610e755760405162461bcd60e51b815260206004820152600d60248201526c0636c61696d626c65206973203609c1b60448201526064016106dc565b8054600090610e85904290611d64565b905081600101548110610f245760fe5460028301546040516340c10f1960e01b815233600482015260248101919091526001600160a01b03909116906340c10f19906044016020604051808303816000875af1158015610ee9573d6000803e3d6000fd5b505050506040513d601f19601f82011682018060405250810190610f0d919061343d565b504282556000600283018190556001830155610fef565b6000610f4b8360010154610f45856002015485611d7090919063ffffffff16565b90611d7c565b60fe546040516340c10f1960e01b8152336004820152602481018390529192506001600160a01b0316906340c10f19906044016020604051808303816000875af1158015610f9d573d6000803e3d6000fd5b505050506040513d601f19601f82011682018060405250810190610fc1919061343d565b504283556002830154610fd49082611d64565b60028401556001830154610fe89083611d64565b6001840155505b60019250505090565b600061100360995490565b82106110665760405162461bcd60e51b815260206004820152602c60248201527f455243373231456e756d657261626c653a20676c6f62616c20696e646578206f60448201526b7574206f6620626f756e647360a01b60648201526084016106dc565b609982815481106110795761107961345a565b90600052602060002001549050919050565b60c9546000906001600160a01b031633146110b85760405162461bcd60e51b81526004016106dc90613373565b81516110cb9060fd906020850190612d66565b50600190505b919050565b6000818152606760205260408120546001600160a01b03168061060f5760405162461bcd60e51b815260206004820152602960248201527f4552433732313a206f776e657220717565727920666f72206e6f6e657869737460448201526832b73a103a37b5b2b760b91b60648201526084016106dc565b60006001600160a01b0382166111b85760405162461bcd60e51b815260206004820152602a60248201527f4552433732313a2062616c616e636520717565727920666f7220746865207a65604482015269726f206164647265737360b01b60648201526084016106dc565b506001600160a01b031660009081526068602052604090205490565b60c9546001600160a01b031633146111fe5760405162461bcd60e51b81526004016106dc90613373565b6112086000611d88565b565b33600090815260fb602052604081205460ff166112395760405162461bcd60e51b81526004016106dc906133f9565b506040805160608101825284815260208082018581528284018581526001600160a01b038916600090815261010490935293909120915182555160018083019190915591516002909101555b949350505050565b33600090815260fb602052604081205460ff166112bc5760405162461bcd60e51b81526004016106dc906133f9565b6112c5826110d6565b6001600160a01b0316836001600160a01b0316146113135760405162461bcd60e51b815260206004820152600b60248201526a139bc8185c1c1c9bdd995960aa1b60448201526064016106dc565b61131b611b9a565b506001600160a01b038316600090815261010460209081526040808320428155858452610103808452828520600280820154875261010286529386205460018085019190915595889052935292909101549082015461137991611caa565b600282015561138783611cbd565b5060019392505050565b60c9546000906001600160a01b031633146113be5760405162461bcd60e51b81526004016106dc90613373565b5060ff55600190565b606060668054610624906132ea565b6113e1338383611dda565b5050565b60c9546000906001600160a01b031633146114125760405162461bcd60e51b81526004016106dc90613373565b50610101805460ff1916911515919091179055600190565b6114343383611889565b6114505760405162461bcd60e51b81526004016106dc906133a8565b6107ee84848484611ea9565b6000818152606760205260409020546060906001600160a01b03166114dd5760405162461bcd60e51b815260206004820152603160248201527f45524337323155524953746f726167653a2055524920717565727920666f72206044820152703737b732bc34b9ba32b73a103a37b5b2b760791b60648201526084016106dc565b60fd6114e883611edc565b6040516020016114f992919061348c565b6040516020818303038152906040529050919050565b33600090815260fb602052604081205460ff1661153e5760405162461bcd60e51b81526004016106dc906133f9565b33600090815260fb602052604090205460ff166115905760405162461bcd60e51b815260206004820152601060248201526f195e1958dd5d1bdc881b9bc819dbdbd960821b60448201526064016106dc565b611285848484611fda565b33600090815261010460205260408120805482906115ba904290611d64565b9050816001015481106115d1575060020154919050565b6115f08260010154610f45846002015484611d7090919063ffffffff16565b9250505090565b60c9546000906001600160a01b031633146116245760405162461bcd60e51b81526004016106dc90613373565b5061010055600190565b60c9546001600160a01b031633146116585760405162461bcd60e51b81526004016106dc90613373565b6001600160a01b0381166116bd5760405162461bcd60e51b815260206004820152602660248201527f4f776e61626c653a206e6577206f776e657220697320746865207a65726f206160448201526564647265737360d01b60648201526084016106dc565b6116c681611d88565b50565b60006001600160e01b031982166380ac58cd60e01b14806116fa57506001600160e01b03198216635b5e139f60e01b145b8061060f57506301ffc9a760e01b6001600160e01b031983161461060f565b600054610100900460ff1680611732575060005460ff16155b61174e5760405162461bcd60e51b81526004016106dc90613325565b600054610100900460ff16158015611770576000805461ffff19166101011790555b611778612262565b611780612262565b61178a83836122cc565b801561099a576000805461ff0019169055505050565b600054610100900460ff16806117b9575060005460ff16155b6117d55760405162461bcd60e51b81526004016106dc90613325565b600054610100900460ff161580156117f7576000805461ffff19166101011790555b6117ff612262565b611807612361565b80156116c6576000805461ff001916905550565b600081815260696020526040902080546001600160a01b0319166001600160a01b0384169081179091558190611850826110d6565b6001600160a01b03167f8c5be1e5ebec7d5bd14f71427d1e84f3dd0314c0f7b2291e5b200ac8c7c3b92560405160405180910390a45050565b6000818152606760205260408120546001600160a01b03166119025760405162461bcd60e51b815260206004820152602c60248201527f4552433732313a206f70657261746f7220717565727920666f72206e6f6e657860448201526b34b9ba32b73a103a37b5b2b760a11b60648201526084016106dc565b600061190d836110d6565b9050806001600160a01b0316846001600160a01b031614806119485750836001600160a01b031661193d846107f4565b6001600160a01b0316145b8061128557506001600160a01b038082166000908152606a602090815260408083209388168352929052205460ff16611285565b826001600160a01b031661198f826110d6565b6001600160a01b0316146119f75760405162461bcd60e51b815260206004820152602960248201527f4552433732313a207472616e73666572206f6620746f6b656e2074686174206960448201526839903737ba1037bbb760b91b60648201526084016106dc565b6001600160a01b038216611a595760405162461bcd60e51b8152602060048201526024808201527f4552433732313a207472616e7366657220746f20746865207a65726f206164646044820152637265737360e01b60648201526084016106dc565b611a648383836123c1565b611a6f60008261181b565b6001600160a01b0383166000908152606860205260408120805460019290611a98908490613549565b90915550506001600160a01b0382166000908152606860205260408120805460019290611ac6908490613560565b909155505060008181526067602052604080822080546001600160a01b0319166001600160a01b0386811691821790925591518493918716917fddf252ad1be2c89b69c2b068fc378daa952ba7f163c4a11628f55a4df523b3ef91a4505050565b6040805160808101825285815260208082018690528183018590526060820184905260008881526101038252928320825180519192611b6b92849290910190612d66565b506020820151816001015560408201518160020155606082015181600301559050506001905095945050505050565b6101015460009060ff16611bff5760405162461bcd60e51b815260206004820152602660248201527f506c65617365207761697420666f72207468652061677265656d656e7420746f604482015265081cdd185c9d60d21b60648201526084016106dc565b60995460ff54111580611c155750610100544210155b15611c205750600190565b60405162461bcd60e51b815260206004820152605360248201527f5468652073616c65732074696d6520686173206e6f7420656e646564206f722060448201527f74686520746f74616c537570706c79207175616e7469747920686173206e6f74606482015272081c995858da1959081d1a19481d185c99d95d606a1b608482015260a4016106dc565b6000611cb68284613560565b9392505050565b6000611cc8826110d6565b9050611cd6816000846123c1565b611ce160008361181b565b6001600160a01b0381166000908152606860205260408120805460019290611d0a908490613549565b909155505060008281526067602052604080822080546001600160a01b0319169055518391906001600160a01b038416907fddf252ad1be2c89b69c2b068fc378daa952ba7f163c4a11628f55a4df523b3ef908390a45050565b6000611cb68284613549565b6000611cb68284613578565b6000611cb682846135ad565b60c980546001600160a01b038381166001600160a01b0319831681179093556040519116919082907f8be0079c531659141344cd1fd0a4f28419497f9722a3daafe3b4186f6b6457e090600090a35050565b816001600160a01b0316836001600160a01b03161415611e3c5760405162461bcd60e51b815260206004820152601960248201527f4552433732313a20617070726f766520746f2063616c6c65720000000000000060448201526064016106dc565b6001600160a01b038381166000818152606a6020908152604080832094871680845294825291829020805460ff191686151590811790915591519182527f17307eab39ab6107e8899845ad3d59bd9653f200f220920489ca2b5937696c31910160405180910390a3505050565b611eb484848461197c565b611ec084848484612479565b6107ee5760405162461bcd60e51b81526004016106dc906135c1565b606081611f005750506040805180820190915260018152600360fc1b602082015290565b8160005b8115611f2a5780611f1481613613565b9150611f239050600a836135ad565b9150611f04565b60008167ffffffffffffffff811115611f4557611f45612e9d565b6040519080825280601f01601f191660200182016040528015611f6f576020820181803683370190505b5090505b841561128557611f84600183613549565b9150611f91600a8661362e565b611f9c906030613560565b60f81b818381518110611fb157611fb161345a565b60200101906001600160f81b031916908160001a905350611fd3600a866135ad565b9450611f73565b604080516101808101825260016101408201818152601f60fa1b610160840152825282518084018452818152602360f81b6020828101919091528084019190915283518085018552828152600560fb1b818301528385015283518085018552828152602960f81b81830152606084015283518085018552828152602160f81b81830152608084015283518085018552828152605d60f81b8183015260a084015283518085018552828152600960fa1b8183015260c084015283518085018552828152605b60f81b8183015260e084015283518085018552828152602b60f81b818301526101008401528351808501909452908352601360f91b908301526101208101919091526000908161210a6120f060995490565b6120fb876001613560565b6121059190613560565b612574565b9050600061212561211a60995490565b6120fb886002613560565b9050600061214061213560995490565b6120fb896003613560565b9050600061215b61215060995490565b6120fb8a6004613560565b9050600061217661216b60995490565b6120fb8b6005613560565b905060008686600a811061218c5761218c61345a565b60200201518786600a81106121a3576121a361345a565b60200201518886600a81106121ba576121ba61345a565b60200201518986600a81106121d1576121d161345a565b60200201518a86600a81106121e8576121e861345a565b6020020151604051602001612201959493929190613642565b6040516020818303038152906040529050600061221f60088c61263a565b9050600061223182600161271061265a565b9050600061223e8d6126df565b905061224d8e858e848661272c565b5060019e9d5050505050505050505050505050565b600054610100900460ff168061227b575060005460ff16155b6122975760405162461bcd60e51b81526004016106dc90613325565b600054610100900460ff16158015611807576000805461ffff191661010117905580156116c6576000805461ff001916905550565b600054610100900460ff16806122e5575060005460ff16155b6123015760405162461bcd60e51b81526004016106dc90613325565b600054610100900460ff16158015612323576000805461ffff19166101011790555b8251612336906065906020860190612d66565b50815161234a906066906020850190612d66565b50801561099a576000805461ff0019169055505050565b600054610100900460ff168061237a575060005460ff16155b6123965760405162461bcd60e51b81526004016106dc90613325565b600054610100900460ff161580156123b8576000805461ffff19166101011790555b61180733611d88565b6001600160a01b03831661241c5761241781609980546000838152609a60205260408120829055600182018355919091527f72a152ddfb8e864297c917af52ea6c1c68aead0fee1a62673fcc7e0c94979d000155565b61243f565b816001600160a01b0316836001600160a01b03161461243f5761243f8382612767565b6001600160a01b0382166124565761099a81612804565b826001600160a01b0316826001600160a01b03161461099a5761099a82826128b3565b60006001600160a01b0384163b1561256c57604051630a85bd0160e11b81526001600160a01b0385169063150b7a02906124bd9033908990889088906004016136da565b6020604051808303816000875af19250505080156124f8575060408051601f3d908101601f191682019092526124f59181019061370d565b60015b612552573d808015612526576040519150601f19603f3d011682016040523d82523d6000602084013e61252b565b606091505b50805161254a5760405162461bcd60e51b81526004016106dc906135c1565b805181602001fd5b6001600160e01b031916630a85bd0160e11b149050611285565b506001611285565b600080612582600a8461263a565b90506000612593826001606461265a565b9050600a81116125a65760009250612633565b601481116125b75760019250612633565b601e81116125c85760029250612633565b602881116125d95760039250612633565b603281116125ea5760049250612633565b603c81116125fb5760059250612633565b6046811161260c5760069250612633565b6050811161261d5760079250612633565b605a811161262e5760089250612633565b600992505b5050919050565b6060611cb66126498443613549565b612654600143613549565b846128f7565b6000818313156126ac5760405162461bcd60e51b815260206004820181905260248201527f52616e646f6d2e756e69666f726d3a20696e76616c696420696e74657276616c60448201526064016106dc565b826126b7818461372a565b6126c2906001613769565b6126cb86612a81565b6126d5919061362e565b6112859190613769565b6000806126ed60038461263a565b905060006126fe826001606461265a565b9050603c81116127115760009250612633565b605a81116127225760019250612633565b5060029392505050565b600061273d60fc5486868686611b27565b5061274a8660fc54612bd0565b60fc54612758906001611caa565b60fc5550600195945050505050565b600060016127748461114d565b61277e9190613549565b6000838152609860205260409020549091508082146127d1576001600160a01b03841660009081526097602090815260408083208584528252808320548484528184208190558352609890915290208190555b5060009182526098602090815260408084208490556001600160a01b039094168352609781528383209183525290812055565b60995460009061281690600190613549565b6000838152609a60205260408120546099805493945090928490811061283e5761283e61345a565b90600052602060002001549050806099838154811061285f5761285f61345a565b6000918252602080832090910192909255828152609a90915260408082208490558582528120556099805480612897576128976137aa565b6001900381819060005260206000200160009055905550505050565b60006128be8361114d565b6001600160a01b039093166000908152609760209081526040808320868452825280832085905593825260989052919091209190915550565b606082612905600143613549565b101580156129135750838310155b61296b5760405162461bcd60e51b815260206004820152602360248201527f52616e646f6d2e696e69743a20696e76616c696420626c6f636b20696e7465726044820152621d985b60ea1b60648201526084016106dc565b60006129778585613549565b612982906002613560565b67ffffffffffffffff81111561299a5761299a612e9d565b6040519080825280602002602001820160405280156129c3578160200160208202803683370190505b506040805143602082015290810185905290915060009060600160405160208183030381529060405280519060200120905060005b612a028787613549565b8111612a7657612a128188613560565b604080519140602083015281018390526060016040516020818303038152906040528051906020012083826001612a499190613560565b81518110612a5957612a5961345a565b602090810291909101015280612a6e81613613565b9150506129f8565b509095945050505050565b60006001825111612ad45760405162461bcd60e51b815260206004820152601960248201527f52616e646f6d2e6e6578743a20696e76616c696420706f6f6c0000000000000060448201526064016106dc565b600060018351612ae49190613549565b83600081518110612af757612af761345a565b602002602001015160001c612b0c919061362e565b612b17906001613560565b90506000838281518110612b2d57612b2d61345a565b6020026020010151604051602001612b4791815260200190565b60405160208183030381529060405280519060200120905083600081518110612b7257612b7261345a565b602002602001015160001c6001612b899190613560565b60001b84600081518110612b9f57612b9f61345a565b60200260200101818152505080848381518110612bbe57612bbe61345a565b60209081029190910101529392505050565b6113e1828260405180602001604052806000815250612bef8383612c18565b612bfc6000848484612479565b61099a5760405162461bcd60e51b81526004016106dc906135c1565b6001600160a01b038216612c6e5760405162461bcd60e51b815260206004820181905260248201527f4552433732313a206d696e7420746f20746865207a65726f206164647265737360448201526064016106dc565b6000818152606760205260409020546001600160a01b031615612cd35760405162461bcd60e51b815260206004820152601c60248201527f4552433732313a20746f6b656e20616c7265616479206d696e7465640000000060448201526064016106dc565b612cdf600083836123c1565b6001600160a01b0382166000908152606860205260408120805460019290612d08908490613560565b909155505060008181526067602052604080822080546001600160a01b0319166001600160a01b03861690811790915590518392907fddf252ad1be2c89b69c2b068fc378daa952ba7f163c4a11628f55a4df523b3ef908290a45050565b828054612d72906132ea565b90600052602060002090601f016020900481019282612d945760008555612dda565b82601f10612dad57805160ff1916838001178555612dda565b82800160010185558215612dda579182015b82811115612dda578251825591602001919060010190612dbf565b50612de6929150612dea565b5090565b5b80821115612de65760008155600101612deb565b6001600160e01b0319811681146116c657600080fd5b600060208284031215612e2757600080fd5b8135611cb681612dff565b60005b83811015612e4d578181015183820152602001612e35565b838111156107ee5750506000910152565b60008151808452612e76816020860160208601612e32565b601f01601f19169290920160200192915050565b602081526000611cb66020830184612e5e565b634e487b7160e01b600052604160045260246000fd5b600067ffffffffffffffff80841115612ece57612ece612e9d565b604051601f8501601f19908116603f01168101908282118183101715612ef657612ef6612e9d565b81604052809350858152868686011115612f0f57600080fd5b858560208301376000602087830101525050509392505050565b600082601f830112612f3a57600080fd5b611cb683833560208501612eb3565b80356001600160a01b03811681146110d157600080fd5b600080600060608486031215612f7557600080fd5b833567ffffffffffffffff80821115612f8d57600080fd5b612f9987838801612f29565b94506020860135915080821115612faf57600080fd5b50612fbc86828701612f29565b925050612fcb60408501612f49565b90509250925092565b600060208284031215612fe657600080fd5b5035919050565b6000806040838503121561300057600080fd5b61300983612f49565b946020939093013593505050565b60006020828403121561302957600080fd5b611cb682612f49565b6000806040838503121561304557600080fd5b50508035926020909101359150565b80151581146116c657600080fd5b6000806040838503121561307557600080fd5b61307e83612f49565b9150602083013561308e81613054565b809150509250929050565b6020815260008251608060208401526130b560a0840182612e5e565b90506020840151604084015260408401516060840152606084015160808401528091505092915050565b6000806000606084860312156130f457600080fd5b6130fd84612f49565b925061310b60208501612f49565b9150604084013590509250925092565b600080600080600060a0868803121561313357600080fd5b85359450602086013567ffffffffffffffff81111561315157600080fd5b61315d88828901612f29565b959895975050505060408401359360608101359360809091013592509050565b60006020828403121561318f57600080fd5b813567ffffffffffffffff8111156131a657600080fd5b61128584828501612f29565b600080600080608085870312156131c857600080fd5b6131d185612f49565b966020860135965060408601359560600135945092505050565b6000602082840312156131fd57600080fd5b8135611cb681613054565b6000806000806080858703121561321e57600080fd5b61322785612f49565b935061323560208601612f49565b925060408501359150606085013567ffffffffffffffff81111561325857600080fd5b8501601f8101871361326957600080fd5b61327887823560208401612eb3565b91505092959194509250565b60008060006060848603121561329957600080fd5b6132a284612f49565b95602085013595506040909401359392505050565b600080604083850312156132ca57600080fd5b6132d383612f49565b91506132e160208401612f49565b90509250929050565b600181811c908216806132fe57607f821691505b6020821081141561331f57634e487b7160e01b600052602260045260246000fd5b50919050565b6020808252602e908201527f496e697469616c697a61626c653a20636f6e747261637420697320616c72656160408201526d191e481a5b9a5d1a585b1a5e995960921b606082015260800190565b6020808252818101527f4f776e61626c653a2063616c6c6572206973206e6f7420746865206f776e6572604082015260600190565b60208082526031908201527f4552433732313a207472616e736665722063616c6c6572206973206e6f74206f6040820152701ddb995c881b9bdc88185c1c1c9bdd9959607a1b606082015260800190565b60208082526024908201527f6578656375746f723a2063616c6c6572206973206e6f742074686520657865636040820152633aba37b960e11b606082015260800190565b60006020828403121561344f57600080fd5b8151611cb681613054565b634e487b7160e01b600052603260045260246000fd5b60008151613482818560208601612e32565b9290920192915050565b600080845481600182811c9150808316806134a857607f831692505b60208084108214156134c857634e487b7160e01b86526022600452602486fd5b8180156134dc57600181146134ed5761351a565b60ff1986168952848901965061351a565b60008b81526020902060005b868110156135125781548b8201529085019083016134f9565b505084890196505b50505050505061352a8185613470565b95945050505050565b634e487b7160e01b600052601160045260246000fd5b60008282101561355b5761355b613533565b500390565b6000821982111561357357613573613533565b500190565b600081600019048311821515161561359257613592613533565b500290565b634e487b7160e01b600052601260045260246000fd5b6000826135bc576135bc613597565b500490565b60208082526032908201527f4552433732313a207472616e7366657220746f206e6f6e20455243373231526560408201527131b2b4bb32b91034b6b83632b6b2b73a32b960711b606082015260800190565b600060001982141561362757613627613533565b5060010190565b60008261363d5761363d613597565b500690565b600f60fa1b8152610c2b60f41b600182015260006003875161366a8183860160208c01612e32565b8751908401906136808184840160208c01612e32565b87519101906136958184840160208b01612e32565b86519101906136aa8184840160208a01612e32565b85519101906136bf8184840160208901612e32565b6238a26960ea1b910191820152600601979650505050505050565b6001600160a01b0385811682528416602082015260408101839052608060608201819052600090610c0e90830184612e5e565b60006020828403121561371f57600080fd5b8151611cb681612dff565b60008083128015600160ff1b85018412161561374857613748613533565b6001600160ff1b038401831381161561376357613763613533565b50500390565b600080821280156001600160ff1b038490038513161561378b5761378b613533565b600160ff1b83900384128116156137a4576137a4613533565b50500190565b634e487b7160e01b600052603160045260246000fdfea2646970667358221220c2588145842ff8a48427594964c62cc654550b695a5ab95b9937a68da423d5be64736f6c634300080c0033",
  "linkReferences": {},
  "deployedLinkReferences": {}
}